{
  "address": "0x9FC1d45139216f2F0433F853d67D83A301A373a9",
  "abi": [
    {
      "inputs": [
        {
          "internalType": "string",
          "name": "_title",
          "type": "string"
        }
      ],
      "stateMutability": "nonpayable",
      "type": "constructor"
    },
    {
      "anonymous": false,
      "inputs": [
        {
          "indexed": true,
          "internalType": "address",
          "name": "previousOwner",
          "type": "address"
        },
        {
          "indexed": true,
          "internalType": "address",
          "name": "newOwner",
          "type": "address"
        }
      ],
      "name": "OwnershipTransferred",
      "type": "event"
    },
    {
      "anonymous": false,
      "inputs": [
        {
          "components": [
            {
              "internalType": "enum ILux.Type",
              "name": "kind",
              "type": "uint8"
            },
            {
              "internalType": "string",
              "name": "name",
              "type": "string"
            },
            {
              "components": [
                {
                  "internalType": "uint256",
                  "name": "amount",
                  "type": "uint256"
                },
                {
                  "internalType": "address",
                  "name": "currency",
                  "type": "address"
                },
                {
                  "internalType": "bool",
                  "name": "offline",
                  "type": "bool"
                }
              ],
              "internalType": "struct IMarket.Ask",
              "name": "ask",
              "type": "tuple"
            },
            {
              "internalType": "uint256",
              "name": "supply",
              "type": "uint256"
            },
            {
              "internalType": "uint256",
              "name": "timestamp",
              "type": "uint256"
            },
            {
              "internalType": "uint256",
              "name": "minted",
              "type": "uint256"
            },
            {
              "components": [
                {
                  "internalType": "string",
                  "name": "tokenURI",
                  "type": "string"
                },
                {
                  "internalType": "string",
                  "name": "metadataURI",
                  "type": "string"
                },
                {
                  "internalType": "bytes32",
                  "name": "contentHash",
                  "type": "bytes32"
                },
                {
                  "internalType": "bytes32",
                  "name": "metadataHash",
                  "type": "bytes32"
                }
              ],
              "internalType": "struct IMedia.MediaData",
              "name": "data",
              "type": "tuple"
            },
            {
              "components": [
                {
                  "components": [
                    {
                      "internalType": "uint256",
                      "name": "value",
                      "type": "uint256"
                    }
                  ],
                  "internalType": "struct Decimal.D256",
                  "name": "prevOwner",
                  "type": "tuple"
                },
                {
                  "components": [
                    {
                      "internalType": "uint256",
                      "name": "value",
                      "type": "uint256"
                    }
                  ],
                  "internalType": "struct Decimal.D256",
                  "name": "creator",
                  "type": "tuple"
                },
                {
                  "components": [
                    {
                      "internalType": "uint256",
                      "name": "value",
                      "type": "uint256"
                    }
                  ],
                  "internalType": "struct Decimal.D256",
                  "name": "owner",
                  "type": "tuple"
                }
              ],
              "internalType": "struct IMarket.BidShares",
              "name": "bidShares",
              "type": "tuple"
            }
          ],
          "indexed": false,
          "internalType": "struct IDrop.TokenType",
          "name": "tokenType",
          "type": "tuple"
        }
      ],
      "name": "TokenTypeAdded",
      "type": "event"
    },
    {
      "anonymous": false,
      "inputs": [
        {
          "indexed": false,
          "internalType": "string",
          "name": "name",
          "type": "string"
        },
        {
          "components": [
            {
              "internalType": "uint256",
              "name": "amount",
              "type": "uint256"
            },
            {
              "internalType": "address",
              "name": "currency",
              "type": "address"
            },
            {
              "internalType": "bool",
              "name": "offline",
              "type": "bool"
            }
          ],
          "indexed": false,
          "internalType": "struct IMarket.Ask",
          "name": "ask",
          "type": "tuple"
        }
      ],
      "name": "TokenTypeAskUpdated",
      "type": "event"
    },
    {
      "inputs": [],
      "name": "appAddress",
      "outputs": [
        {
          "internalType": "address",
          "name": "",
          "type": "address"
        }
      ],
      "stateMutability": "view",
      "type": "function"
    },
    {
      "inputs": [
        {
          "internalType": "address",
          "name": "_appAddress",
          "type": "address"
        }
      ],
      "name": "configure",
      "outputs": [],
      "stateMutability": "nonpayable",
      "type": "function"
    },
    {
      "inputs": [
        {
          "internalType": "string",
          "name": "name",
          "type": "string"
        }
      ],
      "name": "getTokenType",
      "outputs": [
        {
          "components": [
            {
              "internalType": "enum ILux.Type",
              "name": "kind",
              "type": "uint8"
            },
            {
              "internalType": "string",
              "name": "name",
              "type": "string"
            },
            {
              "components": [
                {
                  "internalType": "uint256",
                  "name": "amount",
                  "type": "uint256"
                },
                {
                  "internalType": "address",
                  "name": "currency",
                  "type": "address"
                },
                {
                  "internalType": "bool",
                  "name": "offline",
                  "type": "bool"
                }
              ],
              "internalType": "struct IMarket.Ask",
              "name": "ask",
              "type": "tuple"
            },
            {
              "internalType": "uint256",
              "name": "supply",
              "type": "uint256"
            },
            {
              "internalType": "uint256",
              "name": "timestamp",
              "type": "uint256"
            },
            {
              "internalType": "uint256",
              "name": "minted",
              "type": "uint256"
            },
            {
              "components": [
                {
                  "internalType": "string",
                  "name": "tokenURI",
                  "type": "string"
                },
                {
                  "internalType": "string",
                  "name": "metadataURI",
                  "type": "string"
                },
                {
                  "internalType": "bytes32",
                  "name": "contentHash",
                  "type": "bytes32"
                },
                {
                  "internalType": "bytes32",
                  "name": "metadataHash",
                  "type": "bytes32"
                }
              ],
              "internalType": "struct IMedia.MediaData",
              "name": "data",
              "type": "tuple"
            },
            {
              "components": [
                {
                  "components": [
                    {
                      "internalType": "uint256",
                      "name": "value",
                      "type": "uint256"
                    }
                  ],
                  "internalType": "struct Decimal.D256",
                  "name": "prevOwner",
                  "type": "tuple"
                },
                {
                  "components": [
                    {
                      "internalType": "uint256",
                      "name": "value",
                      "type": "uint256"
                    }
                  ],
                  "internalType": "struct Decimal.D256",
                  "name": "creator",
                  "type": "tuple"
                },
                {
                  "components": [
                    {
                      "internalType": "uint256",
                      "name": "value",
                      "type": "uint256"
                    }
                  ],
                  "internalType": "struct Decimal.D256",
                  "name": "owner",
                  "type": "tuple"
                }
              ],
              "internalType": "struct IMarket.BidShares",
              "name": "bidShares",
              "type": "tuple"
            }
          ],
          "internalType": "struct IDrop.TokenType",
          "name": "",
          "type": "tuple"
        }
      ],
      "stateMutability": "view",
      "type": "function"
    },
    {
      "inputs": [],
      "name": "getTokenTypes",
      "outputs": [
        {
          "components": [
            {
              "internalType": "enum ILux.Type",
              "name": "kind",
              "type": "uint8"
            },
            {
              "internalType": "string",
              "name": "name",
              "type": "string"
            },
            {
              "components": [
                {
                  "internalType": "uint256",
                  "name": "amount",
                  "type": "uint256"
                },
                {
                  "internalType": "address",
                  "name": "currency",
                  "type": "address"
                },
                {
                  "internalType": "bool",
                  "name": "offline",
                  "type": "bool"
                }
              ],
              "internalType": "struct IMarket.Ask",
              "name": "ask",
              "type": "tuple"
            },
            {
              "internalType": "uint256",
              "name": "supply",
              "type": "uint256"
            },
            {
              "internalType": "uint256",
              "name": "timestamp",
              "type": "uint256"
            },
            {
              "internalType": "uint256",
              "name": "minted",
              "type": "uint256"
            },
            {
              "components": [
                {
                  "internalType": "string",
                  "name": "tokenURI",
                  "type": "string"
                },
                {
                  "internalType": "string",
                  "name": "metadataURI",
                  "type": "string"
                },
                {
                  "internalType": "bytes32",
                  "name": "contentHash",
                  "type": "bytes32"
                },
                {
                  "internalType": "bytes32",
                  "name": "metadataHash",
                  "type": "bytes32"
                }
              ],
              "internalType": "struct IMedia.MediaData",
              "name": "data",
              "type": "tuple"
            },
            {
              "components": [
                {
                  "components": [
                    {
                      "internalType": "uint256",
                      "name": "value",
                      "type": "uint256"
                    }
                  ],
                  "internalType": "struct Decimal.D256",
                  "name": "prevOwner",
                  "type": "tuple"
                },
                {
                  "components": [
                    {
                      "internalType": "uint256",
                      "name": "value",
                      "type": "uint256"
                    }
                  ],
                  "internalType": "struct Decimal.D256",
                  "name": "creator",
                  "type": "tuple"
                },
                {
                  "components": [
                    {
                      "internalType": "uint256",
                      "name": "value",
                      "type": "uint256"
                    }
                  ],
                  "internalType": "struct Decimal.D256",
                  "name": "owner",
                  "type": "tuple"
                }
              ],
              "internalType": "struct IMarket.BidShares",
              "name": "bidShares",
              "type": "tuple"
            }
          ],
          "internalType": "struct IDrop.TokenType[]",
          "name": "",
          "type": "tuple[]"
        }
      ],
      "stateMutability": "view",
      "type": "function"
    },
    {
      "inputs": [
        {
          "internalType": "string",
          "name": "name",
          "type": "string"
        }
      ],
      "name": "newNFT",
      "outputs": [
        {
          "components": [
            {
              "internalType": "enum ILux.Type",
              "name": "kind",
              "type": "uint8"
            },
            {
              "internalType": "string",
              "name": "name",
              "type": "string"
            },
            {
              "internalType": "uint256",
              "name": "id",
              "type": "uint256"
            },
            {
              "internalType": "uint256",
              "name": "timestamp",
              "type": "uint256"
            },
            {
              "components": [
                {
                  "internalType": "string",
                  "name": "tokenURI",
                  "type": "string"
                },
                {
                  "internalType": "string",
                  "name": "metadataURI",
                  "type": "string"
                },
                {
                  "internalType": "bytes32",
                  "name": "contentHash",
                  "type": "bytes32"
                },
                {
                  "internalType": "bytes32",
                  "name": "metadataHash",
                  "type": "bytes32"
                }
              ],
              "internalType": "struct IMedia.MediaData",
              "name": "data",
              "type": "tuple"
            },
            {
              "components": [
                {
                  "components": [
                    {
                      "internalType": "uint256",
                      "name": "value",
                      "type": "uint256"
                    }
                  ],
                  "internalType": "struct Decimal.D256",
                  "name": "prevOwner",
                  "type": "tuple"
                },
                {
                  "components": [
                    {
                      "internalType": "uint256",
                      "name": "value",
                      "type": "uint256"
                    }
                  ],
                  "internalType": "struct Decimal.D256",
                  "name": "creator",
                  "type": "tuple"
                },
                {
                  "components": [
                    {
                      "internalType": "uint256",
                      "name": "value",
                      "type": "uint256"
                    }
                  ],
                  "internalType": "struct Decimal.D256",
                  "name": "owner",
                  "type": "tuple"
                }
              ],
              "internalType": "struct IMarket.BidShares",
              "name": "bidShares",
              "type": "tuple"
            },
            {
              "components": [
                {
                  "internalType": "uint256",
                  "name": "tokenId",
                  "type": "uint256"
                },
                {
                  "internalType": "uint256",
                  "name": "dropId",
                  "type": "uint256"
                },
                {
                  "internalType": "bool",
                  "name": "burned",
                  "type": "bool"
                }
              ],
              "internalType": "struct ILux.Meta",
              "name": "meta",
              "type": "tuple"
            }
          ],
          "internalType": "struct ILux.Token",
          "name": "",
          "type": "tuple"
        }
      ],
      "stateMutability": "nonpayable",
      "type": "function"
    },
    {
      "inputs": [],
      "name": "owner",
      "outputs": [
        {
          "internalType": "address",
          "name": "",
          "type": "address"
        }
      ],
      "stateMutability": "view",
      "type": "function"
    },
    {
      "inputs": [],
      "name": "renounceOwnership",
      "outputs": [],
      "stateMutability": "nonpayable",
      "type": "function"
    },
    {
      "inputs": [
        {
          "internalType": "enum ILux.Type",
          "name": "kind",
          "type": "uint8"
        },
        {
          "internalType": "string",
          "name": "name",
          "type": "string"
        },
        {
          "components": [
            {
              "internalType": "uint256",
              "name": "amount",
              "type": "uint256"
            },
            {
              "internalType": "address",
              "name": "currency",
              "type": "address"
            },
            {
              "internalType": "bool",
              "name": "offline",
              "type": "bool"
            }
          ],
          "internalType": "struct IMarket.Ask",
          "name": "ask",
          "type": "tuple"
        },
        {
          "internalType": "uint256",
          "name": "supply",
          "type": "uint256"
        },
        {
          "internalType": "string",
          "name": "tokenURI",
          "type": "string"
        },
        {
          "internalType": "string",
          "name": "metadataURI",
          "type": "string"
        }
      ],
      "name": "setTokenType",
      "outputs": [
        {
          "components": [
            {
              "internalType": "enum ILux.Type",
              "name": "kind",
              "type": "uint8"
            },
            {
              "internalType": "string",
              "name": "name",
              "type": "string"
            },
            {
              "components": [
                {
                  "internalType": "uint256",
                  "name": "amount",
                  "type": "uint256"
                },
                {
                  "internalType": "address",
                  "name": "currency",
                  "type": "address"
                },
                {
                  "internalType": "bool",
                  "name": "offline",
                  "type": "bool"
                }
              ],
              "internalType": "struct IMarket.Ask",
              "name": "ask",
              "type": "tuple"
            },
            {
              "internalType": "uint256",
              "name": "supply",
              "type": "uint256"
            },
            {
              "internalType": "uint256",
              "name": "timestamp",
              "type": "uint256"
            },
            {
              "internalType": "uint256",
              "name": "minted",
              "type": "uint256"
            },
            {
              "components": [
                {
                  "internalType": "string",
                  "name": "tokenURI",
                  "type": "string"
                },
                {
                  "internalType": "string",
                  "name": "metadataURI",
                  "type": "string"
                },
                {
                  "internalType": "bytes32",
                  "name": "contentHash",
                  "type": "bytes32"
                },
                {
                  "internalType": "bytes32",
                  "name": "metadataHash",
                  "type": "bytes32"
                }
              ],
              "internalType": "struct IMedia.MediaData",
              "name": "data",
              "type": "tuple"
            },
            {
              "components": [
                {
                  "components": [
                    {
                      "internalType": "uint256",
                      "name": "value",
                      "type": "uint256"
                    }
                  ],
                  "internalType": "struct Decimal.D256",
                  "name": "prevOwner",
                  "type": "tuple"
                },
                {
                  "components": [
                    {
                      "internalType": "uint256",
                      "name": "value",
                      "type": "uint256"
                    }
                  ],
                  "internalType": "struct Decimal.D256",
                  "name": "creator",
                  "type": "tuple"
                },
                {
                  "components": [
                    {
                      "internalType": "uint256",
                      "name": "value",
                      "type": "uint256"
                    }
                  ],
                  "internalType": "struct Decimal.D256",
                  "name": "owner",
                  "type": "tuple"
                }
              ],
              "internalType": "struct IMarket.BidShares",
              "name": "bidShares",
              "type": "tuple"
            }
          ],
          "internalType": "struct IDrop.TokenType",
          "name": "",
          "type": "tuple"
        }
      ],
      "stateMutability": "nonpayable",
      "type": "function"
    },
    {
      "inputs": [
        {
          "internalType": "string",
          "name": "name",
          "type": "string"
        },
        {
          "components": [
            {
              "internalType": "uint256",
              "name": "amount",
              "type": "uint256"
            },
            {
              "internalType": "address",
              "name": "currency",
              "type": "address"
            },
            {
              "internalType": "bool",
              "name": "offline",
              "type": "bool"
            }
          ],
          "internalType": "struct IMarket.Ask",
          "name": "ask",
          "type": "tuple"
        }
      ],
      "name": "setTokenTypeAsk",
      "outputs": [],
      "stateMutability": "nonpayable",
      "type": "function"
    },
    {
      "inputs": [],
      "name": "title",
      "outputs": [
        {
          "internalType": "string",
          "name": "",
          "type": "string"
        }
      ],
      "stateMutability": "view",
      "type": "function"
    },
    {
      "inputs": [
        {
          "internalType": "uint256",
          "name": "",
          "type": "uint256"
        }
      ],
      "name": "tokenNames",
      "outputs": [
        {
          "internalType": "string",
          "name": "",
          "type": "string"
        }
      ],
      "stateMutability": "view",
      "type": "function"
    },
    {
      "inputs": [
        {
          "internalType": "string",
          "name": "name",
          "type": "string"
        }
      ],
      "name": "tokenSupply",
      "outputs": [
        {
          "internalType": "uint256",
          "name": "",
          "type": "uint256"
        }
      ],
      "stateMutability": "view",
      "type": "function"
    },
    {
      "inputs": [
        {
          "internalType": "string",
          "name": "name",
          "type": "string"
        }
      ],
      "name": "tokenTypeAsk",
      "outputs": [
        {
          "components": [
            {
              "internalType": "uint256",
              "name": "amount",
              "type": "uint256"
            },
            {
              "internalType": "address",
              "name": "currency",
              "type": "address"
            },
            {
              "internalType": "bool",
              "name": "offline",
              "type": "bool"
            }
          ],
          "internalType": "struct IMarket.Ask",
          "name": "",
          "type": "tuple"
        }
      ],
      "stateMutability": "view",
      "type": "function"
    },
    {
      "inputs": [
        {
          "internalType": "string",
          "name": "",
          "type": "string"
        }
      ],
      "name": "tokenTypes",
      "outputs": [
        {
          "internalType": "enum ILux.Type",
          "name": "kind",
          "type": "uint8"
        },
        {
          "internalType": "string",
          "name": "name",
          "type": "string"
        },
        {
          "components": [
            {
              "internalType": "uint256",
              "name": "amount",
              "type": "uint256"
            },
            {
              "internalType": "address",
              "name": "currency",
              "type": "address"
            },
            {
              "internalType": "bool",
              "name": "offline",
              "type": "bool"
            }
          ],
          "internalType": "struct IMarket.Ask",
          "name": "ask",
          "type": "tuple"
        },
        {
          "internalType": "uint256",
          "name": "supply",
          "type": "uint256"
        },
        {
          "internalType": "uint256",
          "name": "timestamp",
          "type": "uint256"
        },
        {
          "internalType": "uint256",
          "name": "minted",
          "type": "uint256"
        },
        {
          "components": [
            {
              "internalType": "string",
              "name": "tokenURI",
              "type": "string"
            },
            {
              "internalType": "string",
              "name": "metadataURI",
              "type": "string"
            },
            {
              "internalType": "bytes32",
              "name": "contentHash",
              "type": "bytes32"
            },
            {
              "internalType": "bytes32",
              "name": "metadataHash",
              "type": "bytes32"
            }
          ],
          "internalType": "struct IMedia.MediaData",
          "name": "data",
          "type": "tuple"
        },
        {
          "components": [
            {
              "components": [
                {
                  "internalType": "uint256",
                  "name": "value",
                  "type": "uint256"
                }
              ],
              "internalType": "struct Decimal.D256",
              "name": "prevOwner",
              "type": "tuple"
            },
            {
              "components": [
                {
                  "internalType": "uint256",
                  "name": "value",
                  "type": "uint256"
                }
              ],
              "internalType": "struct Decimal.D256",
              "name": "creator",
              "type": "tuple"
            },
            {
              "components": [
                {
                  "internalType": "uint256",
                  "name": "value",
                  "type": "uint256"
                }
              ],
              "internalType": "struct Decimal.D256",
              "name": "owner",
              "type": "tuple"
            }
          ],
          "internalType": "struct IMarket.BidShares",
          "name": "bidShares",
          "type": "tuple"
        }
      ],
      "stateMutability": "view",
      "type": "function"
    },
    {
      "inputs": [
        {
          "internalType": "string",
          "name": "name",
          "type": "string"
        }
      ],
      "name": "totalMinted",
      "outputs": [
        {
          "internalType": "uint256",
          "name": "",
          "type": "uint256"
        }
      ],
      "stateMutability": "view",
      "type": "function"
    },
    {
      "inputs": [
        {
          "internalType": "address",
          "name": "newOwner",
          "type": "address"
        }
      ],
      "name": "transferOwnership",
      "outputs": [],
      "stateMutability": "nonpayable",
      "type": "function"
    }
  ],
  "transactionHash": "0x748fe654237cad32b35aa55b07babcf985e164477bbb16406f0b2519546ffb74",
  "args": [
    "Gen 0"
  ],
  "solcInputHash": "6a925fdfd8b8a4be7e37a44d0461a591",
  "bytecode": "0x60806040523480156200001157600080fd5b506040516200267b3803806200267b833981016040819052620000349162000152565b6200003f336200005c565b805162000054906001906020840190620000ac565b50506200027b565b600080546001600160a01b038381166001600160a01b0319831681178455604051919092169283917f8be0079c531659141344cd1fd0a4f28419497f9722a3daafe3b4186f6b6457e09190a35050565b828054620000ba9062000228565b90600052602060002090601f016020900481019282620000de576000855562000129565b82601f10620000f957805160ff191683800117855562000129565b8280016001018555821562000129579182015b82811115620001295782518255916020019190600101906200010c565b50620001379291506200013b565b5090565b5b808211156200013757600081556001016200013c565b6000602080838503121562000165578182fd5b82516001600160401b03808211156200017c578384fd5b818501915085601f83011262000190578384fd5b815181811115620001a557620001a562000265565b604051601f8201601f19908116603f01168101908382118183101715620001d057620001d062000265565b816040528281528886848701011115620001e8578687fd5b8693505b828410156200020b5784840186015181850187015292850192620001ec565b828411156200021c57868684830101525b98975050505050505050565b600181811c908216806200023d57607f821691505b602082108114156200025f57634e487b7160e01b600052602260045260246000fd5b50919050565b634e487b7160e01b600052604160045260246000fd5b6123f0806200028b6000396000f3fe608060405234801561001057600080fd5b50600436106100d05760003560e01c806302696388146100d5578063310495ab146101055780634a79d50c146101255780635854c7921461012d5780636c1dbf1c1461014e5780636f592fc01461016e578063715018a61461018e57806375cb26721461019857806375f699f0146101ab5780638da5cb5b146101be57806391773120146101de578063c853a1d0146101f1578063e72132d714610206578063f1e879c614610219578063f2fde38b14610239578063f475871f1461024c575b600080fd5b6100e86100e3366004611d11565b61025f565b6040516100fc989796959493929190612035565b60405180910390f35b610118610113366004611d97565b6104e6565b6040516100fc91906120a8565b610118610592565b61014061013b366004611d11565b61059f565b6040519081526020016100fc565b61016161015c366004611d11565b6105b4565b6040516100fc9190612161565b61018161017c366004611d11565b61086d565b6040516100fc9190612140565b610196610888565b005b6101966101a6366004611c43565b6108c3565b6101406101b9366004611d11565b610914565b6101c6610929565b6040516001600160a01b0390911681526020016100fc565b6101966101ec366004611d4b565b610938565b6101f9610a03565b6040516100fc9190611fd4565b6002546101c6906001600160a01b031681565b61022c610227366004611c5d565b610ddf565b6040516100fc919061214e565b610196610247366004611c43565b611436565b61022c61025a366004611d11565b6114d6565b80516020818301810180516003825292820191909301209152805460018201805460ff90921692916102909061233e565b80601f01602080910402602001604051908101604052809291908181526020018280546102bc9061233e565b80156103095780601f106102de57610100808354040283529160200191610309565b820191906000526020600020905b8154815290600101906020018083116102ec57829003601f168201915b5050604080516060810182526002870154815260038701546001600160a01b0381166020830152600160a01b900460ff1615158183015260048701546005880154600689015484516080810190955260078a018054999a94999398509196509450919291908290829061037b9061233e565b80601f01602080910402602001604051908101604052809291908181526020018280546103a79061233e565b80156103f45780601f106103c9576101008083540402835291602001916103f4565b820191906000526020600020905b8154815290600101906020018083116103d757829003601f168201915b5050505050815260200160018201805461040d9061233e565b80601f01602080910402602001604051908101604052809291908181526020018280546104399061233e565b80156104865780601f1061045b57610100808354040283529160200191610486565b820191906000526020600020905b81548152906001019060200180831161046957829003601f168201915b505050918352505060028201546020808301919091526003909201546040918201528051608081018252600b85015460608201908152815281518084018352600c86015481528184015281519283018252600d9094015482528301529088565b600481815481106104f657600080fd5b9060005260206000200160009150905080546105119061233e565b80601f016020809104026020016040519081016040528092919081815260200182805461053d9061233e565b801561058a5780601f1061055f5761010080835404028352916020019161058a565b820191906000526020600020905b81548152906001019060200180831161056d57829003601f168201915b505050505081565b600180546105119061233e565b60006105aa826114d6565b6060015192915050565b6105bc611963565b6002546001600160a01b031633146106275760405162461bcd60e51b815260206004820152602360248201527f44726f703a204f6e6c79204170702063616e2063616c6c2074686973206d65746044820152621a1bd960ea1b60648201526084015b60405180910390fd5b6000610632836114d6565b905061063d8361059f565b1580610654575061064d8361059f565b8160a00151105b6106905760405162461bcd60e51b815260206004820152600d60248201526c4f7574206f6620746f6b656e7360981b604482015260640161061e565b60a081018051906106a082612373565b8152505080600382602001516040516106b99190611f1d565b90815260405190819003602001902081518154829060ff191660018360038111156106f457634e487b7160e01b600052602160045260246000fd5b0217905550602082810151805161071192600185019201906119c8565b506040828101518051600284015560208082015160038501805493909401511515600160a01b026001600160a81b03199093166001600160a01b039091161791909117909155606083015160048301556080830151600583015560a0830151600683015560c0830151805180519192600785019261079292849201906119c8565b5060208281015180516107ab92600185019201906119c8565b50604082810151600283015560609092015160039182015560e093840151805151600b850155602081015151600c85015582015151600d90930192909255805192830190528251829181111561081157634e487b7160e01b600052602160045260246000fd5b815260200182602001518152602001600081526020014281526020018260c0015181526020018260e00151815260200160405180606001604052806000815260200160008152602001600015158152508152509150505b919050565b610875611a4c565b61087e826114d6565b6040015192915050565b33610891610929565b6001600160a01b0316146108b75760405162461bcd60e51b815260040161061e9061210b565b6108c160006117d9565b565b336108cc610929565b6001600160a01b0316146108f25760405162461bcd60e51b815260040161061e9061210b565b600280546001600160a01b0319166001600160a01b0392909216919091179055565b600061091f826114d6565b60a0015192915050565b6000546001600160a01b031690565b33610941610929565b6001600160a01b0316146109675760405162461bcd60e51b815260040161061e9061210b565b806003836040516109789190611f1d565b90815260408051918290036020908101832084516002820155908401516003909101805494909201511515600160a01b026001600160a81b03199094166001600160a01b0390911617929092179091557fba45b975d745d3e7e543e42212204046c19d6d5b770446f8592b794d5ef67536906109f790849084906120e9565b60405180910390a15050565b6004546060906000906001600160401b03811115610a3157634e487b7160e01b600052604160045260246000fd5b604051908082528060200260200182016040528015610a6a57816020015b610a57611a6c565b815260200190600190039081610a4f5790505b50905060005b600454811015610dd957600360048281548110610a9d57634e487b7160e01b600052603260045260246000fd5b90600052602060002001604051610ab49190611f39565b9081526040805191829003602001822061010083019091528054829060ff166003811115610af257634e487b7160e01b600052602160045260246000fd5b6003811115610b1157634e487b7160e01b600052602160045260246000fd5b8152602001600182018054610b259061233e565b80601f0160208091040260200160405190810160405280929190818152602001828054610b519061233e565b8015610b9e5780601f10610b7357610100808354040283529160200191610b9e565b820191906000526020600020905b815481529060010190602001808311610b8157829003601f168201915b505050918352505060408051606080820183526002850154825260038501546001600160a01b038116602080850191909152600160a01b90910460ff161515838501528401919091526004840154828401526005840154908301526006830154608080840191909152815190810190915260078301805460a09093019282908290610c289061233e565b80601f0160208091040260200160405190810160405280929190818152602001828054610c549061233e565b8015610ca15780601f10610c7657610100808354040283529160200191610ca1565b820191906000526020600020905b815481529060010190602001808311610c8457829003601f168201915b50505050508152602001600182018054610cba9061233e565b80601f0160208091040260200160405190810160405280929190818152602001828054610ce69061233e565b8015610d335780601f10610d0857610100808354040283529160200191610d33565b820191906000526020600020905b815481529060010190602001808311610d1657829003601f168201915b505050918352505060028201546020808301919091526003909201546040918201529183528151608081018352600b85015460608201908152815282518083018452600c86015481528183015282518083018452600d909501548552918201939093529101528251839083908110610dbb57634e487b7160e01b600052603260045260246000fd5b60200260200101819052508080610dd190612373565b915050610a70565b50919050565b610de7611a6c565b33610df0610929565b6001600160a01b031614610e165760405162461bcd60e51b815260040161061e9061210b565b6000600387604051610e289190611f1d565b9081526040805191829003602001822061010083019091528054829060ff166003811115610e6657634e487b7160e01b600052602160045260246000fd5b6003811115610e8557634e487b7160e01b600052602160045260246000fd5b8152602001600182018054610e999061233e565b80601f0160208091040260200160405190810160405280929190818152602001828054610ec59061233e565b8015610f125780601f10610ee757610100808354040283529160200191610f12565b820191906000526020600020905b815481529060010190602001808311610ef557829003601f168201915b505050918352505060408051606080820183526002850154825260038501546001600160a01b038116602080850191909152600160a01b90910460ff161515838501528401919091526004840154828401526005840154908301526006830154608080840191909152815190810190915260078301805460a09093019282908290610f9c9061233e565b80601f0160208091040260200160405190810160405280929190818152602001828054610fc89061233e565b80156110155780601f10610fea57610100808354040283529160200191611015565b820191906000526020600020905b815481529060010190602001808311610ff857829003601f168201915b5050505050815260200160018201805461102e9061233e565b80601f016020809104026020016040519081016040528092919081815260200182805461105a9061233e565b80156110a75780601f1061107c576101008083540402835291602001916110a7565b820191906000526020600020905b81548152906001019060200180831161108a57829003601f168201915b505050918352505060028201546020808301919091526003909201546040918201529183528151608081018352600b850154606080830191825290825283518084018552600c87015481528284015283518084018552600d909601548652928101949094529190910191909152810151909150156111735760405162461bcd60e51b815260206004820152602360248201527f44726f703a20546f6b656e54797065206e616d6520616c72656164792065786960448201526273747360e81b606482015260840161061e565b61117b611a6c565b8089600381111561119c57634e487b7160e01b600052602160045260246000fd5b908160038111156111bd57634e487b7160e01b600052602160045260246000fd5b9052506020810188905260408101879052606081018690526111df8585611829565b60c08201526111ec61185d565b60e0820152426080820152604051819060039061120a908b90611f1d565b90815260405190819003602001902081518154829060ff1916600183600381111561124557634e487b7160e01b600052602160045260246000fd5b0217905550602082810151805161126292600185019201906119c8565b506040828101518051600284015560208082015160038501805493909401511515600160a01b026001600160a81b03199093166001600160a01b039091161791909117909155606083015160048301556080830151600583015560a0830151600683015560c083015180518051919260078501926112e392849201906119c8565b5060208281015180516112fc92600185019201906119c8565b50604082810151600283015560609092015160039091015560e09290920151805151600b83015560208082015151600c84015592015151600d9091015560048054600181018255600091909152895161137c927f8a35acfbc15ff81a39ae7d344fd709f28e8600b4aa8c65c6b64bfe7fe36bd19b909201918b01906119c8565b506113ba60405180604001604052806017815260200176223937b81d1020b23232b2103a37b5b2b7103a3cb8329d60491b81525082602001516118e6565b7fa65cdcf68986d5b23487732d0bb2c5d7d7d8e52a61054b9e8158f0925a88c0c9816040516113e9919061214e565b60405180910390a17fba45b975d745d3e7e543e42212204046c19d6d5b770446f8592b794d5ef6753688886040516114229291906120e9565b60405180910390a198975050505050505050565b3361143f610929565b6001600160a01b0316146114655760405162461bcd60e51b815260040161061e9061210b565b6001600160a01b0381166114ca5760405162461bcd60e51b815260206004820152602660248201527f4f776e61626c653a206e6577206f776e657220697320746865207a65726f206160448201526564647265737360d01b606482015260840161061e565b6114d3816117d9565b50565b6114de611a6c565b6003826040516114ee9190611f1d565b9081526040805191829003602001822061010083019091528054829060ff16600381111561152c57634e487b7160e01b600052602160045260246000fd5b600381111561154b57634e487b7160e01b600052602160045260246000fd5b815260200160018201805461155f9061233e565b80601f016020809104026020016040519081016040528092919081815260200182805461158b9061233e565b80156115d85780601f106115ad576101008083540402835291602001916115d8565b820191906000526020600020905b8154815290600101906020018083116115bb57829003601f168201915b505050918352505060408051606080820183526002850154825260038501546001600160a01b038116602080850191909152600160a01b90910460ff161515838501528401919091526004840154828401526005840154908301526006830154608080840191909152815190810190915260078301805460a090930192829082906116629061233e565b80601f016020809104026020016040519081016040528092919081815260200182805461168e9061233e565b80156116db5780601f106116b0576101008083540402835291602001916116db565b820191906000526020600020905b8154815290600101906020018083116116be57829003601f168201915b505050505081526020016001820180546116f49061233e565b80601f01602080910402602001604051908101604052809291908181526020018280546117209061233e565b801561176d5780601f106117425761010080835404028352916020019161176d565b820191906000526020600020905b81548152906001019060200180831161175057829003601f168201915b505050918352505060028201546020808301919091526003909201546040918201529183528151608081018352600b85015460608201908152815282518083018452600c86015481528183015282518083018452600d9095015485529182019390935291015292915050565b600080546001600160a01b038381166001600160a01b0319831681178455604051919092169283917f8be0079c531659141344cd1fd0a4f28419497f9722a3daafe3b4186f6b6457e09190a35050565b611831611abc565b506040805160808101825283815260208101839052600091810182905260608101919091525b92915050565b611865611ae3565b604080516080810190915280606081018061188d6118856012600a612247565b60009061192f565b815250815260200160405180602001604052806118b16012600a6118859190612247565b815250815260200160405180602001604052806118dd6012600a6118d59190612247565b60649061192f565b90529052919050565b61192b82826040516024016118fc9291906120bb565b60408051601f198184030181529190526020810180516001600160e01b0316634b5c427760e01b179052611942565b5050565b600061193b82846122ef565b9392505050565b80516a636f6e736f6c652e6c6f67602083016000808483855afa5050505050565b6040805160e081019091528060008152602001606081526020016000815260200160008152602001611993611abc565b81526020016119a0611ae3565b815260408051606081018252600080825260208281018290529282015291015290565b905290565b8280546119d49061233e565b90600052602060002090601f0160209004810192826119f65760008555611a3c565b82601f10611a0f57805160ff1916838001178555611a3c565b82800160010185558215611a3c579182015b82811115611a3c578251825591602001919060010190611a21565b50611a48929150611b10565b5090565b604080516060810182526000808252602082018190529181019190915290565b60408051610100810182526000815260606020820152908101611a8d611a4c565b8152602001600081526020016000815260200160008152602001611aaf611abc565b81526020016119c3611ae3565b60408051608081018252606080825260208201819052600092820183905281019190915290565b6040518060600160405280611af6611b25565b8152602001611b03611b25565b81526020016119c3611b25565b5b80821115611a485760008155600101611b11565b6040518060200160405280600081525090565b80356001600160a01b038116811461086857600080fd5b600082601f830112611b5f578081fd5b81356001600160401b0380821115611b7957611b796123a4565b604051601f8301601f19908116603f01168101908282118183101715611ba157611ba16123a4565b81604052838152866020858801011115611bb9578485fd5b8360208701602083013792830160200193909352509392505050565b600060608284031215611be6578081fd5b604051606081018181106001600160401b0382111715611c0857611c086123a4565b60405282358152905080611c1e60208401611b38565b602082015260408301358015158114611c3657600080fd5b6040919091015292915050565b600060208284031215611c54578081fd5b61193b82611b38565b6000806000806000806101008789031215611c76578182fd5b863560048110611c84578283fd5b955060208701356001600160401b0380821115611c9f578384fd5b611cab8a838b01611b4f565b9650611cba8a60408b01611bd5565b955060a0890135945060c0890135915080821115611cd6578384fd5b611ce28a838b01611b4f565b935060e0890135915080821115611cf7578283fd5b50611d0489828a01611b4f565b9150509295509295509295565b600060208284031215611d22578081fd5b81356001600160401b03811115611d37578182fd5b611d4384828501611b4f565b949350505050565b60008060808385031215611d5d578182fd5b82356001600160401b03811115611d72578283fd5b611d7e85828601611b4f565b925050611d8e8460208501611bd5565b90509250929050565b600060208284031215611da8578081fd5b5035919050565b60048110611dcd57634e487b7160e01b600052602160045260246000fd5b9052565b60008151808452611de981602086016020860161230e565b601f01601f19169290920160200192915050565b805182526020808201516001600160a01b0316908301526040908101511515910152565b8051518252602080820151519083015260409081015151910152565b6000815160808452611e526080850182611dd1565b905060208301518482036020860152611e6b8282611dd1565b91505060408301516040850152606083015160608501528091505092915050565b6000610180611e9c848451611daf565b6020830151816020860152611eb382860182611dd1565b9150506040830151611ec86040860182611dfd565b50606083015160a0850152608083015160c085015260a083015160e085015260c0830151848203610100860152611eff8282611e3d565b91505060e0830151611f15610120860182611e21565b509392505050565b60008251611f2f81846020870161230e565b9190910192915050565b600080835482600182811c915080831680611f5557607f831692505b6020808410821415611f7557634e487b7160e01b87526022600452602487fd5b818015611f895760018114611f9a57611fc6565b60ff19861689528489019650611fc6565b60008a815260209020885b86811015611fbe5781548b820152908501908301611fa5565b505084890196505b509498975050505050505050565b6000602080830181845280855180835260408601915060408160051b8701019250838701855b8281101561202857603f19888603018452612016858351611e8c565b94509285019290850190600101611ffa565b5092979650505050505050565b6000610180612044838c611daf565b8060208401526120568184018b611dd1565b9050612065604084018a611dfd565b8760a08401528660c08401528560e084015282810361010084015261208a8186611e3d565b91505061209b610120830184611e21565b9998505050505050505050565b60208152600061193b6020830184611dd1565b6040815260006120ce6040830185611dd1565b82810360208401526120e08185611dd1565b95945050505050565b6080815260006120fc6080830185611dd1565b905061193b6020830184611dfd565b6020808252818101527f4f776e61626c653a2063616c6c6572206973206e6f7420746865206f776e6572604082015260600190565b606081016118578284611dfd565b60208152600061193b6020830184611e8c565b60208152612173602082018351611daf565b60006020830151610160806040850152612191610180850183611dd1565b915060408501516060850152606085015160808501526080850151601f198584030160a08601526121c28382611e3d565b92505060a08501516121d760c0860182611e21565b5060c094909401518051610120850152602081015161014085015260400151151592909301919091525090565b600181815b8085111561223f5781600019048211156122255761222561238e565b8085161561223257918102915b93841c9390800290612209565b509250929050565b600061193b838360008261225d57506001611857565b8161226a57506000611857565b8160018114612280576002811461228a576122a6565b6001915050611857565b60ff84111561229b5761229b61238e565b50506001821b611857565b5060208310610133831016604e8410600b84101617156122c9575081810a611857565b6122d38383612204565b80600019048211156122e7576122e761238e565b029392505050565b60008160001904831182151516156123095761230961238e565b500290565b60005b83811015612329578181015183820152602001612311565b83811115612338576000848401525b50505050565b600181811c9082168061235257607f821691505b60208210811415610dd957634e487b7160e01b600052602260045260246000fd5b60006000198214156123875761238761238e565b5060010190565b634e487b7160e01b600052601160045260246000fd5b634e487b7160e01b600052604160045260246000fdfea2646970667358221220db9a2c9e1605804cf4d6546beacacf76f93e20f32c33d98889d32feebf6c44b264736f6c63430008040033",
  "libraries": {},
  "devdoc": {
    "kind": "dev",
    "methods": {
      "owner()": {
        "details": "Returns the address of the current owner."
      },
      "renounceOwnership()": {
        "details": "Leaves the contract without owner. It will not be possible to call `onlyOwner` functions anymore. Can only be called by the current owner. NOTE: Renouncing ownership will leave the contract without an owner, thereby removing any functionality that is only available to the owner."
      },
      "transferOwnership(address)": {
        "details": "Transfers ownership of the contract to a new account (`newOwner`). Can only be called by the current owner."
      }
    },
    "version": 1
  },
  "userdoc": {
    "kind": "user",
    "methods": {},
    "version": 1
  },
  "storageLayout": {
    "storage": [
      {
        "astId": 1104,
        "contract": "src/Drop.sol:Drop",
        "label": "_owner",
        "offset": 0,
        "slot": "0",
        "type": "t_address"
      },
      {
        "astId": 5463,
        "contract": "src/Drop.sol:Drop",
        "label": "title",
        "offset": 0,
        "slot": "1",
        "type": "t_string_storage"
      },
      {
        "astId": 5465,
        "contract": "src/Drop.sol:Drop",
        "label": "appAddress",
        "offset": 0,
        "slot": "2",
        "type": "t_address"
      },
      {
        "astId": 5470,
        "contract": "src/Drop.sol:Drop",
        "label": "tokenTypes",
        "offset": 0,
        "slot": "3",
        "type": "t_mapping(t_string_memory_ptr,t_struct(TokenType)18159_storage)"
      },
      {
        "astId": 5473,
        "contract": "src/Drop.sol:Drop",
        "label": "tokenNames",
        "offset": 0,
        "slot": "4",
        "type": "t_array(t_string_storage)dyn_storage"
      }
    ],
    "types": {
      "t_address": {
        "encoding": "inplace",
        "label": "address",
        "numberOfBytes": "20"
      },
      "t_array(t_string_storage)dyn_storage": {
        "base": "t_string_storage",
        "encoding": "dynamic_array",
        "label": "string[]",
        "numberOfBytes": "32"
      },
      "t_bool": {
        "encoding": "inplace",
        "label": "bool",
        "numberOfBytes": "1"
      },
      "t_bytes32": {
        "encoding": "inplace",
        "label": "bytes32",
        "numberOfBytes": "32"
      },
      "t_enum(Type)18226": {
        "encoding": "inplace",
        "label": "enum ILux.Type",
        "numberOfBytes": "1"
      },
      "t_mapping(t_string_memory_ptr,t_struct(TokenType)18159_storage)": {
        "encoding": "mapping",
        "key": "t_string_memory_ptr",
        "label": "mapping(string => struct IDrop.TokenType)",
        "numberOfBytes": "32",
        "value": "t_struct(TokenType)18159_storage"
      },
      "t_string_memory_ptr": {
        "encoding": "bytes",
        "label": "string",
        "numberOfBytes": "32"
      },
      "t_string_storage": {
        "encoding": "bytes",
        "label": "string",
        "numberOfBytes": "32"
      },
      "t_struct(Ask)18284_storage": {
        "encoding": "inplace",
        "label": "struct IMarket.Ask",
        "members": [
          {
            "astId": 18279,
            "contract": "src/Drop.sol:Drop",
            "label": "amount",
            "offset": 0,
            "slot": "0",
            "type": "t_uint256"
          },
          {
            "astId": 18281,
            "contract": "src/Drop.sol:Drop",
            "label": "currency",
            "offset": 0,
            "slot": "1",
            "type": "t_address"
          },
          {
            "astId": 18283,
            "contract": "src/Drop.sol:Drop",
            "label": "offline",
            "offset": 20,
            "slot": "1",
            "type": "t_bool"
          }
        ],
        "numberOfBytes": "64"
      },
      "t_struct(BidShares)18294_storage": {
        "encoding": "inplace",
        "label": "struct IMarket.BidShares",
        "members": [
          {
            "astId": 18287,
            "contract": "src/Drop.sol:Drop",
            "label": "prevOwner",
            "offset": 0,
            "slot": "0",
            "type": "t_struct(D256)5368_storage"
          },
          {
            "astId": 18290,
            "contract": "src/Drop.sol:Drop",
            "label": "creator",
            "offset": 0,
            "slot": "1",
            "type": "t_struct(D256)5368_storage"
          },
          {
            "astId": 18293,
            "contract": "src/Drop.sol:Drop",
            "label": "owner",
            "offset": 0,
            "slot": "2",
            "type": "t_struct(D256)5368_storage"
          }
        ],
        "numberOfBytes": "96"
      },
      "t_struct(D256)5368_storage": {
        "encoding": "inplace",
        "label": "struct Decimal.D256",
        "members": [
          {
            "astId": 5367,
            "contract": "src/Drop.sol:Drop",
            "label": "value",
            "offset": 0,
            "slot": "0",
            "type": "t_uint256"
          }
        ],
        "numberOfBytes": "32"
      },
      "t_struct(MediaData)18550_storage": {
        "encoding": "inplace",
        "label": "struct IMedia.MediaData",
        "members": [
          {
            "astId": 18543,
            "contract": "src/Drop.sol:Drop",
            "label": "tokenURI",
            "offset": 0,
            "slot": "0",
            "type": "t_string_storage"
          },
          {
            "astId": 18545,
            "contract": "src/Drop.sol:Drop",
            "label": "metadataURI",
            "offset": 0,
            "slot": "1",
            "type": "t_string_storage"
          },
          {
            "astId": 18547,
            "contract": "src/Drop.sol:Drop",
            "label": "contentHash",
            "offset": 0,
            "slot": "2",
            "type": "t_bytes32"
          },
          {
            "astId": 18549,
            "contract": "src/Drop.sol:Drop",
            "label": "metadataHash",
            "offset": 0,
            "slot": "3",
            "type": "t_bytes32"
          }
        ],
        "numberOfBytes": "128"
      },
      "t_struct(TokenType)18159_storage": {
        "encoding": "inplace",
        "label": "struct IDrop.TokenType",
        "members": [
          {
            "astId": 18141,
            "contract": "src/Drop.sol:Drop",
            "label": "kind",
            "offset": 0,
            "slot": "0",
            "type": "t_enum(Type)18226"
          },
          {
            "astId": 18143,
            "contract": "src/Drop.sol:Drop",
            "label": "name",
            "offset": 0,
            "slot": "1",
            "type": "t_string_storage"
          },
          {
            "astId": 18146,
            "contract": "src/Drop.sol:Drop",
            "label": "ask",
            "offset": 0,
            "slot": "2",
            "type": "t_struct(Ask)18284_storage"
          },
          {
            "astId": 18148,
            "contract": "src/Drop.sol:Drop",
            "label": "supply",
            "offset": 0,
            "slot": "4",
            "type": "t_uint256"
          },
          {
            "astId": 18150,
            "contract": "src/Drop.sol:Drop",
            "label": "timestamp",
            "offset": 0,
            "slot": "5",
            "type": "t_uint256"
          },
          {
            "astId": 18152,
            "contract": "src/Drop.sol:Drop",
            "label": "minted",
            "offset": 0,
            "slot": "6",
            "type": "t_uint256"
          },
          {
            "astId": 18155,
            "contract": "src/Drop.sol:Drop",
            "label": "data",
            "offset": 0,
            "slot": "7",
            "type": "t_struct(MediaData)18550_storage"
          },
          {
            "astId": 18158,
            "contract": "src/Drop.sol:Drop",
            "label": "bidShares",
            "offset": 0,
            "slot": "11",
            "type": "t_struct(BidShares)18294_storage"
          }
        ],
        "numberOfBytes": "448"
      },
      "t_uint256": {
        "encoding": "inplace",
        "label": "uint256",
        "numberOfBytes": "32"
      }
    }
  }
}