{
  "address": "0xeC0A98b3DBf91969c7F95C180776a4489086c70B",
  "abi": [
    {
      "anonymous": false,
      "inputs": [
        {
          "indexed": true,
          "internalType": "uint256",
          "name": "tokenId",
          "type": "uint256"
        },
        {
          "components": [
            {
              "internalType": "uint256",
              "name": "amount",
              "type": "uint256"
            },
            {
              "internalType": "address",
              "name": "currency",
              "type": "address"
            },
            {
              "internalType": "bool",
              "name": "offline",
              "type": "bool"
            }
          ],
          "indexed": false,
          "internalType": "struct IMarket.Ask",
          "name": "ask",
          "type": "tuple"
        }
      ],
      "name": "AskCreated",
      "type": "event"
    },
    {
      "anonymous": false,
      "inputs": [
        {
          "indexed": true,
          "internalType": "uint256",
          "name": "tokenId",
          "type": "uint256"
        },
        {
          "components": [
            {
              "internalType": "uint256",
              "name": "amount",
              "type": "uint256"
            },
            {
              "internalType": "address",
              "name": "currency",
              "type": "address"
            },
            {
              "internalType": "bool",
              "name": "offline",
              "type": "bool"
            }
          ],
          "indexed": false,
          "internalType": "struct IMarket.Ask",
          "name": "ask",
          "type": "tuple"
        }
      ],
      "name": "AskRemoved",
      "type": "event"
    },
    {
      "anonymous": false,
      "inputs": [
        {
          "indexed": true,
          "internalType": "uint256",
          "name": "tokenId",
          "type": "uint256"
        },
        {
          "components": [
            {
              "internalType": "uint256",
              "name": "amount",
              "type": "uint256"
            },
            {
              "internalType": "address",
              "name": "currency",
              "type": "address"
            },
            {
              "internalType": "address",
              "name": "bidder",
              "type": "address"
            },
            {
              "internalType": "address",
              "name": "recipient",
              "type": "address"
            },
            {
              "components": [
                {
                  "internalType": "uint256",
                  "name": "value",
                  "type": "uint256"
                }
              ],
              "internalType": "struct Decimal.D256",
              "name": "sellOnShare",
              "type": "tuple"
            },
            {
              "internalType": "bool",
              "name": "offline",
              "type": "bool"
            }
          ],
          "indexed": false,
          "internalType": "struct IMarket.Bid",
          "name": "bid",
          "type": "tuple"
        }
      ],
      "name": "BidCreated",
      "type": "event"
    },
    {
      "anonymous": false,
      "inputs": [
        {
          "indexed": true,
          "internalType": "uint256",
          "name": "tokenId",
          "type": "uint256"
        },
        {
          "components": [
            {
              "internalType": "uint256",
              "name": "amount",
              "type": "uint256"
            },
            {
              "internalType": "address",
              "name": "currency",
              "type": "address"
            },
            {
              "internalType": "address",
              "name": "bidder",
              "type": "address"
            },
            {
              "internalType": "address",
              "name": "recipient",
              "type": "address"
            },
            {
              "components": [
                {
                  "internalType": "uint256",
                  "name": "value",
                  "type": "uint256"
                }
              ],
              "internalType": "struct Decimal.D256",
              "name": "sellOnShare",
              "type": "tuple"
            },
            {
              "internalType": "bool",
              "name": "offline",
              "type": "bool"
            }
          ],
          "indexed": false,
          "internalType": "struct IMarket.Bid",
          "name": "bid",
          "type": "tuple"
        }
      ],
      "name": "BidFinalized",
      "type": "event"
    },
    {
      "anonymous": false,
      "inputs": [
        {
          "indexed": true,
          "internalType": "uint256",
          "name": "tokenId",
          "type": "uint256"
        },
        {
          "components": [
            {
              "internalType": "uint256",
              "name": "amount",
              "type": "uint256"
            },
            {
              "internalType": "address",
              "name": "currency",
              "type": "address"
            },
            {
              "internalType": "address",
              "name": "bidder",
              "type": "address"
            },
            {
              "internalType": "address",
              "name": "recipient",
              "type": "address"
            },
            {
              "components": [
                {
                  "internalType": "uint256",
                  "name": "value",
                  "type": "uint256"
                }
              ],
              "internalType": "struct Decimal.D256",
              "name": "sellOnShare",
              "type": "tuple"
            },
            {
              "internalType": "bool",
              "name": "offline",
              "type": "bool"
            }
          ],
          "indexed": false,
          "internalType": "struct IMarket.Bid",
          "name": "bid",
          "type": "tuple"
        }
      ],
      "name": "BidRemoved",
      "type": "event"
    },
    {
      "anonymous": false,
      "inputs": [
        {
          "indexed": true,
          "internalType": "uint256",
          "name": "tokenId",
          "type": "uint256"
        },
        {
          "components": [
            {
              "components": [
                {
                  "internalType": "uint256",
                  "name": "value",
                  "type": "uint256"
                }
              ],
              "internalType": "struct Decimal.D256",
              "name": "prevOwner",
              "type": "tuple"
            },
            {
              "components": [
                {
                  "internalType": "uint256",
                  "name": "value",
                  "type": "uint256"
                }
              ],
              "internalType": "struct Decimal.D256",
              "name": "creator",
              "type": "tuple"
            },
            {
              "components": [
                {
                  "internalType": "uint256",
                  "name": "value",
                  "type": "uint256"
                }
              ],
              "internalType": "struct Decimal.D256",
              "name": "owner",
              "type": "tuple"
            }
          ],
          "indexed": false,
          "internalType": "struct IMarket.BidShares",
          "name": "bidShares",
          "type": "tuple"
        }
      ],
      "name": "BidShareUpdated",
      "type": "event"
    },
    {
      "anonymous": false,
      "inputs": [
        {
          "indexed": false,
          "internalType": "uint256",
          "name": "dropId",
          "type": "uint256"
        },
        {
          "indexed": false,
          "internalType": "string",
          "name": "name",
          "type": "string"
        },
        {
          "components": [
            {
              "internalType": "uint256",
              "name": "amount",
              "type": "uint256"
            },
            {
              "internalType": "address",
              "name": "currency",
              "type": "address"
            },
            {
              "internalType": "address",
              "name": "bidder",
              "type": "address"
            },
            {
              "internalType": "address",
              "name": "recipient",
              "type": "address"
            },
            {
              "components": [
                {
                  "internalType": "uint256",
                  "name": "value",
                  "type": "uint256"
                }
              ],
              "internalType": "struct Decimal.D256",
              "name": "sellOnShare",
              "type": "tuple"
            },
            {
              "internalType": "bool",
              "name": "offline",
              "type": "bool"
            }
          ],
          "indexed": false,
          "internalType": "struct IMarket.Bid",
          "name": "bid",
          "type": "tuple"
        }
      ],
      "name": "LazyBidCreated",
      "type": "event"
    },
    {
      "anonymous": false,
      "inputs": [
        {
          "indexed": false,
          "internalType": "uint256",
          "name": "dropId",
          "type": "uint256"
        },
        {
          "indexed": false,
          "internalType": "string",
          "name": "name",
          "type": "string"
        },
        {
          "indexed": true,
          "internalType": "uint256",
          "name": "tokenId",
          "type": "uint256"
        },
        {
          "components": [
            {
              "internalType": "uint256",
              "name": "amount",
              "type": "uint256"
            },
            {
              "internalType": "address",
              "name": "currency",
              "type": "address"
            },
            {
              "internalType": "address",
              "name": "bidder",
              "type": "address"
            },
            {
              "internalType": "address",
              "name": "recipient",
              "type": "address"
            },
            {
              "components": [
                {
                  "internalType": "uint256",
                  "name": "value",
                  "type": "uint256"
                }
              ],
              "internalType": "struct Decimal.D256",
              "name": "sellOnShare",
              "type": "tuple"
            },
            {
              "internalType": "bool",
              "name": "offline",
              "type": "bool"
            }
          ],
          "indexed": false,
          "internalType": "struct IMarket.Bid",
          "name": "bid",
          "type": "tuple"
        }
      ],
      "name": "LazyBidFinalized",
      "type": "event"
    },
    {
      "anonymous": false,
      "inputs": [
        {
          "indexed": false,
          "internalType": "uint256",
          "name": "dropId",
          "type": "uint256"
        },
        {
          "indexed": false,
          "internalType": "string",
          "name": "name",
          "type": "string"
        },
        {
          "components": [
            {
              "internalType": "uint256",
              "name": "amount",
              "type": "uint256"
            },
            {
              "internalType": "address",
              "name": "currency",
              "type": "address"
            },
            {
              "internalType": "address",
              "name": "bidder",
              "type": "address"
            },
            {
              "internalType": "address",
              "name": "recipient",
              "type": "address"
            },
            {
              "components": [
                {
                  "internalType": "uint256",
                  "name": "value",
                  "type": "uint256"
                }
              ],
              "internalType": "struct Decimal.D256",
              "name": "sellOnShare",
              "type": "tuple"
            },
            {
              "internalType": "bool",
              "name": "offline",
              "type": "bool"
            }
          ],
          "indexed": false,
          "internalType": "struct IMarket.Bid",
          "name": "bid",
          "type": "tuple"
        }
      ],
      "name": "LazyBidRemoved",
      "type": "event"
    },
    {
      "anonymous": false,
      "inputs": [
        {
          "indexed": true,
          "internalType": "address",
          "name": "previousOwner",
          "type": "address"
        },
        {
          "indexed": true,
          "internalType": "address",
          "name": "newOwner",
          "type": "address"
        }
      ],
      "name": "OwnershipTransferred",
      "type": "event"
    },
    {
      "inputs": [
        {
          "internalType": "uint256",
          "name": "tokenId",
          "type": "uint256"
        },
        {
          "components": [
            {
              "internalType": "uint256",
              "name": "amount",
              "type": "uint256"
            },
            {
              "internalType": "address",
              "name": "currency",
              "type": "address"
            },
            {
              "internalType": "address",
              "name": "bidder",
              "type": "address"
            },
            {
              "internalType": "address",
              "name": "recipient",
              "type": "address"
            },
            {
              "components": [
                {
                  "internalType": "uint256",
                  "name": "value",
                  "type": "uint256"
                }
              ],
              "internalType": "struct Decimal.D256",
              "name": "sellOnShare",
              "type": "tuple"
            },
            {
              "internalType": "bool",
              "name": "offline",
              "type": "bool"
            }
          ],
          "internalType": "struct IMarket.Bid",
          "name": "expectedBid",
          "type": "tuple"
        }
      ],
      "name": "acceptBid",
      "outputs": [],
      "stateMutability": "nonpayable",
      "type": "function"
    },
    {
      "inputs": [
        {
          "internalType": "uint256",
          "name": "dropId",
          "type": "uint256"
        },
        {
          "components": [
            {
              "internalType": "enum ILux.Type",
              "name": "kind",
              "type": "uint8"
            },
            {
              "internalType": "string",
              "name": "name",
              "type": "string"
            },
            {
              "components": [
                {
                  "internalType": "uint256",
                  "name": "amount",
                  "type": "uint256"
                },
                {
                  "internalType": "address",
                  "name": "currency",
                  "type": "address"
                },
                {
                  "internalType": "bool",
                  "name": "offline",
                  "type": "bool"
                }
              ],
              "internalType": "struct IMarket.Ask",
              "name": "ask",
              "type": "tuple"
            },
            {
              "internalType": "uint256",
              "name": "supply",
              "type": "uint256"
            },
            {
              "internalType": "uint256",
              "name": "timestamp",
              "type": "uint256"
            },
            {
              "internalType": "uint256",
              "name": "minted",
              "type": "uint256"
            },
            {
              "components": [
                {
                  "internalType": "string",
                  "name": "tokenURI",
                  "type": "string"
                },
                {
                  "internalType": "string",
                  "name": "metadataURI",
                  "type": "string"
                },
                {
                  "internalType": "bytes32",
                  "name": "contentHash",
                  "type": "bytes32"
                },
                {
                  "internalType": "bytes32",
                  "name": "metadataHash",
                  "type": "bytes32"
                }
              ],
              "internalType": "struct IMedia.MediaData",
              "name": "data",
              "type": "tuple"
            },
            {
              "components": [
                {
                  "components": [
                    {
                      "internalType": "uint256",
                      "name": "value",
                      "type": "uint256"
                    }
                  ],
                  "internalType": "struct Decimal.D256",
                  "name": "prevOwner",
                  "type": "tuple"
                },
                {
                  "components": [
                    {
                      "internalType": "uint256",
                      "name": "value",
                      "type": "uint256"
                    }
                  ],
                  "internalType": "struct Decimal.D256",
                  "name": "creator",
                  "type": "tuple"
                },
                {
                  "components": [
                    {
                      "internalType": "uint256",
                      "name": "value",
                      "type": "uint256"
                    }
                  ],
                  "internalType": "struct Decimal.D256",
                  "name": "owner",
                  "type": "tuple"
                }
              ],
              "internalType": "struct IMarket.BidShares",
              "name": "bidShares",
              "type": "tuple"
            }
          ],
          "internalType": "struct IDrop.TokenType",
          "name": "tokenType",
          "type": "tuple"
        },
        {
          "components": [
            {
              "internalType": "enum ILux.Type",
              "name": "kind",
              "type": "uint8"
            },
            {
              "internalType": "string",
              "name": "name",
              "type": "string"
            },
            {
              "internalType": "uint256",
              "name": "id",
              "type": "uint256"
            },
            {
              "internalType": "uint256",
              "name": "timestamp",
              "type": "uint256"
            },
            {
              "components": [
                {
                  "internalType": "string",
                  "name": "tokenURI",
                  "type": "string"
                },
                {
                  "internalType": "string",
                  "name": "metadataURI",
                  "type": "string"
                },
                {
                  "internalType": "bytes32",
                  "name": "contentHash",
                  "type": "bytes32"
                },
                {
                  "internalType": "bytes32",
                  "name": "metadataHash",
                  "type": "bytes32"
                }
              ],
              "internalType": "struct IMedia.MediaData",
              "name": "data",
              "type": "tuple"
            },
            {
              "components": [
                {
                  "components": [
                    {
                      "internalType": "uint256",
                      "name": "value",
                      "type": "uint256"
                    }
                  ],
                  "internalType": "struct Decimal.D256",
                  "name": "prevOwner",
                  "type": "tuple"
                },
                {
                  "components": [
                    {
                      "internalType": "uint256",
                      "name": "value",
                      "type": "uint256"
                    }
                  ],
                  "internalType": "struct Decimal.D256",
                  "name": "creator",
                  "type": "tuple"
                },
                {
                  "components": [
                    {
                      "internalType": "uint256",
                      "name": "value",
                      "type": "uint256"
                    }
                  ],
                  "internalType": "struct Decimal.D256",
                  "name": "owner",
                  "type": "tuple"
                }
              ],
              "internalType": "struct IMarket.BidShares",
              "name": "bidShares",
              "type": "tuple"
            },
            {
              "components": [
                {
                  "internalType": "uint256",
                  "name": "tokenId",
                  "type": "uint256"
                },
                {
                  "internalType": "uint256",
                  "name": "dropId",
                  "type": "uint256"
                },
                {
                  "internalType": "bool",
                  "name": "burned",
                  "type": "bool"
                }
              ],
              "internalType": "struct ILux.Meta",
              "name": "meta",
              "type": "tuple"
            }
          ],
          "internalType": "struct ILux.Token",
          "name": "token",
          "type": "tuple"
        },
        {
          "components": [
            {
              "internalType": "uint256",
              "name": "amount",
              "type": "uint256"
            },
            {
              "internalType": "address",
              "name": "currency",
              "type": "address"
            },
            {
              "internalType": "address",
              "name": "bidder",
              "type": "address"
            },
            {
              "internalType": "address",
              "name": "recipient",
              "type": "address"
            },
            {
              "components": [
                {
                  "internalType": "uint256",
                  "name": "value",
                  "type": "uint256"
                }
              ],
              "internalType": "struct Decimal.D256",
              "name": "sellOnShare",
              "type": "tuple"
            },
            {
              "internalType": "bool",
              "name": "offline",
              "type": "bool"
            }
          ],
          "internalType": "struct IMarket.Bid",
          "name": "expectedBid",
          "type": "tuple"
        }
      ],
      "name": "acceptLazyBidFromApp",
      "outputs": [],
      "stateMutability": "nonpayable",
      "type": "function"
    },
    {
      "inputs": [
        {
          "internalType": "uint256",
          "name": "tokenId",
          "type": "uint256"
        },
        {
          "internalType": "address",
          "name": "bidder",
          "type": "address"
        }
      ],
      "name": "bidForTokenBidder",
      "outputs": [
        {
          "components": [
            {
              "internalType": "uint256",
              "name": "amount",
              "type": "uint256"
            },
            {
              "internalType": "address",
              "name": "currency",
              "type": "address"
            },
            {
              "internalType": "address",
              "name": "bidder",
              "type": "address"
            },
            {
              "internalType": "address",
              "name": "recipient",
              "type": "address"
            },
            {
              "components": [
                {
                  "internalType": "uint256",
                  "name": "value",
                  "type": "uint256"
                }
              ],
              "internalType": "struct Decimal.D256",
              "name": "sellOnShare",
              "type": "tuple"
            },
            {
              "internalType": "bool",
              "name": "offline",
              "type": "bool"
            }
          ],
          "internalType": "struct IMarket.Bid",
          "name": "",
          "type": "tuple"
        }
      ],
      "stateMutability": "view",
      "type": "function"
    },
    {
      "inputs": [
        {
          "internalType": "uint256",
          "name": "tokenId",
          "type": "uint256"
        }
      ],
      "name": "bidSharesForToken",
      "outputs": [
        {
          "components": [
            {
              "components": [
                {
                  "internalType": "uint256",
                  "name": "value",
                  "type": "uint256"
                }
              ],
              "internalType": "struct Decimal.D256",
              "name": "prevOwner",
              "type": "tuple"
            },
            {
              "components": [
                {
                  "internalType": "uint256",
                  "name": "value",
                  "type": "uint256"
                }
              ],
              "internalType": "struct Decimal.D256",
              "name": "creator",
              "type": "tuple"
            },
            {
              "components": [
                {
                  "internalType": "uint256",
                  "name": "value",
                  "type": "uint256"
                }
              ],
              "internalType": "struct Decimal.D256",
              "name": "owner",
              "type": "tuple"
            }
          ],
          "internalType": "struct IMarket.BidShares",
          "name": "",
          "type": "tuple"
        }
      ],
      "stateMutability": "view",
      "type": "function"
    },
    {
      "inputs": [
        {
          "internalType": "address",
          "name": "mediaContractAddress",
          "type": "address"
        }
      ],
      "name": "configure",
      "outputs": [],
      "stateMutability": "nonpayable",
      "type": "function"
    },
    {
      "inputs": [
        {
          "internalType": "uint256",
          "name": "tokenId",
          "type": "uint256"
        }
      ],
      "name": "currentAskForToken",
      "outputs": [
        {
          "components": [
            {
              "internalType": "uint256",
              "name": "amount",
              "type": "uint256"
            },
            {
              "internalType": "address",
              "name": "currency",
              "type": "address"
            },
            {
              "internalType": "bool",
              "name": "offline",
              "type": "bool"
            }
          ],
          "internalType": "struct IMarket.Ask",
          "name": "",
          "type": "tuple"
        }
      ],
      "stateMutability": "view",
      "type": "function"
    },
    {
      "inputs": [
        {
          "internalType": "uint256",
          "name": "tokenId",
          "type": "uint256"
        },
        {
          "internalType": "uint256",
          "name": "bidAmount",
          "type": "uint256"
        }
      ],
      "name": "isValidBid",
      "outputs": [
        {
          "internalType": "bool",
          "name": "",
          "type": "bool"
        }
      ],
      "stateMutability": "view",
      "type": "function"
    },
    {
      "inputs": [
        {
          "components": [
            {
              "components": [
                {
                  "internalType": "uint256",
                  "name": "value",
                  "type": "uint256"
                }
              ],
              "internalType": "struct Decimal.D256",
              "name": "prevOwner",
              "type": "tuple"
            },
            {
              "components": [
                {
                  "internalType": "uint256",
                  "name": "value",
                  "type": "uint256"
                }
              ],
              "internalType": "struct Decimal.D256",
              "name": "creator",
              "type": "tuple"
            },
            {
              "components": [
                {
                  "internalType": "uint256",
                  "name": "value",
                  "type": "uint256"
                }
              ],
              "internalType": "struct Decimal.D256",
              "name": "owner",
              "type": "tuple"
            }
          ],
          "internalType": "struct IMarket.BidShares",
          "name": "bidShares",
          "type": "tuple"
        }
      ],
      "name": "isValidBidShares",
      "outputs": [
        {
          "internalType": "bool",
          "name": "",
          "type": "bool"
        }
      ],
      "stateMutability": "pure",
      "type": "function"
    },
    {
      "inputs": [
        {
          "components": [
            {
              "internalType": "enum ILux.Type",
              "name": "kind",
              "type": "uint8"
            },
            {
              "internalType": "string",
              "name": "name",
              "type": "string"
            },
            {
              "components": [
                {
                  "internalType": "uint256",
                  "name": "amount",
                  "type": "uint256"
                },
                {
                  "internalType": "address",
                  "name": "currency",
                  "type": "address"
                },
                {
                  "internalType": "bool",
                  "name": "offline",
                  "type": "bool"
                }
              ],
              "internalType": "struct IMarket.Ask",
              "name": "ask",
              "type": "tuple"
            },
            {
              "internalType": "uint256",
              "name": "supply",
              "type": "uint256"
            },
            {
              "internalType": "uint256",
              "name": "timestamp",
              "type": "uint256"
            },
            {
              "internalType": "uint256",
              "name": "minted",
              "type": "uint256"
            },
            {
              "components": [
                {
                  "internalType": "string",
                  "name": "tokenURI",
                  "type": "string"
                },
                {
                  "internalType": "string",
                  "name": "metadataURI",
                  "type": "string"
                },
                {
                  "internalType": "bytes32",
                  "name": "contentHash",
                  "type": "bytes32"
                },
                {
                  "internalType": "bytes32",
                  "name": "metadataHash",
                  "type": "bytes32"
                }
              ],
              "internalType": "struct IMedia.MediaData",
              "name": "data",
              "type": "tuple"
            },
            {
              "components": [
                {
                  "components": [
                    {
                      "internalType": "uint256",
                      "name": "value",
                      "type": "uint256"
                    }
                  ],
                  "internalType": "struct Decimal.D256",
                  "name": "prevOwner",
                  "type": "tuple"
                },
                {
                  "components": [
                    {
                      "internalType": "uint256",
                      "name": "value",
                      "type": "uint256"
                    }
                  ],
                  "internalType": "struct Decimal.D256",
                  "name": "creator",
                  "type": "tuple"
                },
                {
                  "components": [
                    {
                      "internalType": "uint256",
                      "name": "value",
                      "type": "uint256"
                    }
                  ],
                  "internalType": "struct Decimal.D256",
                  "name": "owner",
                  "type": "tuple"
                }
              ],
              "internalType": "struct IMarket.BidShares",
              "name": "bidShares",
              "type": "tuple"
            }
          ],
          "internalType": "struct IDrop.TokenType",
          "name": "tokenType",
          "type": "tuple"
        },
        {
          "internalType": "uint256",
          "name": "bidAmount",
          "type": "uint256"
        }
      ],
      "name": "isValidLazyBid",
      "outputs": [
        {
          "internalType": "bool",
          "name": "",
          "type": "bool"
        }
      ],
      "stateMutability": "pure",
      "type": "function"
    },
    {
      "inputs": [
        {
          "internalType": "uint256",
          "name": "dropId",
          "type": "uint256"
        },
        {
          "internalType": "string",
          "name": "name",
          "type": "string"
        },
        {
          "internalType": "address",
          "name": "bidder",
          "type": "address"
        }
      ],
      "name": "lazyBidForTokenBidder",
      "outputs": [
        {
          "components": [
            {
              "internalType": "uint256",
              "name": "amount",
              "type": "uint256"
            },
            {
              "internalType": "address",
              "name": "currency",
              "type": "address"
            },
            {
              "internalType": "address",
              "name": "bidder",
              "type": "address"
            },
            {
              "internalType": "address",
              "name": "recipient",
              "type": "address"
            },
            {
              "components": [
                {
                  "internalType": "uint256",
                  "name": "value",
                  "type": "uint256"
                }
              ],
              "internalType": "struct Decimal.D256",
              "name": "sellOnShare",
              "type": "tuple"
            },
            {
              "internalType": "bool",
              "name": "offline",
              "type": "bool"
            }
          ],
          "internalType": "struct IMarket.Bid",
          "name": "",
          "type": "tuple"
        }
      ],
      "stateMutability": "view",
      "type": "function"
    },
    {
      "inputs": [],
      "name": "mediaContract",
      "outputs": [
        {
          "internalType": "address",
          "name": "",
          "type": "address"
        }
      ],
      "stateMutability": "view",
      "type": "function"
    },
    {
      "inputs": [],
      "name": "owner",
      "outputs": [
        {
          "internalType": "address",
          "name": "",
          "type": "address"
        }
      ],
      "stateMutability": "view",
      "type": "function"
    },
    {
      "inputs": [
        {
          "internalType": "uint256",
          "name": "tokenId",
          "type": "uint256"
        }
      ],
      "name": "removeAsk",
      "outputs": [],
      "stateMutability": "nonpayable",
      "type": "function"
    },
    {
      "inputs": [
        {
          "internalType": "uint256",
          "name": "tokenId",
          "type": "uint256"
        },
        {
          "internalType": "address",
          "name": "bidder",
          "type": "address"
        }
      ],
      "name": "removeBid",
      "outputs": [],
      "stateMutability": "nonpayable",
      "type": "function"
    },
    {
      "inputs": [
        {
          "internalType": "uint256",
          "name": "dropId",
          "type": "uint256"
        },
        {
          "internalType": "string",
          "name": "name",
          "type": "string"
        },
        {
          "internalType": "address",
          "name": "bidder",
          "type": "address"
        }
      ],
      "name": "removeLazyBidFromApp",
      "outputs": [],
      "stateMutability": "nonpayable",
      "type": "function"
    },
    {
      "inputs": [],
      "name": "renounceOwnership",
      "outputs": [],
      "stateMutability": "nonpayable",
      "type": "function"
    },
    {
      "inputs": [
        {
          "internalType": "uint256",
          "name": "tokenId",
          "type": "uint256"
        },
        {
          "components": [
            {
              "internalType": "uint256",
              "name": "amount",
              "type": "uint256"
            },
            {
              "internalType": "address",
              "name": "currency",
              "type": "address"
            },
            {
              "internalType": "bool",
              "name": "offline",
              "type": "bool"
            }
          ],
          "internalType": "struct IMarket.Ask",
          "name": "ask",
          "type": "tuple"
        }
      ],
      "name": "setAsk",
      "outputs": [],
      "stateMutability": "nonpayable",
      "type": "function"
    },
    {
      "inputs": [
        {
          "internalType": "uint256",
          "name": "tokenId",
          "type": "uint256"
        },
        {
          "components": [
            {
              "internalType": "uint256",
              "name": "amount",
              "type": "uint256"
            },
            {
              "internalType": "address",
              "name": "currency",
              "type": "address"
            },
            {
              "internalType": "address",
              "name": "bidder",
              "type": "address"
            },
            {
              "internalType": "address",
              "name": "recipient",
              "type": "address"
            },
            {
              "components": [
                {
                  "internalType": "uint256",
                  "name": "value",
                  "type": "uint256"
                }
              ],
              "internalType": "struct Decimal.D256",
              "name": "sellOnShare",
              "type": "tuple"
            },
            {
              "internalType": "bool",
              "name": "offline",
              "type": "bool"
            }
          ],
          "internalType": "struct IMarket.Bid",
          "name": "bid",
          "type": "tuple"
        },
        {
          "internalType": "address",
          "name": "spender",
          "type": "address"
        }
      ],
      "name": "setBid",
      "outputs": [],
      "stateMutability": "nonpayable",
      "type": "function"
    },
    {
      "inputs": [
        {
          "internalType": "uint256",
          "name": "tokenId",
          "type": "uint256"
        },
        {
          "components": [
            {
              "components": [
                {
                  "internalType": "uint256",
                  "name": "value",
                  "type": "uint256"
                }
              ],
              "internalType": "struct Decimal.D256",
              "name": "prevOwner",
              "type": "tuple"
            },
            {
              "components": [
                {
                  "internalType": "uint256",
                  "name": "value",
                  "type": "uint256"
                }
              ],
              "internalType": "struct Decimal.D256",
              "name": "creator",
              "type": "tuple"
            },
            {
              "components": [
                {
                  "internalType": "uint256",
                  "name": "value",
                  "type": "uint256"
                }
              ],
              "internalType": "struct Decimal.D256",
              "name": "owner",
              "type": "tuple"
            }
          ],
          "internalType": "struct IMarket.BidShares",
          "name": "bidShares",
          "type": "tuple"
        }
      ],
      "name": "setBidShares",
      "outputs": [],
      "stateMutability": "nonpayable",
      "type": "function"
    },
    {
      "inputs": [
        {
          "internalType": "uint256",
          "name": "dropId",
          "type": "uint256"
        },
        {
          "components": [
            {
              "internalType": "enum ILux.Type",
              "name": "kind",
              "type": "uint8"
            },
            {
              "internalType": "string",
              "name": "name",
              "type": "string"
            },
            {
              "components": [
                {
                  "internalType": "uint256",
                  "name": "amount",
                  "type": "uint256"
                },
                {
                  "internalType": "address",
                  "name": "currency",
                  "type": "address"
                },
                {
                  "internalType": "bool",
                  "name": "offline",
                  "type": "bool"
                }
              ],
              "internalType": "struct IMarket.Ask",
              "name": "ask",
              "type": "tuple"
            },
            {
              "internalType": "uint256",
              "name": "supply",
              "type": "uint256"
            },
            {
              "internalType": "uint256",
              "name": "timestamp",
              "type": "uint256"
            },
            {
              "internalType": "uint256",
              "name": "minted",
              "type": "uint256"
            },
            {
              "components": [
                {
                  "internalType": "string",
                  "name": "tokenURI",
                  "type": "string"
                },
                {
                  "internalType": "string",
                  "name": "metadataURI",
                  "type": "string"
                },
                {
                  "internalType": "bytes32",
                  "name": "contentHash",
                  "type": "bytes32"
                },
                {
                  "internalType": "bytes32",
                  "name": "metadataHash",
                  "type": "bytes32"
                }
              ],
              "internalType": "struct IMedia.MediaData",
              "name": "data",
              "type": "tuple"
            },
            {
              "components": [
                {
                  "components": [
                    {
                      "internalType": "uint256",
                      "name": "value",
                      "type": "uint256"
                    }
                  ],
                  "internalType": "struct Decimal.D256",
                  "name": "prevOwner",
                  "type": "tuple"
                },
                {
                  "components": [
                    {
                      "internalType": "uint256",
                      "name": "value",
                      "type": "uint256"
                    }
                  ],
                  "internalType": "struct Decimal.D256",
                  "name": "creator",
                  "type": "tuple"
                },
                {
                  "components": [
                    {
                      "internalType": "uint256",
                      "name": "value",
                      "type": "uint256"
                    }
                  ],
                  "internalType": "struct Decimal.D256",
                  "name": "owner",
                  "type": "tuple"
                }
              ],
              "internalType": "struct IMarket.BidShares",
              "name": "bidShares",
              "type": "tuple"
            }
          ],
          "internalType": "struct IDrop.TokenType",
          "name": "tokenType",
          "type": "tuple"
        },
        {
          "components": [
            {
              "internalType": "uint256",
              "name": "amount",
              "type": "uint256"
            },
            {
              "internalType": "address",
              "name": "currency",
              "type": "address"
            },
            {
              "internalType": "address",
              "name": "bidder",
              "type": "address"
            },
            {
              "internalType": "address",
              "name": "recipient",
              "type": "address"
            },
            {
              "components": [
                {
                  "internalType": "uint256",
                  "name": "value",
                  "type": "uint256"
                }
              ],
              "internalType": "struct Decimal.D256",
              "name": "sellOnShare",
              "type": "tuple"
            },
            {
              "internalType": "bool",
              "name": "offline",
              "type": "bool"
            }
          ],
          "internalType": "struct IMarket.Bid",
          "name": "bid",
          "type": "tuple"
        },
        {
          "internalType": "address",
          "name": "spender",
          "type": "address"
        }
      ],
      "name": "setLazyBidFromApp",
      "outputs": [],
      "stateMutability": "nonpayable",
      "type": "function"
    },
    {
      "inputs": [
        {
          "components": [
            {
              "internalType": "uint256",
              "name": "value",
              "type": "uint256"
            }
          ],
          "internalType": "struct Decimal.D256",
          "name": "sharePercentage",
          "type": "tuple"
        },
        {
          "internalType": "uint256",
          "name": "amount",
          "type": "uint256"
        }
      ],
      "name": "splitShare",
      "outputs": [
        {
          "internalType": "uint256",
          "name": "",
          "type": "uint256"
        }
      ],
      "stateMutability": "pure",
      "type": "function"
    },
    {
      "inputs": [
        {
          "internalType": "address",
          "name": "newOwner",
          "type": "address"
        }
      ],
      "name": "transferOwnership",
      "outputs": [],
      "stateMutability": "nonpayable",
      "type": "function"
    }
  ],
  "transactionHash": "0xa55d8bbf95018945412cd8104cc0209619530732f357c9e84bcf0bef13dbbf90",
  "args": [],
  "solcInputHash": "6a925fdfd8b8a4be7e37a44d0461a591",
  "bytecode": "0x60806040523480156200001157600080fd5b506200001d3362000023565b62000073565b600080546001600160a01b038381166001600160a01b0319831681178455604051919092169283917f8be0079c531659141344cd1fd0a4f28419497f9722a3daafe3b4186f6b6457e09190a35050565b6137d980620000836000396000f3fe608060405234801561001057600080fd5b50600436106101125760003560e01c806302e8fe131461011757806328220f351461013f578063360636eb146101545780634e21f9c0146101675780635389c75814610187578063578064f61461019a578063715018a61461021157806375cb267214610219578063776a08351461022c5780637cc221ac1461023f5780637f9f59871461025f5780638da5cb5b146102725780638e3d633b1461027a5780639ac265491461028d578063ad827dc4146102a0578063afcbbd2c146102b3578063b05270a7146102c6578063b920c123146102d9578063eb55683a146102fa578063f2fde38b1461030d578063f9ce058214610320578063fcff354a14610340575b600080fd5b61012a610125366004612e6e565b610353565b60405190151581526020015b60405180910390f35b61015261014d366004612b8d565b610414565b005b61012a610162366004612a30565b6104d3565b60015461017a906001600160a01b031681565b604051610136919061300a565b61012a610195366004612a75565b610511565b6102046101a8366004612b8d565b60408051606080820183526000808352602080840182905292840181905293845260068252928290208251938401835280548452600101546001600160a01b03811691840191909152600160a01b900460ff1615159082015290565b60405161013691906133f0565b610152610580565b6101526102273660046129dc565b6105bb565b61015261023a366004612bbd565b61067c565b61025261024d366004612bec565b610802565b604051610136919061342a565b61015261026d366004612c93565b6108ab565b61017a610a5c565b610152610288366004612cb6565b610a6b565b61015261029b366004612c44565b610efd565b6102526102ae366004612bbd565b61101b565b6101526102c1366004612cec565b61109e565b6101526102d4366004612bec565b61143d565b6102ec6102e7366004612a4b565b611607565b604051908152602001610136565b610152610308366004612c70565b61161e565b61015261031b3660046129dc565b6116fb565b61033361032e366004612b8d565b61179b565b604051610136919061341c565b61015261034e366004612d56565b6117f1565b60008061035f8461179b565b905061036a816104d3565b6103c75760405162461bcd60e51b8152602060048201526024808201527f4d61726b65743a20496e76616c6964206269642073686172657320666f72207460448201526337b5b2b760e11b60648201526084015b60405180910390fd5b821580159061040a57506104076103e2826040015185611607565b6104016103f3846000015187611607565b610401856020015188611607565b906119c4565b83145b9150505b92915050565b6001546001600160a01b0316331461043e5760405162461bcd60e51b81526004016103be906132ee565b807febd7309f32a2ef126112b0d89c02deb8465ac4bf217992ff2645a7e1627ae8c8600660008481526020019081526020016000206040516104a79190815481526001909101546001600160a01b038116602083015260a01c60ff161515604082015260600190565b60405180910390a2600090815260066020526040812090815560010180546001600160a81b0319169055565b60006104ec6104e46012600a61361d565b6064906119d0565b82515160408401515160208501515161050a929161040191906119c4565b1492915050565b60e0820151600090610522816104d3565b6103c75760405162461bcd60e51b815260206004820152602960248201527f4d61726b65743a20496e76616c6964206c617a792062696420736861726573206044820152683337b9103a37b5b2b760b91b60648201526084016103be565b33610589610a5c565b6001600160a01b0316146105af5760405162461bcd60e51b81526004016103be90613323565b6105b960006119dc565b565b336105c4610a5c565b6001600160a01b0316146105ea5760405162461bcd60e51b81526004016103be90613323565b6001600160a01b03811661065a5760405162461bcd60e51b815260206004820152603160248201527f4d61726b65743a2063616e6e6f7420736574206d6564696120636f6e7472616360448201527074206173207a65726f206164647265737360781b60648201526084016103be565b600180546001600160a01b0319166001600160a01b0392909216919091179055565b6001546001600160a01b031633146106a65760405162461bcd60e51b81526004016103be906132ee565b60008281526003602090815260408083206001600160a01b03808616855292529091206001810154815460058301549293919091169160ff16816106fc5760405162461bcd60e51b81526004016103be90613204565b857f805f4326d2fc75a78782b737824b9b7d896c6b03bf01d7dc5c95ee80f075e3f68560405161072c9190613438565b60405180910390a260008681526003602081815260408084206001600160a01b038a16855282528084208481556001810180546001600160a01b031990811690915560028201805482169055938101805490941690935560048301939093556005909101805460ff191690558151808301909252601082526f13585c9ad95d0b9c995b5bdd99509a5960821b908201526107c890878584611a2c565b6001600160a01b038316158015906107de575080155b156107fa57826107f86001600160a01b0382168785611a7b565b505b505050505050565b61080a612487565b60006108168585611ade565b90506004816040516108289190612fbe565b9081526040805191829003602090810183206001600160a01b0380881660009081529183529083902060c08501845280548552600181015482168584015260028101548216858501526003810154909116606085015282519182019092526004820154815260808301526005015460ff16151560a08201529150505b9392505050565b6001546001600160a01b031633146108d55760405162461bcd60e51b81526004016103be906132ee565b6000828152600360205260408082209082906108f790606086019086016129dc565b6001600160a01b0390811682526020808301939093526040918201600020825160c08101845281548152600182015483168186015260028201548316818501526003820154909216606083015282519384019092526004820154835260808101929092526005015460ff16151560a0820152805190915061098a5760405162461bcd60e51b81526004016103be90613280565b805182351480156109bf57506109a660408301602084016129dc565b6001600160a01b031681602001516001600160a01b0316145b80156109d357506080818101515190830135145b8015610a0357506109ea60808301606084016129dc565b6001600160a01b031681606001516001600160a01b0316145b610a1f5760405162461bcd60e51b81526004016103be906132b7565b610a2d838260000151610353565b610a495760405162461bcd60e51b81526004016103be9061317b565b610a57838260400151611b0a565b505050565b6000546001600160a01b031690565b6001546001600160a01b03163314610a955760405162461bcd60e51b81526004016103be906132ee565b6000838152600560209081526040918290208251608081018452815460608201908152815283518084018552600183015481528184015283519283018452600290910154825291820152610aee6104e46012600a61361d565b608084015151602083015151610b03916119c4565b1115610b215760405162461bcd60e51b81526004016103be90613358565b60408301516001600160a01b0316610b4b5760405162461bcd60e51b81526004016103be906131c2565b8251610b695760405162461bcd60e51b81526004016103be90613249565b60608301516001600160a01b0316610b935760405162461bcd60e51b81526004016103be906133a7565b60008481526006602090815260408083208151606081018352815481526001909101546001600160a01b0380821683860152600160a01b90910460ff1615158284015288855260038452828520888401519091168552909252909120805415610c0457610c0486866040015161067c565b845160208601516001600160a01b031615801590610c2457508260400151155b15610d5b5760208601516040516370a0823160e01b81526000906001600160a01b038316906370a0823190610c5d90309060040161300a565b60206040518083038186803b158015610c7557600080fd5b505afa158015610c89573d6000803e3d6000fd5b505050506040513d601f19601f82011682018060405250810190610cad9190612ba5565b8851909150610cca906001600160a01b0384169089903090611f2a565b6040516370a0823160e01b81526000906001600160a01b038416906370a0823190610cf990309060040161300a565b60206040518083038186803b158015610d1157600080fd5b505afa158015610d25573d6000803e3d6000fd5b505050506040513d601f19601f82011682018060405250810190610d499190612ba5565b9050610d558183611f62565b93505050505b6040518060c0016040528082815260200187602001516001600160a01b0316815260200187604001516001600160a01b0316815260200187606001516001600160a01b03168152602001876080015181526020018460400151151581525060036000898152602001908152602001600020600088604001516001600160a01b03166001600160a01b031681526020019081526020016000206000820151816000015560208201518160010160006101000a8154816001600160a01b0302191690836001600160a01b0316021790555060408201518160020160006101000a8154816001600160a01b0302191690836001600160a01b0316021790555060608201518160030160006101000a8154816001600160a01b0302191690836001600160a01b0316021790555060808201518160040160008201518160000155505060a08201518160050160006101000a81548160ff021916908315150217905550905050867fcce5b2efb01f68db1b6c0504a11710be83bda42889c2bf16b0a58fc84435403c87604051610eec919061342a565b60405180910390a250505050505050565b6001546001600160a01b03163314610f275760405162461bcd60e51b81526004016103be906132ee565b610f35828260000151610353565b610f915760405162461bcd60e51b815260206004820152602760248201527f4d61726b65743a2041736b20696e76616c696420666f722073686172652073706044820152666c697474696e6760c81b60648201526084016103be565b600082815260066020908152604091829020835181559083015160019091018054838501511515600160a01b026001600160a81b03199091166001600160a01b03909316929092179190911790555182907f2944ae9f0c8b8826c9b7086b99b8641ea6ca75a882c4fc20ae5ce485438d40229061100f9084906133f0565b60405180910390a25050565b611023612487565b5060009182526003602081815260408085206001600160a01b039485168652825293849020845160c081018652815481526001820154851681840152600282015485168187015292810154909316606083015283519081019093526004820154835260808101929092526005015460ff16151560a082015290565b6001546001600160a01b031633146110c85760405162461bcd60e51b81526004016103be906132ee565b6110d76104e46012600a61361d565b60808301515160e085015160200151516110f0916119c4565b111561110e5760405162461bcd60e51b81526004016103be90613358565b60408201516001600160a01b03166111385760405162461bcd60e51b81526004016103be906131c2565b81516111565760405162461bcd60e51b81526004016103be90613249565b60608201516001600160a01b03166111805760405162461bcd60e51b81526004016103be906133a7565b815160208301516001600160a01b0316158015906111a45750836040015160400151155b156112db5760208301516040516370a0823160e01b81526000906001600160a01b038316906370a08231906111dd90309060040161300a565b60206040518083038186803b1580156111f557600080fd5b505afa158015611209573d6000803e3d6000fd5b505050506040513d601f19601f8201168201806040525081019061122d9190612ba5565b855190915061124a906001600160a01b0384169086903090611f2a565b6040516370a0823160e01b81526000906001600160a01b038416906370a082319061127990309060040161300a565b60206040518083038186803b15801561129157600080fd5b505afa1580156112a5573d6000803e3d6000fd5b505050506040513d601f19601f820116820180604052508101906112c99190612ba5565b90506112d58183611f62565b93505050505b60006112eb868660200151611ade565b90506040518060c0016040528083815260200185602001516001600160a01b0316815260200185604001516001600160a01b0316815260200185606001516001600160a01b03168152602001856080015181526020018560a00151151581525060048260405161135b9190612fbe565b9081526040805160209281900383018120888301516001600160a01b0390811660009081529185529083902085518155858501516001820180546001600160a01b03199081169285169290921790559386015160028201805486169184169190911790556060860151600382018054909516921691909117909255608084015151600483015560a0909301516005909101805460ff19169115159190911790558601517f93f1363a0a68f806fecc4c50969e4148d029e09c04883c89fa477bed3a6b49609161142d9189918890613446565b60405180910390a1505050505050565b6001546001600160a01b031633146114675760405162461bcd60e51b81526004016103be906132ee565b60006114738484611ade565b905060006004826040516114879190612fbe565b90815260408051602092819003830190206001600160a01b03868116600090815291909352206001810154815460058301549294509216919060ff16816114e05760405162461bcd60e51b81526004016103be90613204565b7fc1553c0faaed2d1f6eacf2eb3d139e8065e32c880e4dc9fc25424907678ba2cb88888660405161151393929190613470565b60405180910390a160048560405161152b9190612fbe565b9081526040805191829003602090810183206001600160a01b038a1660009081529082528281208181556001810180546001600160a01b03199081169091556002820180548216905560038201805490911690556004810191909155600501805460ff19169055828201909152601b82527a04d61726b65742e72656d6f76654c617a7942696446726f6d41707602c1b908201526115cb90868584611f6e565b6001600160a01b038316158015906115e1575080155b156115fd57826115fb6001600160a01b0382168885611a7b565b505b5050505050505050565b60006108a460646116188486611fb7565b90611fd3565b6001546001600160a01b031633146116485760405162461bcd60e51b81526004016103be906132ee565b611651816104d3565b6116b15760405162461bcd60e51b815260206004820152602b60248201527f4d61726b65743a20496e76616c696420626964207368617265732c206d75737460448201526a02073756d20746f203130360ac1b60648201526084016103be565b60008281526005602090815260409182902083515181559083015151600182015581830151516002909101555182906000805160206137848339815191529061100f90849061341c565b33611704610a5c565b6001600160a01b03161461172a5760405162461bcd60e51b81526004016103be90613323565b6001600160a01b03811661178f5760405162461bcd60e51b815260206004820152602660248201527f4f776e61626c653a206e6577206f776e657220697320746865207a65726f206160448201526564647265737360d01b60648201526084016103be565b611798816119dc565b50565b6117a36124de565b50600090815260056020908152604091829020825160808101845281546060820190815281528351808401855260018301548152818401528351928301845260029091015482529182015290565b6001546001600160a01b0316331461181b5760405162461bcd60e51b81526004016103be906132ee565b600061182b858560200151611ade565b9050600060048260405161183f9190612fbe565b9081526020016040518091039020600084604001602081019061186291906129dc565b6001600160a01b0390811682526020808301939093526040918201600020825160c08101845281548152600182015483168186015260028201548316818501526003820154909216606083015282519384019092526004820154835260808101929092526005015460ff16151560a082015280519091506118f55760405162461bcd60e51b81526004016103be90613280565b8051833514801561192a575061191160408401602085016129dc565b6001600160a01b031681602001516001600160a01b0316145b801561193e57506080818101515190840135145b801561196e575061195560808401606085016129dc565b6001600160a01b031681606001516001600160a01b0316145b61198a5760405162461bcd60e51b81526004016103be906132b7565b611998858260000151610511565b6119b45760405162461bcd60e51b81526004016103be9061317b565b6107fa8686868460400151611fdf565b60006108a482846135a2565b60006108a482846136c5565b600080546001600160a01b038381166001600160a01b0319831681178455604051919092169283917f8be0079c531659141344cd1fd0a4f28419497f9722a3daafe3b4186f6b6457e09190a35050565b611a7584848484604051602401611a469493929190613141565b60408051601f198184030181529190526020810180516001600160e01b0316631106a8f760e01b179052612271565b50505050565b6040516001600160a01b038316602482015260448101829052610a5790849063a9059cbb60e01b906064015b60408051601f198184030181529190526020810180516001600160e01b03166001600160e01b031990931692909217909152612292565b60608282604051602001611af3929190612fda565b604051602081830303815290604052905092915050565b60008281526003602081815260408084206001600160a01b038087168652908352818520825160c0810184528154815260018201548316818601908152600283015484168286015295820154831660608201528351808601855260048301548152608082015260059182015460ff16151560a082015288875293529320915190921615801590611b9c57508160a00151155b15611d8a5760208201516001546040516331a9108f60e11b815260048101879052611c53916001600160a01b031690636352211e9060240160206040518083038186803b158015611bec57600080fd5b505afa158015611c00573d6000803e3d6000fd5b505050506040513d601f19601f82011682018060405250810190611c2491906129f8565b6040805160208101909152600285015481528551611c429190611607565b6001600160a01b0384169190611a7b565b60015460405163e0fd045f60e01b815260048101879052611cef916001600160a01b03169063e0fd045f9060240160206040518083038186803b158015611c9957600080fd5b505afa158015611cad573d6000803e3d6000fd5b505050506040513d601f19601f82011682018060405250810190611cd191906129f8565b6040805160208101909152600185015481528551611c429190611607565b6001546040516304ec739360e51b815260048101879052611d88916001600160a01b031690639d8e72609060240160206040518083038186803b158015611d3557600080fd5b505afa158015611d49573d6000803e3d6000fd5b505050506040513d601f19601f82011682018060405250810190611d6d91906129f8565b6040805160208101909152845481528551611c429190611607565b505b6001546060830151604051630f6b630f60e41b8152600481018790526001600160a01b03918216602482015291169063f6b630f090604401600060405180830381600087803b158015611ddc57600080fd5b505af1158015611df0573d6000803e3d6000fd5b5050604080516020808201835260808701515160008a8152600590925292902060010154909350839250611e369190611e3090816104e46012600a61361d565b90611f62565b905251600280830191909155608083015151825560008581526003602081815260408084206001600160a01b03891685529091528083208381556001810180546001600160a01b031990811690915594810180548616905591820180549094169093556004810191909155600501805460ff1916905551849060008051602061378483398151915290611ee49084908154815260018201546020820152600290910154604082015260600190565b60405180910390a2837fc65cf728d36753835a8980434f21e20da3f78085cb228e6f8267fed86500157783604051611f1c919061342a565b60405180910390a250505050565b6040516001600160a01b0380851660248301528316604482015260648101829052611a759085906323b872dd60e01b90608401611aa7565b60006108a482846136e4565b611a7584848484604051602401611f8894939291906130fa565b60408051601f198184030181529190526020810180516001600160e01b0316635ccd4e3760e01b179052612271565b80516000906108a4908490611fce6012600a61361d565b612364565b60006108a482846135ba565b6000611fef858560200151611ade565b905060006004826040516120039190612fbe565b90815260408051602092819003830181206001600160a01b0387811660009081529185529083902060c08301845280548352600181015482168584019081526002820154831684860152600382015483166060850152845195860190945260048101548552608083019490945260059093015460ff16151560a082015260e088015191519093509091161580159061209d57508160a00151155b156120c75760208201516120c56120b2610a5c565b84516001600160a01b0384169190611a7b565b505b60015460608301516040516375413d6d60e11b81526001600160a01b039092169163ea827ada916120fc91899060040161301e565b600060405180830381600087803b15801561211657600080fd5b505af115801561212a573d6000803e3d6000fd5b505050506040513d6000823e601f3d908101601f191682016040526121529190810190612ab7565b506040518060200160405280612187846080015160000151611e30856020015160000151611e306012600a6104e4919061361d565b905260408083019190915260808301518252516004906121a8908590612fbe565b9081526040805191829003602090810183206001600160a01b038816600090815291528181208181556001810180546001600160a01b03199081169091556002820180548216905560038201805490911690556004810191909155600501805460ff19169055860151906000805160206137848339815191529061222d90849061341c565b60405180910390a284604001517f316ac663b94507d3b3b02c9d04a288f12360fb4c1eabe0b691469386088a9bed88886020015185604051610eec93929190613446565b80516a636f6e736f6c652e6c6f67602083016000808483855afa5050505050565b60006122e7826040518060400160405280602081526020017f5361666545524332303a206c6f772d6c6576656c2063616c6c206661696c6564815250856001600160a01b031661237c9092919063ffffffff16565b805190915015610a5757808060200190518101906123059190612a14565b610a575760405162461bcd60e51b815260206004820152602a60248201527f5361666545524332303a204552433230206f7065726174696f6e20646964206e6044820152691bdd081cdd58d8d9595960b21b60648201526084016103be565b60006123748261161886866119d0565b949350505050565b6060612374848460008585843b6123d55760405162461bcd60e51b815260206004820152601d60248201527f416464726573733a2063616c6c20746f206e6f6e2d636f6e747261637400000060448201526064016103be565b600080866001600160a01b031685876040516123f19190612fbe565b60006040518083038185875af1925050503d806000811461242e576040519150601f19603f3d011682016040523d82523d6000602084013e612433565b606091505b509150915061244382828661244e565b979650505050505050565b6060831561245d5750816108a4565b82511561246d5782518084602001fd5b8160405162461bcd60e51b81526004016103be91906130e7565b6040518060c001604052806000815260200160006001600160a01b0316815260200160006001600160a01b0316815260200160006001600160a01b031681526020016124d1612510565b8152600060209091015290565b60405180606001604052806124f1612510565b81526020016124fe612510565b815260200161250b612510565b905290565b6040518060200160405280600081525090565b803561252e81613776565b919050565b805161252e81613776565b600082601f83011261254e578081fd5b813561256161255c8261357b565b61354b565b818152846020838601011115612575578283fd5b816020850160208301379081016020019190915292915050565b600082601f83011261259f578081fd5b81516125ad61255c8261357b565b8181528460208386010111156125c1578283fd5b6123748260208301602087016136fb565b6000606082840312156125e3578081fd5b6125eb61349a565b90508135815260208201356125ff81613753565b6020820152604082013561261281613768565b604082015292915050565b60006060828403121561262e578081fd5b61263661349a565b90506126428383612763565b81526126518360208401612763565b60208201526126128360408401612763565b600060608284031215612674578081fd5b61267c61349a565b90506126888383612786565b81526126978360208401612786565b60208201526126128360408401612786565b600060c082840312156126ba578081fd5b50919050565b600060c082840312156126d1578081fd5b60405160c081018181106001600160401b03821117156126f3576126f361373d565b60405282358152905080602083013561270b81613753565b6020820152604083013561271e81613753565b6040820152606083013561273181613753565b60608201526127438460808501612763565b608082015260a083013561275681613768565b60a0919091015292915050565b600060208284031215612774578081fd5b61277c6134c2565b9135825250919050565b600060208284031215612797578081fd5b61279f6134c2565b9151825250919050565b6000608082840312156127ba578081fd5b6127c26134e4565b905081356001600160401b03808211156127db57600080fd5b6127e78583860161253e565b835260208401359150808211156127fd57600080fd5b5061280a8482850161253e565b602083015250604082013560408201526060820135606082015292915050565b60006080828403121561283b578081fd5b6128436134e4565b905081516001600160401b038082111561285c57600080fd5b6128688583860161258f565b8352602084015191508082111561287e57600080fd5b5061288b8482850161258f565b602083015250604082015160408201526060820151606082015292915050565b6000606082840312156128bc578081fd5b6128c461349a565b90508135815260208201356020820152604082013561261281613768565b6000606082840312156128f3578081fd5b6128fb61349a565b90508151815260208201516020820152604082015161261281613768565b6000610180828403121561292b578081fd5b612933613506565b905061293e82612523565b815260208201356001600160401b038082111561295a57600080fd5b6129668583860161253e565b602084015261297885604086016125d2565b604084015260a0840135606084015260c0840135608084015260e084013560a08401526101008401359150808211156129b057600080fd5b506129bd848285016127a9565b60c0830152506129d183610120840161261d565b60e082015292915050565b6000602082840312156129ed578081fd5b81356108a481613753565b600060208284031215612a09578081fd5b81516108a481613753565b600060208284031215612a25578081fd5b81516108a481613768565b600060608284031215612a41578081fd5b6108a4838361261d565b60008060408385031215612a5d578081fd5b612a678484612763565b946020939093013593505050565b60008060408385031215612a87578182fd5b82356001600160401b03811115612a9c578283fd5b612aa885828601612919565b95602094909401359450505050565b600060208284031215612ac8578081fd5b81516001600160401b0380821115612ade578283fd5b908301906101608286031215612af2578283fd5b612afa613529565b612b0383612533565b8152602083015182811115612b16578485fd5b612b228782860161258f565b6020830152506040830151604082015260608301516060820152608083015182811115612b4d578485fd5b612b598782860161282a565b608083015250612b6c8660a08501612663565b60a0820152612b7f8661010085016128e2565b60c082015295945050505050565b600060208284031215612b9e578081fd5b5035919050565b600060208284031215612bb6578081fd5b5051919050565b60008060408385031215612bcf578182fd5b823591506020830135612be181613753565b809150509250929050565b600080600060608486031215612c00578081fd5b8335925060208401356001600160401b03811115612c1c578182fd5b612c288682870161253e565b9250506040840135612c3981613753565b809150509250925092565b60008060808385031215612c56578182fd5b82359150612c6784602085016125d2565b90509250929050565b60008060808385031215612c82578182fd5b82359150612c67846020850161261d565b60008060e08385031215612ca5578182fd5b82359150612c6784602085016126a9565b60008060006101008486031215612ccb578081fd5b83359250612cdc85602086016126c0565b915060e0840135612c3981613753565b6000806000806101208587031215612d02578182fd5b8435935060208501356001600160401b03811115612d1e578283fd5b612d2a87828801612919565b935050612d3a86604087016126c0565b9150610100850135612d4b81613753565b939692955090935050565b6000806000806101208587031215612d6c578182fd5b8435935060208501356001600160401b0380821115612d89578384fd5b612d9588838901612919565b94506040870135915080821115612daa578384fd5b908601906101608289031215612dbe578384fd5b612dc6613529565b612dcf83612523565b8152602083013582811115612de2578586fd5b612dee8a82860161253e565b6020830152506040830135604082015260608301356060820152608083013582811115612e19578586fd5b612e258a8286016127a9565b608083015250612e388960a0850161261d565b60a0820152612e4b8961010085016128ab565b60c0820152809450505050612e6386606087016126a9565b905092959194509250565b60008060408385031215612e80578182fd5b50508035926020909101359150565b60008151808452612ea78160208601602086016136fb565b601f01601f19169290920160200192915050565b8051518252602080820151519083015260409081015151910152565b80518252602081015160018060a01b0380821660208501528060408401511660408501528060608401511660608501525050608081015151608083015260a0810151151560a08301525050565b8054825260018101546001600160a01b0390811660208401526002820154811660408401526003820154166060830152600481015460808301526005015460ff16151560a090910152565b6000815160808452612f846080850182612e8f565b905060208301518482036020860152612f9d8282612e8f565b91505060408301516040850152606083015160608501528091505092915050565b60008251612fd08184602087016136fb565b9190910192915050565b828152602d60f81b602082015260008251612ffc8160218501602087016136fb565b919091016021019392505050565b6001600160a01b0391909116815260200190565b6001600160a01b03831681526040602082015281516000906004811061305257634e487b7160e01b82526021600452602482fd5b6040830152602083015161016060608401526130726101a0840182612e8f565b905060408401516080840152606084015160a08401526080840151603f198483030160c08501526130a38282612f6f565b91505060a08401516130b860e0850182612ebb565b5060c0840151805161014085015260208101516101608501526040810151151561018085015250949350505050565b6020815260006108a46020830184612e8f565b60808152600061310d6080830187612e8f565b828103602084015261311f8187612e8f565b6001600160a01b03959095166040840152505090151560609091015292915050565b6080815260006131546080830187612e8f565b6020830195909552506001600160a01b039290921660408301521515606090910152919050565b60208082526027908201527f4d61726b65743a2042696420696e76616c696420666f722073686172652073706040820152666c697474696e6760c81b606082015260800190565b60208082526022908201527f4d61726b65743a206269646465722063616e6e6f742062652030206164647265604082015261737360f01b606082015260800190565b60208082526025908201527f4d61726b65743a2063616e6e6f742072656d6f76652062696420616d6f756e746040820152640206f6620360dc1b606082015260800190565b6020808252601e908201527f4d61726b65743a2063616e6e6f742062696420616d6f756e74206f6620300000604082015260600190565b6020808252601e908201527f4d61726b65743a2063616e6e6f742061636365707420626964206f6620300000604082015260600190565b6020808252601d908201527f4d61726b65743a20556e65787065637465642062696420666f756e642e000000604082015260600190565b6020808252601b908201527a13585c9ad95d0e8813db9b1e481b59591a584818dbdb9d1c9858dd602a1b604082015260600190565b6020808252818101527f4f776e61626c653a2063616c6c6572206973206e6f7420746865206f776e6572604082015260600190565b6020808252602f908201527f4d61726b65743a2053656c6c206f6e2066656520696e76616c696420666f722060408201526e73686172652073706c697474696e6760881b606082015260800190565b60208082526029908201527f4d61726b65743a2062696420726563697069656e742063616e6e6f742062652060408201526830206164647265737360b81b606082015260800190565b815181526020808301516001600160a01b03169082015260409182015115159181019190915260600190565b6060810161040e8284612ebb565b60c0810161040e8284612ed7565b60c0810161040e8284612f24565b600061010085835280602084015261346081840186612e8f565b9150506123746040830184612ed7565b600061010085835280602084015261348a81840186612e8f565b9150506123746040830184612f24565b604051606081016001600160401b03811182821017156134bc576134bc61373d565b60405290565b604051602081016001600160401b03811182821017156134bc576134bc61373d565b604051608081016001600160401b03811182821017156134bc576134bc61373d565b60405161010081016001600160401b03811182821017156134bc576134bc61373d565b60405160e081016001600160401b03811182821017156134bc576134bc61373d565b604051601f8201601f191681016001600160401b03811182821017156135735761357361373d565b604052919050565b60006001600160401b038211156135945761359461373d565b50601f01601f191660200190565b600082198211156135b5576135b5613727565b500190565b6000826135d557634e487b7160e01b81526012600452602481fd5b500490565b600181815b808511156136155781600019048211156135fb576135fb613727565b8085161561360857918102915b93841c93908002906135df565b509250929050565b60006108a483836000826136335750600161040e565b816136405750600061040e565b816001811461365657600281146136605761367c565b600191505061040e565b60ff84111561367157613671613727565b50506001821b61040e565b5060208310610133831016604e8410600b841016171561369f575081810a61040e565b6136a983836135da565b80600019048211156136bd576136bd613727565b029392505050565b60008160001904831182151516156136df576136df613727565b500290565b6000828210156136f6576136f6613727565b500390565b60005b838110156137165781810151838201526020016136fe565b83811115611a755750506000910152565b634e487b7160e01b600052601160045260246000fd5b634e487b7160e01b600052604160045260246000fd5b6001600160a01b038116811461179857600080fd5b801515811461179857600080fd5b6004811061179857600080fdfedb88d4e96cb8697aaee5e575ee5f460817709a1dfcfbf7ba15192e90b5c86f9fa2646970667358221220edf0c85d1ab2d09d50bcc343272afb874dcf2f29537dfe2b6aabfe842386df6664736f6c63430008040033",
  "libraries": {},
  "devdoc": {
    "kind": "dev",
    "methods": {
      "owner()": {
        "details": "Returns the address of the current owner."
      },
      "renounceOwnership()": {
        "details": "Leaves the contract without owner. It will not be possible to call `onlyOwner` functions anymore. Can only be called by the current owner. NOTE: Renouncing ownership will leave the contract without an owner, thereby removing any functionality that is only available to the owner."
      },
      "transferOwnership(address)": {
        "details": "Transfers ownership of the contract to a new account (`newOwner`). Can only be called by the current owner."
      }
    },
    "title": "A Market for pieces of media",
    "version": 1
  },
  "userdoc": {
    "kind": "user",
    "methods": {
      "acceptBid(uint256,(uint256,address,address,address,(uint256),bool))": {
        "notice": "Accepts a bid from a particular bidder. Can only be called by the media contract. See {_finalizeNFTTransfer} Provided bid must match a bid in storage. This is to prevent a race condition where a bid may change while the acceptBid call is in transit. A bid cannot be accepted if it cannot be split equally into its shareholders. This should only revert in rare instances (example, a low bid with a zero-decimal token), but is necessary to ensure fairness to all shareholders."
      },
      "configure(address)": {
        "notice": "Sets the media contract address. This address is the only permitted address that can call the mutable functions. This method can only be called once."
      },
      "isValidBid(uint256,uint256)": {
        "notice": "Validates that the bid is valid by ensuring that the bid amount can be split perfectly into all the bid shares.  We do this by comparing the sum of the individual share values with the amount and ensuring they are equal. Because  the splitShare function uses integer division, any inconsistencies with the original and split sums would be due to  a bid splitting that does not perfectly divide the bid amount."
      },
      "isValidBidShares(((uint256),(uint256),(uint256)))": {
        "notice": "Validates that the provided bid shares sum to 100"
      },
      "removeAsk(uint256)": {
        "notice": "removes an ask for a token and emits an AskRemoved event"
      },
      "removeBid(uint256,address)": {
        "notice": "Removes the bid on a particular media for a bidder. The bid amount is transferred from this contract to the bidder, if they have a bid placed."
      },
      "removeLazyBidFromApp(uint256,string,address)": {
        "notice": "Removes the bid on a particular media for a bidder. The bid amount is transferred from this contract to the bidder, if they have a bid placed."
      },
      "setAsk(uint256,(uint256,address,bool))": {
        "notice": "Sets the ask on a particular media. If the ask cannot be evenly split into the media's bid shares, this reverts."
      },
      "setBid(uint256,(uint256,address,address,address,(uint256),bool),address)": {
        "notice": "Sets the bid on a particular media for a bidder. The token being used to bid is transferred from the spender to this contract to be held until removed or accepted. If another bid already exists for the bidder, it is refunded."
      },
      "setBidShares(uint256,((uint256),(uint256),(uint256)))": {
        "notice": "Sets bid shares for a particular tokenId. These bid shares must sum to 100."
      },
      "setLazyBidFromApp(uint256,(uint8,string,(uint256,address,bool),uint256,uint256,uint256,(string,string,bytes32,bytes32),((uint256),(uint256),(uint256))),(uint256,address,address,address,(uint256),bool),address)": {
        "notice": "Sets the bid on a particular media for a bidder. The token being used to bid is transferred from the spender to this contract to be held until removed or accepted. If another bid already exists for the bidder, it is refunded."
      },
      "splitShare((uint256),uint256)": {
        "notice": "return a % of the specified amount. This function is used to split a bid into shares for a media's shareholders."
      }
    },
    "notice": "This contract contains all of the market logic for Media",
    "version": 1
  },
  "storageLayout": {
    "storage": [
      {
        "astId": 1104,
        "contract": "src/Market.sol:Market",
        "label": "_owner",
        "offset": 0,
        "slot": "0",
        "type": "t_address"
      },
      {
        "astId": 6933,
        "contract": "src/Market.sol:Market",
        "label": "mediaContract",
        "offset": 0,
        "slot": "1",
        "type": "t_address"
      },
      {
        "astId": 6935,
        "contract": "src/Market.sol:Market",
        "label": "_owner",
        "offset": 0,
        "slot": "2",
        "type": "t_address"
      },
      {
        "astId": 6942,
        "contract": "src/Market.sol:Market",
        "label": "_tokenBidders",
        "offset": 0,
        "slot": "3",
        "type": "t_mapping(t_uint256,t_mapping(t_address,t_struct(Bid)18277_storage))"
      },
      {
        "astId": 6949,
        "contract": "src/Market.sol:Market",
        "label": "_lazyTokenBidders",
        "offset": 0,
        "slot": "4",
        "type": "t_mapping(t_string_memory_ptr,t_mapping(t_address,t_struct(Bid)18277_storage))"
      },
      {
        "astId": 6954,
        "contract": "src/Market.sol:Market",
        "label": "_bidShares",
        "offset": 0,
        "slot": "5",
        "type": "t_mapping(t_uint256,t_struct(BidShares)18294_storage)"
      },
      {
        "astId": 6959,
        "contract": "src/Market.sol:Market",
        "label": "_tokenAsks",
        "offset": 0,
        "slot": "6",
        "type": "t_mapping(t_uint256,t_struct(Ask)18284_storage)"
      }
    ],
    "types": {
      "t_address": {
        "encoding": "inplace",
        "label": "address",
        "numberOfBytes": "20"
      },
      "t_bool": {
        "encoding": "inplace",
        "label": "bool",
        "numberOfBytes": "1"
      },
      "t_mapping(t_address,t_struct(Bid)18277_storage)": {
        "encoding": "mapping",
        "key": "t_address",
        "label": "mapping(address => struct IMarket.Bid)",
        "numberOfBytes": "32",
        "value": "t_struct(Bid)18277_storage"
      },
      "t_mapping(t_string_memory_ptr,t_mapping(t_address,t_struct(Bid)18277_storage))": {
        "encoding": "mapping",
        "key": "t_string_memory_ptr",
        "label": "mapping(string => mapping(address => struct IMarket.Bid))",
        "numberOfBytes": "32",
        "value": "t_mapping(t_address,t_struct(Bid)18277_storage)"
      },
      "t_mapping(t_uint256,t_mapping(t_address,t_struct(Bid)18277_storage))": {
        "encoding": "mapping",
        "key": "t_uint256",
        "label": "mapping(uint256 => mapping(address => struct IMarket.Bid))",
        "numberOfBytes": "32",
        "value": "t_mapping(t_address,t_struct(Bid)18277_storage)"
      },
      "t_mapping(t_uint256,t_struct(Ask)18284_storage)": {
        "encoding": "mapping",
        "key": "t_uint256",
        "label": "mapping(uint256 => struct IMarket.Ask)",
        "numberOfBytes": "32",
        "value": "t_struct(Ask)18284_storage"
      },
      "t_mapping(t_uint256,t_struct(BidShares)18294_storage)": {
        "encoding": "mapping",
        "key": "t_uint256",
        "label": "mapping(uint256 => struct IMarket.BidShares)",
        "numberOfBytes": "32",
        "value": "t_struct(BidShares)18294_storage"
      },
      "t_string_memory_ptr": {
        "encoding": "bytes",
        "label": "string",
        "numberOfBytes": "32"
      },
      "t_struct(Ask)18284_storage": {
        "encoding": "inplace",
        "label": "struct IMarket.Ask",
        "members": [
          {
            "astId": 18279,
            "contract": "src/Market.sol:Market",
            "label": "amount",
            "offset": 0,
            "slot": "0",
            "type": "t_uint256"
          },
          {
            "astId": 18281,
            "contract": "src/Market.sol:Market",
            "label": "currency",
            "offset": 0,
            "slot": "1",
            "type": "t_address"
          },
          {
            "astId": 18283,
            "contract": "src/Market.sol:Market",
            "label": "offline",
            "offset": 20,
            "slot": "1",
            "type": "t_bool"
          }
        ],
        "numberOfBytes": "64"
      },
      "t_struct(Bid)18277_storage": {
        "encoding": "inplace",
        "label": "struct IMarket.Bid",
        "members": [
          {
            "astId": 18265,
            "contract": "src/Market.sol:Market",
            "label": "amount",
            "offset": 0,
            "slot": "0",
            "type": "t_uint256"
          },
          {
            "astId": 18267,
            "contract": "src/Market.sol:Market",
            "label": "currency",
            "offset": 0,
            "slot": "1",
            "type": "t_address"
          },
          {
            "astId": 18269,
            "contract": "src/Market.sol:Market",
            "label": "bidder",
            "offset": 0,
            "slot": "2",
            "type": "t_address"
          },
          {
            "astId": 18271,
            "contract": "src/Market.sol:Market",
            "label": "recipient",
            "offset": 0,
            "slot": "3",
            "type": "t_address"
          },
          {
            "astId": 18274,
            "contract": "src/Market.sol:Market",
            "label": "sellOnShare",
            "offset": 0,
            "slot": "4",
            "type": "t_struct(D256)5368_storage"
          },
          {
            "astId": 18276,
            "contract": "src/Market.sol:Market",
            "label": "offline",
            "offset": 0,
            "slot": "5",
            "type": "t_bool"
          }
        ],
        "numberOfBytes": "192"
      },
      "t_struct(BidShares)18294_storage": {
        "encoding": "inplace",
        "label": "struct IMarket.BidShares",
        "members": [
          {
            "astId": 18287,
            "contract": "src/Market.sol:Market",
            "label": "prevOwner",
            "offset": 0,
            "slot": "0",
            "type": "t_struct(D256)5368_storage"
          },
          {
            "astId": 18290,
            "contract": "src/Market.sol:Market",
            "label": "creator",
            "offset": 0,
            "slot": "1",
            "type": "t_struct(D256)5368_storage"
          },
          {
            "astId": 18293,
            "contract": "src/Market.sol:Market",
            "label": "owner",
            "offset": 0,
            "slot": "2",
            "type": "t_struct(D256)5368_storage"
          }
        ],
        "numberOfBytes": "96"
      },
      "t_struct(D256)5368_storage": {
        "encoding": "inplace",
        "label": "struct Decimal.D256",
        "members": [
          {
            "astId": 5367,
            "contract": "src/Market.sol:Market",
            "label": "value",
            "offset": 0,
            "slot": "0",
            "type": "t_uint256"
          }
        ],
        "numberOfBytes": "32"
      },
      "t_uint256": {
        "encoding": "inplace",
        "label": "uint256",
        "numberOfBytes": "32"
      }
    }
  }
}