{
  "address": "0x792de6045d65D7ad660a8cFB7cF4eB06EEaFBcDe",
  "abi": [
    {
      "inputs": [
        {
          "internalType": "string",
          "name": "_title",
          "type": "string"
        }
      ],
      "stateMutability": "nonpayable",
      "type": "constructor"
    },
    {
      "anonymous": false,
      "inputs": [
        {
          "indexed": true,
          "internalType": "address",
          "name": "previousOwner",
          "type": "address"
        },
        {
          "indexed": true,
          "internalType": "address",
          "name": "newOwner",
          "type": "address"
        }
      ],
      "name": "OwnershipTransferred",
      "type": "event"
    },
    {
      "inputs": [],
      "name": "appAddress",
      "outputs": [
        {
          "internalType": "address",
          "name": "",
          "type": "address"
        }
      ],
      "stateMutability": "view",
      "type": "function"
    },
    {
      "inputs": [
        {
          "internalType": "address",
          "name": "_appAddress",
          "type": "address"
        }
      ],
      "name": "configure",
      "outputs": [],
      "stateMutability": "nonpayable",
      "type": "function"
    },
    {
      "inputs": [
        {
          "internalType": "string",
          "name": "name",
          "type": "string"
        }
      ],
      "name": "firstTokenId",
      "outputs": [
        {
          "internalType": "uint256",
          "name": "",
          "type": "uint256"
        }
      ],
      "stateMutability": "view",
      "type": "function"
    },
    {
      "inputs": [
        {
          "internalType": "string",
          "name": "name",
          "type": "string"
        }
      ],
      "name": "getTokenType",
      "outputs": [
        {
          "components": [
            {
              "internalType": "enum ILux.Type",
              "name": "kind",
              "type": "uint8"
            },
            {
              "internalType": "string",
              "name": "name",
              "type": "string"
            },
            {
              "components": [
                {
                  "internalType": "uint256",
                  "name": "amount",
                  "type": "uint256"
                },
                {
                  "internalType": "address",
                  "name": "currency",
                  "type": "address"
                },
                {
                  "internalType": "bool",
                  "name": "offline",
                  "type": "bool"
                }
              ],
              "internalType": "struct IMarket.Ask",
              "name": "ask",
              "type": "tuple"
            },
            {
              "internalType": "uint256",
              "name": "supply",
              "type": "uint256"
            },
            {
              "internalType": "uint256",
              "name": "timestamp",
              "type": "uint256"
            },
            {
              "internalType": "uint256",
              "name": "minted",
              "type": "uint256"
            },
            {
              "internalType": "uint256",
              "name": "firstTokenId",
              "type": "uint256"
            },
            {
              "components": [
                {
                  "internalType": "string",
                  "name": "tokenURI",
                  "type": "string"
                },
                {
                  "internalType": "string",
                  "name": "metadataURI",
                  "type": "string"
                },
                {
                  "internalType": "bytes32",
                  "name": "contentHash",
                  "type": "bytes32"
                },
                {
                  "internalType": "bytes32",
                  "name": "metadataHash",
                  "type": "bytes32"
                }
              ],
              "internalType": "struct IMedia.MediaData",
              "name": "data",
              "type": "tuple"
            },
            {
              "components": [
                {
                  "components": [
                    {
                      "internalType": "uint256",
                      "name": "value",
                      "type": "uint256"
                    }
                  ],
                  "internalType": "struct Decimal.D256",
                  "name": "prevOwner",
                  "type": "tuple"
                },
                {
                  "components": [
                    {
                      "internalType": "uint256",
                      "name": "value",
                      "type": "uint256"
                    }
                  ],
                  "internalType": "struct Decimal.D256",
                  "name": "creator",
                  "type": "tuple"
                },
                {
                  "components": [
                    {
                      "internalType": "uint256",
                      "name": "value",
                      "type": "uint256"
                    }
                  ],
                  "internalType": "struct Decimal.D256",
                  "name": "owner",
                  "type": "tuple"
                }
              ],
              "internalType": "struct IMarket.BidShares",
              "name": "bidShares",
              "type": "tuple"
            }
          ],
          "internalType": "struct Drop.TokenType",
          "name": "",
          "type": "tuple"
        }
      ],
      "stateMutability": "view",
      "type": "function"
    },
    {
      "inputs": [
        {
          "internalType": "string",
          "name": "name",
          "type": "string"
        }
      ],
      "name": "newNFT",
      "outputs": [
        {
          "components": [
            {
              "internalType": "enum ILux.Type",
              "name": "kind",
              "type": "uint8"
            },
            {
              "internalType": "string",
              "name": "name",
              "type": "string"
            },
            {
              "internalType": "uint256",
              "name": "id",
              "type": "uint256"
            },
            {
              "internalType": "uint256",
              "name": "timestamp",
              "type": "uint256"
            },
            {
              "components": [
                {
                  "internalType": "string",
                  "name": "tokenURI",
                  "type": "string"
                },
                {
                  "internalType": "string",
                  "name": "metadataURI",
                  "type": "string"
                },
                {
                  "internalType": "bytes32",
                  "name": "contentHash",
                  "type": "bytes32"
                },
                {
                  "internalType": "bytes32",
                  "name": "metadataHash",
                  "type": "bytes32"
                }
              ],
              "internalType": "struct IMedia.MediaData",
              "name": "data",
              "type": "tuple"
            },
            {
              "components": [
                {
                  "components": [
                    {
                      "internalType": "uint256",
                      "name": "value",
                      "type": "uint256"
                    }
                  ],
                  "internalType": "struct Decimal.D256",
                  "name": "prevOwner",
                  "type": "tuple"
                },
                {
                  "components": [
                    {
                      "internalType": "uint256",
                      "name": "value",
                      "type": "uint256"
                    }
                  ],
                  "internalType": "struct Decimal.D256",
                  "name": "creator",
                  "type": "tuple"
                },
                {
                  "components": [
                    {
                      "internalType": "uint256",
                      "name": "value",
                      "type": "uint256"
                    }
                  ],
                  "internalType": "struct Decimal.D256",
                  "name": "owner",
                  "type": "tuple"
                }
              ],
              "internalType": "struct IMarket.BidShares",
              "name": "bidShares",
              "type": "tuple"
            },
            {
              "components": [
                {
                  "internalType": "uint256",
                  "name": "tokenId",
                  "type": "uint256"
                },
                {
                  "internalType": "uint256",
                  "name": "dropId",
                  "type": "uint256"
                },
                {
                  "internalType": "bool",
                  "name": "burned",
                  "type": "bool"
                }
              ],
              "internalType": "struct ILux.Meta",
              "name": "meta",
              "type": "tuple"
            }
          ],
          "internalType": "struct ILux.Token",
          "name": "",
          "type": "tuple"
        }
      ],
      "stateMutability": "nonpayable",
      "type": "function"
    },
    {
      "inputs": [],
      "name": "owner",
      "outputs": [
        {
          "internalType": "address",
          "name": "",
          "type": "address"
        }
      ],
      "stateMutability": "view",
      "type": "function"
    },
    {
      "inputs": [],
      "name": "renounceOwnership",
      "outputs": [],
      "stateMutability": "nonpayable",
      "type": "function"
    },
    {
      "inputs": [
        {
          "internalType": "string",
          "name": "name",
          "type": "string"
        },
        {
          "internalType": "uint256",
          "name": "_firstTokenId",
          "type": "uint256"
        }
      ],
      "name": "setFirstTokenId",
      "outputs": [],
      "stateMutability": "nonpayable",
      "type": "function"
    },
    {
      "inputs": [
        {
          "internalType": "enum ILux.Type",
          "name": "kind",
          "type": "uint8"
        },
        {
          "internalType": "string",
          "name": "name",
          "type": "string"
        },
        {
          "components": [
            {
              "internalType": "uint256",
              "name": "amount",
              "type": "uint256"
            },
            {
              "internalType": "address",
              "name": "currency",
              "type": "address"
            },
            {
              "internalType": "bool",
              "name": "offline",
              "type": "bool"
            }
          ],
          "internalType": "struct IMarket.Ask",
          "name": "ask",
          "type": "tuple"
        },
        {
          "internalType": "uint256",
          "name": "supply",
          "type": "uint256"
        },
        {
          "internalType": "string",
          "name": "tokenURI",
          "type": "string"
        },
        {
          "internalType": "string",
          "name": "metadataURI",
          "type": "string"
        }
      ],
      "name": "setTokenType",
      "outputs": [
        {
          "components": [
            {
              "internalType": "enum ILux.Type",
              "name": "kind",
              "type": "uint8"
            },
            {
              "internalType": "string",
              "name": "name",
              "type": "string"
            },
            {
              "components": [
                {
                  "internalType": "uint256",
                  "name": "amount",
                  "type": "uint256"
                },
                {
                  "internalType": "address",
                  "name": "currency",
                  "type": "address"
                },
                {
                  "internalType": "bool",
                  "name": "offline",
                  "type": "bool"
                }
              ],
              "internalType": "struct IMarket.Ask",
              "name": "ask",
              "type": "tuple"
            },
            {
              "internalType": "uint256",
              "name": "supply",
              "type": "uint256"
            },
            {
              "internalType": "uint256",
              "name": "timestamp",
              "type": "uint256"
            },
            {
              "internalType": "uint256",
              "name": "minted",
              "type": "uint256"
            },
            {
              "internalType": "uint256",
              "name": "firstTokenId",
              "type": "uint256"
            },
            {
              "components": [
                {
                  "internalType": "string",
                  "name": "tokenURI",
                  "type": "string"
                },
                {
                  "internalType": "string",
                  "name": "metadataURI",
                  "type": "string"
                },
                {
                  "internalType": "bytes32",
                  "name": "contentHash",
                  "type": "bytes32"
                },
                {
                  "internalType": "bytes32",
                  "name": "metadataHash",
                  "type": "bytes32"
                }
              ],
              "internalType": "struct IMedia.MediaData",
              "name": "data",
              "type": "tuple"
            },
            {
              "components": [
                {
                  "components": [
                    {
                      "internalType": "uint256",
                      "name": "value",
                      "type": "uint256"
                    }
                  ],
                  "internalType": "struct Decimal.D256",
                  "name": "prevOwner",
                  "type": "tuple"
                },
                {
                  "components": [
                    {
                      "internalType": "uint256",
                      "name": "value",
                      "type": "uint256"
                    }
                  ],
                  "internalType": "struct Decimal.D256",
                  "name": "creator",
                  "type": "tuple"
                },
                {
                  "components": [
                    {
                      "internalType": "uint256",
                      "name": "value",
                      "type": "uint256"
                    }
                  ],
                  "internalType": "struct Decimal.D256",
                  "name": "owner",
                  "type": "tuple"
                }
              ],
              "internalType": "struct IMarket.BidShares",
              "name": "bidShares",
              "type": "tuple"
            }
          ],
          "internalType": "struct Drop.TokenType",
          "name": "",
          "type": "tuple"
        }
      ],
      "stateMutability": "nonpayable",
      "type": "function"
    },
    {
      "inputs": [],
      "name": "title",
      "outputs": [
        {
          "internalType": "string",
          "name": "",
          "type": "string"
        }
      ],
      "stateMutability": "view",
      "type": "function"
    },
    {
      "inputs": [
        {
          "internalType": "string",
          "name": "name",
          "type": "string"
        }
      ],
      "name": "tokenSupply",
      "outputs": [
        {
          "internalType": "uint256",
          "name": "",
          "type": "uint256"
        }
      ],
      "stateMutability": "view",
      "type": "function"
    },
    {
      "inputs": [
        {
          "internalType": "string",
          "name": "name",
          "type": "string"
        }
      ],
      "name": "tokenTypeAsk",
      "outputs": [
        {
          "components": [
            {
              "internalType": "uint256",
              "name": "amount",
              "type": "uint256"
            },
            {
              "internalType": "address",
              "name": "currency",
              "type": "address"
            },
            {
              "internalType": "bool",
              "name": "offline",
              "type": "bool"
            }
          ],
          "internalType": "struct IMarket.Ask",
          "name": "",
          "type": "tuple"
        }
      ],
      "stateMutability": "view",
      "type": "function"
    },
    {
      "inputs": [
        {
          "internalType": "string",
          "name": "",
          "type": "string"
        }
      ],
      "name": "tokenTypes",
      "outputs": [
        {
          "internalType": "enum ILux.Type",
          "name": "kind",
          "type": "uint8"
        },
        {
          "internalType": "string",
          "name": "name",
          "type": "string"
        },
        {
          "components": [
            {
              "internalType": "uint256",
              "name": "amount",
              "type": "uint256"
            },
            {
              "internalType": "address",
              "name": "currency",
              "type": "address"
            },
            {
              "internalType": "bool",
              "name": "offline",
              "type": "bool"
            }
          ],
          "internalType": "struct IMarket.Ask",
          "name": "ask",
          "type": "tuple"
        },
        {
          "internalType": "uint256",
          "name": "supply",
          "type": "uint256"
        },
        {
          "internalType": "uint256",
          "name": "timestamp",
          "type": "uint256"
        },
        {
          "internalType": "uint256",
          "name": "minted",
          "type": "uint256"
        },
        {
          "internalType": "uint256",
          "name": "firstTokenId",
          "type": "uint256"
        },
        {
          "components": [
            {
              "internalType": "string",
              "name": "tokenURI",
              "type": "string"
            },
            {
              "internalType": "string",
              "name": "metadataURI",
              "type": "string"
            },
            {
              "internalType": "bytes32",
              "name": "contentHash",
              "type": "bytes32"
            },
            {
              "internalType": "bytes32",
              "name": "metadataHash",
              "type": "bytes32"
            }
          ],
          "internalType": "struct IMedia.MediaData",
          "name": "data",
          "type": "tuple"
        },
        {
          "components": [
            {
              "components": [
                {
                  "internalType": "uint256",
                  "name": "value",
                  "type": "uint256"
                }
              ],
              "internalType": "struct Decimal.D256",
              "name": "prevOwner",
              "type": "tuple"
            },
            {
              "components": [
                {
                  "internalType": "uint256",
                  "name": "value",
                  "type": "uint256"
                }
              ],
              "internalType": "struct Decimal.D256",
              "name": "creator",
              "type": "tuple"
            },
            {
              "components": [
                {
                  "internalType": "uint256",
                  "name": "value",
                  "type": "uint256"
                }
              ],
              "internalType": "struct Decimal.D256",
              "name": "owner",
              "type": "tuple"
            }
          ],
          "internalType": "struct IMarket.BidShares",
          "name": "bidShares",
          "type": "tuple"
        }
      ],
      "stateMutability": "view",
      "type": "function"
    },
    {
      "inputs": [
        {
          "internalType": "string",
          "name": "name",
          "type": "string"
        }
      ],
      "name": "totalMinted",
      "outputs": [
        {
          "internalType": "uint256",
          "name": "",
          "type": "uint256"
        }
      ],
      "stateMutability": "view",
      "type": "function"
    },
    {
      "inputs": [
        {
          "internalType": "address",
          "name": "newOwner",
          "type": "address"
        }
      ],
      "name": "transferOwnership",
      "outputs": [],
      "stateMutability": "nonpayable",
      "type": "function"
    }
  ],
  "transactionHash": "0x1d319e2abed4de7b40f6ca66793c50b54851ccdc2d4a2915ba3fc1ea621e042f",
  "args": [
    "Gen 0"
  ],
  "solcInputHash": "b6ae13b70a743644a886e0e7f0da59b8",
  "bytecode": "0x60806040523480156200001157600080fd5b5060405162001c4738038062001c47833981016040819052620000349162000152565b6200003f336200005c565b805162000054906001906020840190620000ac565b50506200027b565b600080546001600160a01b038381166001600160a01b0319831681178455604051919092169283917f8be0079c531659141344cd1fd0a4f28419497f9722a3daafe3b4186f6b6457e09190a35050565b828054620000ba9062000228565b90600052602060002090601f016020900481019282620000de576000855562000129565b82601f10620000f957805160ff191683800117855562000129565b8280016001018555821562000129579182015b82811115620001295782518255916020019190600101906200010c565b50620001379291506200013b565b5090565b5b808211156200013757600081556001016200013c565b6000602080838503121562000165578182fd5b82516001600160401b03808211156200017c578384fd5b818501915085601f83011262000190578384fd5b815181811115620001a557620001a562000265565b604051601f8201601f19908116603f01168101908382118183101715620001d057620001d062000265565b816040528281528886848701011115620001e8578687fd5b8693505b828410156200020b5784840186015181850187015292850192620001ec565b828411156200021c57868684830101525b98975050505050505050565b600181811c908216806200023d57607f821691505b602082108114156200025f57634e487b7160e01b600052602260045260246000fd5b50919050565b634e487b7160e01b600052604160045260246000fd5b6119bc806200028b6000396000f3fe608060405234801561001057600080fd5b50600436106100c55760003560e01c806302696388146100ca5780634a79d50c146100fb5780635854c792146101105780636c1dbf1c146101315780636f592fc014610151578063715018a614610171578063752d67bd1461017b57806375cb26721461018e57806375f699f0146101a15780638da5cb5b146101b4578063c957476f146101d4578063e72132d7146101e7578063f1e879c6146101fa578063f2fde38b1461021a578063f475871f1461022d575b600080fd5b6100dd6100d83660046113ee565b610240565b6040516100f299989796959493929190611563565b60405180910390f35b6101036104cb565b6040516100f291906115de565b61012361011e3660046113ee565b610559565b6040519081526020016100f2565b61014461013f3660046113ee565b61056e565b6040516100f29190611727565b61016461015f3660046113ee565b610801565b6040516100f2919061166c565b61017961081c565b005b6101236101893660046113ee565b610857565b61017961019c366004611320565b61086c565b6101236101af3660046113ee565b6108bd565b6101bc6108d2565b6040516001600160a01b0390911681526020016100f2565b6101796101e2366004611428565b6108e1565b6002546101bc906001600160a01b031681565b61020d61020836600461133a565b61095e565b6040516100f2919061167a565b610179610228366004611320565b610b6c565b61020d61023b3660046113ee565b610c0c565b80516020818301810180516003825292820191909301209152805460018201805460ff909216929161027190611904565b80601f016020809104026020016040519081016040528092919081815260200182805461029d90611904565b80156102ea5780601f106102bf576101008083540402835291602001916102ea565b820191906000526020600020905b8154815290600101906020018083116102cd57829003601f168201915b5050604080516060810182526002870154815260038701546001600160a01b0381166020830152600160a01b900460ff1615158183015260048701546005880154600689015460078a015485516080810190965260088b0180549a9b959a94995092975090955093918290829061036090611904565b80601f016020809104026020016040519081016040528092919081815260200182805461038c90611904565b80156103d95780601f106103ae576101008083540402835291602001916103d9565b820191906000526020600020905b8154815290600101906020018083116103bc57829003601f168201915b505050505081526020016001820180546103f290611904565b80601f016020809104026020016040519081016040528092919081815260200182805461041e90611904565b801561046b5780601f106104405761010080835404028352916020019161046b565b820191906000526020600020905b81548152906001019060200180831161044e57829003601f168201915b505050918352505060028201546020808301919091526003909201546040918201528051608081018252600c85015460608201908152815281518084018352600d86015481528184015281519283018252600e9094015482528301529089565b600180546104d890611904565b80601f016020809104026020016040519081016040528092919081815260200182805461050490611904565b80156105515780601f1061052657610100808354040283529160200191610551565b820191906000526020600020905b81548152906001019060200180831161053457829003601f168201915b505050505081565b600061056482610c0c565b6060015192915050565b610576611039565b6002546001600160a01b031633146105a95760405162461bcd60e51b81526004016105a090611626565b60405180910390fd5b60006105b483610c0c565b90506105bf83610559565b15806105d657506105cf83610559565b8160a00151105b6106125760405162461bcd60e51b815260206004820152600d60248201526c4f7574206f6620746f6b656e7360981b60448201526064016105a0565b60a081018051906106228261193f565b81525050806003826020015160405161063b9190611547565b90815260405190819003602001902081518154829060ff1916600183600381111561067657634e487b7160e01b600052602160045260246000fd5b02179055506020828101518051610693926001850192019061109e565b506040828101518051600284015560208082015160038501805493909401511515600160a01b026001600160a81b03199093166001600160a01b039091161791909117909155606083015160048301556080830151600583015560a0830151600683015560c0830151600783015560e0830151805180519192600885019261071e928492019061109e565b506020828101518051610737926001850192019061109e565b5060408281015160028301556060909201516003918201556101009390930151805151600c840155602081015151600d84015581015151600e90920191909155805160e08101909152825190918291908111156107a457634e487b7160e01b600052602160045260246000fd5b815260200182602001518152602001600081526020014281526020018260e001518152602001826101000151815260200160405180606001604052806000815260200160008152602001600015158152508152509150505b919050565b610809611122565b61081282610c0c565b6040015192915050565b336108256108d2565b6001600160a01b03161461084b5760405162461bcd60e51b81526004016105a0906115f1565b6108556000610f19565b565b600061086282610c0c565b60c0015192915050565b336108756108d2565b6001600160a01b03161461089b5760405162461bcd60e51b81526004016105a0906115f1565b600280546001600160a01b0319166001600160a01b0392909216919091179055565b60006108c882610c0c565b60a0015192915050565b6000546001600160a01b031690565b6002546001600160a01b0316331461090b5760405162461bcd60e51b81526004016105a090611626565b60038260405161091b9190611547565b9081526020016040518091039020600601546001141561095a57806003836040516109469190611547565b908152604051908190036020019020600701555b5050565b610966611142565b3361096f6108d2565b6001600160a01b0316146109955760405162461bcd60e51b81526004016105a0906115f1565b61099d611142565b808860038111156109be57634e487b7160e01b600052602160045260246000fd5b908160038111156109df57634e487b7160e01b600052602160045260246000fd5b905250602081018790526040810186905260608101859052610a018484610f69565b60e0820152610a0e610f9d565b6101008201526040518190600390610a27908a90611547565b90815260405190819003602001902081518154829060ff19166001836003811115610a6257634e487b7160e01b600052602160045260246000fd5b02179055506020828101518051610a7f926001850192019061109e565b506040828101518051600284015560208082015160038501805493909401511515600160a01b026001600160a81b03199093166001600160a01b039091161791909117909155606083015160048301556080830151600583015560a0830151600683015560c0830151600783015560e08301518051805191926008850192610b0a928492019061109e565b506020828101518051610b23926001850192019061109e565b5060408281015160028301556060909201516003909101556101009290920151805151600c830155602081015151600d8301559091015151600e90910155979650505050505050565b33610b756108d2565b6001600160a01b031614610b9b5760405162461bcd60e51b81526004016105a0906115f1565b6001600160a01b038116610c005760405162461bcd60e51b815260206004820152602660248201527f4f776e61626c653a206e6577206f776e657220697320746865207a65726f206160448201526564647265737360d01b60648201526084016105a0565b610c0981610f19565b50565b610c14611142565b600382604051610c249190611547565b9081526040805191829003602001822061012083019091528054829060ff166003811115610c6257634e487b7160e01b600052602160045260246000fd5b6003811115610c8157634e487b7160e01b600052602160045260246000fd5b8152602001600182018054610c9590611904565b80601f0160208091040260200160405190810160405280929190818152602001828054610cc190611904565b8015610d0e5780601f10610ce357610100808354040283529160200191610d0e565b820191906000526020600020905b815481529060010190602001808311610cf157829003601f168201915b505050918352505060408051606080820183526002850154825260038501546001600160a01b038116602080850191909152600160a01b90910460ff161515838501528401919091526004840154828401526005840154908301526006830154608080840191909152600784015460a0840152815190810190915260088301805460c09093019282908290610da290611904565b80601f0160208091040260200160405190810160405280929190818152602001828054610dce90611904565b8015610e1b5780601f10610df057610100808354040283529160200191610e1b565b820191906000526020600020905b815481529060010190602001808311610dfe57829003601f168201915b50505050508152602001600182018054610e3490611904565b80601f0160208091040260200160405190810160405280929190818152602001828054610e6090611904565b8015610ead5780601f10610e8257610100808354040283529160200191610ead565b820191906000526020600020905b815481529060010190602001808311610e9057829003601f168201915b505050918352505060028201546020808301919091526003909201546040918201529183528151608081018352600c85015460608201908152815282518083018452600d86015481528183015282518083018452600e9095015485529182019390935291015292915050565b600080546001600160a01b038381166001600160a01b0319831681178455604051919092169283917f8be0079c531659141344cd1fd0a4f28419497f9722a3daafe3b4186f6b6457e09190a35050565b610f71611199565b506040805160808101825283815260208101839052600091810182905260608101919091525b92915050565b610fa56111c0565b6040805160808101909152806060810180610fcd610fc56012600a61180d565b600090611026565b81525081526020016040518060200160405280610ff16012600a610fc5919061180d565b8152508152602001604051806020016040528061101d6012600a611015919061180d565b606490611026565b90529052919050565b600061103282846118b5565b9392505050565b6040805160e081019091528060008152602001606081526020016000815260200160008152602001611069611199565b81526020016110766111c0565b815260408051606081018252600080825260208281018290529282015291015290565b905290565b8280546110aa90611904565b90600052602060002090601f0160209004810192826110cc5760008555611112565b82601f106110e557805160ff1916838001178555611112565b82800160010185558215611112579182015b828111156111125782518255916020019190600101906110f7565b5061111e9291506111ed565b5090565b604080516060810182526000808252602082018190529181019190915290565b60408051610120810182526000815260606020820152908101611163611122565b81526020016000815260200160008152602001600081526020016000815260200161118c611199565b81526020016110996111c0565b60408051608081018252606080825260208201819052600092820183905281019190915290565b60405180606001604052806111d3611202565b81526020016111e0611202565b8152602001611099611202565b5b8082111561111e57600081556001016111ee565b6040518060200160405280600081525090565b80356001600160a01b03811681146107fc57600080fd5b600082601f83011261123c578081fd5b81356001600160401b038082111561125657611256611970565b604051601f8301601f19908116603f0116810190828211818310171561127e5761127e611970565b81604052838152866020858801011115611296578485fd5b8360208701602083013792830160200193909352509392505050565b6000606082840312156112c3578081fd5b604051606081018181106001600160401b03821117156112e5576112e5611970565b604052823581529050806112fb60208401611215565b60208201526040830135801515811461131357600080fd5b6040919091015292915050565b600060208284031215611331578081fd5b61103282611215565b6000806000806000806101008789031215611353578182fd5b863560048110611361578283fd5b955060208701356001600160401b038082111561137c578384fd5b6113888a838b0161122c565b96506113978a60408b016112b2565b955060a0890135945060c08901359150808211156113b3578384fd5b6113bf8a838b0161122c565b935060e08901359150808211156113d4578283fd5b506113e189828a0161122c565b9150509295509295509295565b6000602082840312156113ff578081fd5b81356001600160401b03811115611414578182fd5b6114208482850161122c565b949350505050565b6000806040838503121561143a578182fd5b82356001600160401b0381111561144f578283fd5b61145b8582860161122c565b95602094909401359450505050565b6004811061148857634e487b7160e01b600052602160045260246000fd5b9052565b600081518084526114a48160208601602086016118d4565b601f01601f19169290920160200192915050565b805182526020808201516001600160a01b0316908301526040908101511515910152565b8051518252602080820151519083015260409081015151910152565b600081516080845261150d608085018261148c565b905060208301518482036020860152611526828261148c565b91505060408301516040850152606083015160608501528091505092915050565b600082516115598184602087016118d4565b9190910192915050565b60006101a0611572838d61146a565b8060208401526115848184018c61148c565b9050611593604084018b6114b8565b8860a08401528760c08401528660e0840152856101008401528281036101208401526115bf81866114f8565b9150506115d06101408301846114dc565b9a9950505050505050505050565b602081526000611032602083018461148c565b6020808252818101527f4f776e61626c653a2063616c6c6572206973206e6f7420746865206f776e6572604082015260600190565b60208082526026908201527f4c757844726f703a204f6e6c79204170702063616e2063616c6c2074686973206040820152651b595d1a1bd960d21b606082015260800190565b60608101610f9782846114b8565b6020815261168c60208201835161146a565b600060208301516101a060408401526116a96101c084018261148c565b905060408401516116bd60608501826114b8565b50606084015160c0840152608084015160e084015260a0840151610100818186015260c086015161012086015260e08601519150601f198584030161014086015261170883836114f8565b92508086015191505061171f6101608501826114dc565b509392505050565b6020815261173960208201835161146a565b6000602083015161016080604085015261175761018085018361148c565b915060408501516060850152606085015160808501526080850151601f198584030160a086015261178883826114f8565b92505060a085015161179d60c08601826114dc565b5060c094909401518051610120850152602081015161014085015260400151151592909301919091525090565b600181815b808511156118055781600019048211156117eb576117eb61195a565b808516156117f857918102915b93841c93908002906117cf565b509250929050565b6000611032838360008261182357506001610f97565b8161183057506000610f97565b816001811461184657600281146118505761186c565b6001915050610f97565b60ff8411156118615761186161195a565b50506001821b610f97565b5060208310610133831016604e8410600b841016171561188f575081810a610f97565b61189983836117ca565b80600019048211156118ad576118ad61195a565b029392505050565b60008160001904831182151516156118cf576118cf61195a565b500290565b60005b838110156118ef5781810151838201526020016118d7565b838111156118fe576000848401525b50505050565b600181811c9082168061191857607f821691505b6020821081141561193957634e487b7160e01b600052602260045260246000fd5b50919050565b60006000198214156119535761195361195a565b5060010190565b634e487b7160e01b600052601160045260246000fd5b634e487b7160e01b600052604160045260246000fdfea2646970667358221220cc4a30386319c80aba2eb495ae79c48c5c67b02017a6816635b367453b215b9564736f6c63430008040033",
  "libraries": {},
  "devdoc": {
    "kind": "dev",
    "methods": {
      "owner()": {
        "details": "Returns the address of the current owner."
      },
      "renounceOwnership()": {
        "details": "Leaves the contract without owner. It will not be possible to call `onlyOwner` functions anymore. Can only be called by the current owner. NOTE: Renouncing ownership will leave the contract without an owner, thereby removing any functionality that is only available to the owner."
      },
      "transferOwnership(address)": {
        "details": "Transfers ownership of the contract to a new account (`newOwner`). Can only be called by the current owner."
      }
    },
    "version": 1
  },
  "userdoc": {
    "kind": "user",
    "methods": {},
    "version": 1
  },
  "storageLayout": {
    "storage": [
      {
        "astId": 1046,
        "contract": "src/Drop.sol:Drop",
        "label": "_owner",
        "offset": 0,
        "slot": "0",
        "type": "t_address"
      },
      {
        "astId": 5065,
        "contract": "src/Drop.sol:Drop",
        "label": "title",
        "offset": 0,
        "slot": "1",
        "type": "t_string_storage"
      },
      {
        "astId": 5067,
        "contract": "src/Drop.sol:Drop",
        "label": "appAddress",
        "offset": 0,
        "slot": "2",
        "type": "t_address"
      },
      {
        "astId": 5072,
        "contract": "src/Drop.sol:Drop",
        "label": "tokenTypes",
        "offset": 0,
        "slot": "3",
        "type": "t_mapping(t_string_memory_ptr,t_struct(TokenType)5063_storage)"
      }
    ],
    "types": {
      "t_address": {
        "encoding": "inplace",
        "label": "address",
        "numberOfBytes": "20"
      },
      "t_bool": {
        "encoding": "inplace",
        "label": "bool",
        "numberOfBytes": "1"
      },
      "t_bytes32": {
        "encoding": "inplace",
        "label": "bytes32",
        "numberOfBytes": "32"
      },
      "t_enum(Type)16869": {
        "encoding": "inplace",
        "label": "enum ILux.Type",
        "numberOfBytes": "1"
      },
      "t_mapping(t_string_memory_ptr,t_struct(TokenType)5063_storage)": {
        "encoding": "mapping",
        "key": "t_string_memory_ptr",
        "label": "mapping(string => struct Drop.TokenType)",
        "numberOfBytes": "32",
        "value": "t_struct(TokenType)5063_storage"
      },
      "t_string_memory_ptr": {
        "encoding": "bytes",
        "label": "string",
        "numberOfBytes": "32"
      },
      "t_string_storage": {
        "encoding": "bytes",
        "label": "string",
        "numberOfBytes": "32"
      },
      "t_struct(Ask)16923_storage": {
        "encoding": "inplace",
        "label": "struct IMarket.Ask",
        "members": [
          {
            "astId": 16918,
            "contract": "src/Drop.sol:Drop",
            "label": "amount",
            "offset": 0,
            "slot": "0",
            "type": "t_uint256"
          },
          {
            "astId": 16920,
            "contract": "src/Drop.sol:Drop",
            "label": "currency",
            "offset": 0,
            "slot": "1",
            "type": "t_address"
          },
          {
            "astId": 16922,
            "contract": "src/Drop.sol:Drop",
            "label": "offline",
            "offset": 20,
            "slot": "1",
            "type": "t_bool"
          }
        ],
        "numberOfBytes": "64"
      },
      "t_struct(BidShares)16933_storage": {
        "encoding": "inplace",
        "label": "struct IMarket.BidShares",
        "members": [
          {
            "astId": 16926,
            "contract": "src/Drop.sol:Drop",
            "label": "prevOwner",
            "offset": 0,
            "slot": "0",
            "type": "t_struct(D256)4952_storage"
          },
          {
            "astId": 16929,
            "contract": "src/Drop.sol:Drop",
            "label": "creator",
            "offset": 0,
            "slot": "1",
            "type": "t_struct(D256)4952_storage"
          },
          {
            "astId": 16932,
            "contract": "src/Drop.sol:Drop",
            "label": "owner",
            "offset": 0,
            "slot": "2",
            "type": "t_struct(D256)4952_storage"
          }
        ],
        "numberOfBytes": "96"
      },
      "t_struct(D256)4952_storage": {
        "encoding": "inplace",
        "label": "struct Decimal.D256",
        "members": [
          {
            "astId": 4951,
            "contract": "src/Drop.sol:Drop",
            "label": "value",
            "offset": 0,
            "slot": "0",
            "type": "t_uint256"
          }
        ],
        "numberOfBytes": "32"
      },
      "t_struct(MediaData)17110_storage": {
        "encoding": "inplace",
        "label": "struct IMedia.MediaData",
        "members": [
          {
            "astId": 17103,
            "contract": "src/Drop.sol:Drop",
            "label": "tokenURI",
            "offset": 0,
            "slot": "0",
            "type": "t_string_storage"
          },
          {
            "astId": 17105,
            "contract": "src/Drop.sol:Drop",
            "label": "metadataURI",
            "offset": 0,
            "slot": "1",
            "type": "t_string_storage"
          },
          {
            "astId": 17107,
            "contract": "src/Drop.sol:Drop",
            "label": "contentHash",
            "offset": 0,
            "slot": "2",
            "type": "t_bytes32"
          },
          {
            "astId": 17109,
            "contract": "src/Drop.sol:Drop",
            "label": "metadataHash",
            "offset": 0,
            "slot": "3",
            "type": "t_bytes32"
          }
        ],
        "numberOfBytes": "128"
      },
      "t_struct(TokenType)5063_storage": {
        "encoding": "inplace",
        "label": "struct Drop.TokenType",
        "members": [
          {
            "astId": 5043,
            "contract": "src/Drop.sol:Drop",
            "label": "kind",
            "offset": 0,
            "slot": "0",
            "type": "t_enum(Type)16869"
          },
          {
            "astId": 5045,
            "contract": "src/Drop.sol:Drop",
            "label": "name",
            "offset": 0,
            "slot": "1",
            "type": "t_string_storage"
          },
          {
            "astId": 5048,
            "contract": "src/Drop.sol:Drop",
            "label": "ask",
            "offset": 0,
            "slot": "2",
            "type": "t_struct(Ask)16923_storage"
          },
          {
            "astId": 5050,
            "contract": "src/Drop.sol:Drop",
            "label": "supply",
            "offset": 0,
            "slot": "4",
            "type": "t_uint256"
          },
          {
            "astId": 5052,
            "contract": "src/Drop.sol:Drop",
            "label": "timestamp",
            "offset": 0,
            "slot": "5",
            "type": "t_uint256"
          },
          {
            "astId": 5054,
            "contract": "src/Drop.sol:Drop",
            "label": "minted",
            "offset": 0,
            "slot": "6",
            "type": "t_uint256"
          },
          {
            "astId": 5056,
            "contract": "src/Drop.sol:Drop",
            "label": "firstTokenId",
            "offset": 0,
            "slot": "7",
            "type": "t_uint256"
          },
          {
            "astId": 5059,
            "contract": "src/Drop.sol:Drop",
            "label": "data",
            "offset": 0,
            "slot": "8",
            "type": "t_struct(MediaData)17110_storage"
          },
          {
            "astId": 5062,
            "contract": "src/Drop.sol:Drop",
            "label": "bidShares",
            "offset": 0,
            "slot": "12",
            "type": "t_struct(BidShares)16933_storage"
          }
        ],
        "numberOfBytes": "480"
      },
      "t_uint256": {
        "encoding": "inplace",
        "label": "uint256",
        "numberOfBytes": "32"
      }
    }
  }
}