{
  "address": "0x792de6045d65D7ad660a8cFB7cF4eB06EEaFBcDe",
  "abi": [
    {
      "inputs": [
        {
          "internalType": "string",
          "name": "_title",
          "type": "string"
        }
      ],
      "stateMutability": "nonpayable",
      "type": "constructor"
    },
    {
      "anonymous": false,
      "inputs": [
        {
          "indexed": true,
          "internalType": "address",
          "name": "previousOwner",
          "type": "address"
        },
        {
          "indexed": true,
          "internalType": "address",
          "name": "newOwner",
          "type": "address"
        }
      ],
      "name": "OwnershipTransferred",
      "type": "event"
    },
    {
      "inputs": [],
      "name": "appAddress",
      "outputs": [
        {
          "internalType": "address",
          "name": "",
          "type": "address"
        }
      ],
      "stateMutability": "view",
      "type": "function"
    },
    {
      "inputs": [
        {
          "internalType": "address",
          "name": "_appAddress",
          "type": "address"
        }
      ],
      "name": "configure",
      "outputs": [],
      "stateMutability": "nonpayable",
      "type": "function"
    },
    {
      "inputs": [
        {
          "internalType": "string",
          "name": "name",
          "type": "string"
        }
      ],
      "name": "getTokenType",
      "outputs": [
        {
          "components": [
            {
              "internalType": "enum ILux.Type",
              "name": "kind",
              "type": "uint8"
            },
            {
              "internalType": "string",
              "name": "name",
              "type": "string"
            },
            {
              "components": [
                {
                  "internalType": "uint256",
                  "name": "amount",
                  "type": "uint256"
                },
                {
                  "internalType": "address",
                  "name": "currency",
                  "type": "address"
                },
                {
                  "internalType": "bool",
                  "name": "offline",
                  "type": "bool"
                }
              ],
              "internalType": "struct IMarket.Ask",
              "name": "ask",
              "type": "tuple"
            },
            {
              "internalType": "uint256",
              "name": "supply",
              "type": "uint256"
            },
            {
              "internalType": "uint256",
              "name": "timestamp",
              "type": "uint256"
            },
            {
              "internalType": "uint256",
              "name": "minted",
              "type": "uint256"
            },
            {
              "components": [
                {
                  "internalType": "string",
                  "name": "tokenURI",
                  "type": "string"
                },
                {
                  "internalType": "string",
                  "name": "metadataURI",
                  "type": "string"
                },
                {
                  "internalType": "bytes32",
                  "name": "contentHash",
                  "type": "bytes32"
                },
                {
                  "internalType": "bytes32",
                  "name": "metadataHash",
                  "type": "bytes32"
                }
              ],
              "internalType": "struct IMedia.MediaData",
              "name": "data",
              "type": "tuple"
            },
            {
              "components": [
                {
                  "components": [
                    {
                      "internalType": "uint256",
                      "name": "value",
                      "type": "uint256"
                    }
                  ],
                  "internalType": "struct Decimal.D256",
                  "name": "prevOwner",
                  "type": "tuple"
                },
                {
                  "components": [
                    {
                      "internalType": "uint256",
                      "name": "value",
                      "type": "uint256"
                    }
                  ],
                  "internalType": "struct Decimal.D256",
                  "name": "creator",
                  "type": "tuple"
                },
                {
                  "components": [
                    {
                      "internalType": "uint256",
                      "name": "value",
                      "type": "uint256"
                    }
                  ],
                  "internalType": "struct Decimal.D256",
                  "name": "owner",
                  "type": "tuple"
                }
              ],
              "internalType": "struct IMarket.BidShares",
              "name": "bidShares",
              "type": "tuple"
            }
          ],
          "internalType": "struct Drop.TokenType",
          "name": "",
          "type": "tuple"
        }
      ],
      "stateMutability": "view",
      "type": "function"
    },
    {
      "inputs": [
        {
          "internalType": "string",
          "name": "name",
          "type": "string"
        }
      ],
      "name": "newNFT",
      "outputs": [
        {
          "components": [
            {
              "internalType": "enum ILux.Type",
              "name": "kind",
              "type": "uint8"
            },
            {
              "internalType": "string",
              "name": "name",
              "type": "string"
            },
            {
              "internalType": "uint256",
              "name": "id",
              "type": "uint256"
            },
            {
              "internalType": "uint256",
              "name": "timestamp",
              "type": "uint256"
            },
            {
              "components": [
                {
                  "internalType": "string",
                  "name": "tokenURI",
                  "type": "string"
                },
                {
                  "internalType": "string",
                  "name": "metadataURI",
                  "type": "string"
                },
                {
                  "internalType": "bytes32",
                  "name": "contentHash",
                  "type": "bytes32"
                },
                {
                  "internalType": "bytes32",
                  "name": "metadataHash",
                  "type": "bytes32"
                }
              ],
              "internalType": "struct IMedia.MediaData",
              "name": "data",
              "type": "tuple"
            },
            {
              "components": [
                {
                  "components": [
                    {
                      "internalType": "uint256",
                      "name": "value",
                      "type": "uint256"
                    }
                  ],
                  "internalType": "struct Decimal.D256",
                  "name": "prevOwner",
                  "type": "tuple"
                },
                {
                  "components": [
                    {
                      "internalType": "uint256",
                      "name": "value",
                      "type": "uint256"
                    }
                  ],
                  "internalType": "struct Decimal.D256",
                  "name": "creator",
                  "type": "tuple"
                },
                {
                  "components": [
                    {
                      "internalType": "uint256",
                      "name": "value",
                      "type": "uint256"
                    }
                  ],
                  "internalType": "struct Decimal.D256",
                  "name": "owner",
                  "type": "tuple"
                }
              ],
              "internalType": "struct IMarket.BidShares",
              "name": "bidShares",
              "type": "tuple"
            },
            {
              "components": [
                {
                  "internalType": "uint256",
                  "name": "tokenId",
                  "type": "uint256"
                },
                {
                  "internalType": "uint256",
                  "name": "dropId",
                  "type": "uint256"
                },
                {
                  "internalType": "bool",
                  "name": "burned",
                  "type": "bool"
                }
              ],
              "internalType": "struct ILux.Meta",
              "name": "meta",
              "type": "tuple"
            }
          ],
          "internalType": "struct ILux.Token",
          "name": "",
          "type": "tuple"
        }
      ],
      "stateMutability": "nonpayable",
      "type": "function"
    },
    {
      "inputs": [],
      "name": "owner",
      "outputs": [
        {
          "internalType": "address",
          "name": "",
          "type": "address"
        }
      ],
      "stateMutability": "view",
      "type": "function"
    },
    {
      "inputs": [],
      "name": "renounceOwnership",
      "outputs": [],
      "stateMutability": "nonpayable",
      "type": "function"
    },
    {
      "inputs": [
        {
          "internalType": "enum ILux.Type",
          "name": "kind",
          "type": "uint8"
        },
        {
          "internalType": "string",
          "name": "name",
          "type": "string"
        },
        {
          "components": [
            {
              "internalType": "uint256",
              "name": "amount",
              "type": "uint256"
            },
            {
              "internalType": "address",
              "name": "currency",
              "type": "address"
            },
            {
              "internalType": "bool",
              "name": "offline",
              "type": "bool"
            }
          ],
          "internalType": "struct IMarket.Ask",
          "name": "ask",
          "type": "tuple"
        },
        {
          "internalType": "uint256",
          "name": "supply",
          "type": "uint256"
        },
        {
          "internalType": "string",
          "name": "tokenURI",
          "type": "string"
        },
        {
          "internalType": "string",
          "name": "metadataURI",
          "type": "string"
        }
      ],
      "name": "setTokenType",
      "outputs": [
        {
          "components": [
            {
              "internalType": "enum ILux.Type",
              "name": "kind",
              "type": "uint8"
            },
            {
              "internalType": "string",
              "name": "name",
              "type": "string"
            },
            {
              "components": [
                {
                  "internalType": "uint256",
                  "name": "amount",
                  "type": "uint256"
                },
                {
                  "internalType": "address",
                  "name": "currency",
                  "type": "address"
                },
                {
                  "internalType": "bool",
                  "name": "offline",
                  "type": "bool"
                }
              ],
              "internalType": "struct IMarket.Ask",
              "name": "ask",
              "type": "tuple"
            },
            {
              "internalType": "uint256",
              "name": "supply",
              "type": "uint256"
            },
            {
              "internalType": "uint256",
              "name": "timestamp",
              "type": "uint256"
            },
            {
              "internalType": "uint256",
              "name": "minted",
              "type": "uint256"
            },
            {
              "components": [
                {
                  "internalType": "string",
                  "name": "tokenURI",
                  "type": "string"
                },
                {
                  "internalType": "string",
                  "name": "metadataURI",
                  "type": "string"
                },
                {
                  "internalType": "bytes32",
                  "name": "contentHash",
                  "type": "bytes32"
                },
                {
                  "internalType": "bytes32",
                  "name": "metadataHash",
                  "type": "bytes32"
                }
              ],
              "internalType": "struct IMedia.MediaData",
              "name": "data",
              "type": "tuple"
            },
            {
              "components": [
                {
                  "components": [
                    {
                      "internalType": "uint256",
                      "name": "value",
                      "type": "uint256"
                    }
                  ],
                  "internalType": "struct Decimal.D256",
                  "name": "prevOwner",
                  "type": "tuple"
                },
                {
                  "components": [
                    {
                      "internalType": "uint256",
                      "name": "value",
                      "type": "uint256"
                    }
                  ],
                  "internalType": "struct Decimal.D256",
                  "name": "creator",
                  "type": "tuple"
                },
                {
                  "components": [
                    {
                      "internalType": "uint256",
                      "name": "value",
                      "type": "uint256"
                    }
                  ],
                  "internalType": "struct Decimal.D256",
                  "name": "owner",
                  "type": "tuple"
                }
              ],
              "internalType": "struct IMarket.BidShares",
              "name": "bidShares",
              "type": "tuple"
            }
          ],
          "internalType": "struct Drop.TokenType",
          "name": "",
          "type": "tuple"
        }
      ],
      "stateMutability": "nonpayable",
      "type": "function"
    },
    {
      "inputs": [],
      "name": "title",
      "outputs": [
        {
          "internalType": "string",
          "name": "",
          "type": "string"
        }
      ],
      "stateMutability": "view",
      "type": "function"
    },
    {
      "inputs": [
        {
          "internalType": "string",
          "name": "name",
          "type": "string"
        }
      ],
      "name": "tokenSupply",
      "outputs": [
        {
          "internalType": "uint256",
          "name": "",
          "type": "uint256"
        }
      ],
      "stateMutability": "view",
      "type": "function"
    },
    {
      "inputs": [
        {
          "internalType": "string",
          "name": "name",
          "type": "string"
        }
      ],
      "name": "tokenTypeAsk",
      "outputs": [
        {
          "components": [
            {
              "internalType": "uint256",
              "name": "amount",
              "type": "uint256"
            },
            {
              "internalType": "address",
              "name": "currency",
              "type": "address"
            },
            {
              "internalType": "bool",
              "name": "offline",
              "type": "bool"
            }
          ],
          "internalType": "struct IMarket.Ask",
          "name": "",
          "type": "tuple"
        }
      ],
      "stateMutability": "view",
      "type": "function"
    },
    {
      "inputs": [
        {
          "internalType": "string",
          "name": "",
          "type": "string"
        }
      ],
      "name": "tokenTypes",
      "outputs": [
        {
          "internalType": "enum ILux.Type",
          "name": "kind",
          "type": "uint8"
        },
        {
          "internalType": "string",
          "name": "name",
          "type": "string"
        },
        {
          "components": [
            {
              "internalType": "uint256",
              "name": "amount",
              "type": "uint256"
            },
            {
              "internalType": "address",
              "name": "currency",
              "type": "address"
            },
            {
              "internalType": "bool",
              "name": "offline",
              "type": "bool"
            }
          ],
          "internalType": "struct IMarket.Ask",
          "name": "ask",
          "type": "tuple"
        },
        {
          "internalType": "uint256",
          "name": "supply",
          "type": "uint256"
        },
        {
          "internalType": "uint256",
          "name": "timestamp",
          "type": "uint256"
        },
        {
          "internalType": "uint256",
          "name": "minted",
          "type": "uint256"
        },
        {
          "components": [
            {
              "internalType": "string",
              "name": "tokenURI",
              "type": "string"
            },
            {
              "internalType": "string",
              "name": "metadataURI",
              "type": "string"
            },
            {
              "internalType": "bytes32",
              "name": "contentHash",
              "type": "bytes32"
            },
            {
              "internalType": "bytes32",
              "name": "metadataHash",
              "type": "bytes32"
            }
          ],
          "internalType": "struct IMedia.MediaData",
          "name": "data",
          "type": "tuple"
        },
        {
          "components": [
            {
              "components": [
                {
                  "internalType": "uint256",
                  "name": "value",
                  "type": "uint256"
                }
              ],
              "internalType": "struct Decimal.D256",
              "name": "prevOwner",
              "type": "tuple"
            },
            {
              "components": [
                {
                  "internalType": "uint256",
                  "name": "value",
                  "type": "uint256"
                }
              ],
              "internalType": "struct Decimal.D256",
              "name": "creator",
              "type": "tuple"
            },
            {
              "components": [
                {
                  "internalType": "uint256",
                  "name": "value",
                  "type": "uint256"
                }
              ],
              "internalType": "struct Decimal.D256",
              "name": "owner",
              "type": "tuple"
            }
          ],
          "internalType": "struct IMarket.BidShares",
          "name": "bidShares",
          "type": "tuple"
        }
      ],
      "stateMutability": "view",
      "type": "function"
    },
    {
      "inputs": [
        {
          "internalType": "string",
          "name": "name",
          "type": "string"
        }
      ],
      "name": "totalMinted",
      "outputs": [
        {
          "internalType": "uint256",
          "name": "",
          "type": "uint256"
        }
      ],
      "stateMutability": "view",
      "type": "function"
    },
    {
      "inputs": [
        {
          "internalType": "address",
          "name": "newOwner",
          "type": "address"
        }
      ],
      "name": "transferOwnership",
      "outputs": [],
      "stateMutability": "nonpayable",
      "type": "function"
    }
  ],
  "transactionHash": "0xe6a6c0eef2d2934ba294ce1966c3c7b8da63737377cf38af43a843ce515601d5",
  "args": [
    "Gen 0"
  ],
  "solcInputHash": "0bbfc7e77f0423757adbd41db323df65",
  "bytecode": "0x60806040523480156200001157600080fd5b5060405162001ae038038062001ae0833981016040819052620000349162000152565b6200003f336200005c565b805162000054906001906020840190620000ac565b50506200027b565b600080546001600160a01b038381166001600160a01b0319831681178455604051919092169283917f8be0079c531659141344cd1fd0a4f28419497f9722a3daafe3b4186f6b6457e09190a35050565b828054620000ba9062000228565b90600052602060002090601f016020900481019282620000de576000855562000129565b82601f10620000f957805160ff191683800117855562000129565b8280016001018555821562000129579182015b82811115620001295782518255916020019190600101906200010c565b50620001379291506200013b565b5090565b5b808211156200013757600081556001016200013c565b6000602080838503121562000165578182fd5b82516001600160401b03808211156200017c578384fd5b818501915085601f83011262000190578384fd5b815181811115620001a557620001a562000265565b604051601f8201601f19908116603f01168101908382118183101715620001d057620001d062000265565b816040528281528886848701011115620001e8578687fd5b8693505b828410156200020b5784840186015181850187015292850192620001ec565b828411156200021c57868684830101525b98975050505050505050565b600181811c908216806200023d57607f821691505b602082108114156200025f57634e487b7160e01b600052602260045260246000fd5b50919050565b634e487b7160e01b600052604160045260246000fd5b611855806200028b6000396000f3fe608060405234801561001057600080fd5b50600436106100af5760003560e01c806302696388146100b45780634a79d50c146100e45780635854c792146100f95780636c1dbf1c1461011a5780636f592fc01461013a578063715018a61461015a57806375cb26721461016457806375f699f0146101775780638da5cb5b1461018a578063e72132d7146101aa578063f1e879c6146101bd578063f2fde38b146101dd578063f475871f146101f0575b600080fd5b6100c76100c2366004611327565b610203565b6040516100db98979695949392919061145a565b60405180910390f35b6100ec61048a565b6040516100db91906114cd565b61010c610107366004611327565b610518565b6040519081526020016100db565b61012d610128366004611327565b61052d565b6040516100db91906115c0565b61014d610148366004611327565b6107e9565b6040516100db9190611515565b610162610804565b005b610162610172366004611259565b61083f565b61010c610185366004611327565b610890565b6101926108a5565b6040516001600160a01b0390911681526020016100db565b600254610192906001600160a01b031681565b6101d06101cb366004611273565b6108b4565b6040516100db9190611523565b6101626101eb366004611259565b610ab6565b6101d06101fe366004611327565b610b56565b80516020818301810180516003825292820191909301209152805460018201805460ff90921692916102349061179d565b80601f01602080910402602001604051908101604052809291908181526020018280546102609061179d565b80156102ad5780601f10610282576101008083540402835291602001916102ad565b820191906000526020600020905b81548152906001019060200180831161029057829003601f168201915b5050604080516060810182526002870154815260038701546001600160a01b0381166020830152600160a01b900460ff1615158183015260048701546005880154600689015484516080810190955260078a018054999a94999398509196509450919291908290829061031f9061179d565b80601f016020809104026020016040519081016040528092919081815260200182805461034b9061179d565b80156103985780601f1061036d57610100808354040283529160200191610398565b820191906000526020600020905b81548152906001019060200180831161037b57829003601f168201915b505050505081526020016001820180546103b19061179d565b80601f01602080910402602001604051908101604052809291908181526020018280546103dd9061179d565b801561042a5780601f106103ff5761010080835404028352916020019161042a565b820191906000526020600020905b81548152906001019060200180831161040d57829003601f168201915b505050918352505060028201546020808301919091526003909201546040918201528051608081018252600b85015460608201908152815281518084018352600c86015481528184015281519283018252600d9094015482528301529088565b600180546104979061179d565b80601f01602080910402602001604051908101604052809291908181526020018280546104c39061179d565b80156105105780601f106104e557610100808354040283529160200191610510565b820191906000526020600020905b8154815290600101906020018083116104f357829003601f168201915b505050505081565b600061052382610b56565b6060015192915050565b610535610f79565b6002546001600160a01b031633146105a35760405162461bcd60e51b815260206004820152602660248201527f4c757844726f703a204f6e6c79204170702063616e2063616c6c2074686973206044820152651b595d1a1bd960d21b60648201526084015b60405180910390fd5b60006105ae83610b56565b90506105b983610518565b15806105d057506105c983610518565b8160a00151105b61060c5760405162461bcd60e51b815260206004820152600d60248201526c4f7574206f6620746f6b656e7360981b604482015260640161059a565b60a0810180519061061c826117d8565b815250508060038260200151604051610635919061143e565b90815260405190819003602001902081518154829060ff1916600183600381111561067057634e487b7160e01b600052602160045260246000fd5b0217905550602082810151805161068d9260018501920190610fde565b506040828101518051600284015560208082015160038501805493909401511515600160a01b026001600160a81b03199093166001600160a01b039091161791909117909155606083015160048301556080830151600583015560a0830151600683015560c0830151805180519192600785019261070e9284920190610fde565b5060208281015180516107279260018501920190610fde565b50604082810151600283015560609092015160039182015560e093840151805151600b850155602081015151600c85015582015151600d90930192909255805192830190528251829181111561078d57634e487b7160e01b600052602160045260246000fd5b815260200182602001518152602001600081526020014281526020018260c0015181526020018260e00151815260200160405180606001604052806000815260200160008152602001600015158152508152509150505b919050565b6107f1611062565b6107fa82610b56565b6040015192915050565b3361080d6108a5565b6001600160a01b0316146108335760405162461bcd60e51b815260040161059a906114e0565b61083d6000610e59565b565b336108486108a5565b6001600160a01b03161461086e5760405162461bcd60e51b815260040161059a906114e0565b600280546001600160a01b0319166001600160a01b0392909216919091179055565b600061089b82610b56565b60a0015192915050565b6000546001600160a01b031690565b6108bc611082565b336108c56108a5565b6001600160a01b0316146108eb5760405162461bcd60e51b815260040161059a906114e0565b6108f3611082565b8088600381111561091457634e487b7160e01b600052602160045260246000fd5b9081600381111561093557634e487b7160e01b600052602160045260246000fd5b9052506020810187905260408101869052606081018590526109578484610ea9565b60c0820152610964610edd565b60e0820152604051819060039061097c908a9061143e565b90815260405190819003602001902081518154829060ff191660018360038111156109b757634e487b7160e01b600052602160045260246000fd5b021790555060208281015180516109d49260018501920190610fde565b506040828101518051600284015560208082015160038501805493909401511515600160a01b026001600160a81b03199093166001600160a01b039091161791909117909155606083015160048301556080830151600583015560a0830151600683015560c08301518051805191926007850192610a559284920190610fde565b506020828101518051610a6e9260018501920190610fde565b50604082810151600283015560609092015160039091015560e09290920151805151600b830155602081015151600c8301559091015151600d90910155979650505050505050565b33610abf6108a5565b6001600160a01b031614610ae55760405162461bcd60e51b815260040161059a906114e0565b6001600160a01b038116610b4a5760405162461bcd60e51b815260206004820152602660248201527f4f776e61626c653a206e6577206f776e657220697320746865207a65726f206160448201526564647265737360d01b606482015260840161059a565b610b5381610e59565b50565b610b5e611082565b600382604051610b6e919061143e565b9081526040805191829003602001822061010083019091528054829060ff166003811115610bac57634e487b7160e01b600052602160045260246000fd5b6003811115610bcb57634e487b7160e01b600052602160045260246000fd5b8152602001600182018054610bdf9061179d565b80601f0160208091040260200160405190810160405280929190818152602001828054610c0b9061179d565b8015610c585780601f10610c2d57610100808354040283529160200191610c58565b820191906000526020600020905b815481529060010190602001808311610c3b57829003601f168201915b505050918352505060408051606080820183526002850154825260038501546001600160a01b038116602080850191909152600160a01b90910460ff161515838501528401919091526004840154828401526005840154908301526006830154608080840191909152815190810190915260078301805460a09093019282908290610ce29061179d565b80601f0160208091040260200160405190810160405280929190818152602001828054610d0e9061179d565b8015610d5b5780601f10610d3057610100808354040283529160200191610d5b565b820191906000526020600020905b815481529060010190602001808311610d3e57829003601f168201915b50505050508152602001600182018054610d749061179d565b80601f0160208091040260200160405190810160405280929190818152602001828054610da09061179d565b8015610ded5780601f10610dc257610100808354040283529160200191610ded565b820191906000526020600020905b815481529060010190602001808311610dd057829003601f168201915b505050918352505060028201546020808301919091526003909201546040918201529183528151608081018352600b85015460608201908152815282518083018452600c86015481528183015282518083018452600d9095015485529182019390935291015292915050565b600080546001600160a01b038381166001600160a01b0319831681178455604051919092169283917f8be0079c531659141344cd1fd0a4f28419497f9722a3daafe3b4186f6b6457e09190a35050565b610eb16110d2565b506040805160808101825283815260208101839052600091810182905260608101919091525b92915050565b610ee56110f9565b6040805160808101909152806060810180610f0d610f056012600a6116a6565b600090610f66565b81525081526020016040518060200160405280610f316012600a610f0591906116a6565b81525081526020016040518060200160405280610f5d6012600a610f5591906116a6565b606490610f66565b90529052919050565b6000610f72828461174e565b9392505050565b6040805160e081019091528060008152602001606081526020016000815260200160008152602001610fa96110d2565b8152602001610fb66110f9565b815260408051606081018252600080825260208281018290529282015291015290565b905290565b828054610fea9061179d565b90600052602060002090601f01602090048101928261100c5760008555611052565b82601f1061102557805160ff1916838001178555611052565b82800160010185558215611052579182015b82811115611052578251825591602001919060010190611037565b5061105e929150611126565b5090565b604080516060810182526000808252602082018190529181019190915290565b604080516101008101825260008152606060208201529081016110a3611062565b81526020016000815260200160008152602001600081526020016110c56110d2565b8152602001610fd96110f9565b60408051608081018252606080825260208201819052600092820183905281019190915290565b604051806060016040528061110c61113b565b815260200161111961113b565b8152602001610fd961113b565b5b8082111561105e5760008155600101611127565b6040518060200160405280600081525090565b80356001600160a01b03811681146107e457600080fd5b600082601f830112611175578081fd5b81356001600160401b038082111561118f5761118f611809565b604051601f8301601f19908116603f011681019082821181831017156111b7576111b7611809565b816040528381528660208588010111156111cf578485fd5b8360208701602083013792830160200193909352509392505050565b6000606082840312156111fc578081fd5b604051606081018181106001600160401b038211171561121e5761121e611809565b604052823581529050806112346020840161114e565b60208201526040830135801515811461124c57600080fd5b6040919091015292915050565b60006020828403121561126a578081fd5b610f728261114e565b600080600080600080610100878903121561128c578182fd5b86356004811061129a578283fd5b955060208701356001600160401b03808211156112b5578384fd5b6112c18a838b01611165565b96506112d08a60408b016111eb565b955060a0890135945060c08901359150808211156112ec578384fd5b6112f88a838b01611165565b935060e089013591508082111561130d578283fd5b5061131a89828a01611165565b9150509295509295509295565b600060208284031215611338578081fd5b81356001600160401b0381111561134d578182fd5b61135984828501611165565b949350505050565b6004811061137f57634e487b7160e01b600052602160045260246000fd5b9052565b6000815180845261139b81602086016020860161176d565b601f01601f19169290920160200192915050565b805182526020808201516001600160a01b0316908301526040908101511515910152565b8051518252602080820151519083015260409081015151910152565b60008151608084526114046080850182611383565b90506020830151848203602086015261141d8282611383565b91505060408301516040850152606083015160608501528091505092915050565b6000825161145081846020870161176d565b9190910192915050565b6000610180611469838c611361565b80602084015261147b8184018b611383565b905061148a604084018a6113af565b8760a08401528660c08401528560e08401528281036101008401526114af81866113ef565b9150506114c06101208301846113d3565b9998505050505050505050565b602081526000610f726020830184611383565b6020808252818101527f4f776e61626c653a2063616c6c6572206973206e6f7420746865206f776e6572604082015260600190565b60608101610ed782846113af565b60208152611535602082018351611361565b6000602083015161018060408401526115526101a0840182611383565b9050604084015161156660608501826113af565b50606084015160c0840152608084015160e084015260a084015161010084015260c0840151601f19848303016101208501526115a282826113ef565b91505060e08401516115b86101408501826113d3565b509392505050565b602081526115d2602082018351611361565b600060208301516101608060408501526115f0610180850183611383565b915060408501516060850152606085015160808501526080850151601f198584030160a086015261162183826113ef565b92505060a085015161163660c08601826113d3565b5060c094909401518051610120850152602081015161014085015260400151151592909301919091525090565b600181815b8085111561169e578160001904821115611684576116846117f3565b8085161561169157918102915b93841c9390800290611668565b509250929050565b6000610f7283836000826116bc57506001610ed7565b816116c957506000610ed7565b81600181146116df57600281146116e957611705565b6001915050610ed7565b60ff8411156116fa576116fa6117f3565b50506001821b610ed7565b5060208310610133831016604e8410600b8410161715611728575081810a610ed7565b6117328383611663565b8060001904821115611746576117466117f3565b029392505050565b6000816000190483118215151615611768576117686117f3565b500290565b60005b83811015611788578181015183820152602001611770565b83811115611797576000848401525b50505050565b600181811c908216806117b157607f821691505b602082108114156117d257634e487b7160e01b600052602260045260246000fd5b50919050565b60006000198214156117ec576117ec6117f3565b5060010190565b634e487b7160e01b600052601160045260246000fd5b634e487b7160e01b600052604160045260246000fdfea2646970667358221220fefacd70e458afa594bc54f4fcfbe35e5ed0fc98505d5e68b9051f58321a9eba64736f6c63430008040033",
  "libraries": {},
  "devdoc": {
    "kind": "dev",
    "methods": {
      "owner()": {
        "details": "Returns the address of the current owner."
      },
      "renounceOwnership()": {
        "details": "Leaves the contract without owner. It will not be possible to call `onlyOwner` functions anymore. Can only be called by the current owner. NOTE: Renouncing ownership will leave the contract without an owner, thereby removing any functionality that is only available to the owner."
      },
      "transferOwnership(address)": {
        "details": "Transfers ownership of the contract to a new account (`newOwner`). Can only be called by the current owner."
      }
    },
    "version": 1
  },
  "userdoc": {
    "kind": "user",
    "methods": {},
    "version": 1
  },
  "storageLayout": {
    "storage": [
      {
        "astId": 1046,
        "contract": "src/Drop.sol:Drop",
        "label": "_owner",
        "offset": 0,
        "slot": "0",
        "type": "t_address"
      },
      {
        "astId": 5015,
        "contract": "src/Drop.sol:Drop",
        "label": "title",
        "offset": 0,
        "slot": "1",
        "type": "t_string_storage"
      },
      {
        "astId": 5017,
        "contract": "src/Drop.sol:Drop",
        "label": "appAddress",
        "offset": 0,
        "slot": "2",
        "type": "t_address"
      },
      {
        "astId": 5022,
        "contract": "src/Drop.sol:Drop",
        "label": "tokenTypes",
        "offset": 0,
        "slot": "3",
        "type": "t_mapping(t_string_memory_ptr,t_struct(TokenType)5013_storage)"
      }
    ],
    "types": {
      "t_address": {
        "encoding": "inplace",
        "label": "address",
        "numberOfBytes": "20"
      },
      "t_bool": {
        "encoding": "inplace",
        "label": "bool",
        "numberOfBytes": "1"
      },
      "t_bytes32": {
        "encoding": "inplace",
        "label": "bytes32",
        "numberOfBytes": "32"
      },
      "t_enum(Type)16877": {
        "encoding": "inplace",
        "label": "enum ILux.Type",
        "numberOfBytes": "1"
      },
      "t_mapping(t_string_memory_ptr,t_struct(TokenType)5013_storage)": {
        "encoding": "mapping",
        "key": "t_string_memory_ptr",
        "label": "mapping(string => struct Drop.TokenType)",
        "numberOfBytes": "32",
        "value": "t_struct(TokenType)5013_storage"
      },
      "t_string_memory_ptr": {
        "encoding": "bytes",
        "label": "string",
        "numberOfBytes": "32"
      },
      "t_string_storage": {
        "encoding": "bytes",
        "label": "string",
        "numberOfBytes": "32"
      },
      "t_struct(Ask)16931_storage": {
        "encoding": "inplace",
        "label": "struct IMarket.Ask",
        "members": [
          {
            "astId": 16926,
            "contract": "src/Drop.sol:Drop",
            "label": "amount",
            "offset": 0,
            "slot": "0",
            "type": "t_uint256"
          },
          {
            "astId": 16928,
            "contract": "src/Drop.sol:Drop",
            "label": "currency",
            "offset": 0,
            "slot": "1",
            "type": "t_address"
          },
          {
            "astId": 16930,
            "contract": "src/Drop.sol:Drop",
            "label": "offline",
            "offset": 20,
            "slot": "1",
            "type": "t_bool"
          }
        ],
        "numberOfBytes": "64"
      },
      "t_struct(BidShares)16941_storage": {
        "encoding": "inplace",
        "label": "struct IMarket.BidShares",
        "members": [
          {
            "astId": 16934,
            "contract": "src/Drop.sol:Drop",
            "label": "prevOwner",
            "offset": 0,
            "slot": "0",
            "type": "t_struct(D256)4904_storage"
          },
          {
            "astId": 16937,
            "contract": "src/Drop.sol:Drop",
            "label": "creator",
            "offset": 0,
            "slot": "1",
            "type": "t_struct(D256)4904_storage"
          },
          {
            "astId": 16940,
            "contract": "src/Drop.sol:Drop",
            "label": "owner",
            "offset": 0,
            "slot": "2",
            "type": "t_struct(D256)4904_storage"
          }
        ],
        "numberOfBytes": "96"
      },
      "t_struct(D256)4904_storage": {
        "encoding": "inplace",
        "label": "struct Decimal.D256",
        "members": [
          {
            "astId": 4903,
            "contract": "src/Drop.sol:Drop",
            "label": "value",
            "offset": 0,
            "slot": "0",
            "type": "t_uint256"
          }
        ],
        "numberOfBytes": "32"
      },
      "t_struct(MediaData)17118_storage": {
        "encoding": "inplace",
        "label": "struct IMedia.MediaData",
        "members": [
          {
            "astId": 17111,
            "contract": "src/Drop.sol:Drop",
            "label": "tokenURI",
            "offset": 0,
            "slot": "0",
            "type": "t_string_storage"
          },
          {
            "astId": 17113,
            "contract": "src/Drop.sol:Drop",
            "label": "metadataURI",
            "offset": 0,
            "slot": "1",
            "type": "t_string_storage"
          },
          {
            "astId": 17115,
            "contract": "src/Drop.sol:Drop",
            "label": "contentHash",
            "offset": 0,
            "slot": "2",
            "type": "t_bytes32"
          },
          {
            "astId": 17117,
            "contract": "src/Drop.sol:Drop",
            "label": "metadataHash",
            "offset": 0,
            "slot": "3",
            "type": "t_bytes32"
          }
        ],
        "numberOfBytes": "128"
      },
      "t_struct(TokenType)5013_storage": {
        "encoding": "inplace",
        "label": "struct Drop.TokenType",
        "members": [
          {
            "astId": 4995,
            "contract": "src/Drop.sol:Drop",
            "label": "kind",
            "offset": 0,
            "slot": "0",
            "type": "t_enum(Type)16877"
          },
          {
            "astId": 4997,
            "contract": "src/Drop.sol:Drop",
            "label": "name",
            "offset": 0,
            "slot": "1",
            "type": "t_string_storage"
          },
          {
            "astId": 5000,
            "contract": "src/Drop.sol:Drop",
            "label": "ask",
            "offset": 0,
            "slot": "2",
            "type": "t_struct(Ask)16931_storage"
          },
          {
            "astId": 5002,
            "contract": "src/Drop.sol:Drop",
            "label": "supply",
            "offset": 0,
            "slot": "4",
            "type": "t_uint256"
          },
          {
            "astId": 5004,
            "contract": "src/Drop.sol:Drop",
            "label": "timestamp",
            "offset": 0,
            "slot": "5",
            "type": "t_uint256"
          },
          {
            "astId": 5006,
            "contract": "src/Drop.sol:Drop",
            "label": "minted",
            "offset": 0,
            "slot": "6",
            "type": "t_uint256"
          },
          {
            "astId": 5009,
            "contract": "src/Drop.sol:Drop",
            "label": "data",
            "offset": 0,
            "slot": "7",
            "type": "t_struct(MediaData)17118_storage"
          },
          {
            "astId": 5012,
            "contract": "src/Drop.sol:Drop",
            "label": "bidShares",
            "offset": 0,
            "slot": "11",
            "type": "t_struct(BidShares)16941_storage"
          }
        ],
        "numberOfBytes": "448"
      },
      "t_uint256": {
        "encoding": "inplace",
        "label": "uint256",
        "numberOfBytes": "32"
      }
    }
  }
}