{
  "address": "0x6f918d5E359276A8A4120BC4Af89d0A8a044Fe48",
  "abi": [
    {
      "inputs": [
        {
          "internalType": "string",
          "name": "_title",
          "type": "string"
        }
      ],
      "stateMutability": "nonpayable",
      "type": "constructor"
    },
    {
      "anonymous": false,
      "inputs": [
        {
          "indexed": true,
          "internalType": "address",
          "name": "previousOwner",
          "type": "address"
        },
        {
          "indexed": true,
          "internalType": "address",
          "name": "newOwner",
          "type": "address"
        }
      ],
      "name": "OwnershipTransferred",
      "type": "event"
    },
    {
      "inputs": [
        {
          "internalType": "string",
          "name": "",
          "type": "string"
        }
      ],
      "name": "animals",
      "outputs": [
        {
          "internalType": "enum IZoo.Type",
          "name": "kind",
          "type": "uint8"
        },
        {
          "components": [
            {
              "internalType": "string",
              "name": "name",
              "type": "string"
            },
            {
              "internalType": "uint256",
              "name": "probability",
              "type": "uint256"
            },
            {
              "internalType": "uint256",
              "name": "yield",
              "type": "uint256"
            },
            {
              "internalType": "uint256",
              "name": "boost",
              "type": "uint256"
            }
          ],
          "internalType": "struct IZoo.Rarity",
          "name": "rarity",
          "type": "tuple"
        },
        {
          "internalType": "string",
          "name": "name",
          "type": "string"
        },
        {
          "components": [
            {
              "internalType": "string",
              "name": "tokenURI",
              "type": "string"
            },
            {
              "internalType": "string",
              "name": "metadataURI",
              "type": "string"
            },
            {
              "internalType": "bytes32",
              "name": "contentHash",
              "type": "bytes32"
            },
            {
              "internalType": "bytes32",
              "name": "metadataHash",
              "type": "bytes32"
            }
          ],
          "internalType": "struct IMedia.MediaData",
          "name": "data",
          "type": "tuple"
        },
        {
          "components": [
            {
              "components": [
                {
                  "internalType": "uint256",
                  "name": "value",
                  "type": "uint256"
                }
              ],
              "internalType": "struct Decimal.D256",
              "name": "prevOwner",
              "type": "tuple"
            },
            {
              "components": [
                {
                  "internalType": "uint256",
                  "name": "value",
                  "type": "uint256"
                }
              ],
              "internalType": "struct Decimal.D256",
              "name": "creator",
              "type": "tuple"
            },
            {
              "components": [
                {
                  "internalType": "uint256",
                  "name": "value",
                  "type": "uint256"
                }
              ],
              "internalType": "struct Decimal.D256",
              "name": "owner",
              "type": "tuple"
            }
          ],
          "internalType": "struct IMarket.BidShares",
          "name": "bidShares",
          "type": "tuple"
        }
      ],
      "stateMutability": "view",
      "type": "function"
    },
    {
      "inputs": [],
      "name": "baseEgg",
      "outputs": [
        {
          "internalType": "string",
          "name": "",
          "type": "string"
        }
      ],
      "stateMutability": "view",
      "type": "function"
    },
    {
      "inputs": [
        {
          "internalType": "string",
          "name": "_baseEgg",
          "type": "string"
        },
        {
          "internalType": "string",
          "name": "_hybridEgg",
          "type": "string"
        }
      ],
      "name": "configureEggs",
      "outputs": [],
      "stateMutability": "nonpayable",
      "type": "function"
    },
    {
      "inputs": [
        {
          "internalType": "address",
          "name": "zooKeeper",
          "type": "address"
        }
      ],
      "name": "configureKeeper",
      "outputs": [],
      "stateMutability": "nonpayable",
      "type": "function"
    },
    {
      "inputs": [],
      "name": "eggPrice",
      "outputs": [
        {
          "internalType": "uint256",
          "name": "",
          "type": "uint256"
        }
      ],
      "stateMutability": "view",
      "type": "function"
    },
    {
      "inputs": [],
      "name": "eggSupply",
      "outputs": [
        {
          "internalType": "uint256",
          "name": "",
          "type": "uint256"
        }
      ],
      "stateMutability": "view",
      "type": "function"
    },
    {
      "inputs": [
        {
          "internalType": "string",
          "name": "",
          "type": "string"
        }
      ],
      "name": "eggs",
      "outputs": [
        {
          "internalType": "enum IZoo.Type",
          "name": "kind",
          "type": "uint8"
        },
        {
          "internalType": "string",
          "name": "name",
          "type": "string"
        },
        {
          "internalType": "uint256",
          "name": "supply",
          "type": "uint256"
        },
        {
          "internalType": "uint256",
          "name": "price",
          "type": "uint256"
        },
        {
          "internalType": "uint256",
          "name": "timestamp",
          "type": "uint256"
        },
        {
          "internalType": "uint256",
          "name": "birthday",
          "type": "uint256"
        },
        {
          "internalType": "uint256",
          "name": "minted",
          "type": "uint256"
        },
        {
          "components": [
            {
              "internalType": "string",
              "name": "tokenURI",
              "type": "string"
            },
            {
              "internalType": "string",
              "name": "metadataURI",
              "type": "string"
            },
            {
              "internalType": "bytes32",
              "name": "contentHash",
              "type": "bytes32"
            },
            {
              "internalType": "bytes32",
              "name": "metadataHash",
              "type": "bytes32"
            }
          ],
          "internalType": "struct IMedia.MediaData",
          "name": "data",
          "type": "tuple"
        },
        {
          "components": [
            {
              "components": [
                {
                  "internalType": "uint256",
                  "name": "value",
                  "type": "uint256"
                }
              ],
              "internalType": "struct Decimal.D256",
              "name": "prevOwner",
              "type": "tuple"
            },
            {
              "components": [
                {
                  "internalType": "uint256",
                  "name": "value",
                  "type": "uint256"
                }
              ],
              "internalType": "struct Decimal.D256",
              "name": "creator",
              "type": "tuple"
            },
            {
              "components": [
                {
                  "internalType": "uint256",
                  "name": "value",
                  "type": "uint256"
                }
              ],
              "internalType": "struct Decimal.D256",
              "name": "owner",
              "type": "tuple"
            }
          ],
          "internalType": "struct IMarket.BidShares",
          "name": "bidShares",
          "type": "tuple"
        }
      ],
      "stateMutability": "view",
      "type": "function"
    },
    {
      "inputs": [
        {
          "internalType": "uint256",
          "name": "random",
          "type": "uint256"
        }
      ],
      "name": "getRandomAnimal",
      "outputs": [
        {
          "components": [
            {
              "components": [
                {
                  "internalType": "string",
                  "name": "name",
                  "type": "string"
                },
                {
                  "internalType": "uint256",
                  "name": "probability",
                  "type": "uint256"
                },
                {
                  "internalType": "uint256",
                  "name": "yield",
                  "type": "uint256"
                },
                {
                  "internalType": "uint256",
                  "name": "boost",
                  "type": "uint256"
                }
              ],
              "internalType": "struct IZoo.Rarity",
              "name": "rarity",
              "type": "tuple"
            },
            {
              "internalType": "enum IZoo.Type",
              "name": "kind",
              "type": "uint8"
            },
            {
              "internalType": "string",
              "name": "name",
              "type": "string"
            },
            {
              "internalType": "uint256",
              "name": "id",
              "type": "uint256"
            },
            {
              "internalType": "uint256",
              "name": "timestamp",
              "type": "uint256"
            },
            {
              "internalType": "uint256",
              "name": "birthday",
              "type": "uint256"
            },
            {
              "internalType": "string",
              "name": "customName",
              "type": "string"
            },
            {
              "components": [
                {
                  "internalType": "string",
                  "name": "animalA",
                  "type": "string"
                },
                {
                  "internalType": "string",
                  "name": "animalB",
                  "type": "string"
                },
                {
                  "internalType": "uint256",
                  "name": "tokenA",
                  "type": "uint256"
                },
                {
                  "internalType": "uint256",
                  "name": "tokenB",
                  "type": "uint256"
                }
              ],
              "internalType": "struct IZoo.Parents",
              "name": "parents",
              "type": "tuple"
            },
            {
              "components": [
                {
                  "internalType": "uint256",
                  "name": "count",
                  "type": "uint256"
                },
                {
                  "internalType": "uint256",
                  "name": "timestamp",
                  "type": "uint256"
                }
              ],
              "internalType": "struct IZoo.Breed",
              "name": "breed",
              "type": "tuple"
            },
            {
              "components": [
                {
                  "internalType": "uint256",
                  "name": "eggID",
                  "type": "uint256"
                },
                {
                  "internalType": "uint256",
                  "name": "dropID",
                  "type": "uint256"
                },
                {
                  "internalType": "bool",
                  "name": "burned",
                  "type": "bool"
                },
                {
                  "internalType": "bool",
                  "name": "swapped",
                  "type": "bool"
                }
              ],
              "internalType": "struct IZoo.Meta",
              "name": "meta",
              "type": "tuple"
            },
            {
              "components": [
                {
                  "internalType": "string",
                  "name": "tokenURI",
                  "type": "string"
                },
                {
                  "internalType": "string",
                  "name": "metadataURI",
                  "type": "string"
                },
                {
                  "internalType": "bytes32",
                  "name": "contentHash",
                  "type": "bytes32"
                },
                {
                  "internalType": "bytes32",
                  "name": "metadataHash",
                  "type": "bytes32"
                }
              ],
              "internalType": "struct IMedia.MediaData",
              "name": "data",
              "type": "tuple"
            },
            {
              "components": [
                {
                  "components": [
                    {
                      "internalType": "uint256",
                      "name": "value",
                      "type": "uint256"
                    }
                  ],
                  "internalType": "struct Decimal.D256",
                  "name": "prevOwner",
                  "type": "tuple"
                },
                {
                  "components": [
                    {
                      "internalType": "uint256",
                      "name": "value",
                      "type": "uint256"
                    }
                  ],
                  "internalType": "struct Decimal.D256",
                  "name": "creator",
                  "type": "tuple"
                },
                {
                  "components": [
                    {
                      "internalType": "uint256",
                      "name": "value",
                      "type": "uint256"
                    }
                  ],
                  "internalType": "struct Decimal.D256",
                  "name": "owner",
                  "type": "tuple"
                }
              ],
              "internalType": "struct IMarket.BidShares",
              "name": "bidShares",
              "type": "tuple"
            }
          ],
          "internalType": "struct IZoo.Token",
          "name": "token",
          "type": "tuple"
        }
      ],
      "stateMutability": "view",
      "type": "function"
    },
    {
      "inputs": [
        {
          "internalType": "uint256",
          "name": "random",
          "type": "uint256"
        },
        {
          "components": [
            {
              "internalType": "string",
              "name": "animalA",
              "type": "string"
            },
            {
              "internalType": "string",
              "name": "animalB",
              "type": "string"
            },
            {
              "internalType": "uint256",
              "name": "tokenA",
              "type": "uint256"
            },
            {
              "internalType": "uint256",
              "name": "tokenB",
              "type": "uint256"
            }
          ],
          "internalType": "struct IZoo.Parents",
          "name": "parents",
          "type": "tuple"
        }
      ],
      "name": "getRandomHybrid",
      "outputs": [
        {
          "components": [
            {
              "components": [
                {
                  "internalType": "string",
                  "name": "name",
                  "type": "string"
                },
                {
                  "internalType": "uint256",
                  "name": "probability",
                  "type": "uint256"
                },
                {
                  "internalType": "uint256",
                  "name": "yield",
                  "type": "uint256"
                },
                {
                  "internalType": "uint256",
                  "name": "boost",
                  "type": "uint256"
                }
              ],
              "internalType": "struct IZoo.Rarity",
              "name": "rarity",
              "type": "tuple"
            },
            {
              "internalType": "enum IZoo.Type",
              "name": "kind",
              "type": "uint8"
            },
            {
              "internalType": "string",
              "name": "name",
              "type": "string"
            },
            {
              "internalType": "uint256",
              "name": "id",
              "type": "uint256"
            },
            {
              "internalType": "uint256",
              "name": "timestamp",
              "type": "uint256"
            },
            {
              "internalType": "uint256",
              "name": "birthday",
              "type": "uint256"
            },
            {
              "internalType": "string",
              "name": "customName",
              "type": "string"
            },
            {
              "components": [
                {
                  "internalType": "string",
                  "name": "animalA",
                  "type": "string"
                },
                {
                  "internalType": "string",
                  "name": "animalB",
                  "type": "string"
                },
                {
                  "internalType": "uint256",
                  "name": "tokenA",
                  "type": "uint256"
                },
                {
                  "internalType": "uint256",
                  "name": "tokenB",
                  "type": "uint256"
                }
              ],
              "internalType": "struct IZoo.Parents",
              "name": "parents",
              "type": "tuple"
            },
            {
              "components": [
                {
                  "internalType": "uint256",
                  "name": "count",
                  "type": "uint256"
                },
                {
                  "internalType": "uint256",
                  "name": "timestamp",
                  "type": "uint256"
                }
              ],
              "internalType": "struct IZoo.Breed",
              "name": "breed",
              "type": "tuple"
            },
            {
              "components": [
                {
                  "internalType": "uint256",
                  "name": "eggID",
                  "type": "uint256"
                },
                {
                  "internalType": "uint256",
                  "name": "dropID",
                  "type": "uint256"
                },
                {
                  "internalType": "bool",
                  "name": "burned",
                  "type": "bool"
                },
                {
                  "internalType": "bool",
                  "name": "swapped",
                  "type": "bool"
                }
              ],
              "internalType": "struct IZoo.Meta",
              "name": "meta",
              "type": "tuple"
            },
            {
              "components": [
                {
                  "internalType": "string",
                  "name": "tokenURI",
                  "type": "string"
                },
                {
                  "internalType": "string",
                  "name": "metadataURI",
                  "type": "string"
                },
                {
                  "internalType": "bytes32",
                  "name": "contentHash",
                  "type": "bytes32"
                },
                {
                  "internalType": "bytes32",
                  "name": "metadataHash",
                  "type": "bytes32"
                }
              ],
              "internalType": "struct IMedia.MediaData",
              "name": "data",
              "type": "tuple"
            },
            {
              "components": [
                {
                  "components": [
                    {
                      "internalType": "uint256",
                      "name": "value",
                      "type": "uint256"
                    }
                  ],
                  "internalType": "struct Decimal.D256",
                  "name": "prevOwner",
                  "type": "tuple"
                },
                {
                  "components": [
                    {
                      "internalType": "uint256",
                      "name": "value",
                      "type": "uint256"
                    }
                  ],
                  "internalType": "struct Decimal.D256",
                  "name": "creator",
                  "type": "tuple"
                },
                {
                  "components": [
                    {
                      "internalType": "uint256",
                      "name": "value",
                      "type": "uint256"
                    }
                  ],
                  "internalType": "struct Decimal.D256",
                  "name": "owner",
                  "type": "tuple"
                }
              ],
              "internalType": "struct IMarket.BidShares",
              "name": "bidShares",
              "type": "tuple"
            }
          ],
          "internalType": "struct IZoo.Token",
          "name": "token",
          "type": "tuple"
        }
      ],
      "stateMutability": "view",
      "type": "function"
    },
    {
      "inputs": [],
      "name": "hybridEgg",
      "outputs": [
        {
          "internalType": "string",
          "name": "",
          "type": "string"
        }
      ],
      "stateMutability": "view",
      "type": "function"
    },
    {
      "inputs": [
        {
          "internalType": "string",
          "name": "",
          "type": "string"
        }
      ],
      "name": "hybridParents",
      "outputs": [
        {
          "internalType": "enum IZoo.Type",
          "name": "kind",
          "type": "uint8"
        },
        {
          "components": [
            {
              "internalType": "string",
              "name": "name",
              "type": "string"
            },
            {
              "internalType": "uint256",
              "name": "probability",
              "type": "uint256"
            },
            {
              "internalType": "uint256",
              "name": "yield",
              "type": "uint256"
            },
            {
              "internalType": "uint256",
              "name": "boost",
              "type": "uint256"
            }
          ],
          "internalType": "struct IZoo.Rarity",
          "name": "rarity",
          "type": "tuple"
        },
        {
          "internalType": "string",
          "name": "name",
          "type": "string"
        },
        {
          "internalType": "uint256",
          "name": "yield",
          "type": "uint256"
        },
        {
          "internalType": "string",
          "name": "parentA",
          "type": "string"
        },
        {
          "internalType": "string",
          "name": "parentB",
          "type": "string"
        },
        {
          "components": [
            {
              "internalType": "string",
              "name": "tokenURI",
              "type": "string"
            },
            {
              "internalType": "string",
              "name": "metadataURI",
              "type": "string"
            },
            {
              "internalType": "bytes32",
              "name": "contentHash",
              "type": "bytes32"
            },
            {
              "internalType": "bytes32",
              "name": "metadataHash",
              "type": "bytes32"
            }
          ],
          "internalType": "struct IMedia.MediaData",
          "name": "data",
          "type": "tuple"
        },
        {
          "components": [
            {
              "components": [
                {
                  "internalType": "uint256",
                  "name": "value",
                  "type": "uint256"
                }
              ],
              "internalType": "struct Decimal.D256",
              "name": "prevOwner",
              "type": "tuple"
            },
            {
              "components": [
                {
                  "internalType": "uint256",
                  "name": "value",
                  "type": "uint256"
                }
              ],
              "internalType": "struct Decimal.D256",
              "name": "creator",
              "type": "tuple"
            },
            {
              "components": [
                {
                  "internalType": "uint256",
                  "name": "value",
                  "type": "uint256"
                }
              ],
              "internalType": "struct Decimal.D256",
              "name": "owner",
              "type": "tuple"
            }
          ],
          "internalType": "struct IMarket.BidShares",
          "name": "bidShares",
          "type": "tuple"
        }
      ],
      "stateMutability": "view",
      "type": "function"
    },
    {
      "inputs": [],
      "name": "hybridSupply",
      "outputs": [
        {
          "internalType": "uint256",
          "name": "",
          "type": "uint256"
        }
      ],
      "stateMutability": "view",
      "type": "function"
    },
    {
      "inputs": [
        {
          "internalType": "string",
          "name": "",
          "type": "string"
        }
      ],
      "name": "hybrids",
      "outputs": [
        {
          "internalType": "enum IZoo.Type",
          "name": "kind",
          "type": "uint8"
        },
        {
          "components": [
            {
              "internalType": "string",
              "name": "name",
              "type": "string"
            },
            {
              "internalType": "uint256",
              "name": "probability",
              "type": "uint256"
            },
            {
              "internalType": "uint256",
              "name": "yield",
              "type": "uint256"
            },
            {
              "internalType": "uint256",
              "name": "boost",
              "type": "uint256"
            }
          ],
          "internalType": "struct IZoo.Rarity",
          "name": "rarity",
          "type": "tuple"
        },
        {
          "internalType": "string",
          "name": "name",
          "type": "string"
        },
        {
          "internalType": "uint256",
          "name": "yield",
          "type": "uint256"
        },
        {
          "internalType": "string",
          "name": "parentA",
          "type": "string"
        },
        {
          "internalType": "string",
          "name": "parentB",
          "type": "string"
        },
        {
          "components": [
            {
              "internalType": "string",
              "name": "tokenURI",
              "type": "string"
            },
            {
              "internalType": "string",
              "name": "metadataURI",
              "type": "string"
            },
            {
              "internalType": "bytes32",
              "name": "contentHash",
              "type": "bytes32"
            },
            {
              "internalType": "bytes32",
              "name": "metadataHash",
              "type": "bytes32"
            }
          ],
          "internalType": "struct IMedia.MediaData",
          "name": "data",
          "type": "tuple"
        },
        {
          "components": [
            {
              "components": [
                {
                  "internalType": "uint256",
                  "name": "value",
                  "type": "uint256"
                }
              ],
              "internalType": "struct Decimal.D256",
              "name": "prevOwner",
              "type": "tuple"
            },
            {
              "components": [
                {
                  "internalType": "uint256",
                  "name": "value",
                  "type": "uint256"
                }
              ],
              "internalType": "struct Decimal.D256",
              "name": "creator",
              "type": "tuple"
            },
            {
              "components": [
                {
                  "internalType": "uint256",
                  "name": "value",
                  "type": "uint256"
                }
              ],
              "internalType": "struct Decimal.D256",
              "name": "owner",
              "type": "tuple"
            }
          ],
          "internalType": "struct IMarket.BidShares",
          "name": "bidShares",
          "type": "tuple"
        }
      ],
      "stateMutability": "view",
      "type": "function"
    },
    {
      "inputs": [],
      "name": "keeperAddress",
      "outputs": [
        {
          "internalType": "address",
          "name": "",
          "type": "address"
        }
      ],
      "stateMutability": "view",
      "type": "function"
    },
    {
      "inputs": [],
      "name": "newEgg",
      "outputs": [
        {
          "components": [
            {
              "components": [
                {
                  "internalType": "string",
                  "name": "name",
                  "type": "string"
                },
                {
                  "internalType": "uint256",
                  "name": "probability",
                  "type": "uint256"
                },
                {
                  "internalType": "uint256",
                  "name": "yield",
                  "type": "uint256"
                },
                {
                  "internalType": "uint256",
                  "name": "boost",
                  "type": "uint256"
                }
              ],
              "internalType": "struct IZoo.Rarity",
              "name": "rarity",
              "type": "tuple"
            },
            {
              "internalType": "enum IZoo.Type",
              "name": "kind",
              "type": "uint8"
            },
            {
              "internalType": "string",
              "name": "name",
              "type": "string"
            },
            {
              "internalType": "uint256",
              "name": "id",
              "type": "uint256"
            },
            {
              "internalType": "uint256",
              "name": "timestamp",
              "type": "uint256"
            },
            {
              "internalType": "uint256",
              "name": "birthday",
              "type": "uint256"
            },
            {
              "internalType": "string",
              "name": "customName",
              "type": "string"
            },
            {
              "components": [
                {
                  "internalType": "string",
                  "name": "animalA",
                  "type": "string"
                },
                {
                  "internalType": "string",
                  "name": "animalB",
                  "type": "string"
                },
                {
                  "internalType": "uint256",
                  "name": "tokenA",
                  "type": "uint256"
                },
                {
                  "internalType": "uint256",
                  "name": "tokenB",
                  "type": "uint256"
                }
              ],
              "internalType": "struct IZoo.Parents",
              "name": "parents",
              "type": "tuple"
            },
            {
              "components": [
                {
                  "internalType": "uint256",
                  "name": "count",
                  "type": "uint256"
                },
                {
                  "internalType": "uint256",
                  "name": "timestamp",
                  "type": "uint256"
                }
              ],
              "internalType": "struct IZoo.Breed",
              "name": "breed",
              "type": "tuple"
            },
            {
              "components": [
                {
                  "internalType": "uint256",
                  "name": "eggID",
                  "type": "uint256"
                },
                {
                  "internalType": "uint256",
                  "name": "dropID",
                  "type": "uint256"
                },
                {
                  "internalType": "bool",
                  "name": "burned",
                  "type": "bool"
                },
                {
                  "internalType": "bool",
                  "name": "swapped",
                  "type": "bool"
                }
              ],
              "internalType": "struct IZoo.Meta",
              "name": "meta",
              "type": "tuple"
            },
            {
              "components": [
                {
                  "internalType": "string",
                  "name": "tokenURI",
                  "type": "string"
                },
                {
                  "internalType": "string",
                  "name": "metadataURI",
                  "type": "string"
                },
                {
                  "internalType": "bytes32",
                  "name": "contentHash",
                  "type": "bytes32"
                },
                {
                  "internalType": "bytes32",
                  "name": "metadataHash",
                  "type": "bytes32"
                }
              ],
              "internalType": "struct IMedia.MediaData",
              "name": "data",
              "type": "tuple"
            },
            {
              "components": [
                {
                  "components": [
                    {
                      "internalType": "uint256",
                      "name": "value",
                      "type": "uint256"
                    }
                  ],
                  "internalType": "struct Decimal.D256",
                  "name": "prevOwner",
                  "type": "tuple"
                },
                {
                  "components": [
                    {
                      "internalType": "uint256",
                      "name": "value",
                      "type": "uint256"
                    }
                  ],
                  "internalType": "struct Decimal.D256",
                  "name": "creator",
                  "type": "tuple"
                },
                {
                  "components": [
                    {
                      "internalType": "uint256",
                      "name": "value",
                      "type": "uint256"
                    }
                  ],
                  "internalType": "struct Decimal.D256",
                  "name": "owner",
                  "type": "tuple"
                }
              ],
              "internalType": "struct IMarket.BidShares",
              "name": "bidShares",
              "type": "tuple"
            }
          ],
          "internalType": "struct IZoo.Token",
          "name": "",
          "type": "tuple"
        }
      ],
      "stateMutability": "nonpayable",
      "type": "function"
    },
    {
      "inputs": [
        {
          "components": [
            {
              "internalType": "string",
              "name": "animalA",
              "type": "string"
            },
            {
              "internalType": "string",
              "name": "animalB",
              "type": "string"
            },
            {
              "internalType": "uint256",
              "name": "tokenA",
              "type": "uint256"
            },
            {
              "internalType": "uint256",
              "name": "tokenB",
              "type": "uint256"
            }
          ],
          "internalType": "struct IZoo.Parents",
          "name": "parents",
          "type": "tuple"
        }
      ],
      "name": "newHybridEgg",
      "outputs": [
        {
          "components": [
            {
              "components": [
                {
                  "internalType": "string",
                  "name": "name",
                  "type": "string"
                },
                {
                  "internalType": "uint256",
                  "name": "probability",
                  "type": "uint256"
                },
                {
                  "internalType": "uint256",
                  "name": "yield",
                  "type": "uint256"
                },
                {
                  "internalType": "uint256",
                  "name": "boost",
                  "type": "uint256"
                }
              ],
              "internalType": "struct IZoo.Rarity",
              "name": "rarity",
              "type": "tuple"
            },
            {
              "internalType": "enum IZoo.Type",
              "name": "kind",
              "type": "uint8"
            },
            {
              "internalType": "string",
              "name": "name",
              "type": "string"
            },
            {
              "internalType": "uint256",
              "name": "id",
              "type": "uint256"
            },
            {
              "internalType": "uint256",
              "name": "timestamp",
              "type": "uint256"
            },
            {
              "internalType": "uint256",
              "name": "birthday",
              "type": "uint256"
            },
            {
              "internalType": "string",
              "name": "customName",
              "type": "string"
            },
            {
              "components": [
                {
                  "internalType": "string",
                  "name": "animalA",
                  "type": "string"
                },
                {
                  "internalType": "string",
                  "name": "animalB",
                  "type": "string"
                },
                {
                  "internalType": "uint256",
                  "name": "tokenA",
                  "type": "uint256"
                },
                {
                  "internalType": "uint256",
                  "name": "tokenB",
                  "type": "uint256"
                }
              ],
              "internalType": "struct IZoo.Parents",
              "name": "parents",
              "type": "tuple"
            },
            {
              "components": [
                {
                  "internalType": "uint256",
                  "name": "count",
                  "type": "uint256"
                },
                {
                  "internalType": "uint256",
                  "name": "timestamp",
                  "type": "uint256"
                }
              ],
              "internalType": "struct IZoo.Breed",
              "name": "breed",
              "type": "tuple"
            },
            {
              "components": [
                {
                  "internalType": "uint256",
                  "name": "eggID",
                  "type": "uint256"
                },
                {
                  "internalType": "uint256",
                  "name": "dropID",
                  "type": "uint256"
                },
                {
                  "internalType": "bool",
                  "name": "burned",
                  "type": "bool"
                },
                {
                  "internalType": "bool",
                  "name": "swapped",
                  "type": "bool"
                }
              ],
              "internalType": "struct IZoo.Meta",
              "name": "meta",
              "type": "tuple"
            },
            {
              "components": [
                {
                  "internalType": "string",
                  "name": "tokenURI",
                  "type": "string"
                },
                {
                  "internalType": "string",
                  "name": "metadataURI",
                  "type": "string"
                },
                {
                  "internalType": "bytes32",
                  "name": "contentHash",
                  "type": "bytes32"
                },
                {
                  "internalType": "bytes32",
                  "name": "metadataHash",
                  "type": "bytes32"
                }
              ],
              "internalType": "struct IMedia.MediaData",
              "name": "data",
              "type": "tuple"
            },
            {
              "components": [
                {
                  "components": [
                    {
                      "internalType": "uint256",
                      "name": "value",
                      "type": "uint256"
                    }
                  ],
                  "internalType": "struct Decimal.D256",
                  "name": "prevOwner",
                  "type": "tuple"
                },
                {
                  "components": [
                    {
                      "internalType": "uint256",
                      "name": "value",
                      "type": "uint256"
                    }
                  ],
                  "internalType": "struct Decimal.D256",
                  "name": "creator",
                  "type": "tuple"
                },
                {
                  "components": [
                    {
                      "internalType": "uint256",
                      "name": "value",
                      "type": "uint256"
                    }
                  ],
                  "internalType": "struct Decimal.D256",
                  "name": "owner",
                  "type": "tuple"
                }
              ],
              "internalType": "struct IMarket.BidShares",
              "name": "bidShares",
              "type": "tuple"
            }
          ],
          "internalType": "struct IZoo.Token",
          "name": "",
          "type": "tuple"
        }
      ],
      "stateMutability": "view",
      "type": "function"
    },
    {
      "inputs": [],
      "name": "owner",
      "outputs": [
        {
          "internalType": "address",
          "name": "",
          "type": "address"
        }
      ],
      "stateMutability": "view",
      "type": "function"
    },
    {
      "inputs": [
        {
          "internalType": "string",
          "name": "",
          "type": "string"
        }
      ],
      "name": "rarities",
      "outputs": [
        {
          "internalType": "string",
          "name": "name",
          "type": "string"
        },
        {
          "internalType": "uint256",
          "name": "probability",
          "type": "uint256"
        },
        {
          "internalType": "uint256",
          "name": "yield",
          "type": "uint256"
        },
        {
          "internalType": "uint256",
          "name": "boost",
          "type": "uint256"
        }
      ],
      "stateMutability": "view",
      "type": "function"
    },
    {
      "inputs": [
        {
          "internalType": "string",
          "name": "",
          "type": "string"
        },
        {
          "internalType": "uint256",
          "name": "",
          "type": "uint256"
        }
      ],
      "name": "rarityAnimals",
      "outputs": [
        {
          "internalType": "string",
          "name": "",
          "type": "string"
        }
      ],
      "stateMutability": "view",
      "type": "function"
    },
    {
      "inputs": [
        {
          "internalType": "uint256",
          "name": "",
          "type": "uint256"
        }
      ],
      "name": "raritySorted",
      "outputs": [
        {
          "internalType": "string",
          "name": "",
          "type": "string"
        }
      ],
      "stateMutability": "view",
      "type": "function"
    },
    {
      "inputs": [],
      "name": "renounceOwnership",
      "outputs": [],
      "stateMutability": "nonpayable",
      "type": "function"
    },
    {
      "inputs": [
        {
          "internalType": "string",
          "name": "name",
          "type": "string"
        },
        {
          "internalType": "string",
          "name": "rarity",
          "type": "string"
        },
        {
          "internalType": "string",
          "name": "tokenURI",
          "type": "string"
        },
        {
          "internalType": "string",
          "name": "metadataURI",
          "type": "string"
        }
      ],
      "name": "setAnimal",
      "outputs": [
        {
          "internalType": "bool",
          "name": "",
          "type": "bool"
        }
      ],
      "stateMutability": "nonpayable",
      "type": "function"
    },
    {
      "inputs": [
        {
          "components": [
            {
              "internalType": "string",
              "name": "rarity",
              "type": "string"
            },
            {
              "internalType": "string",
              "name": "name",
              "type": "string"
            },
            {
              "internalType": "string",
              "name": "tokenURI",
              "type": "string"
            },
            {
              "internalType": "string",
              "name": "metadataURI",
              "type": "string"
            }
          ],
          "internalType": "struct Drop._Animal[]",
          "name": "_animals",
          "type": "tuple[]"
        }
      ],
      "name": "setAnimals",
      "outputs": [],
      "stateMutability": "nonpayable",
      "type": "function"
    },
    {
      "inputs": [
        {
          "internalType": "string",
          "name": "name",
          "type": "string"
        },
        {
          "internalType": "uint256",
          "name": "price",
          "type": "uint256"
        },
        {
          "internalType": "uint256",
          "name": "supply",
          "type": "uint256"
        },
        {
          "internalType": "string",
          "name": "tokenURI",
          "type": "string"
        },
        {
          "internalType": "string",
          "name": "metadataURI",
          "type": "string"
        }
      ],
      "name": "setEgg",
      "outputs": [
        {
          "components": [
            {
              "internalType": "enum IZoo.Type",
              "name": "kind",
              "type": "uint8"
            },
            {
              "internalType": "string",
              "name": "name",
              "type": "string"
            },
            {
              "internalType": "uint256",
              "name": "supply",
              "type": "uint256"
            },
            {
              "internalType": "uint256",
              "name": "price",
              "type": "uint256"
            },
            {
              "internalType": "uint256",
              "name": "timestamp",
              "type": "uint256"
            },
            {
              "internalType": "uint256",
              "name": "birthday",
              "type": "uint256"
            },
            {
              "internalType": "uint256",
              "name": "minted",
              "type": "uint256"
            },
            {
              "components": [
                {
                  "internalType": "string",
                  "name": "tokenURI",
                  "type": "string"
                },
                {
                  "internalType": "string",
                  "name": "metadataURI",
                  "type": "string"
                },
                {
                  "internalType": "bytes32",
                  "name": "contentHash",
                  "type": "bytes32"
                },
                {
                  "internalType": "bytes32",
                  "name": "metadataHash",
                  "type": "bytes32"
                }
              ],
              "internalType": "struct IMedia.MediaData",
              "name": "data",
              "type": "tuple"
            },
            {
              "components": [
                {
                  "components": [
                    {
                      "internalType": "uint256",
                      "name": "value",
                      "type": "uint256"
                    }
                  ],
                  "internalType": "struct Decimal.D256",
                  "name": "prevOwner",
                  "type": "tuple"
                },
                {
                  "components": [
                    {
                      "internalType": "uint256",
                      "name": "value",
                      "type": "uint256"
                    }
                  ],
                  "internalType": "struct Decimal.D256",
                  "name": "creator",
                  "type": "tuple"
                },
                {
                  "components": [
                    {
                      "internalType": "uint256",
                      "name": "value",
                      "type": "uint256"
                    }
                  ],
                  "internalType": "struct Decimal.D256",
                  "name": "owner",
                  "type": "tuple"
                }
              ],
              "internalType": "struct IMarket.BidShares",
              "name": "bidShares",
              "type": "tuple"
            }
          ],
          "internalType": "struct Drop.Egg",
          "name": "",
          "type": "tuple"
        }
      ],
      "stateMutability": "nonpayable",
      "type": "function"
    },
    {
      "inputs": [
        {
          "internalType": "string",
          "name": "name",
          "type": "string"
        },
        {
          "internalType": "string",
          "name": "rarity",
          "type": "string"
        },
        {
          "internalType": "uint256",
          "name": "yield",
          "type": "uint256"
        },
        {
          "internalType": "string",
          "name": "parentA",
          "type": "string"
        },
        {
          "internalType": "string",
          "name": "parentB",
          "type": "string"
        },
        {
          "internalType": "string",
          "name": "tokenURI",
          "type": "string"
        },
        {
          "internalType": "string",
          "name": "metadataURI",
          "type": "string"
        }
      ],
      "name": "setHybrid",
      "outputs": [
        {
          "internalType": "bool",
          "name": "",
          "type": "bool"
        }
      ],
      "stateMutability": "nonpayable",
      "type": "function"
    },
    {
      "inputs": [
        {
          "components": [
            {
              "internalType": "string",
              "name": "rarity",
              "type": "string"
            },
            {
              "internalType": "string",
              "name": "name",
              "type": "string"
            },
            {
              "internalType": "uint256",
              "name": "yield",
              "type": "uint256"
            },
            {
              "internalType": "string",
              "name": "parentA",
              "type": "string"
            },
            {
              "internalType": "string",
              "name": "parentB",
              "type": "string"
            },
            {
              "internalType": "string",
              "name": "tokenURI",
              "type": "string"
            },
            {
              "internalType": "string",
              "name": "metadataURI",
              "type": "string"
            }
          ],
          "internalType": "struct Drop._Hybrid[]",
          "name": "_hybrids",
          "type": "tuple[]"
        }
      ],
      "name": "setHybrids",
      "outputs": [],
      "stateMutability": "nonpayable",
      "type": "function"
    },
    {
      "inputs": [
        {
          "internalType": "string",
          "name": "name",
          "type": "string"
        },
        {
          "internalType": "uint256",
          "name": "probability",
          "type": "uint256"
        },
        {
          "internalType": "uint256",
          "name": "yield",
          "type": "uint256"
        },
        {
          "internalType": "uint256",
          "name": "boost",
          "type": "uint256"
        }
      ],
      "name": "setRarity",
      "outputs": [
        {
          "internalType": "bool",
          "name": "",
          "type": "bool"
        }
      ],
      "stateMutability": "nonpayable",
      "type": "function"
    },
    {
      "inputs": [],
      "name": "title",
      "outputs": [
        {
          "internalType": "string",
          "name": "",
          "type": "string"
        }
      ],
      "stateMutability": "view",
      "type": "function"
    },
    {
      "inputs": [],
      "name": "totalSupply",
      "outputs": [
        {
          "internalType": "uint256",
          "name": "",
          "type": "uint256"
        }
      ],
      "stateMutability": "view",
      "type": "function"
    },
    {
      "inputs": [
        {
          "internalType": "address",
          "name": "newOwner",
          "type": "address"
        }
      ],
      "name": "transferOwnership",
      "outputs": [],
      "stateMutability": "nonpayable",
      "type": "function"
    }
  ],
  "transactionHash": "0x1c331c227398d26dd4a1ad868459d81a40b7f9ce6ad85e96327d14e095d25d6a",
  "args": [
    "Gen 0"
  ],
  "solcInputHash": "cdb2b59836bb7d05cf2cbb5348295249",
  "bytecode": "0x60806040523480156200001157600080fd5b5060405162004d1438038062004d14833981016040819052620000349162000152565b6200003f336200005c565b805162000054906001906020840190620000ac565b50506200027b565b600080546001600160a01b038381166001600160a01b0319831681178455604051919092169283917f8be0079c531659141344cd1fd0a4f28419497f9722a3daafe3b4186f6b6457e09190a35050565b828054620000ba9062000228565b90600052602060002090601f016020900481019282620000de576000855562000129565b82601f10620000f957805160ff191683800117855562000129565b8280016001018555821562000129579182015b82811115620001295782518255916020019190600101906200010c565b50620001379291506200013b565b5090565b5b808211156200013757600081556001016200013c565b6000602080838503121562000165578182fd5b82516001600160401b03808211156200017c578384fd5b818501915085601f83011262000190578384fd5b815181811115620001a557620001a562000265565b604051601f8201601f19908116603f01168101908382118183101715620001d057620001d062000265565b816040528281528886848701011115620001e8578687fd5b8693505b828410156200020b5784840186015181850187015292850192620001ec565b828411156200021c57868684830101525b98975050505050505050565b600181811c908216806200023d57607f821691505b602082108114156200025f57634e487b7160e01b600052602260045260246000fd5b50919050565b634e487b7160e01b600052604160045260246000fd5b614a89806200028b6000396000f3fe608060405234801561001057600080fd5b506004361061016a5760003560e01c806301dca3b71461016f5780630489a8f61461018d57806308f8bcc6146101a257806318160ddd146101b557806319c920b5146101cb57806325fcf635146101ee578063305e35521461021657806335c3a2d41461021e5780633b5c9856146102315780634a79d50c1461024457806351b2440b1461024c5780636753e4651461025f578063715018a6146102745780637e617eca1461027c5780638398c91f146102a0578063899628f3146102a85780638da5cb5b146102bb5780639447c33d146102db5780639908a82a146102fe578063b67a85bd14610306578063ba349bde14610319578063bc1435061461032c578063c2b9bd631461034c578063c4903d2d1461035f578063c7d8b6c514610386578063d232b79714610399578063e82baf30146103a1578063ee99608e146103b4578063f2fde38b146103c7578063f51c654f146103da575b600080fd5b6101776103ed565b6040516101849190614578565b60405180910390f35b61019561047b565b60405161018491906147ae565b6101956101b036600461427d565b6107e2565b6101bd610ea9565b604051908152602001610184565b6101de6101d9366004613f82565b610ec4565b6040519015158152602001610184565b6102016101fc366004613ee8565b61107d565b60405161018499989796959493929190614412565b6101bd6112d5565b61017761022c36600461427d565b6112f0565b61019561023f366004614295565b61131b565b6101776113e5565b6101de61025a366004614029565b6113f2565b61027261026d366004613e82565b611758565b005b6102726118f0565b61028f61028a366004613ee8565b61192b565b604051610184959493929190614484565b610177611c24565b6102726102b6366004613ec1565b611c31565b6102c3611e4c565b6040516001600160a01b039091168152602001610184565b6102ee6102e9366004613ee8565b611e5b565b604051610184949392919061465f565b6101bd611f16565b6004546102c3906001600160a01b031681565b610177610327366004614121565b611f31565b61033f61033a366004614163565b611f78565b604051610184919061470f565b61027261035a366004613e5b565b612114565b61037261036d366004613ee8565b612165565b6040516101849897969594939291906144e4565b610372610394366004613ee8565b612580565b6101bd6125c0565b6101956103af36600461424b565b6125d2565b6102726103c2366004613f22565b612751565b6102726103d5366004613e5b565b6127a7565b6101de6103e83660046141fa565b612847565b600380546103fa906149b7565b80601f0160208091040260200160405190810160405280929190818152602001828054610426906149b7565b80156104735780601f1061044857610100808354040283529160200191610473565b820191906000526020600020905b81548152906001019060200180831161045657829003601f168201915b505050505081565b610483613904565b6004546001600160a01b031633146104b65760405162461bcd60e51b81526004016104ad906146c3565b60405180910390fd5b600061054b600280546104c8906149b7565b80601f01602080910402602001604051908101604052809291908181526020018280546104f4906149b7565b80156105415780601f1061051657610100808354040283529160200191610541565b820191906000526020600020905b81548152906001019060200180831161052457829003601f168201915b5050505050612997565b90506105556125c0565b158061056b57506105646125c0565b8160c00151105b6105a55760405162461bcd60e51b815260206004820152600b60248201526a4f7574206f66206567677360a81b60448201526064016104ad565b60c081018051906105b5826149ec565b8152505080600882602001516040516105ce91906143c7565b90815260405190819003602001902081518154829060ff1916600183600381111561060957634e487b7160e01b600052602160045260246000fd5b0217905550602082810151805161062692600185019201906139da565b5060408201516002820155606082015160038201556080820151600482015560a0820151600582015560c0820151600682015560e0820151805180516007840191610676918391602001906139da565b50602082810151805161068f92600185019201906139da565b5060408281015160028301556060909201516003909101556101009290920151805151600b830155602081015151600c83015582015151600d9091015580516101c08101909152600661018082019081526521b7b6b6b7b760d11b6101a083015281906106fb90612c6b565b81526020016000815260200182602001518152602001600081526020014281526020014381526020016040518060200160405280600081525081526020016040518060800160405280604051806020016040528060008152508152602001604051806020016040528060008152508152602001600081526020016000815250815260200160405180604001604052806000815260200160008152508152602001604051806080016040528060008152602001600081526020016000151581526020016000151581525081526020018260e00151815260200182610100015181525091505090565b6107ea613904565b6107f2613a5e565b6108236040518060400160405280600f81526020016e19d95d14985b991bdb505b9a5b585b608a1b81525084612d53565b6040805180820190915260138152720e4c2e4d2e8f2a6dee4e8cac85cd8cadccee8d606b1b602082015260075461085a9190612d53565b60005b600754811015610da25760006007828154811061088a57634e487b7160e01b600052603260045260246000fd5b90600052602060002001805461089f906149b7565b80601f01602080910402602001604051908101604052809291908181526020018280546108cb906149b7565b80156109185780601f106108ed57610100808354040283529160200191610918565b820191906000526020600020905b8154815290600101906020018083116108fb57829003601f168201915b50505050509050600060058260405161093191906143c7565b908152602001604051809103902060405180608001604052908160008201805461095a906149b7565b80601f0160208091040260200160405190810160405280929190818152602001828054610986906149b7565b80156109d35780601f106109a8576101008083540402835291602001916109d3565b820191906000526020600020905b8154815290600101906020018083116109b657829003601f168201915b5050505050815260200160018201548152602001600282015481526020016003820154815250509050610a296040518060400160405280600b81526020016a7261726974792e6e616d6560a81b81525083612d9c565b610a61604051806040016040528060128152602001717261726974792e70726f626162696c69747960701b8152508260200151612d53565b610c316040518060400160405280600d81526020016c726172697479416e696d616c7360981b815250600684604051610a9a91906143c7565b9081526020016040518091039020600081548110610ac857634e487b7160e01b600052603260045260246000fd5b906000526020600020018054610add906149b7565b80601f0160208091040260200160405190810160405280929190818152602001828054610b09906149b7565b8015610b565780601f10610b2b57610100808354040283529160200191610b56565b820191906000526020600020905b815481529060010190602001808311610b3957829003601f168201915b5050505050600685604051610b6b91906143c7565b9081526020016040518091039020600181548110610b9957634e487b7160e01b600052603260045260246000fd5b906000526020600020018054610bae906149b7565b80601f0160208091040260200160405190810160405280929190818152602001828054610bda906149b7565b8015610c275780601f10610bfc57610100808354040283529160200191610c27565b820191906000526020600020905b815481529060010190602001808311610c0a57829003601f168201915b5050505050612de1565b8581602001511180610c505750600754610c4d90600190614974565b83145b15610d8d576000600683604051610c6791906143c7565b9081526020016040518091039020805480602002602001604051908101604052809291908181526020016000905b82821015610d41578382906000526020600020018054610cb4906149b7565b80601f0160208091040260200160405190810160405280929190818152602001828054610ce0906149b7565b8015610d2d5780601f10610d0257610100808354040283529160200191610d2d565b820191906000526020600020905b815481529060010190602001808311610d1057829003601f168201915b505050505081526020019060010190610c95565b505050509050610d8381825189610d589190614a07565b81518110610d7657634e487b7160e01b600052603260045260246000fd5b6020026020010151612e28565b9450505050610da2565b50508080610d9a906149ec565b91505061085d565b506001602083810191909152604082810180518286015260608401516101408601528383018051865260808086015161016088015242908701524360a087015282518084018452600c81526b1c985b991bdb505b9a5b585b60a21b94810194909452905190518051920151610e1893929061318d565b610e5c6040518060400160405280601a81526020017972616e646f6d416e696d616c2e646174612e746f6b656e55524960301b815250826060015160000151612d9c565b610ea36040518060400160405280601d81526020017f72616e646f6d416e696d616c2e646174612e6d65746164617461555249000000815250826060015160200151612d9c565b50919050565b6000610ebb600280546104c8906149b7565b60c00151905090565b600033610ecf611e4c565b6001600160a01b031614610ef55760405162461bcd60e51b81526004016104ad9061468e565b6040805160a081019091526000908060018152602001610f1487612c6b565b8152602001878152602001610f2986866131dc565b8152602001610f3661320a565b815250905080600987604051610f4c91906143c7565b90815260405190819003602001902081518154829060ff19166001836003811115610f8757634e487b7160e01b600052602160045260246000fd5b02179055506020828101518051805191926001850192610faa92849201906139da565b5060208201518160010155604082015181600201556060820151816003015550506040820151816005019080519060200190610fe79291906139da565b506060820151805180516006840191611005918391602001906139da565b50602082810151805161101e92600185019201906139da565b50604082810151600283015560609092015160039091015560809290920151805151600a83015560208082015151600b8401559083015151600c909201919091558201515190820151611071919061324d565b50600195945050505050565b80516020818301810180516008825292820191909301209152805460018201805460ff90921692916110ae906149b7565b80601f01602080910402602001604051908101604052809291908181526020018280546110da906149b7565b80156111275780601f106110fc57610100808354040283529160200191611127565b820191906000526020600020905b81548152906001019060200180831161110a57829003601f168201915b5050505050908060020154908060030154908060040154908060050154908060060154908060070160405180608001604052908160008201805461116a906149b7565b80601f0160208091040260200160405190810160405280929190818152602001828054611196906149b7565b80156111e35780601f106111b8576101008083540402835291602001916111e3565b820191906000526020600020905b8154815290600101906020018083116111c657829003601f168201915b505050505081526020016001820180546111fc906149b7565b80601f0160208091040260200160405190810160405280929190818152602001828054611228906149b7565b80156112755780601f1061124a57610100808354040283529160200191611275565b820191906000526020600020905b81548152906001019060200180831161125857829003601f168201915b505050918352505060028201546020808301919091526003909201546040918201528051608081018252600b85015460608201908152815281518084018352600c86015481528184015281519283018252600d9094015482528301529089565b60006112e7600280546104c8906149b7565b60600151905090565b6007818154811061130057600080fd5b9060005260206000200160009150905080546103fa906149b7565b611323613904565b60006040518060400160405280611342856000015186602001516133b6565b8152602001611359856020015186600001516133b6565b9052905060008161136b600287614a07565b6002811061138957634e487b7160e01b600052603260045260246000fd5b602090810291909101516003858301526040808201518187015260c082015161014087015291810151808652606082015192019190915260e0908101516101608501524260808501524360a08501528301939093525092915050565b600180546103fa906149b7565b6000336113fd611e4c565b6001600160a01b0316146114235760405162461bcd60e51b81526004016104ad9061468e565b60408051610100810190915260009080600381526020016114438a612c6b565b81526020018a815260200188815260200187815260200186815260200161146a86866131dc565b815260200161147761320a565b815250905080600a8a60405161148d91906143c7565b90815260405190819003602001902081518154829060ff191660018360038111156114c857634e487b7160e01b600052602160045260246000fd5b021790555060208281015180518051919260018501926114eb92849201906139da565b50602082015181600101556040820151816002015560608201518160030155505060408201518160050190805190602001906115289291906139da565b50606082015160068201556080820151805161154e9160078401916020909101906139da565b5060a0820151805161156a9160088401916020909101906139da565b5060c0820151805180516009840191611588918391602001906139da565b5060208281015180516115a192600185019201906139da565b50604082810151600283015560609092015160039091015560e09290920151805151600d830155602081015151600e8301559091015151600f9091015580600b6115eb8888613854565b6040516115f891906143c7565b90815260405190819003602001902081518154829060ff1916600183600381111561163357634e487b7160e01b600052602160045260246000fd5b0217905550602082810151805180519192600185019261165692849201906139da565b50602082015181600101556040820151816002015560608201518160030155505060408201518160050190805190602001906116939291906139da565b5060608201516006820155608082015180516116b99160078401916020909101906139da565b5060a082015180516116d59160088401916020909101906139da565b5060c08201518051805160098401916116f3918391602001906139da565b50602082810151805161170c92600185019201906139da565b50604082810151600283015560609092015160039091015560e09290920151805151600d830155602081015151600e8301559091015151600f9091015550600198975050505050505050565b33611761611e4c565b6001600160a01b0316146117875760405162461bcd60e51b81526004016104ad9061468e565b60005b818110156118eb57368383838181106117b357634e487b7160e01b600052603260045260246000fd5b90506020028101906117c5919061492b565b90506118d66117d760208301836148e7565b8080601f01602080910402602001604051908101604052809392919081815260200183838082843760009201919091525061181892508591508190506148e7565b8080601f01602080910402602001604051908101604052809392919081815260200183838082843760009201919091525061185a9250505060408501856148e7565b8080601f01602080910402602001604051908101604052809392919081815260200183838082843760009201919091525061189c9250505060608601866148e7565b8080601f016020809104026020016040519081016040528093929190818152602001838380828437600092019190915250610ec492505050565b505080806118e3906149ec565b91505061178a565b505050565b336118f9611e4c565b6001600160a01b03161461191f5760405162461bcd60e51b81526004016104ad9061468e565b6119296000613880565b565b805160208183018101805160098252928201919093012091528054604080516080810190915260018301805460ff90931693928290829061196b906149b7565b80601f0160208091040260200160405190810160405280929190818152602001828054611997906149b7565b80156119e45780601f106119b9576101008083540402835291602001916119e4565b820191906000526020600020905b8154815290600101906020018083116119c757829003601f168201915b50505050508152602001600182015481526020016002820154815260200160038201548152505090806005018054611a1b906149b7565b80601f0160208091040260200160405190810160405280929190818152602001828054611a47906149b7565b8015611a945780601f10611a6957610100808354040283529160200191611a94565b820191906000526020600020905b815481529060010190602001808311611a7757829003601f168201915b50505050509080600601604051806080016040529081600082018054611ab9906149b7565b80601f0160208091040260200160405190810160405280929190818152602001828054611ae5906149b7565b8015611b325780601f10611b0757610100808354040283529160200191611b32565b820191906000526020600020905b815481529060010190602001808311611b1557829003601f168201915b50505050508152602001600182018054611b4b906149b7565b80601f0160208091040260200160405190810160405280929190818152602001828054611b77906149b7565b8015611bc45780601f10611b9957610100808354040283529160200191611bc4565b820191906000526020600020905b815481529060010190602001808311611ba757829003601f168201915b505050918352505060028201546020808301919091526003909201546040918201528051608081018252600a85015460608201908152815281518084018352600b86015481528184015281519283018252600c9094015482528301529085565b600280546103fa906149b7565b33611c3a611e4c565b6001600160a01b031614611c605760405162461bcd60e51b81526004016104ad9061468e565b60005b818110156118eb5736838383818110611c8c57634e487b7160e01b600052603260045260246000fd5b9050602002810190611c9e9190614940565b9050611e37611cb060208301836148e7565b8080601f016020809104026020016040519081016040528093929190818152602001838380828437600092019190915250611cf192508591508190506148e7565b8080601f0160208091040260200160405190810160405280939291908181526020018383808284376000920191909152505050506040840135611d3760608601866148e7565b8080601f016020809104026020016040519081016040528093929190818152602001838380828437600092019190915250611d799250505060808701876148e7565b8080601f016020809104026020016040519081016040528093929190818152602001838380828437600092019190915250611dbb9250505060a08801886148e7565b8080601f016020809104026020016040519081016040528093929190818152602001838380828437600092019190915250611dfd9250505060c08901896148e7565b8080601f0160208091040260200160405190810160405280939291908181526020018383808284376000920191909152506113f292505050565b50508080611e44906149ec565b915050611c63565b6000546001600160a01b031690565b8051602081830181018051600582529282019190930120915280548190611e81906149b7565b80601f0160208091040260200160405190810160405280929190818152602001828054611ead906149b7565b8015611efa5780601f10611ecf57610100808354040283529160200191611efa565b820191906000526020600020905b815481529060010190602001808311611edd57829003601f168201915b5050505050908060010154908060020154908060030154905084565b6000611f28600380546104c8906149b7565b60400151905090565b81516020818401810180516006825292820191850191909120919052805482908110611f5c57600080fd5b906000526020600020016000915091505080546103fa906149b7565b611f80613a8d565b33611f89611e4c565b6001600160a01b031614611faf5760405162461bcd60e51b81526004016104ad9061468e565b611fb7613a8d565b60208101879052611fc884846131dc565b60e0820152611fd561320a565b610100820152611fed86670de0b6b3a76400006138d0565b6060820152604080820186905251819060089061200b908a906143c7565b90815260405190819003602001902081518154829060ff1916600183600381111561204657634e487b7160e01b600052602160045260246000fd5b0217905550602082810151805161206392600185019201906139da565b5060408201516002820155606082015160038201556080820151600482015560a0820151600582015560c0820151600682015560e08201518051805160078401916120b3918391602001906139da565b5060208281015180516120cc92600185019201906139da565b5060408281015160028301556060909201516003909101556101009290920151805151600b830155602081015151600c8301559091015151600d909101559695505050505050565b3361211d611e4c565b6001600160a01b0316146121435760405162461bcd60e51b81526004016104ad9061468e565b600480546001600160a01b0319166001600160a01b0392909216919091179055565b8051602081830181018051600a8252928201919093012091528054604080516080810190915260018301805460ff9093169392829082906121a5906149b7565b80601f01602080910402602001604051908101604052809291908181526020018280546121d1906149b7565b801561221e5780601f106121f35761010080835404028352916020019161221e565b820191906000526020600020905b81548152906001019060200180831161220157829003601f168201915b50505050508152602001600182015481526020016002820154815260200160038201548152505090806005018054612255906149b7565b80601f0160208091040260200160405190810160405280929190818152602001828054612281906149b7565b80156122ce5780601f106122a3576101008083540402835291602001916122ce565b820191906000526020600020905b8154815290600101906020018083116122b157829003601f168201915b5050505050908060060154908060070180546122e9906149b7565b80601f0160208091040260200160405190810160405280929190818152602001828054612315906149b7565b80156123625780601f1061233757610100808354040283529160200191612362565b820191906000526020600020905b81548152906001019060200180831161234557829003601f168201915b505050505090806008018054612377906149b7565b80601f01602080910402602001604051908101604052809291908181526020018280546123a3906149b7565b80156123f05780601f106123c5576101008083540402835291602001916123f0565b820191906000526020600020905b8154815290600101906020018083116123d357829003601f168201915b50505050509080600901604051806080016040529081600082018054612415906149b7565b80601f0160208091040260200160405190810160405280929190818152602001828054612441906149b7565b801561248e5780601f106124635761010080835404028352916020019161248e565b820191906000526020600020905b81548152906001019060200180831161247157829003601f168201915b505050505081526020016001820180546124a7906149b7565b80601f01602080910402602001604051908101604052809291908181526020018280546124d3906149b7565b80156125205780601f106124f557610100808354040283529160200191612520565b820191906000526020600020905b81548152906001019060200180831161250357829003601f168201915b505050918352505060028201546020808301919091526003909201546040918201528051608081018252600d85015460608201908152815281518084018352600e86015481528184015281519283018252600f9094015482528301529088565b8051602081830181018051600b8252928201919093012091528054604080516080810190915260018301805460ff9093169392829082906121a5906149b7565b6000611f28600280546104c8906149b7565b6125da613904565b6004546001600160a01b031633146126045760405162461bcd60e51b81526004016104ad906146c3565b6000612616600380546104c8906149b7565b9050612620611f16565b1580612636575061262f611f16565b8160c00151105b6126775760405162461bcd60e51b81526020600482015260126024820152714f7574206f6620687962726964206567677360701b60448201526064016104ad565b604080516101c08101909152600661018082019081526521b7b6b6b7b760d11b6101a083015281906126a890612c6b565b815260200160028152602001826020015181526020016000815260200142815260200143815260200160405180602001604052806000815250815260200184815260200160405180604001604052806000815260200160008152508152602001604051806080016040528060008152602001600081526020016000151581526020016000151581525081526020018260e001518152602001826101000151815250915050919050565b3361275a611e4c565b6001600160a01b0316146127805760405162461bcd60e51b81526004016104ad9061468e565b81516127939060029060208501906139da565b5080516118eb9060039060208401906139da565b336127b0611e4c565b6001600160a01b0316146127d65760405162461bcd60e51b81526004016104ad9061468e565b6001600160a01b03811661283b5760405162461bcd60e51b815260206004820152602660248201527f4f776e61626c653a206e6577206f776e657220697320746865207a65726f206160448201526564647265737360d01b60648201526084016104ad565b61284481613880565b50565b600033612852611e4c565b6001600160a01b0316146128785760405162461bcd60e51b81526004016104ad9061468e565b600084116128c35760405162461bcd60e51b8152602060048201526018602482015277526172697479206d757374206265206f766572207a65726f60401b60448201526064016104ad565b604080516080810182528681526020810186905280820185905260608101849052905181906005906128f69089906143c7565b908152602001604051809103902060008201518160000190805190602001906129209291906139da565b50602082810151600180840191909155604084015160028401556060909301516003909201919091558251600780549384018155600052805161298a937fa66cc928b5edb82af9bd49922954155ab7b0942694bea4ce44661d9a8736c688019291909101906139da565b5060019695505050505050565b61299f613a8d565b6008826040516129af91906143c7565b9081526040805191829003602001822061012083019091528054829060ff1660038111156129ed57634e487b7160e01b600052602160045260246000fd5b6003811115612a0c57634e487b7160e01b600052602160045260246000fd5b8152602001600182018054612a20906149b7565b80601f0160208091040260200160405190810160405280929190818152602001828054612a4c906149b7565b8015612a995780601f10612a6e57610100808354040283529160200191612a99565b820191906000526020600020905b815481529060010190602001808311612a7c57829003601f168201915b50505050508152602001600282015481526020016003820154815260200160048201548152602001600582015481526020016006820154815260200160078201604051806080016040529081600082018054612af4906149b7565b80601f0160208091040260200160405190810160405280929190818152602001828054612b20906149b7565b8015612b6d5780601f10612b4257610100808354040283529160200191612b6d565b820191906000526020600020905b815481529060010190602001808311612b5057829003601f168201915b50505050508152602001600182018054612b86906149b7565b80601f0160208091040260200160405190810160405280929190818152602001828054612bb2906149b7565b8015612bff5780601f10612bd457610100808354040283529160200191612bff565b820191906000526020600020905b815481529060010190602001808311612be257829003601f168201915b505050918352505060028201546020808301919091526003909201546040918201529183528151608081018352600b85015460608201908152815282518083018452600c86015481528183015282518083018452600d9095015485529182019390935291015292915050565b612c73613ad3565b600582604051612c8391906143c7565b9081526020016040518091039020604051806080016040529081600082018054612cac906149b7565b80601f0160208091040260200160405190810160405280929190818152602001828054612cd8906149b7565b8015612d255780601f10612cfa57610100808354040283529160200191612d25565b820191906000526020600020905b815481529060010190602001808311612d0857829003601f168201915b5050505050815260200160018201548152602001600282015481526020016003820154815250509050919050565b612d988282604051602401612d6992919061463d565b60408051601f198184030181529190526020810180516001600160e01b03166309710a9d60e41b1790526138e3565b5050565b612d988282604051602401612db292919061458b565b60408051601f198184030181529190526020810180516001600160e01b0316634b5c427760e01b1790526138e3565b6118eb838383604051602401612df9939291906145b9565b60408051601f198184030181529190526020810180516001600160e01b0316632ced7cef60e01b1790526138e3565b612e30613a5e565b600982604051612e4091906143c7565b9081526040805191829003602001822060a083019091528054829060ff166003811115612e7d57634e487b7160e01b600052602160045260246000fd5b6003811115612e9c57634e487b7160e01b600052602160045260246000fd5b815260200160018201604051806080016040529081600082018054612ec0906149b7565b80601f0160208091040260200160405190810160405280929190818152602001828054612eec906149b7565b8015612f395780601f10612f0e57610100808354040283529160200191612f39565b820191906000526020600020905b815481529060010190602001808311612f1c57829003601f168201915b5050505050815260200160018201548152602001600282015481526020016003820154815250508152602001600582018054612f74906149b7565b80601f0160208091040260200160405190810160405280929190818152602001828054612fa0906149b7565b8015612fed5780601f10612fc257610100808354040283529160200191612fed565b820191906000526020600020905b815481529060010190602001808311612fd057829003601f168201915b5050505050815260200160068201604051806080016040529081600082018054613016906149b7565b80601f0160208091040260200160405190810160405280929190818152602001828054613042906149b7565b801561308f5780601f106130645761010080835404028352916020019161308f565b820191906000526020600020905b81548152906001019060200180831161307257829003601f168201915b505050505081526020016001820180546130a8906149b7565b80601f01602080910402602001604051908101604052809291908181526020018280546130d4906149b7565b80156131215780601f106130f657610100808354040283529160200191613121565b820191906000526020600020905b81548152906001019060200180831161310457829003601f168201915b505050918352505060028201546020808301919091526003909201546040918201529183528151608081018352600a85015460608201908152815282518083018452600b86015481528183015282518083018452600c9095015485529182019390935291015292915050565b6131d6848484846040516024016131a794939291906145f2565b60408051601f198184030181529190526020810180516001600160e01b0316639fd009f560e01b1790526138e3565b50505050565b6131e4613afb565b506040805160808101825292835260208301919091526000908201819052606082015290565b613212613b22565b5060408051608081018252600a6060820181815282528251602081810185529181528183015282519081018352605081529181019190915290565b600060068360405161325f91906143c7565b9081526020016040518091039020905060005b815481101561336257600082828154811061329d57634e487b7160e01b600052603260045260246000fd5b9060005260206000200180546132b2906149b7565b80601f01602080910402602001604051908101604052809291908181526020018280546132de906149b7565b801561332b5780601f106133005761010080835404028352916020019161332b565b820191906000526020600020905b81548152906001019060200180831161330e57829003601f168201915b5050505050905080805190602001208480519060200120141561334f575050505050565b508061335a816149ec565b915050613272565b508054600181018255600082815260209081902084516133899391909101918501906139da565b508060068460405161339b91906143c7565b90815260405190819003602001902081546131d69290613b4f565b6133be613bb1565b600b6133ca8484613854565b6040516133d791906143c7565b9081526040805191829003602001822061010083019091528054829060ff16600381111561341557634e487b7160e01b600052602160045260246000fd5b600381111561343457634e487b7160e01b600052602160045260246000fd5b815260200160018201604051806080016040529081600082018054613458906149b7565b80601f0160208091040260200160405190810160405280929190818152602001828054613484906149b7565b80156134d15780601f106134a6576101008083540402835291602001916134d1565b820191906000526020600020905b8154815290600101906020018083116134b457829003601f168201915b505050505081526020016001820154815260200160028201548152602001600382015481525050815260200160058201805461350c906149b7565b80601f0160208091040260200160405190810160405280929190818152602001828054613538906149b7565b80156135855780601f1061355a57610100808354040283529160200191613585565b820191906000526020600020905b81548152906001019060200180831161356857829003601f168201915b50505050508152602001600682015481526020016007820180546135a8906149b7565b80601f01602080910402602001604051908101604052809291908181526020018280546135d4906149b7565b80156136215780601f106135f657610100808354040283529160200191613621565b820191906000526020600020905b81548152906001019060200180831161360457829003601f168201915b5050505050815260200160088201805461363a906149b7565b80601f0160208091040260200160405190810160405280929190818152602001828054613666906149b7565b80156136b35780601f10613688576101008083540402835291602001916136b3565b820191906000526020600020905b81548152906001019060200180831161369657829003601f168201915b50505050508152602001600982016040518060800160405290816000820180546136dc906149b7565b80601f0160208091040260200160405190810160405280929190818152602001828054613708906149b7565b80156137555780601f1061372a57610100808354040283529160200191613755565b820191906000526020600020905b81548152906001019060200180831161373857829003601f168201915b5050505050815260200160018201805461376e906149b7565b80601f016020809104026020016040519081016040528092919081815260200182805461379a906149b7565b80156137e75780601f106137bc576101008083540402835291602001916137e7565b820191906000526020600020905b8154815290600101906020018083116137ca57829003601f168201915b505050918352505060028201546020808301919091526003909201546040918201529183528151608081018352600d85015460608201908152815282518083018452600e86015481528183015282518083018452600f909501548552918201939093529101529392505050565b606082826040516020016138699291906143e3565b604051602081830303815290604052905092915050565b600080546001600160a01b038381166001600160a01b0319831681178455604051919092169283917f8be0079c531659141344cd1fd0a4f28419497f9722a3daafe3b4186f6b6457e09190a35050565b60006138dc8284614955565b9392505050565b80516a636f6e736f6c652e6c6f67602083016000808483855afa5050505050565b604051806101800160405280613918613ad3565b81526020016000815260200160608152602001600081526020016000815260200160008152602001606081526020016139726040518060800160405280606081526020016060815260200160008152602001600081525090565b8152602001613994604051806040016040528060008152602001600081525090565b81526040805160808101825260008082526020828101829052928201819052606082015291019081526020016139c8613afb565b81526020016139d5613b22565b905290565b8280546139e6906149b7565b90600052602060002090601f016020900481019282613a085760008555613a4e565b82601f10613a2157805160ff1916838001178555613a4e565b82800160010185558215613a4e579182015b82811115613a4e578251825591602001919060010190613a33565b50613a5a929150613bf6565b5090565b6040805160a081019091528060008152602001613a79613ad3565b8152602001606081526020016139c8613afb565b60408051610120810190915280600081526020016060815260200160008152602001600081526020016000815260200160008152602001600081526020016139c8613afb565b6040518060800160405280606081526020016000815260200160008152602001600081525090565b60408051608081018252606080825260208201819052600092820183905281019190915290565b6040518060600160405280613b35613c0b565b8152602001613b42613c0b565b81526020016139d5613c0b565b828054828255906000526020600020908101928215613ba55760005260206000209182015b82811115613ba5578282908054613b8a906149b7565b613b95929190613c1e565b5091600101919060010190613b74565b50613a5a929150613c99565b6040805161010081019091528060008152602001613bcd613ad3565b8152602001606081526020016000815260200160608152602001606081526020016139c8613afb565b5b80821115613a5a5760008155600101613bf7565b6040518060200160405280600081525090565b828054613c2a906149b7565b90600052602060002090601f016020900481019282613c4c5760008555613a4e565b82601f10613c5d5780548555613a4e565b82800160010185558215613a4e57600052602060002091601f016020900482015b82811115613a4e578254825591600101919060010190613c7e565b80821115613a5a576000613cad8282613cb6565b50600101613c99565b508054613cc2906149b7565b6000825580601f10613cd2575050565b601f0160209004906000526020600020908101906128449190613bf6565b60008083601f840112613d01578081fd5b5081356001600160401b03811115613d17578182fd5b6020830191508360208260051b8501011115613d3257600080fd5b9250929050565b600082601f830112613d49578081fd5b81356001600160401b0380821115613d6357613d63614a3d565b604051601f8301601f19908116603f01168101908282118183101715613d8b57613d8b614a3d565b81604052838152866020858801011115613da3578485fd5b8360208701602083013792830160200193909352509392505050565b600060808284031215613dd0578081fd5b604051608081016001600160401b038282108183111715613df357613df3614a3d565b816040528293508435915080821115613e0b57600080fd5b613e1786838701613d39565b83526020850135915080821115613e2d57600080fd5b50613e3a85828601613d39565b60208301525060408301356040820152606083013560608201525092915050565b600060208284031215613e6c578081fd5b81356001600160a01b03811681146138dc578182fd5b60008060208385031215613e94578081fd5b82356001600160401b03811115613ea9578182fd5b613eb585828601613cf0565b90969095509350505050565b60008060208385031215613ed3578182fd5b82356001600160401b03811115613ea9578283fd5b600060208284031215613ef9578081fd5b81356001600160401b03811115613f0e578182fd5b613f1a84828501613d39565b949350505050565b60008060408385031215613f34578182fd5b82356001600160401b0380821115613f4a578384fd5b613f5686838701613d39565b93506020850135915080821115613f6b578283fd5b50613f7885828601613d39565b9150509250929050565b60008060008060808587031215613f97578182fd5b84356001600160401b0380821115613fad578384fd5b613fb988838901613d39565b95506020870135915080821115613fce578384fd5b613fda88838901613d39565b94506040870135915080821115613fef578384fd5b613ffb88838901613d39565b93506060870135915080821115614010578283fd5b5061401d87828801613d39565b91505092959194509250565b600080600080600080600060e0888a031215614043578283fd5b87356001600160401b0380821115614059578485fd5b6140658b838c01613d39565b985060208a013591508082111561407a578485fd5b6140868b838c01613d39565b975060408a0135965060608a01359150808211156140a2578485fd5b6140ae8b838c01613d39565b955060808a01359150808211156140c3578485fd5b6140cf8b838c01613d39565b945060a08a01359150808211156140e4578384fd5b6140f08b838c01613d39565b935060c08a0135915080821115614105578283fd5b506141128a828b01613d39565b91505092959891949750929550565b60008060408385031215614133578182fd5b82356001600160401b03811115614148578283fd5b61415485828601613d39565b95602094909401359450505050565b600080600080600060a0868803121561417a578081fd5b85356001600160401b0380821115614190578283fd5b61419c89838a01613d39565b9650602088013595506040880135945060608801359150808211156141bf578283fd5b6141cb89838a01613d39565b935060808801359150808211156141e0578283fd5b506141ed88828901613d39565b9150509295509295909350565b6000806000806080858703121561420f578384fd5b84356001600160401b03811115614224578485fd5b61423087828801613d39565b97602087013597506040870135966060013595509350505050565b60006020828403121561425c578081fd5b81356001600160401b03811115614271578182fd5b613f1a84828501613dbf565b60006020828403121561428e578081fd5b5035919050565b600080604083850312156142a7578182fd5b8235915060208301356001600160401b038111156142c3578182fd5b613f7885828601613dbf565b600481106142ed57634e487b7160e01b600052602160045260246000fd5b9052565b6000815180845261430981602086016020860161498b565b601f01601f19169290920160200192915050565b8051518252602080820151519083015260409081015151910152565b600081516080845261434e60808501826142f1565b90506020830151848203602086015261436782826142f1565b91505060408301516040850152606083015160608501528091505092915050565b600081516080845261439d60808501826142f1565b90506020830151602085015260408301516040850152606083015160608501528091505092915050565b600082516143d981846020870161498b565b9190910192915050565b600083516143f581846020880161498b565b83519083019061440981836020880161498b565b01949350505050565b6000610160614421838d6142cf565b8060208401526144338184018c6142f1565b90508960408401528860608401528760808401528660a08401528560c084015282810360e08401526144658186614339565b91505061447661010083018461431d565b9a9950505050505050505050565b61448e81876142cf565b60e0602082015260006144a460e0830187614388565b82810360408401526144b681876142f1565b905082810360608401526144ca8186614339565b9150506144da608083018461431d565b9695505050505050565b60006101406144f3838c6142cf565b8060208401526145058184018b614388565b90508281036040840152614519818a6142f1565b9050876060840152828103608084015261453381886142f1565b905082810360a084015261454781876142f1565b905082810360c084015261455b8186614339565b91505061456b60e083018461431d565b9998505050505050505050565b6020815260006138dc60208301846142f1565b60408152600061459e60408301856142f1565b82810360208401526145b081856142f1565b95945050505050565b6060815260006145cc60608301866142f1565b82810360208401526145de81866142f1565b905082810360408401526144da81856142f1565b60808152600061460560808301876142f1565b828103602084015261461781876142f1565b9050828103604084015261462b81866142f1565b91505082606083015295945050505050565b60408152600061465060408301856142f1565b90508260208301529392505050565b60808152600061467260808301876142f1565b6020830195909552506040810192909252606090910152919050565b6020808252818101527f4f776e61626c653a2063616c6c6572206973206e6f7420746865206f776e6572604082015260600190565b6020808252602c908201527f5a6f6f44726f703a204f6e6c79205a6f6f4b65657065722063616e2063616c6c60408201526b081d1a1a5cc81b595d1a1bd960a21b606082015260800190565b602081526147216020820183516142cf565b60006020830151610160604084015261473e6101808401826142f1565b90506040840151606084015260608401516080840152608084015160a084015260a084015160c084015260c084015160e084015260e0840151610100601f19858403018186015261478f8383614339565b9250808601519150506147a661012085018261431d565b509392505050565b602081526000825161024060208401526147cc610260840182614388565b905060208401516147e060408501826142cf565b506040840151601f19808584030160608601526147fd83836142f1565b925060608601516080860152608086015160a086015260a086015160c086015260c08601519150808584030160e086015261483883836142f1565b925060e086015191506101008186850301818701526148578484614339565b9350808701519250506101206148798187018480518252602090810151910152565b86015191506101606148b28682018480518252602081015160208301526040810151151560408301526060810151151560608301525050565b610140870151925081868503016101e08701526148cf8484614339565b935080870151925050506147a661020085018261431d565b6000808335601e198436030181126148fd578283fd5b8301803591506001600160401b03821115614916578283fd5b602001915036819003821315613d3257600080fd5b60008235607e198336030181126143d9578182fd5b6000823560de198336030181126143d9578182fd5b600081600019048311821515161561496f5761496f614a27565b500290565b60008282101561498657614986614a27565b500390565b60005b838110156149a657818101518382015260200161498e565b838111156131d65750506000910152565b600181811c908216806149cb57607f821691505b60208210811415610ea357634e487b7160e01b600052602260045260246000fd5b6000600019821415614a0057614a00614a27565b5060010190565b600082614a2257634e487b7160e01b81526012600452602481fd5b500690565b634e487b7160e01b600052601160045260246000fd5b634e487b7160e01b600052604160045260246000fdfea264697066735822122006d002f1a32991bd471300fae99191faf20b13f25d83bdd7430fcfbea8d8dd4c64736f6c63430008040033",
  "libraries": {},
  "devdoc": {
    "kind": "dev",
    "methods": {
      "owner()": {
        "details": "Returns the address of the current owner."
      },
      "renounceOwnership()": {
        "details": "Leaves the contract without owner. It will not be possible to call `onlyOwner` functions anymore. Can only be called by the current owner. NOTE: Renouncing ownership will leave the contract without an owner, thereby removing any functionality that is only available to the owner."
      },
      "transferOwnership(address)": {
        "details": "Transfers ownership of the contract to a new account (`newOwner`). Can only be called by the current owner."
      }
    },
    "version": 1
  },
  "userdoc": {
    "kind": "user",
    "methods": {},
    "version": 1
  },
  "storageLayout": {
    "storage": [
      {
        "astId": 1392,
        "contract": "src/Drop.sol:Drop",
        "label": "_owner",
        "offset": 0,
        "slot": "0",
        "type": "t_address"
      },
      {
        "astId": 7812,
        "contract": "src/Drop.sol:Drop",
        "label": "title",
        "offset": 0,
        "slot": "1",
        "type": "t_string_storage"
      },
      {
        "astId": 7814,
        "contract": "src/Drop.sol:Drop",
        "label": "baseEgg",
        "offset": 0,
        "slot": "2",
        "type": "t_string_storage"
      },
      {
        "astId": 7816,
        "contract": "src/Drop.sol:Drop",
        "label": "hybridEgg",
        "offset": 0,
        "slot": "3",
        "type": "t_string_storage"
      },
      {
        "astId": 7818,
        "contract": "src/Drop.sol:Drop",
        "label": "keeperAddress",
        "offset": 0,
        "slot": "4",
        "type": "t_address"
      },
      {
        "astId": 7823,
        "contract": "src/Drop.sol:Drop",
        "label": "rarities",
        "offset": 0,
        "slot": "5",
        "type": "t_mapping(t_string_memory_ptr,t_struct(Rarity)23797_storage)"
      },
      {
        "astId": 7828,
        "contract": "src/Drop.sol:Drop",
        "label": "rarityAnimals",
        "offset": 0,
        "slot": "6",
        "type": "t_mapping(t_string_memory_ptr,t_array(t_string_storage)dyn_storage)"
      },
      {
        "astId": 7831,
        "contract": "src/Drop.sol:Drop",
        "label": "raritySorted",
        "offset": 0,
        "slot": "7",
        "type": "t_array(t_string_storage)dyn_storage"
      },
      {
        "astId": 7836,
        "contract": "src/Drop.sol:Drop",
        "label": "eggs",
        "offset": 0,
        "slot": "8",
        "type": "t_mapping(t_string_memory_ptr,t_struct(Egg)7774_storage)"
      },
      {
        "astId": 7841,
        "contract": "src/Drop.sol:Drop",
        "label": "animals",
        "offset": 0,
        "slot": "9",
        "type": "t_mapping(t_string_memory_ptr,t_struct(Animal)7789_storage)"
      },
      {
        "astId": 7846,
        "contract": "src/Drop.sol:Drop",
        "label": "hybrids",
        "offset": 0,
        "slot": "10",
        "type": "t_mapping(t_string_memory_ptr,t_struct(Hybrid)7810_storage)"
      },
      {
        "astId": 7851,
        "contract": "src/Drop.sol:Drop",
        "label": "hybridParents",
        "offset": 0,
        "slot": "11",
        "type": "t_mapping(t_string_memory_ptr,t_struct(Hybrid)7810_storage)"
      }
    ],
    "types": {
      "t_address": {
        "encoding": "inplace",
        "label": "address",
        "numberOfBytes": "20"
      },
      "t_array(t_string_storage)dyn_storage": {
        "base": "t_string_storage",
        "encoding": "dynamic_array",
        "label": "string[]",
        "numberOfBytes": "32"
      },
      "t_bytes32": {
        "encoding": "inplace",
        "label": "bytes32",
        "numberOfBytes": "32"
      },
      "t_enum(Type)23788": {
        "encoding": "inplace",
        "label": "enum IZoo.Type",
        "numberOfBytes": "1"
      },
      "t_mapping(t_string_memory_ptr,t_array(t_string_storage)dyn_storage)": {
        "encoding": "mapping",
        "key": "t_string_memory_ptr",
        "label": "mapping(string => string[])",
        "numberOfBytes": "32",
        "value": "t_array(t_string_storage)dyn_storage"
      },
      "t_mapping(t_string_memory_ptr,t_struct(Animal)7789_storage)": {
        "encoding": "mapping",
        "key": "t_string_memory_ptr",
        "label": "mapping(string => struct Drop.Animal)",
        "numberOfBytes": "32",
        "value": "t_struct(Animal)7789_storage"
      },
      "t_mapping(t_string_memory_ptr,t_struct(Egg)7774_storage)": {
        "encoding": "mapping",
        "key": "t_string_memory_ptr",
        "label": "mapping(string => struct Drop.Egg)",
        "numberOfBytes": "32",
        "value": "t_struct(Egg)7774_storage"
      },
      "t_mapping(t_string_memory_ptr,t_struct(Hybrid)7810_storage)": {
        "encoding": "mapping",
        "key": "t_string_memory_ptr",
        "label": "mapping(string => struct Drop.Hybrid)",
        "numberOfBytes": "32",
        "value": "t_struct(Hybrid)7810_storage"
      },
      "t_mapping(t_string_memory_ptr,t_struct(Rarity)23797_storage)": {
        "encoding": "mapping",
        "key": "t_string_memory_ptr",
        "label": "mapping(string => struct IZoo.Rarity)",
        "numberOfBytes": "32",
        "value": "t_struct(Rarity)23797_storage"
      },
      "t_string_memory_ptr": {
        "encoding": "bytes",
        "label": "string",
        "numberOfBytes": "32"
      },
      "t_string_storage": {
        "encoding": "bytes",
        "label": "string",
        "numberOfBytes": "32"
      },
      "t_struct(Animal)7789_storage": {
        "encoding": "inplace",
        "label": "struct Drop.Animal",
        "members": [
          {
            "astId": 7777,
            "contract": "src/Drop.sol:Drop",
            "label": "kind",
            "offset": 0,
            "slot": "0",
            "type": "t_enum(Type)23788"
          },
          {
            "astId": 7780,
            "contract": "src/Drop.sol:Drop",
            "label": "rarity",
            "offset": 0,
            "slot": "1",
            "type": "t_struct(Rarity)23797_storage"
          },
          {
            "astId": 7782,
            "contract": "src/Drop.sol:Drop",
            "label": "name",
            "offset": 0,
            "slot": "5",
            "type": "t_string_storage"
          },
          {
            "astId": 7785,
            "contract": "src/Drop.sol:Drop",
            "label": "data",
            "offset": 0,
            "slot": "6",
            "type": "t_struct(MediaData)23623_storage"
          },
          {
            "astId": 7788,
            "contract": "src/Drop.sol:Drop",
            "label": "bidShares",
            "offset": 0,
            "slot": "10",
            "type": "t_struct(BidShares)23451_storage"
          }
        ],
        "numberOfBytes": "416"
      },
      "t_struct(BidShares)23451_storage": {
        "encoding": "inplace",
        "label": "struct IMarket.BidShares",
        "members": [
          {
            "astId": 23444,
            "contract": "src/Drop.sol:Drop",
            "label": "prevOwner",
            "offset": 0,
            "slot": "0",
            "type": "t_struct(D256)7664_storage"
          },
          {
            "astId": 23447,
            "contract": "src/Drop.sol:Drop",
            "label": "creator",
            "offset": 0,
            "slot": "1",
            "type": "t_struct(D256)7664_storage"
          },
          {
            "astId": 23450,
            "contract": "src/Drop.sol:Drop",
            "label": "owner",
            "offset": 0,
            "slot": "2",
            "type": "t_struct(D256)7664_storage"
          }
        ],
        "numberOfBytes": "96"
      },
      "t_struct(D256)7664_storage": {
        "encoding": "inplace",
        "label": "struct Decimal.D256",
        "members": [
          {
            "astId": 7663,
            "contract": "src/Drop.sol:Drop",
            "label": "value",
            "offset": 0,
            "slot": "0",
            "type": "t_uint256"
          }
        ],
        "numberOfBytes": "32"
      },
      "t_struct(Egg)7774_storage": {
        "encoding": "inplace",
        "label": "struct Drop.Egg",
        "members": [
          {
            "astId": 7755,
            "contract": "src/Drop.sol:Drop",
            "label": "kind",
            "offset": 0,
            "slot": "0",
            "type": "t_enum(Type)23788"
          },
          {
            "astId": 7757,
            "contract": "src/Drop.sol:Drop",
            "label": "name",
            "offset": 0,
            "slot": "1",
            "type": "t_string_storage"
          },
          {
            "astId": 7759,
            "contract": "src/Drop.sol:Drop",
            "label": "supply",
            "offset": 0,
            "slot": "2",
            "type": "t_uint256"
          },
          {
            "astId": 7761,
            "contract": "src/Drop.sol:Drop",
            "label": "price",
            "offset": 0,
            "slot": "3",
            "type": "t_uint256"
          },
          {
            "astId": 7763,
            "contract": "src/Drop.sol:Drop",
            "label": "timestamp",
            "offset": 0,
            "slot": "4",
            "type": "t_uint256"
          },
          {
            "astId": 7765,
            "contract": "src/Drop.sol:Drop",
            "label": "birthday",
            "offset": 0,
            "slot": "5",
            "type": "t_uint256"
          },
          {
            "astId": 7767,
            "contract": "src/Drop.sol:Drop",
            "label": "minted",
            "offset": 0,
            "slot": "6",
            "type": "t_uint256"
          },
          {
            "astId": 7770,
            "contract": "src/Drop.sol:Drop",
            "label": "data",
            "offset": 0,
            "slot": "7",
            "type": "t_struct(MediaData)23623_storage"
          },
          {
            "astId": 7773,
            "contract": "src/Drop.sol:Drop",
            "label": "bidShares",
            "offset": 0,
            "slot": "11",
            "type": "t_struct(BidShares)23451_storage"
          }
        ],
        "numberOfBytes": "448"
      },
      "t_struct(Hybrid)7810_storage": {
        "encoding": "inplace",
        "label": "struct Drop.Hybrid",
        "members": [
          {
            "astId": 7792,
            "contract": "src/Drop.sol:Drop",
            "label": "kind",
            "offset": 0,
            "slot": "0",
            "type": "t_enum(Type)23788"
          },
          {
            "astId": 7795,
            "contract": "src/Drop.sol:Drop",
            "label": "rarity",
            "offset": 0,
            "slot": "1",
            "type": "t_struct(Rarity)23797_storage"
          },
          {
            "astId": 7797,
            "contract": "src/Drop.sol:Drop",
            "label": "name",
            "offset": 0,
            "slot": "5",
            "type": "t_string_storage"
          },
          {
            "astId": 7799,
            "contract": "src/Drop.sol:Drop",
            "label": "yield",
            "offset": 0,
            "slot": "6",
            "type": "t_uint256"
          },
          {
            "astId": 7801,
            "contract": "src/Drop.sol:Drop",
            "label": "parentA",
            "offset": 0,
            "slot": "7",
            "type": "t_string_storage"
          },
          {
            "astId": 7803,
            "contract": "src/Drop.sol:Drop",
            "label": "parentB",
            "offset": 0,
            "slot": "8",
            "type": "t_string_storage"
          },
          {
            "astId": 7806,
            "contract": "src/Drop.sol:Drop",
            "label": "data",
            "offset": 0,
            "slot": "9",
            "type": "t_struct(MediaData)23623_storage"
          },
          {
            "astId": 7809,
            "contract": "src/Drop.sol:Drop",
            "label": "bidShares",
            "offset": 0,
            "slot": "13",
            "type": "t_struct(BidShares)23451_storage"
          }
        ],
        "numberOfBytes": "512"
      },
      "t_struct(MediaData)23623_storage": {
        "encoding": "inplace",
        "label": "struct IMedia.MediaData",
        "members": [
          {
            "astId": 23616,
            "contract": "src/Drop.sol:Drop",
            "label": "tokenURI",
            "offset": 0,
            "slot": "0",
            "type": "t_string_storage"
          },
          {
            "astId": 23618,
            "contract": "src/Drop.sol:Drop",
            "label": "metadataURI",
            "offset": 0,
            "slot": "1",
            "type": "t_string_storage"
          },
          {
            "astId": 23620,
            "contract": "src/Drop.sol:Drop",
            "label": "contentHash",
            "offset": 0,
            "slot": "2",
            "type": "t_bytes32"
          },
          {
            "astId": 23622,
            "contract": "src/Drop.sol:Drop",
            "label": "metadataHash",
            "offset": 0,
            "slot": "3",
            "type": "t_bytes32"
          }
        ],
        "numberOfBytes": "128"
      },
      "t_struct(Rarity)23797_storage": {
        "encoding": "inplace",
        "label": "struct IZoo.Rarity",
        "members": [
          {
            "astId": 23790,
            "contract": "src/Drop.sol:Drop",
            "label": "name",
            "offset": 0,
            "slot": "0",
            "type": "t_string_storage"
          },
          {
            "astId": 23792,
            "contract": "src/Drop.sol:Drop",
            "label": "probability",
            "offset": 0,
            "slot": "1",
            "type": "t_uint256"
          },
          {
            "astId": 23794,
            "contract": "src/Drop.sol:Drop",
            "label": "yield",
            "offset": 0,
            "slot": "2",
            "type": "t_uint256"
          },
          {
            "astId": 23796,
            "contract": "src/Drop.sol:Drop",
            "label": "boost",
            "offset": 0,
            "slot": "3",
            "type": "t_uint256"
          }
        ],
        "numberOfBytes": "128"
      },
      "t_uint256": {
        "encoding": "inplace",
        "label": "uint256",
        "numberOfBytes": "32"
      }
    }
  }
}