{
  "address": "0x3a85FCD47573e217728E0EF0d9A3b932B9601afc",
  "abi": [
    {
      "inputs": [],
      "stateMutability": "nonpayable",
      "type": "constructor"
    },
    {
      "anonymous": false,
      "inputs": [
        {
          "indexed": true,
          "internalType": "uint256",
          "name": "tokenID",
          "type": "uint256"
        },
        {
          "components": [
            {
              "internalType": "uint256",
              "name": "amount",
              "type": "uint256"
            },
            {
              "internalType": "address",
              "name": "currency",
              "type": "address"
            }
          ],
          "indexed": false,
          "internalType": "struct IMarket.Ask",
          "name": "ask",
          "type": "tuple"
        }
      ],
      "name": "AskCreated",
      "type": "event"
    },
    {
      "anonymous": false,
      "inputs": [
        {
          "indexed": true,
          "internalType": "uint256",
          "name": "tokenID",
          "type": "uint256"
        },
        {
          "components": [
            {
              "internalType": "uint256",
              "name": "amount",
              "type": "uint256"
            },
            {
              "internalType": "address",
              "name": "currency",
              "type": "address"
            }
          ],
          "indexed": false,
          "internalType": "struct IMarket.Ask",
          "name": "ask",
          "type": "tuple"
        }
      ],
      "name": "AskRemoved",
      "type": "event"
    },
    {
      "anonymous": false,
      "inputs": [
        {
          "indexed": true,
          "internalType": "uint256",
          "name": "tokenID",
          "type": "uint256"
        },
        {
          "components": [
            {
              "internalType": "uint256",
              "name": "amount",
              "type": "uint256"
            },
            {
              "internalType": "address",
              "name": "currency",
              "type": "address"
            },
            {
              "internalType": "address",
              "name": "bidder",
              "type": "address"
            },
            {
              "internalType": "address",
              "name": "recipient",
              "type": "address"
            },
            {
              "components": [
                {
                  "internalType": "uint256",
                  "name": "value",
                  "type": "uint256"
                }
              ],
              "internalType": "struct Decimal.D256",
              "name": "sellOnShare",
              "type": "tuple"
            }
          ],
          "indexed": false,
          "internalType": "struct IMarket.Bid",
          "name": "bid",
          "type": "tuple"
        }
      ],
      "name": "BidCreated",
      "type": "event"
    },
    {
      "anonymous": false,
      "inputs": [
        {
          "indexed": true,
          "internalType": "uint256",
          "name": "tokenID",
          "type": "uint256"
        },
        {
          "components": [
            {
              "internalType": "uint256",
              "name": "amount",
              "type": "uint256"
            },
            {
              "internalType": "address",
              "name": "currency",
              "type": "address"
            },
            {
              "internalType": "address",
              "name": "bidder",
              "type": "address"
            },
            {
              "internalType": "address",
              "name": "recipient",
              "type": "address"
            },
            {
              "components": [
                {
                  "internalType": "uint256",
                  "name": "value",
                  "type": "uint256"
                }
              ],
              "internalType": "struct Decimal.D256",
              "name": "sellOnShare",
              "type": "tuple"
            }
          ],
          "indexed": false,
          "internalType": "struct IMarket.Bid",
          "name": "bid",
          "type": "tuple"
        }
      ],
      "name": "BidFinalized",
      "type": "event"
    },
    {
      "anonymous": false,
      "inputs": [
        {
          "indexed": true,
          "internalType": "uint256",
          "name": "tokenID",
          "type": "uint256"
        },
        {
          "components": [
            {
              "internalType": "uint256",
              "name": "amount",
              "type": "uint256"
            },
            {
              "internalType": "address",
              "name": "currency",
              "type": "address"
            },
            {
              "internalType": "address",
              "name": "bidder",
              "type": "address"
            },
            {
              "internalType": "address",
              "name": "recipient",
              "type": "address"
            },
            {
              "components": [
                {
                  "internalType": "uint256",
                  "name": "value",
                  "type": "uint256"
                }
              ],
              "internalType": "struct Decimal.D256",
              "name": "sellOnShare",
              "type": "tuple"
            }
          ],
          "indexed": false,
          "internalType": "struct IMarket.Bid",
          "name": "bid",
          "type": "tuple"
        }
      ],
      "name": "BidRemoved",
      "type": "event"
    },
    {
      "anonymous": false,
      "inputs": [
        {
          "indexed": true,
          "internalType": "uint256",
          "name": "tokenID",
          "type": "uint256"
        },
        {
          "components": [
            {
              "components": [
                {
                  "internalType": "uint256",
                  "name": "value",
                  "type": "uint256"
                }
              ],
              "internalType": "struct Decimal.D256",
              "name": "prevOwner",
              "type": "tuple"
            },
            {
              "components": [
                {
                  "internalType": "uint256",
                  "name": "value",
                  "type": "uint256"
                }
              ],
              "internalType": "struct Decimal.D256",
              "name": "creator",
              "type": "tuple"
            },
            {
              "components": [
                {
                  "internalType": "uint256",
                  "name": "value",
                  "type": "uint256"
                }
              ],
              "internalType": "struct Decimal.D256",
              "name": "owner",
              "type": "tuple"
            }
          ],
          "indexed": false,
          "internalType": "struct IMarket.BidShares",
          "name": "bidShares",
          "type": "tuple"
        }
      ],
      "name": "BidShareUpdated",
      "type": "event"
    },
    {
      "inputs": [
        {
          "internalType": "uint256",
          "name": "tokenID",
          "type": "uint256"
        },
        {
          "components": [
            {
              "internalType": "uint256",
              "name": "amount",
              "type": "uint256"
            },
            {
              "internalType": "address",
              "name": "currency",
              "type": "address"
            },
            {
              "internalType": "address",
              "name": "bidder",
              "type": "address"
            },
            {
              "internalType": "address",
              "name": "recipient",
              "type": "address"
            },
            {
              "components": [
                {
                  "internalType": "uint256",
                  "name": "value",
                  "type": "uint256"
                }
              ],
              "internalType": "struct Decimal.D256",
              "name": "sellOnShare",
              "type": "tuple"
            }
          ],
          "internalType": "struct IMarket.Bid",
          "name": "expectedBid",
          "type": "tuple"
        }
      ],
      "name": "acceptBid",
      "outputs": [],
      "stateMutability": "nonpayable",
      "type": "function"
    },
    {
      "inputs": [
        {
          "internalType": "uint256",
          "name": "tokenID",
          "type": "uint256"
        },
        {
          "internalType": "address",
          "name": "bidder",
          "type": "address"
        }
      ],
      "name": "bidForTokenBidder",
      "outputs": [
        {
          "components": [
            {
              "internalType": "uint256",
              "name": "amount",
              "type": "uint256"
            },
            {
              "internalType": "address",
              "name": "currency",
              "type": "address"
            },
            {
              "internalType": "address",
              "name": "bidder",
              "type": "address"
            },
            {
              "internalType": "address",
              "name": "recipient",
              "type": "address"
            },
            {
              "components": [
                {
                  "internalType": "uint256",
                  "name": "value",
                  "type": "uint256"
                }
              ],
              "internalType": "struct Decimal.D256",
              "name": "sellOnShare",
              "type": "tuple"
            }
          ],
          "internalType": "struct IMarket.Bid",
          "name": "",
          "type": "tuple"
        }
      ],
      "stateMutability": "view",
      "type": "function"
    },
    {
      "inputs": [
        {
          "internalType": "uint256",
          "name": "tokenID",
          "type": "uint256"
        }
      ],
      "name": "bidSharesForToken",
      "outputs": [
        {
          "components": [
            {
              "components": [
                {
                  "internalType": "uint256",
                  "name": "value",
                  "type": "uint256"
                }
              ],
              "internalType": "struct Decimal.D256",
              "name": "prevOwner",
              "type": "tuple"
            },
            {
              "components": [
                {
                  "internalType": "uint256",
                  "name": "value",
                  "type": "uint256"
                }
              ],
              "internalType": "struct Decimal.D256",
              "name": "creator",
              "type": "tuple"
            },
            {
              "components": [
                {
                  "internalType": "uint256",
                  "name": "value",
                  "type": "uint256"
                }
              ],
              "internalType": "struct Decimal.D256",
              "name": "owner",
              "type": "tuple"
            }
          ],
          "internalType": "struct IMarket.BidShares",
          "name": "",
          "type": "tuple"
        }
      ],
      "stateMutability": "view",
      "type": "function"
    },
    {
      "inputs": [
        {
          "internalType": "address",
          "name": "_keeperAddress",
          "type": "address"
        },
        {
          "internalType": "address",
          "name": "_mediaAddress",
          "type": "address"
        }
      ],
      "name": "configure",
      "outputs": [],
      "stateMutability": "nonpayable",
      "type": "function"
    },
    {
      "inputs": [
        {
          "internalType": "uint256",
          "name": "tokenID",
          "type": "uint256"
        }
      ],
      "name": "currentAskForToken",
      "outputs": [
        {
          "components": [
            {
              "internalType": "uint256",
              "name": "amount",
              "type": "uint256"
            },
            {
              "internalType": "address",
              "name": "currency",
              "type": "address"
            }
          ],
          "internalType": "struct IMarket.Ask",
          "name": "",
          "type": "tuple"
        }
      ],
      "stateMutability": "view",
      "type": "function"
    },
    {
      "inputs": [
        {
          "internalType": "uint256",
          "name": "tokenID",
          "type": "uint256"
        },
        {
          "internalType": "uint256",
          "name": "bidAmount",
          "type": "uint256"
        }
      ],
      "name": "isValidBid",
      "outputs": [
        {
          "internalType": "bool",
          "name": "",
          "type": "bool"
        }
      ],
      "stateMutability": "view",
      "type": "function"
    },
    {
      "inputs": [
        {
          "components": [
            {
              "components": [
                {
                  "internalType": "uint256",
                  "name": "value",
                  "type": "uint256"
                }
              ],
              "internalType": "struct Decimal.D256",
              "name": "prevOwner",
              "type": "tuple"
            },
            {
              "components": [
                {
                  "internalType": "uint256",
                  "name": "value",
                  "type": "uint256"
                }
              ],
              "internalType": "struct Decimal.D256",
              "name": "creator",
              "type": "tuple"
            },
            {
              "components": [
                {
                  "internalType": "uint256",
                  "name": "value",
                  "type": "uint256"
                }
              ],
              "internalType": "struct Decimal.D256",
              "name": "owner",
              "type": "tuple"
            }
          ],
          "internalType": "struct IMarket.BidShares",
          "name": "bidShares",
          "type": "tuple"
        }
      ],
      "name": "isValidBidShares",
      "outputs": [
        {
          "internalType": "bool",
          "name": "",
          "type": "bool"
        }
      ],
      "stateMutability": "pure",
      "type": "function"
    },
    {
      "inputs": [],
      "name": "keeperAddress",
      "outputs": [
        {
          "internalType": "address",
          "name": "",
          "type": "address"
        }
      ],
      "stateMutability": "view",
      "type": "function"
    },
    {
      "inputs": [],
      "name": "mediaAddress",
      "outputs": [
        {
          "internalType": "address",
          "name": "",
          "type": "address"
        }
      ],
      "stateMutability": "view",
      "type": "function"
    },
    {
      "inputs": [
        {
          "internalType": "uint256",
          "name": "tokenID",
          "type": "uint256"
        }
      ],
      "name": "removeAsk",
      "outputs": [],
      "stateMutability": "nonpayable",
      "type": "function"
    },
    {
      "inputs": [
        {
          "internalType": "uint256",
          "name": "tokenID",
          "type": "uint256"
        },
        {
          "internalType": "address",
          "name": "bidder",
          "type": "address"
        }
      ],
      "name": "removeBid",
      "outputs": [],
      "stateMutability": "nonpayable",
      "type": "function"
    },
    {
      "inputs": [
        {
          "internalType": "uint256",
          "name": "tokenID",
          "type": "uint256"
        },
        {
          "components": [
            {
              "internalType": "uint256",
              "name": "amount",
              "type": "uint256"
            },
            {
              "internalType": "address",
              "name": "currency",
              "type": "address"
            }
          ],
          "internalType": "struct IMarket.Ask",
          "name": "ask",
          "type": "tuple"
        }
      ],
      "name": "setAsk",
      "outputs": [],
      "stateMutability": "nonpayable",
      "type": "function"
    },
    {
      "inputs": [
        {
          "internalType": "uint256",
          "name": "tokenID",
          "type": "uint256"
        },
        {
          "components": [
            {
              "internalType": "uint256",
              "name": "amount",
              "type": "uint256"
            },
            {
              "internalType": "address",
              "name": "currency",
              "type": "address"
            },
            {
              "internalType": "address",
              "name": "bidder",
              "type": "address"
            },
            {
              "internalType": "address",
              "name": "recipient",
              "type": "address"
            },
            {
              "components": [
                {
                  "internalType": "uint256",
                  "name": "value",
                  "type": "uint256"
                }
              ],
              "internalType": "struct Decimal.D256",
              "name": "sellOnShare",
              "type": "tuple"
            }
          ],
          "internalType": "struct IMarket.Bid",
          "name": "bid",
          "type": "tuple"
        },
        {
          "internalType": "address",
          "name": "spender",
          "type": "address"
        }
      ],
      "name": "setBid",
      "outputs": [],
      "stateMutability": "nonpayable",
      "type": "function"
    },
    {
      "inputs": [
        {
          "internalType": "uint256",
          "name": "tokenID",
          "type": "uint256"
        },
        {
          "components": [
            {
              "components": [
                {
                  "internalType": "uint256",
                  "name": "value",
                  "type": "uint256"
                }
              ],
              "internalType": "struct Decimal.D256",
              "name": "prevOwner",
              "type": "tuple"
            },
            {
              "components": [
                {
                  "internalType": "uint256",
                  "name": "value",
                  "type": "uint256"
                }
              ],
              "internalType": "struct Decimal.D256",
              "name": "creator",
              "type": "tuple"
            },
            {
              "components": [
                {
                  "internalType": "uint256",
                  "name": "value",
                  "type": "uint256"
                }
              ],
              "internalType": "struct Decimal.D256",
              "name": "owner",
              "type": "tuple"
            }
          ],
          "internalType": "struct IMarket.BidShares",
          "name": "bidShares",
          "type": "tuple"
        }
      ],
      "name": "setBidShares",
      "outputs": [],
      "stateMutability": "nonpayable",
      "type": "function"
    },
    {
      "inputs": [
        {
          "components": [
            {
              "internalType": "uint256",
              "name": "value",
              "type": "uint256"
            }
          ],
          "internalType": "struct Decimal.D256",
          "name": "sharePercentage",
          "type": "tuple"
        },
        {
          "internalType": "uint256",
          "name": "amount",
          "type": "uint256"
        }
      ],
      "name": "splitShare",
      "outputs": [
        {
          "internalType": "uint256",
          "name": "",
          "type": "uint256"
        }
      ],
      "stateMutability": "pure",
      "type": "function"
    }
  ],
  "transactionHash": "0x07245c7a51a7bba463cda32bd18b6ac00f27de50cae8f03f329be9ed0c37af6d",
  "args": [],
  "solcInputHash": "dd2e071d2d4f658328e0e9f0bddba97e",
  "bytecode": "0x608060405234801561001057600080fd5b50600080546001600160a01b03191633179055612094806100326000396000f3fe608060405234801561001057600080fd5b50600436106100c55760003560e01c806302e8fe13146100ca57806309d38033146100f257806328220f3514610112578063360636eb14610127578063578064f61461013a57806362f24b701461019c578063776a0835146101af578063ad827dc4146101c2578063b67a85bd146101e2578063b920c123146101f5578063ba33939914610216578063bdb5869814610229578063e470d5cf1461023c578063eb55683a1461024f578063f9ce058214610262575b600080fd5b6100dd6100d8366004611d1d565b610282565b60405190151581526020015b60405180910390f35b600254610105906001600160a01b031681565b6040516100e99190611d86565b610125610120366004611b23565b610308565b005b6100dd610135366004611ade565b6103d7565b61018f610148366004611b23565b604080518082019091526000808252602082015250600090815260056020908152604091829020825180840190935280548352600101546001600160a01b03169082015290565b6040516100e99190611e1e565b6101256101aa366004611b77565b610415565b6101256101bd366004611b53565b610536565b6101d56101d0366004611b53565b6106e5565b6040516100e99190611e62565b600154610105906001600160a01b031681565b610208610203366004611af9565b61075b565b6040519081526020016100e9565b610125610224366004611c22565b610779565b610125610237366004611c58565b6109d2565b61012561024a366004611a86565b610f50565b61012561025d366004611bf6565b6110b9565b610275610270366004611b23565b611154565b6040516100e99190611e3e565b60008061028e84611154565b90506102bb60405180604001604052806009815260200168189a59185b5bdd5b9d60ba1b815250846111aa565b82158015906102fe57506102fb6102d682604001518561075b565b6102f56102e784600001518761075b565b6102f585602001518861075b565b906111f3565b83145b9150505b92915050565b6001546001600160a01b031633148061032b57506002546001600160a01b031633145b6103505760405162461bcd60e51b815260040161034790611dcf565b60405180910390fd5b807fbf58f6d6c7d7c6efc69e7444efa93ed26d7cdc0e82e12a37df96f36a367561df600560008481526020019081526020016000206040516103ab9190815481526001909101546001600160a01b0316602082015260400190565b60405180910390a2600090815260056020526040812090815560010180546001600160a01b0319169055565b60006103f06103e86012600a611f26565b6064906111ff565b82515160408401515160208501515161040e92916102f591906111f3565b1492915050565b6001546001600160a01b031633148061043857506002546001600160a01b031633145b6104545760405162461bcd60e51b815260040161034790611dcf565b610462828260000151610282565b6104be5760405162461bcd60e51b815260206004820152602760248201527f4d61726b65743a2041736b20696e76616c696420666f722073686172652073706044820152666c697474696e6760c81b6064820152608401610347565b6000828152600560209081526040918290208351815590830151600190910180546001600160a01b0319166001600160a01b039092169190911790555182907ff7347cb9e91d8cbe995b51920ba5f92cbf84a9e09cbed3cd7a739fef4d1d07cf9061052a908490611e1e565b60405180910390a25050565b6001546001600160a01b031633148061055957506002546001600160a01b031633145b6105755760405162461bcd60e51b815260040161034790611dcf565b60008281526003602090815260408083206001600160a01b0380861685529252909120805460018201549192909116816105ff5760405162461bcd60e51b815260206004820152602560248201527f4d61726b65743a2063616e6e6f742072656d6f76652062696420616d6f756e746044820152640206f6620360dc1b6064820152608401610347565b6000819050857fcbebd567b8a5c57f63ec61dc46746aab28daff6bdd1f4a6a0a305c17fa5465c98560405161067091908154815260018201546001600160a01b0390811660208301526002830154811660408301526003830154166060820152600490910154608082015260a00190565b60405180910390a260008681526003602081815260408084206001600160a01b03808b168652925283208381556001810180546001600160a01b03199081169091556002820180548216905592810180549093169092556004909101919091556106dd908216868561120b565b505050505050565b6106ed6118eb565b5060009182526003602081815260408085206001600160a01b039485168652825293849020845160a081018652815481526001820154851681840152600282015485168187015292810154909316606083015283519081019093526004909101548252608081019190915290565b6000610772606461076c848661126e565b9061128a565b9392505050565b6001546001600160a01b031633148061079c57506002546001600160a01b031633145b6107b85760405162461bcd60e51b815260040161034790611dcf565b6000828152600360205260408082209082906107da9060608601908601611a4e565b6001600160a01b0390811682526020808301939093526040918201600020825160a08101845281548152600182015483168186015260028201548316818501526003820154909216606083015282519384019092526004909101548252608081019190915280519091506108905760405162461bcd60e51b815260206004820152601e60248201527f4d61726b65743a2063616e6e6f742061636365707420626964206f66203000006044820152606401610347565b805182351480156108c557506108ac6040830160208401611a4e565b6001600160a01b031681602001516001600160a01b0316145b80156108d957506080818101515190830135145b801561090957506108f06080830160608401611a4e565b6001600160a01b031681606001516001600160a01b0316145b6109555760405162461bcd60e51b815260206004820152601d60248201527f4d61726b65743a20556e65787065637465642062696420666f756e642e0000006044820152606401610347565b610963838260000151610282565b6109bf5760405162461bcd60e51b815260206004820152602760248201527f4d61726b65743a2042696420696e76616c696420666f722073686172652073706044820152666c697474696e6760c81b6064820152608401610347565b6109cd838260400151611296565b505050565b6001546001600160a01b03163314806109f557506002546001600160a01b031633145b610a115760405162461bcd60e51b815260040161034790611dcf565b6000838152600460209081526040918290208251608081018452815460608201908152815283518084018552600183015481528184015283519283018452600290910154825291820152610a6a6103e86012600a611f26565b608084015151602083015151610a7f916111f3565b1115610ae55760405162461bcd60e51b815260206004820152602f60248201527f4d61726b65743a2053656c6c206f6e2066656520696e76616c696420666f722060448201526e73686172652073706c697474696e6760881b6064820152608401610347565b60408301516001600160a01b0316610b4a5760405162461bcd60e51b815260206004820152602260248201527f4d61726b65743a206269646465722063616e6e6f742062652030206164647265604482015261737360f01b6064820152608401610347565b8251610b985760405162461bcd60e51b815260206004820152601e60248201527f4d61726b65743a2063616e6e6f742062696420616d6f756e74206f66203000006044820152606401610347565b60208301516001600160a01b0316610c035760405162461bcd60e51b815260206004820152602860248201527f4d61726b65743a206269642063757272656e63792063616e6e6f742062652030604482015267206164647265737360c01b6064820152608401610347565b60608301516001600160a01b0316610c6f5760405162461bcd60e51b815260206004820152602960248201527f4d61726b65743a2062696420726563697069656e742063616e6e6f742062652060448201526830206164647265737360b81b6064820152608401610347565b6000848152600360209081526040808320868201516001600160a01b031684529091529020805415610ca957610ca9858560400151610536565b60208401516040516370a0823160e01b81526000906001600160a01b038316906370a0823190610cdd903090600401611d86565b60206040518083038186803b158015610cf557600080fd5b505afa158015610d09573d6000803e3d6000fd5b505050506040513d601f19601f82011682018060405250810190610d2d9190611b3b565b8651909150610d4a906001600160a01b038416908790309061168b565b6040516370a0823160e01b81526000906001600160a01b038416906370a0823190610d79903090600401611d86565b60206040518083038186803b158015610d9157600080fd5b505afa158015610da5573d6000803e3d6000fd5b505050506040513d601f19601f82011682018060405250810190610dc99190611b3b565b90506040518060a00160405280610de984846116c990919063ffffffff16565b81526020898101516001600160a01b03908116828401526040808c0180518316828601526060808e01518416818701526080808f01519681019690965260008f8152600380875284822093518616825292865283902087518155948701516001860180549186166001600160a01b031992831617905587840151600287018054918716918316919091179055908701519185018054929094169116179091559290910151516004909101555188907f327bc9021bfbee403a11b13dd6c819999006aff090cc129f07e9f2840af38dd590610ec4908a90611e62565b60405180910390a26000888152600560205260409020600101546001600160a01b031615801590610f185750600088815260056020908152604090912060010154908801516001600160a01b039081169116145b8015610f335750600088815260056020526040902054875110155b15610f4657610f46888860400151611296565b5050505050505050565b6000546001600160a01b03163314610faa5760405162461bcd60e51b815260206004820152601d60248201527f4d61726b65743a204f6e6c79206f776e657220686173206163636573730000006044820152606401610347565b6001600160a01b03811661101a5760405162461bcd60e51b815260206004820152603160248201527f4d61726b65743a2063616e6e6f7420736574204d6564696120636f6e7472616360448201527074206173207a65726f206164647265737360781b6064820152608401610347565b6001600160a01b03821661108b5760405162461bcd60e51b815260206004820152603260248201527f4d61726b65743a2063616e6e6f7420736574204b656570657220636f6e7472616044820152716374206173207a65726f206164647265737360701b6064820152608401610347565b600180546001600160a01b039384166001600160a01b03199182161790915560028054929093169116179055565b6001546001600160a01b03163314806110dc57506002546001600160a01b031633145b6110f85760405162461bcd60e51b815260040161034790611dcf565b60008281526004602090815260409182902083515181559083015151600182015581830151516002909101555182907fdb88d4e96cb8697aaee5e575ee5f460817709a1dfcfbf7ba15192e90b5c86f9f9061052a908490611e3e565b61115c61193a565b50600090815260046020908152604091829020825160808101845281546060820190815281528351808401855260018301548152818401528351928301845260029091015482529182015290565b6111ef82826040516024016111c0929190611dad565b60408051601f198184030181529190526020810180516001600160e01b03166309710a9d60e41b1790526116d5565b5050565b60006107728284611eab565b60006107728284611fce565b6040516001600160a01b0383166024820152604481018290526109cd90849063a9059cbb60e01b906064015b60408051601f198184030181529190526020810180516001600160e01b03166001600160e01b0319909316929092179091526116f6565b80516000906107729084906112856012600a611f26565b6117c8565b60006107728284611ec3565b60008281526003602081815260408084206001600160a01b038681168652908352818520825160a08101845281548152600182015483168186019081526002808401548516838701529683015484166060830152845180870186526004938401548152608083015289885294829052958390209351945492516331a9108f60e11b81529081018890529293926113b29290911690636352211e9060240160206040518083038186803b15801561134b57600080fd5b505afa15801561135f573d6000803e3d6000fd5b505050506040513d601f19601f820116820180604052508101906113839190611a6a565b60408051602081019091526002850154815285516113a1919061075b565b6001600160a01b038416919061120b565b60025460405163e0fd045f60e01b81526004810187905261144e916001600160a01b03169063e0fd045f9060240160206040518083038186803b1580156113f857600080fd5b505afa15801561140c573d6000803e3d6000fd5b505050506040513d601f19601f820116820180604052508101906114309190611a6a565b60408051602081019091526001850154815285516113a1919061075b565b6002546040516304ec739360e51b8152600481018790526114e7916001600160a01b031690639d8e72609060240160206040518083038186803b15801561149457600080fd5b505afa1580156114a8573d6000803e3d6000fd5b505050506040513d601f19601f820116820180604052508101906114cc9190611a6a565b60408051602081019091528454815285516113a1919061075b565b6002546060840151604051630f6b630f60e41b8152600481018890526001600160a01b03918216602482015291169063f6b630f090604401600060405180830381600087803b15801561153957600080fd5b505af115801561154d573d6000803e3d6000fd5b5050604080516020808201835260808801515160008b8152600490925292902060010154909350839250611593919061158d90816103e86012600a611f26565b906116c9565b905251600280840191909155608084015151835560008681526003602081815260408084206001600160a01b038a1685529091528083208381556001810180546001600160a01b03199081169091559481018054861690559182018054909416909355600401555185907fdb88d4e96cb8697aaee5e575ee5f460817709a1dfcfbf7ba15192e90b5c86f9f906116449085908154815260018201546020820152600290910154604082015260600190565b60405180910390a2847fb6ef177c7a6f32b283a49b5e0463a39240cdaa278028dfb219480d050e8ee54c8460405161167c9190611e62565b60405180910390a25050505050565b6040516001600160a01b03808516602483015283166044820152606481018290526116c39085906323b872dd60e01b90608401611237565b50505050565b60006107728284611fed565b80516a636f6e736f6c652e6c6f67602083016000808483855afa5050505050565b600061174b826040518060400160405280602081526020017f5361666545524332303a206c6f772d6c6576656c2063616c6c206661696c6564815250856001600160a01b03166117e09092919063ffffffff16565b8051909150156109cd57808060200190518101906117699190611abe565b6109cd5760405162461bcd60e51b815260206004820152602a60248201527f5361666545524332303a204552433230206f7065726174696f6e20646964206e6044820152691bdd081cdd58d8d9595960b21b6064820152608401610347565b60006117d88261076c86866111ff565b949350505050565b60606117d8848460008585843b6118395760405162461bcd60e51b815260206004820152601d60248201527f416464726573733a2063616c6c20746f206e6f6e2d636f6e74726163740000006044820152606401610347565b600080866001600160a01b031685876040516118559190611d6a565b60006040518083038185875af1925050503d8060008114611892576040519150601f19603f3d011682016040523d82523d6000602084013e611897565b606091505b50915091506118a78282866118b2565b979650505050505050565b606083156118c1575081610772565b8251156118d15782518084602001fd5b8160405162461bcd60e51b81526004016103479190611d9a565b6040518060a001604052806000815260200160006001600160a01b0316815260200160006001600160a01b0316815260200160006001600160a01b03168152602001611935611963565b905290565b604051806060016040528061194d611963565b815260200161195a611963565b81526020016119355b6040518060200160405280600081525090565b803561198181612046565b919050565b600060608284031215611997578081fd5b604051606081018181106001600160401b03821117156119c557634e487b7160e01b83526041600452602483fd5b6040529050806119d58484611a02565b81526119e48460208501611a02565b60208201526119f68460408501611a02565b60408201525092915050565b600060208284031215611a13578081fd5b604051602081018181106001600160401b0382111715611a4157634e487b7160e01b83526041600452602483fd5b6040529135825250919050565b600060208284031215611a5f578081fd5b813561077281612046565b600060208284031215611a7b578081fd5b815161077281612046565b60008060408385031215611a98578081fd5b8235611aa381612046565b91506020830135611ab381612046565b809150509250929050565b600060208284031215611acf578081fd5b81518015158114610772578182fd5b600060608284031215611aef578081fd5b6107728383611986565b60008060408385031215611b0b578182fd5b611b158484611a02565b946020939093013593505050565b600060208284031215611b34578081fd5b5035919050565b600060208284031215611b4c578081fd5b5051919050565b60008060408385031215611b65578182fd5b823591506020830135611ab381612046565b6000808284036060811215611b8a578283fd5b833592506040601f1982011215611b9f578182fd5b50604051604081018181106001600160401b0382111715611bce57634e487b7160e01b83526041600452602483fd5b604090815260208501358252840135611be681612046565b6020820152919491935090915050565b60008060808385031215611c08578182fd5b82359150611c198460208501611986565b90509250929050565b60008082840360c0811215611c35578283fd5b8335925060a0601f1982011215611c4a578182fd5b506020830190509250929050565b600080600083850360e0811215611c6d578182fd5b8435935060a0601f1982011215611c82578182fd5b5060405160a081018181106001600160401b0382111715611cb157634e487b7160e01b83526041600452602483fd5b604090815260208601358252850135611cc981612046565b60208201526060850135611cdc81612046565b60408201526080850135611cef81612046565b6060820152611d018660a08701611a02565b60808201529150611d1460c08501611976565b90509250925092565b60008060408385031215611d2f578182fd5b50508035926020909101359150565b60008151808452611d56816020860160208601612004565b601f01601f19169290920160200192915050565b60008251611d7c818460208701612004565b9190910192915050565b6001600160a01b0391909116815260200190565b6020815260006107726020830184611d3e565b604081526000611dc06040830185611d3e565b90508260208301529392505050565b6020808252602f908201527f4d61726b65743a204f6e6c79205a6f6f20636f6e7472616374732063616e206360408201526e185b1b081d1a1a5cc81b595d1a1bd9608a1b606082015260800190565b815181526020918201516001600160a01b03169181019190915260400190565b81515181526020808301515190820152604091820151519181019190915260600190565b815181526020808301516001600160a01b039081169183019190915260408084015182169083015260608084015190911690820152608091820151519181019190915260a00190565b60008219821115611ebe57611ebe612030565b500190565b600082611ede57634e487b7160e01b81526012600452602481fd5b500490565b600181815b80851115611f1e578160001904821115611f0457611f04612030565b80851615611f1157918102915b93841c9390800290611ee8565b509250929050565b60006107728383600082611f3c57506001610302565b81611f4957506000610302565b8160018114611f5f5760028114611f6957611f85565b6001915050610302565b60ff841115611f7a57611f7a612030565b50506001821b610302565b5060208310610133831016604e8410600b8410161715611fa8575081810a610302565b611fb28383611ee3565b8060001904821115611fc657611fc6612030565b029392505050565b6000816000190483118215151615611fe857611fe8612030565b500290565b600082821015611fff57611fff612030565b500390565b60005b8381101561201f578181015183820152602001612007565b838111156116c35750506000910152565b634e487b7160e01b600052601160045260246000fd5b6001600160a01b038116811461205b57600080fd5b5056fea264697066735822122033b7a6bf0094345958aae00c05c8671bea0560f0946d62cf1172bda08f028def64736f6c63430008040033",
  "libraries": {},
  "devdoc": {
    "kind": "dev",
    "methods": {},
    "title": "A Market for pieces of media",
    "version": 1
  },
  "userdoc": {
    "kind": "user",
    "methods": {
      "acceptBid(uint256,(uint256,address,address,address,(uint256)))": {
        "notice": "Accepts a bid from a particular bidder. Can only be called by the media contract. See {_finalizeNFTTransfer} Provided bid must match a bid in storage. This is to prevent a race condition where a bid may change while the acceptBid call is in transit. A bid cannot be accepted if it cannot be split equally into its shareholders. This should only revert in rare instances (example, a low bid with a zero-decimal token), but is necessary to ensure fairness to all shareholders."
      },
      "configure(address,address)": {
        "notice": "Sets the media contract address. This address is the only permitted address that can call the mutable functions. This method can only be called once."
      },
      "isValidBid(uint256,uint256)": {
        "notice": "Validates that the bid is valid by ensuring that the bid amount can be split perfectly into all the bid shares.  We do this by comparing the sum of the individual share values with the amount and ensuring they are equal. Because  the splitShare function uses integer division, any inconsistencies with the original and split sums would be due to  a bid splitting that does not perfectly divide the bid amount."
      },
      "isValidBidShares(((uint256),(uint256),(uint256)))": {
        "notice": "Validates that the provided bid shares sum to 100"
      },
      "removeAsk(uint256)": {
        "notice": "removes an ask for a token and emits an AskRemoved event"
      },
      "removeBid(uint256,address)": {
        "notice": "Removes the bid on a particular media for a bidder. The bid amount is transferred from this contract to the bidder, if they have a bid placed."
      },
      "setAsk(uint256,(uint256,address))": {
        "notice": "Sets the ask on a particular media. If the ask cannot be evenly split into the media's bid shares, this reverts."
      },
      "setBid(uint256,(uint256,address,address,address,(uint256)),address)": {
        "notice": "Sets the bid on a particular media for a bidder. The token being used to bid is transferred from the spender to this contract to be held until removed or accepted. If another bid already exists for the bidder, it is refunded."
      },
      "setBidShares(uint256,((uint256),(uint256),(uint256)))": {
        "notice": "Sets bid shares for a particular tokenID. These bid shares must sum to 100."
      },
      "splitShare((uint256),uint256)": {
        "notice": "return a % of the specified amount. This function is used to split a bid into shares for a media's shareholders."
      }
    },
    "notice": "This contract contains all of the market logic for Media",
    "version": 1
  },
  "storageLayout": {
    "storage": [
      {
        "astId": 11023,
        "contract": "src/Market.sol:Market",
        "label": "_owner",
        "offset": 0,
        "slot": "0",
        "type": "t_address"
      },
      {
        "astId": 11025,
        "contract": "src/Market.sol:Market",
        "label": "keeperAddress",
        "offset": 0,
        "slot": "1",
        "type": "t_address"
      },
      {
        "astId": 11027,
        "contract": "src/Market.sol:Market",
        "label": "mediaAddress",
        "offset": 0,
        "slot": "2",
        "type": "t_address"
      },
      {
        "astId": 11034,
        "contract": "src/Market.sol:Market",
        "label": "_tokenBidders",
        "offset": 0,
        "slot": "3",
        "type": "t_mapping(t_uint256,t_mapping(t_address,t_struct(Bid)23449_storage))"
      },
      {
        "astId": 11039,
        "contract": "src/Market.sol:Market",
        "label": "_bidShares",
        "offset": 0,
        "slot": "4",
        "type": "t_mapping(t_uint256,t_struct(BidShares)23464_storage)"
      },
      {
        "astId": 11044,
        "contract": "src/Market.sol:Market",
        "label": "_tokenAsks",
        "offset": 0,
        "slot": "5",
        "type": "t_mapping(t_uint256,t_struct(Ask)23454_storage)"
      }
    ],
    "types": {
      "t_address": {
        "encoding": "inplace",
        "label": "address",
        "numberOfBytes": "20"
      },
      "t_mapping(t_address,t_struct(Bid)23449_storage)": {
        "encoding": "mapping",
        "key": "t_address",
        "label": "mapping(address => struct IMarket.Bid)",
        "numberOfBytes": "32",
        "value": "t_struct(Bid)23449_storage"
      },
      "t_mapping(t_uint256,t_mapping(t_address,t_struct(Bid)23449_storage))": {
        "encoding": "mapping",
        "key": "t_uint256",
        "label": "mapping(uint256 => mapping(address => struct IMarket.Bid))",
        "numberOfBytes": "32",
        "value": "t_mapping(t_address,t_struct(Bid)23449_storage)"
      },
      "t_mapping(t_uint256,t_struct(Ask)23454_storage)": {
        "encoding": "mapping",
        "key": "t_uint256",
        "label": "mapping(uint256 => struct IMarket.Ask)",
        "numberOfBytes": "32",
        "value": "t_struct(Ask)23454_storage"
      },
      "t_mapping(t_uint256,t_struct(BidShares)23464_storage)": {
        "encoding": "mapping",
        "key": "t_uint256",
        "label": "mapping(uint256 => struct IMarket.BidShares)",
        "numberOfBytes": "32",
        "value": "t_struct(BidShares)23464_storage"
      },
      "t_struct(Ask)23454_storage": {
        "encoding": "inplace",
        "label": "struct IMarket.Ask",
        "members": [
          {
            "astId": 23451,
            "contract": "src/Market.sol:Market",
            "label": "amount",
            "offset": 0,
            "slot": "0",
            "type": "t_uint256"
          },
          {
            "astId": 23453,
            "contract": "src/Market.sol:Market",
            "label": "currency",
            "offset": 0,
            "slot": "1",
            "type": "t_address"
          }
        ],
        "numberOfBytes": "64"
      },
      "t_struct(Bid)23449_storage": {
        "encoding": "inplace",
        "label": "struct IMarket.Bid",
        "members": [
          {
            "astId": 23439,
            "contract": "src/Market.sol:Market",
            "label": "amount",
            "offset": 0,
            "slot": "0",
            "type": "t_uint256"
          },
          {
            "astId": 23441,
            "contract": "src/Market.sol:Market",
            "label": "currency",
            "offset": 0,
            "slot": "1",
            "type": "t_address"
          },
          {
            "astId": 23443,
            "contract": "src/Market.sol:Market",
            "label": "bidder",
            "offset": 0,
            "slot": "2",
            "type": "t_address"
          },
          {
            "astId": 23445,
            "contract": "src/Market.sol:Market",
            "label": "recipient",
            "offset": 0,
            "slot": "3",
            "type": "t_address"
          },
          {
            "astId": 23448,
            "contract": "src/Market.sol:Market",
            "label": "sellOnShare",
            "offset": 0,
            "slot": "4",
            "type": "t_struct(D256)7664_storage"
          }
        ],
        "numberOfBytes": "160"
      },
      "t_struct(BidShares)23464_storage": {
        "encoding": "inplace",
        "label": "struct IMarket.BidShares",
        "members": [
          {
            "astId": 23457,
            "contract": "src/Market.sol:Market",
            "label": "prevOwner",
            "offset": 0,
            "slot": "0",
            "type": "t_struct(D256)7664_storage"
          },
          {
            "astId": 23460,
            "contract": "src/Market.sol:Market",
            "label": "creator",
            "offset": 0,
            "slot": "1",
            "type": "t_struct(D256)7664_storage"
          },
          {
            "astId": 23463,
            "contract": "src/Market.sol:Market",
            "label": "owner",
            "offset": 0,
            "slot": "2",
            "type": "t_struct(D256)7664_storage"
          }
        ],
        "numberOfBytes": "96"
      },
      "t_struct(D256)7664_storage": {
        "encoding": "inplace",
        "label": "struct Decimal.D256",
        "members": [
          {
            "astId": 7663,
            "contract": "src/Market.sol:Market",
            "label": "value",
            "offset": 0,
            "slot": "0",
            "type": "t_uint256"
          }
        ],
        "numberOfBytes": "32"
      },
      "t_uint256": {
        "encoding": "inplace",
        "label": "uint256",
        "numberOfBytes": "32"
      }
    }
  }
}