{
  "address": "0x91109c6e2AaF421456aafAb4ba3a122A95b46B28",
  "abi": [
    {
      "inputs": [
        {
          "internalType": "string",
          "name": "name",
          "type": "string"
        },
        {
          "internalType": "string",
          "name": "symbol",
          "type": "string"
        }
      ],
      "stateMutability": "nonpayable",
      "type": "constructor"
    },
    {
      "anonymous": false,
      "inputs": [
        {
          "indexed": true,
          "internalType": "address",
          "name": "owner",
          "type": "address"
        },
        {
          "indexed": true,
          "internalType": "address",
          "name": "approved",
          "type": "address"
        },
        {
          "indexed": true,
          "internalType": "uint256",
          "name": "tokenId",
          "type": "uint256"
        }
      ],
      "name": "Approval",
      "type": "event"
    },
    {
      "anonymous": false,
      "inputs": [
        {
          "indexed": true,
          "internalType": "address",
          "name": "owner",
          "type": "address"
        },
        {
          "indexed": true,
          "internalType": "address",
          "name": "operator",
          "type": "address"
        },
        {
          "indexed": false,
          "internalType": "bool",
          "name": "approved",
          "type": "bool"
        }
      ],
      "name": "ApprovalForAll",
      "type": "event"
    },
    {
      "anonymous": false,
      "inputs": [
        {
          "indexed": true,
          "internalType": "uint256",
          "name": "_tokenID",
          "type": "uint256"
        },
        {
          "indexed": false,
          "internalType": "address",
          "name": "owner",
          "type": "address"
        },
        {
          "indexed": false,
          "internalType": "string",
          "name": "_uri",
          "type": "string"
        }
      ],
      "name": "TokenMetadataURIUpdated",
      "type": "event"
    },
    {
      "anonymous": false,
      "inputs": [
        {
          "indexed": true,
          "internalType": "uint256",
          "name": "_tokenID",
          "type": "uint256"
        },
        {
          "indexed": false,
          "internalType": "address",
          "name": "owner",
          "type": "address"
        },
        {
          "indexed": false,
          "internalType": "string",
          "name": "_uri",
          "type": "string"
        }
      ],
      "name": "TokenURIUpdated",
      "type": "event"
    },
    {
      "anonymous": false,
      "inputs": [
        {
          "indexed": true,
          "internalType": "address",
          "name": "from",
          "type": "address"
        },
        {
          "indexed": true,
          "internalType": "address",
          "name": "to",
          "type": "address"
        },
        {
          "indexed": true,
          "internalType": "uint256",
          "name": "tokenId",
          "type": "uint256"
        }
      ],
      "name": "Transfer",
      "type": "event"
    },
    {
      "inputs": [],
      "name": "MINT_WITH_SIG_TYPEHASH",
      "outputs": [
        {
          "internalType": "bytes32",
          "name": "",
          "type": "bytes32"
        }
      ],
      "stateMutability": "view",
      "type": "function"
    },
    {
      "inputs": [],
      "name": "PERMIT_TYPEHASH",
      "outputs": [
        {
          "internalType": "bytes32",
          "name": "",
          "type": "bytes32"
        }
      ],
      "stateMutability": "view",
      "type": "function"
    },
    {
      "inputs": [
        {
          "internalType": "uint256",
          "name": "tokenID",
          "type": "uint256"
        },
        {
          "components": [
            {
              "internalType": "uint256",
              "name": "amount",
              "type": "uint256"
            },
            {
              "internalType": "address",
              "name": "currency",
              "type": "address"
            },
            {
              "internalType": "address",
              "name": "bidder",
              "type": "address"
            },
            {
              "internalType": "address",
              "name": "recipient",
              "type": "address"
            },
            {
              "components": [
                {
                  "internalType": "uint256",
                  "name": "value",
                  "type": "uint256"
                }
              ],
              "internalType": "struct Decimal.D256",
              "name": "sellOnShare",
              "type": "tuple"
            }
          ],
          "internalType": "struct IMarket.Bid",
          "name": "bid",
          "type": "tuple"
        }
      ],
      "name": "acceptBid",
      "outputs": [],
      "stateMutability": "nonpayable",
      "type": "function"
    },
    {
      "inputs": [
        {
          "internalType": "address",
          "name": "to",
          "type": "address"
        },
        {
          "internalType": "uint256",
          "name": "tokenID",
          "type": "uint256"
        }
      ],
      "name": "approve",
      "outputs": [],
      "stateMutability": "nonpayable",
      "type": "function"
    },
    {
      "inputs": [
        {
          "internalType": "uint256",
          "name": "tokenID",
          "type": "uint256"
        },
        {
          "internalType": "address",
          "name": "recipient",
          "type": "address"
        }
      ],
      "name": "auctionTransfer",
      "outputs": [],
      "stateMutability": "nonpayable",
      "type": "function"
    },
    {
      "inputs": [
        {
          "internalType": "address",
          "name": "owner",
          "type": "address"
        }
      ],
      "name": "balanceOf",
      "outputs": [
        {
          "internalType": "uint256",
          "name": "",
          "type": "uint256"
        }
      ],
      "stateMutability": "view",
      "type": "function"
    },
    {
      "inputs": [],
      "name": "baseURI",
      "outputs": [
        {
          "internalType": "string",
          "name": "",
          "type": "string"
        }
      ],
      "stateMutability": "view",
      "type": "function"
    },
    {
      "inputs": [
        {
          "internalType": "uint256",
          "name": "tokenID",
          "type": "uint256"
        }
      ],
      "name": "burn",
      "outputs": [],
      "stateMutability": "nonpayable",
      "type": "function"
    },
    {
      "inputs": [
        {
          "internalType": "address",
          "name": "owner",
          "type": "address"
        },
        {
          "internalType": "uint256",
          "name": "tokenID",
          "type": "uint256"
        }
      ],
      "name": "burnToken",
      "outputs": [],
      "stateMutability": "nonpayable",
      "type": "function"
    },
    {
      "inputs": [
        {
          "internalType": "address",
          "name": "_keeperAddress",
          "type": "address"
        },
        {
          "internalType": "address",
          "name": "_marketAddress",
          "type": "address"
        }
      ],
      "name": "configure",
      "outputs": [],
      "stateMutability": "nonpayable",
      "type": "function"
    },
    {
      "inputs": [
        {
          "internalType": "uint256",
          "name": "tokenID",
          "type": "uint256"
        }
      ],
      "name": "getApproved",
      "outputs": [
        {
          "internalType": "address",
          "name": "",
          "type": "address"
        }
      ],
      "stateMutability": "view",
      "type": "function"
    },
    {
      "inputs": [
        {
          "internalType": "address",
          "name": "creator",
          "type": "address"
        }
      ],
      "name": "getRecentToken",
      "outputs": [
        {
          "internalType": "uint256",
          "name": "",
          "type": "uint256"
        }
      ],
      "stateMutability": "view",
      "type": "function"
    },
    {
      "inputs": [
        {
          "internalType": "address",
          "name": "owner",
          "type": "address"
        },
        {
          "internalType": "address",
          "name": "operator",
          "type": "address"
        }
      ],
      "name": "isApprovedForAll",
      "outputs": [
        {
          "internalType": "bool",
          "name": "",
          "type": "bool"
        }
      ],
      "stateMutability": "view",
      "type": "function"
    },
    {
      "inputs": [
        {
          "internalType": "address",
          "name": "spender",
          "type": "address"
        },
        {
          "internalType": "uint256",
          "name": "tokenID",
          "type": "uint256"
        }
      ],
      "name": "isApprovedOrOwner",
      "outputs": [
        {
          "internalType": "bool",
          "name": "",
          "type": "bool"
        }
      ],
      "stateMutability": "view",
      "type": "function"
    },
    {
      "inputs": [],
      "name": "keeperAddress",
      "outputs": [
        {
          "internalType": "address",
          "name": "",
          "type": "address"
        }
      ],
      "stateMutability": "view",
      "type": "function"
    },
    {
      "inputs": [],
      "name": "marketAddress",
      "outputs": [
        {
          "internalType": "address",
          "name": "",
          "type": "address"
        }
      ],
      "stateMutability": "view",
      "type": "function"
    },
    {
      "inputs": [
        {
          "components": [
            {
              "internalType": "string",
              "name": "tokenURI",
              "type": "string"
            },
            {
              "internalType": "string",
              "name": "metadataURI",
              "type": "string"
            },
            {
              "internalType": "bytes32",
              "name": "contentHash",
              "type": "bytes32"
            },
            {
              "internalType": "bytes32",
              "name": "metadataHash",
              "type": "bytes32"
            }
          ],
          "internalType": "struct IMedia.MediaData",
          "name": "data",
          "type": "tuple"
        },
        {
          "components": [
            {
              "components": [
                {
                  "internalType": "uint256",
                  "name": "value",
                  "type": "uint256"
                }
              ],
              "internalType": "struct Decimal.D256",
              "name": "prevOwner",
              "type": "tuple"
            },
            {
              "components": [
                {
                  "internalType": "uint256",
                  "name": "value",
                  "type": "uint256"
                }
              ],
              "internalType": "struct Decimal.D256",
              "name": "creator",
              "type": "tuple"
            },
            {
              "components": [
                {
                  "internalType": "uint256",
                  "name": "value",
                  "type": "uint256"
                }
              ],
              "internalType": "struct Decimal.D256",
              "name": "owner",
              "type": "tuple"
            }
          ],
          "internalType": "struct IMarket.BidShares",
          "name": "bidShares",
          "type": "tuple"
        }
      ],
      "name": "mint",
      "outputs": [],
      "stateMutability": "nonpayable",
      "type": "function"
    },
    {
      "inputs": [
        {
          "internalType": "address",
          "name": "owner",
          "type": "address"
        },
        {
          "components": [
            {
              "components": [
                {
                  "internalType": "string",
                  "name": "name",
                  "type": "string"
                },
                {
                  "internalType": "uint256",
                  "name": "probability",
                  "type": "uint256"
                },
                {
                  "internalType": "uint256",
                  "name": "yield",
                  "type": "uint256"
                },
                {
                  "internalType": "uint256",
                  "name": "boost",
                  "type": "uint256"
                }
              ],
              "internalType": "struct IZoo.Rarity",
              "name": "rarity",
              "type": "tuple"
            },
            {
              "internalType": "enum IZoo.Type",
              "name": "kind",
              "type": "uint8"
            },
            {
              "internalType": "string",
              "name": "name",
              "type": "string"
            },
            {
              "internalType": "uint256",
              "name": "id",
              "type": "uint256"
            },
            {
              "internalType": "uint256",
              "name": "timestamp",
              "type": "uint256"
            },
            {
              "internalType": "uint256",
              "name": "birthday",
              "type": "uint256"
            },
            {
              "internalType": "string",
              "name": "customName",
              "type": "string"
            },
            {
              "components": [
                {
                  "internalType": "string",
                  "name": "animalA",
                  "type": "string"
                },
                {
                  "internalType": "string",
                  "name": "animalB",
                  "type": "string"
                },
                {
                  "internalType": "uint256",
                  "name": "tokenA",
                  "type": "uint256"
                },
                {
                  "internalType": "uint256",
                  "name": "tokenB",
                  "type": "uint256"
                }
              ],
              "internalType": "struct IZoo.Parents",
              "name": "parents",
              "type": "tuple"
            },
            {
              "components": [
                {
                  "internalType": "uint256",
                  "name": "count",
                  "type": "uint256"
                },
                {
                  "internalType": "uint256",
                  "name": "timestamp",
                  "type": "uint256"
                }
              ],
              "internalType": "struct IZoo.Breed",
              "name": "breed",
              "type": "tuple"
            },
            {
              "components": [
                {
                  "internalType": "uint256",
                  "name": "eggID",
                  "type": "uint256"
                },
                {
                  "internalType": "uint256",
                  "name": "dropID",
                  "type": "uint256"
                },
                {
                  "internalType": "bool",
                  "name": "burned",
                  "type": "bool"
                },
                {
                  "internalType": "bool",
                  "name": "swapped",
                  "type": "bool"
                }
              ],
              "internalType": "struct IZoo.Meta",
              "name": "meta",
              "type": "tuple"
            },
            {
              "components": [
                {
                  "internalType": "string",
                  "name": "tokenURI",
                  "type": "string"
                },
                {
                  "internalType": "string",
                  "name": "metadataURI",
                  "type": "string"
                },
                {
                  "internalType": "bytes32",
                  "name": "contentHash",
                  "type": "bytes32"
                },
                {
                  "internalType": "bytes32",
                  "name": "metadataHash",
                  "type": "bytes32"
                }
              ],
              "internalType": "struct IMedia.MediaData",
              "name": "data",
              "type": "tuple"
            },
            {
              "components": [
                {
                  "components": [
                    {
                      "internalType": "uint256",
                      "name": "value",
                      "type": "uint256"
                    }
                  ],
                  "internalType": "struct Decimal.D256",
                  "name": "prevOwner",
                  "type": "tuple"
                },
                {
                  "components": [
                    {
                      "internalType": "uint256",
                      "name": "value",
                      "type": "uint256"
                    }
                  ],
                  "internalType": "struct Decimal.D256",
                  "name": "creator",
                  "type": "tuple"
                },
                {
                  "components": [
                    {
                      "internalType": "uint256",
                      "name": "value",
                      "type": "uint256"
                    }
                  ],
                  "internalType": "struct Decimal.D256",
                  "name": "owner",
                  "type": "tuple"
                }
              ],
              "internalType": "struct IMarket.BidShares",
              "name": "bidShares",
              "type": "tuple"
            }
          ],
          "internalType": "struct IZoo.Token",
          "name": "token",
          "type": "tuple"
        }
      ],
      "name": "mintToken",
      "outputs": [
        {
          "components": [
            {
              "components": [
                {
                  "internalType": "string",
                  "name": "name",
                  "type": "string"
                },
                {
                  "internalType": "uint256",
                  "name": "probability",
                  "type": "uint256"
                },
                {
                  "internalType": "uint256",
                  "name": "yield",
                  "type": "uint256"
                },
                {
                  "internalType": "uint256",
                  "name": "boost",
                  "type": "uint256"
                }
              ],
              "internalType": "struct IZoo.Rarity",
              "name": "rarity",
              "type": "tuple"
            },
            {
              "internalType": "enum IZoo.Type",
              "name": "kind",
              "type": "uint8"
            },
            {
              "internalType": "string",
              "name": "name",
              "type": "string"
            },
            {
              "internalType": "uint256",
              "name": "id",
              "type": "uint256"
            },
            {
              "internalType": "uint256",
              "name": "timestamp",
              "type": "uint256"
            },
            {
              "internalType": "uint256",
              "name": "birthday",
              "type": "uint256"
            },
            {
              "internalType": "string",
              "name": "customName",
              "type": "string"
            },
            {
              "components": [
                {
                  "internalType": "string",
                  "name": "animalA",
                  "type": "string"
                },
                {
                  "internalType": "string",
                  "name": "animalB",
                  "type": "string"
                },
                {
                  "internalType": "uint256",
                  "name": "tokenA",
                  "type": "uint256"
                },
                {
                  "internalType": "uint256",
                  "name": "tokenB",
                  "type": "uint256"
                }
              ],
              "internalType": "struct IZoo.Parents",
              "name": "parents",
              "type": "tuple"
            },
            {
              "components": [
                {
                  "internalType": "uint256",
                  "name": "count",
                  "type": "uint256"
                },
                {
                  "internalType": "uint256",
                  "name": "timestamp",
                  "type": "uint256"
                }
              ],
              "internalType": "struct IZoo.Breed",
              "name": "breed",
              "type": "tuple"
            },
            {
              "components": [
                {
                  "internalType": "uint256",
                  "name": "eggID",
                  "type": "uint256"
                },
                {
                  "internalType": "uint256",
                  "name": "dropID",
                  "type": "uint256"
                },
                {
                  "internalType": "bool",
                  "name": "burned",
                  "type": "bool"
                },
                {
                  "internalType": "bool",
                  "name": "swapped",
                  "type": "bool"
                }
              ],
              "internalType": "struct IZoo.Meta",
              "name": "meta",
              "type": "tuple"
            },
            {
              "components": [
                {
                  "internalType": "string",
                  "name": "tokenURI",
                  "type": "string"
                },
                {
                  "internalType": "string",
                  "name": "metadataURI",
                  "type": "string"
                },
                {
                  "internalType": "bytes32",
                  "name": "contentHash",
                  "type": "bytes32"
                },
                {
                  "internalType": "bytes32",
                  "name": "metadataHash",
                  "type": "bytes32"
                }
              ],
              "internalType": "struct IMedia.MediaData",
              "name": "data",
              "type": "tuple"
            },
            {
              "components": [
                {
                  "components": [
                    {
                      "internalType": "uint256",
                      "name": "value",
                      "type": "uint256"
                    }
                  ],
                  "internalType": "struct Decimal.D256",
                  "name": "prevOwner",
                  "type": "tuple"
                },
                {
                  "components": [
                    {
                      "internalType": "uint256",
                      "name": "value",
                      "type": "uint256"
                    }
                  ],
                  "internalType": "struct Decimal.D256",
                  "name": "creator",
                  "type": "tuple"
                },
                {
                  "components": [
                    {
                      "internalType": "uint256",
                      "name": "value",
                      "type": "uint256"
                    }
                  ],
                  "internalType": "struct Decimal.D256",
                  "name": "owner",
                  "type": "tuple"
                }
              ],
              "internalType": "struct IMarket.BidShares",
              "name": "bidShares",
              "type": "tuple"
            }
          ],
          "internalType": "struct IZoo.Token",
          "name": "",
          "type": "tuple"
        }
      ],
      "stateMutability": "nonpayable",
      "type": "function"
    },
    {
      "inputs": [
        {
          "internalType": "address",
          "name": "creator",
          "type": "address"
        },
        {
          "components": [
            {
              "internalType": "string",
              "name": "tokenURI",
              "type": "string"
            },
            {
              "internalType": "string",
              "name": "metadataURI",
              "type": "string"
            },
            {
              "internalType": "bytes32",
              "name": "contentHash",
              "type": "bytes32"
            },
            {
              "internalType": "bytes32",
              "name": "metadataHash",
              "type": "bytes32"
            }
          ],
          "internalType": "struct IMedia.MediaData",
          "name": "data",
          "type": "tuple"
        },
        {
          "components": [
            {
              "components": [
                {
                  "internalType": "uint256",
                  "name": "value",
                  "type": "uint256"
                }
              ],
              "internalType": "struct Decimal.D256",
              "name": "prevOwner",
              "type": "tuple"
            },
            {
              "components": [
                {
                  "internalType": "uint256",
                  "name": "value",
                  "type": "uint256"
                }
              ],
              "internalType": "struct Decimal.D256",
              "name": "creator",
              "type": "tuple"
            },
            {
              "components": [
                {
                  "internalType": "uint256",
                  "name": "value",
                  "type": "uint256"
                }
              ],
              "internalType": "struct Decimal.D256",
              "name": "owner",
              "type": "tuple"
            }
          ],
          "internalType": "struct IMarket.BidShares",
          "name": "bidShares",
          "type": "tuple"
        },
        {
          "components": [
            {
              "internalType": "uint256",
              "name": "deadline",
              "type": "uint256"
            },
            {
              "internalType": "uint8",
              "name": "v",
              "type": "uint8"
            },
            {
              "internalType": "bytes32",
              "name": "r",
              "type": "bytes32"
            },
            {
              "internalType": "bytes32",
              "name": "s",
              "type": "bytes32"
            }
          ],
          "internalType": "struct IMedia.EIP712Signature",
          "name": "sig",
          "type": "tuple"
        }
      ],
      "name": "mintWithSig",
      "outputs": [],
      "stateMutability": "nonpayable",
      "type": "function"
    },
    {
      "inputs": [
        {
          "internalType": "address",
          "name": "",
          "type": "address"
        }
      ],
      "name": "mintWithSigNonces",
      "outputs": [
        {
          "internalType": "uint256",
          "name": "",
          "type": "uint256"
        }
      ],
      "stateMutability": "view",
      "type": "function"
    },
    {
      "inputs": [],
      "name": "name",
      "outputs": [
        {
          "internalType": "string",
          "name": "",
          "type": "string"
        }
      ],
      "stateMutability": "view",
      "type": "function"
    },
    {
      "inputs": [
        {
          "internalType": "uint256",
          "name": "tokenID",
          "type": "uint256"
        }
      ],
      "name": "ownerOf",
      "outputs": [
        {
          "internalType": "address",
          "name": "",
          "type": "address"
        }
      ],
      "stateMutability": "view",
      "type": "function"
    },
    {
      "inputs": [
        {
          "internalType": "address",
          "name": "spender",
          "type": "address"
        },
        {
          "internalType": "uint256",
          "name": "tokenID",
          "type": "uint256"
        },
        {
          "components": [
            {
              "internalType": "uint256",
              "name": "deadline",
              "type": "uint256"
            },
            {
              "internalType": "uint8",
              "name": "v",
              "type": "uint8"
            },
            {
              "internalType": "bytes32",
              "name": "r",
              "type": "bytes32"
            },
            {
              "internalType": "bytes32",
              "name": "s",
              "type": "bytes32"
            }
          ],
          "internalType": "struct IMedia.EIP712Signature",
          "name": "sig",
          "type": "tuple"
        }
      ],
      "name": "permit",
      "outputs": [],
      "stateMutability": "nonpayable",
      "type": "function"
    },
    {
      "inputs": [
        {
          "internalType": "address",
          "name": "",
          "type": "address"
        },
        {
          "internalType": "uint256",
          "name": "",
          "type": "uint256"
        }
      ],
      "name": "permitNonces",
      "outputs": [
        {
          "internalType": "uint256",
          "name": "",
          "type": "uint256"
        }
      ],
      "stateMutability": "view",
      "type": "function"
    },
    {
      "inputs": [
        {
          "internalType": "uint256",
          "name": "",
          "type": "uint256"
        }
      ],
      "name": "previousTokenOwners",
      "outputs": [
        {
          "internalType": "address",
          "name": "",
          "type": "address"
        }
      ],
      "stateMutability": "view",
      "type": "function"
    },
    {
      "inputs": [
        {
          "internalType": "uint256",
          "name": "tokenID",
          "type": "uint256"
        }
      ],
      "name": "removeAsk",
      "outputs": [],
      "stateMutability": "nonpayable",
      "type": "function"
    },
    {
      "inputs": [
        {
          "internalType": "uint256",
          "name": "tokenID",
          "type": "uint256"
        }
      ],
      "name": "removeBid",
      "outputs": [],
      "stateMutability": "nonpayable",
      "type": "function"
    },
    {
      "inputs": [
        {
          "internalType": "uint256",
          "name": "tokenID",
          "type": "uint256"
        }
      ],
      "name": "revokeApproval",
      "outputs": [],
      "stateMutability": "nonpayable",
      "type": "function"
    },
    {
      "inputs": [
        {
          "internalType": "address",
          "name": "from",
          "type": "address"
        },
        {
          "internalType": "address",
          "name": "to",
          "type": "address"
        },
        {
          "internalType": "uint256",
          "name": "tokenID",
          "type": "uint256"
        }
      ],
      "name": "safeTransferFrom",
      "outputs": [],
      "stateMutability": "nonpayable",
      "type": "function"
    },
    {
      "inputs": [
        {
          "internalType": "address",
          "name": "from",
          "type": "address"
        },
        {
          "internalType": "address",
          "name": "to",
          "type": "address"
        },
        {
          "internalType": "uint256",
          "name": "tokenID",
          "type": "uint256"
        },
        {
          "internalType": "bytes",
          "name": "_data",
          "type": "bytes"
        }
      ],
      "name": "safeTransferFrom",
      "outputs": [],
      "stateMutability": "nonpayable",
      "type": "function"
    },
    {
      "inputs": [
        {
          "internalType": "address",
          "name": "operator",
          "type": "address"
        },
        {
          "internalType": "bool",
          "name": "approved",
          "type": "bool"
        }
      ],
      "name": "setApprovalForAll",
      "outputs": [],
      "stateMutability": "nonpayable",
      "type": "function"
    },
    {
      "inputs": [
        {
          "internalType": "uint256",
          "name": "tokenID",
          "type": "uint256"
        },
        {
          "components": [
            {
              "internalType": "uint256",
              "name": "amount",
              "type": "uint256"
            },
            {
              "internalType": "address",
              "name": "currency",
              "type": "address"
            }
          ],
          "internalType": "struct IMarket.Ask",
          "name": "ask",
          "type": "tuple"
        }
      ],
      "name": "setAsk",
      "outputs": [],
      "stateMutability": "nonpayable",
      "type": "function"
    },
    {
      "inputs": [
        {
          "internalType": "uint256",
          "name": "tokenID",
          "type": "uint256"
        },
        {
          "components": [
            {
              "internalType": "uint256",
              "name": "amount",
              "type": "uint256"
            },
            {
              "internalType": "address",
              "name": "currency",
              "type": "address"
            },
            {
              "internalType": "address",
              "name": "bidder",
              "type": "address"
            },
            {
              "internalType": "address",
              "name": "recipient",
              "type": "address"
            },
            {
              "components": [
                {
                  "internalType": "uint256",
                  "name": "value",
                  "type": "uint256"
                }
              ],
              "internalType": "struct Decimal.D256",
              "name": "sellOnShare",
              "type": "tuple"
            }
          ],
          "internalType": "struct IMarket.Bid",
          "name": "bid",
          "type": "tuple"
        }
      ],
      "name": "setBid",
      "outputs": [],
      "stateMutability": "nonpayable",
      "type": "function"
    },
    {
      "inputs": [
        {
          "internalType": "bytes4",
          "name": "interfaceId",
          "type": "bytes4"
        }
      ],
      "name": "supportsInterface",
      "outputs": [
        {
          "internalType": "bool",
          "name": "",
          "type": "bool"
        }
      ],
      "stateMutability": "view",
      "type": "function"
    },
    {
      "inputs": [],
      "name": "symbol",
      "outputs": [
        {
          "internalType": "string",
          "name": "",
          "type": "string"
        }
      ],
      "stateMutability": "view",
      "type": "function"
    },
    {
      "inputs": [
        {
          "internalType": "uint256",
          "name": "index",
          "type": "uint256"
        }
      ],
      "name": "tokenByIndex",
      "outputs": [
        {
          "internalType": "uint256",
          "name": "",
          "type": "uint256"
        }
      ],
      "stateMutability": "view",
      "type": "function"
    },
    {
      "inputs": [
        {
          "internalType": "uint256",
          "name": "",
          "type": "uint256"
        }
      ],
      "name": "tokenContentHashes",
      "outputs": [
        {
          "internalType": "bytes32",
          "name": "",
          "type": "bytes32"
        }
      ],
      "stateMutability": "view",
      "type": "function"
    },
    {
      "inputs": [
        {
          "internalType": "uint256",
          "name": "",
          "type": "uint256"
        }
      ],
      "name": "tokenCreators",
      "outputs": [
        {
          "internalType": "address",
          "name": "",
          "type": "address"
        }
      ],
      "stateMutability": "view",
      "type": "function"
    },
    {
      "inputs": [
        {
          "internalType": "uint256",
          "name": "tokenID",
          "type": "uint256"
        }
      ],
      "name": "tokenExists",
      "outputs": [
        {
          "internalType": "bool",
          "name": "",
          "type": "bool"
        }
      ],
      "stateMutability": "view",
      "type": "function"
    },
    {
      "inputs": [
        {
          "internalType": "uint256",
          "name": "",
          "type": "uint256"
        }
      ],
      "name": "tokenMetadataHashes",
      "outputs": [
        {
          "internalType": "bytes32",
          "name": "",
          "type": "bytes32"
        }
      ],
      "stateMutability": "view",
      "type": "function"
    },
    {
      "inputs": [
        {
          "internalType": "uint256",
          "name": "tokenID",
          "type": "uint256"
        }
      ],
      "name": "tokenMetadataURI",
      "outputs": [
        {
          "internalType": "string",
          "name": "",
          "type": "string"
        }
      ],
      "stateMutability": "view",
      "type": "function"
    },
    {
      "inputs": [
        {
          "internalType": "address",
          "name": "owner",
          "type": "address"
        },
        {
          "internalType": "uint256",
          "name": "index",
          "type": "uint256"
        }
      ],
      "name": "tokenOfOwnerByIndex",
      "outputs": [
        {
          "internalType": "uint256",
          "name": "",
          "type": "uint256"
        }
      ],
      "stateMutability": "view",
      "type": "function"
    },
    {
      "inputs": [
        {
          "internalType": "uint256",
          "name": "tokenID",
          "type": "uint256"
        }
      ],
      "name": "tokenURI",
      "outputs": [
        {
          "internalType": "string",
          "name": "",
          "type": "string"
        }
      ],
      "stateMutability": "view",
      "type": "function"
    },
    {
      "inputs": [],
      "name": "totalSupply",
      "outputs": [
        {
          "internalType": "uint256",
          "name": "",
          "type": "uint256"
        }
      ],
      "stateMutability": "view",
      "type": "function"
    },
    {
      "inputs": [
        {
          "internalType": "uint256",
          "name": "tokenID",
          "type": "uint256"
        },
        {
          "internalType": "address",
          "name": "recipient",
          "type": "address"
        }
      ],
      "name": "transfer",
      "outputs": [],
      "stateMutability": "nonpayable",
      "type": "function"
    },
    {
      "inputs": [
        {
          "internalType": "address",
          "name": "from",
          "type": "address"
        },
        {
          "internalType": "address",
          "name": "to",
          "type": "address"
        },
        {
          "internalType": "uint256",
          "name": "tokenID",
          "type": "uint256"
        }
      ],
      "name": "transferFrom",
      "outputs": [],
      "stateMutability": "nonpayable",
      "type": "function"
    },
    {
      "inputs": [
        {
          "internalType": "uint256",
          "name": "tokenID",
          "type": "uint256"
        },
        {
          "internalType": "string",
          "name": "metadataURI",
          "type": "string"
        }
      ],
      "name": "updateTokenMetadataURI",
      "outputs": [],
      "stateMutability": "nonpayable",
      "type": "function"
    },
    {
      "inputs": [
        {
          "internalType": "uint256",
          "name": "tokenID",
          "type": "uint256"
        },
        {
          "internalType": "string",
          "name": "_tokenURI",
          "type": "string"
        }
      ],
      "name": "updateTokenURI",
      "outputs": [],
      "stateMutability": "nonpayable",
      "type": "function"
    }
  ],
  "transactionHash": "0x7eeea8186c1c5a7517c207c8241dc8077454b0143a513565e0192ef4359437bc",
  "args": [
    "CryptoZoo",
    "ANML"
  ],
  "solcInputHash": "cdb2b59836bb7d05cf2cbb5348295249",
  "bytecode": "0x60806040523480156200001157600080fd5b50604051620048d4380380620048d4833981016040819052620000349162000298565b8151829082906200004d9060079060208501906200013f565b508051620000639060089060208401906200013f565b50620000766380ac58cd60e01b620000bb565b6200008863780e9d6360e01b620000bb565b50506001600b55600c80546001600160a01b03191633179055620000b3632711173360e11b620000bb565b505062000352565b6001600160e01b031980821614156200011a5760405162461bcd60e51b815260206004820152601c60248201527f4552433136353a20696e76616c696420696e7465726661636520696400000000604482015260640160405180910390fd5b6001600160e01b0319166000908152602081905260409020805460ff19166001179055565b8280546200014d90620002ff565b90600052602060002090601f016020900481019282620001715760008555620001bc565b82601f106200018c57805160ff1916838001178555620001bc565b82800160010185558215620001bc579182015b82811115620001bc5782518255916020019190600101906200019f565b50620001ca929150620001ce565b5090565b5b80821115620001ca5760008155600101620001cf565b600082601f830112620001f6578081fd5b81516001600160401b03808211156200021357620002136200033c565b604051601f8301601f19908116603f011681019082821181831017156200023e576200023e6200033c565b816040528381526020925086838588010111156200025a578485fd5b8491505b838210156200027d57858201830151818301840152908201906200025e565b838211156200028e57848385830101525b9695505050505050565b60008060408385031215620002ab578182fd5b82516001600160401b0380821115620002c2578384fd5b620002d086838701620001e5565b93506020850151915080821115620002e6578283fd5b50620002f585828601620001e5565b9150509250929050565b600181811c908216806200031457607f821691505b602082108114156200033657634e487b7160e01b600052602260045260246000fd5b50919050565b634e487b7160e01b600052604160045260246000fd5b61457280620003626000396000f3fe608060405234801561001057600080fd5b506004361061023f5760003560e01c80636c0360eb116101375780636c0360eb1461046357806370a082311461046b57806375682e791461047e5780637a7a12021461049157806395623641146104a457806395d89b41146104b75780639d8e7260146104bf578063a22cb465146104e8578063b1e130fc146104fb578063b320f4591461050e578063b67a85bd14610521578063b7760c8f14610534578063b88d4fde14610547578063ba3393991461055a578063c87b56dd1461056d578063d1df306c14610580578063de5236fb14610593578063e0fd045f146105ba578063e470d5cf146105e3578063e985e9c5146105f6578063ee492ff814610609578063f6b630f014610629578063f8ccd5de1461063c578063fad321971461066757600080fd5b8062923f9e1461024457806301ddc3b51461026c57806301ffc9a71461029a57806306fdde03146102ad578063081812fc146102c2578063095ea7b3146102e25780630bcd899b146102f75780630e2a177814610317578063157c3df91461032a57806318160ddd1461033d57806318e97fd1146103455780632110f20d1461035857806323b872dd1461036b57806328220f351461037e5780632cca3237146103915780632f745c59146103a457806330adf81f146103b757806342842e0e146103de57806342966c68146103f1578063430c2081146104045780634f6ccce7146104175780635bf624221461042a57806362f24b701461043d5780636352211e14610450575b600080fd5b610257610252366004613a8b565b610687565b60405190151581526020015b60405180910390f35b61028c61027a366004613a8b565b60136020526000908152604090205481565b604051908152602001610263565b6102576102a8366004613a10565b610698565b6102b56106d4565b6040516102639190613e6d565b6102d56102d0366004613a8b565b610766565b6040516102639190613dbe565b6102f56102f03660046139ab565b6107f3565b005b61028c6103053660046136a0565b60176020526000908152604090205481565b6102f56103253660046139d4565b610938565b6102b5610338366004613a8b565b610bdb565b61028c610ca6565b6102f5610353366004613ac5565b610cb7565b61028c6103663660046136a0565b610e70565b6102f56103793660046136ec565b610ecc565b6102f561038c366004613a8b565b610efd565b6102f561039f366004613a48565b610fb7565b61028c6103b23660046139ab565b611006565b61028c7f49ecf333e5b8c95c40fdafc95c1ad136e8914a8fb55e9dc8bb01eaa83a2df9ad81565b6102f56103ec3660046136ec565b611028565b6102f56103ff366004613a8b565b611043565b6102576104123660046139ab565b611160565b61028c610425366004613a8b565b61116c565b6102f5610438366004613b8f565b611182565b6102f561044b366004613b3b565b611273565b6102d561045e366004613a8b565b611350565b6102b5611378565b61028c6104793660046136a0565b611387565b6102f561048c366004613ac5565b611413565b6102f561049f3660046137c8565b6115b3565b600e546102d5906001600160a01b031681565b6102b56117d1565b6102d56104cd366004613a8b565b600f602052600090815260409020546001600160a01b031681565b6102f56104f636600461379f565b6117e0565b6102f5610509366004613a8b565b6118a1565b6102f561051c366004613a8b565b611950565b600d546102d5906001600160a01b031681565b6102f5610542366004613aa3565b611a0e565b6102f5610555366004613727565b611a84565b6102f5610568366004613b8f565b611abc565b6102b561057b366004613a8b565b611b4d565b6102f561058e3660046139ab565b611c18565b61028c7f2952e482b8e2b192305f87374d7af45dc2eafafe4f50d26a0c02e90f2fdbe14b81565b6102d56105c8366004613a8b565b6010602052600090815260409020546001600160a01b031681565b6102f56105f13660046136ba565b611ca6565b6102576106043660046136ba565b611e10565b61061c610617366004613837565b611e3e565b60405161026391906141c8565b6102f5610637366004613aa3565b611eea565b61028c61064a3660046139ab565b601660209081526000928352604080842090915290825290205481565b61028c610675366004613a8b565b60126020526000908152604090205481565b600061069282611f6c565b92915050565b60006301ffc9a760e01b6001600160e01b0319831614806106925750506001600160e01b03191660009081526020819052604090205460ff1690565b6060600780546106e39061440b565b80601f016020809104026020016040519081016040528092919081815260200182805461070f9061440b565b801561075c5780601f106107315761010080835404028352916020019161075c565b820191906000526020600020905b81548152906001019060200180831161073f57829003601f168201915b5050505050905090565b600061077182611f6c565b6107d75760405162461bcd60e51b815260206004820152602c60248201527f4552433732313a20617070726f76656420717565727920666f72206e6f6e657860448201526b34b9ba32b73a103a37b5b2b760a11b60648201526084015b60405180910390fd5b506000908152600560205260409020546001600160a01b031690565b60006107fe82611350565b905061082b604051806040016040528060098152602001682a34329037bbb732b960b91b81525082611f79565b806001600160a01b0316836001600160a01b031614156108975760405162461bcd60e51b815260206004820152602160248201527f4552433732313a20617070726f76616c20746f2063757272656e74206f776e656044820152603960f91b60648201526084016107ce565b6108a033611fbe565b336001600160a01b03821614806108bc57506108bc8133611e10565b6109295760405162461bcd60e51b815260206004820152603860248201527f4552433732313a20617070726f76652063616c6c6572206973206e6f74206f776044820152771b995c881b9bdc88185c1c1c9bdd995908199bdc88185b1b60421b60648201526084016107ce565b6109338383612004565b505050565b6002600b54141561095b5760405162461bcd60e51b81526004016107ce9061414b565b6002600b558161096a81610687565b6109865760405162461bcd60e51b81526004016107ce90614119565b81511580610995575081514211155b6109d95760405162461bcd60e51b81526020600482015260156024820152741359591a584e8814195c9b5a5d08195e1c1a5c9959605a1b60448201526064016107ce565b6001600160a01b038416610a2e5760405162461bcd60e51b815260206004820152601c60248201527b04d656469613a207370656e6465722063616e6e6f74206265203078360241b60448201526064016107ce565b6000610a38612072565b90506000817f49ecf333e5b8c95c40fdafc95c1ad136e8914a8fb55e9dc8bb01eaa83a2df9ad8787601685610a6c83611350565b6001600160a01b03168152602080820192909252604090810160009081208c82529092528120805491610a9e83614440565b9091555088516040805160208101969096526001600160a01b03909416938501939093526060840191909152608083015260a082015260c00160405160208183030381529060405280519060200120604051602001610afe929190613da3565b604051602081830303815290604052805190602001209050600060018286602001518760400151886060015160405160008152602001604052604051610b479493929190613e4f565b6020604051602081039080840390855afa158015610b69573d6000803e3d6000fd5b5050604051601f1901519150506001600160a01b03811615801590610ba75750806001600160a01b0316610b9c87611350565b6001600160a01b0316145b610bc35760405162461bcd60e51b81526004016107ce906140e7565b610bcd8787612004565b50506001600b555050505050565b60608180610be860185490565b1015610c065760405162461bcd60e51b81526004016107ce90613f90565b60008381526014602052604090208054610c1f9061440b565b80601f0160208091040260200160405190810160405280929190818152602001828054610c4b9061440b565b8015610c985780601f10610c6d57610100808354040283529160200191610c98565b820191906000526020600020905b815481529060010190602001808311610c7b57829003601f168201915b505050505091505b50919050565b6000610cb26002612142565b905090565b6002600b541415610cda5760405162461bcd60e51b81526004016107ce9061414b565b6002600b553383610cea8261214d565b80610cfa5750610cfa8282612161565b610d165760405162461bcd60e51b81526004016107ce9061405f565b6000858152601260205260409020548590610d8e5760405162461bcd60e51b815260206004820152603260248201527f4d656469613a20746f6b656e20646f6573206e6f7420686176652068617368206044820152711bd98818dc99585d19590818dbdb9d195b9d60721b60648201526084016107ce565b84848080601f01602080910402602001604051908101604052809392919081815260200183838082843760009201919091525050825115159150610de690505760405162461bcd60e51b81526004016107ce90614182565b610e268787878080601f01602080910402602001604051908101604052809392919081815260200183838082843760009201919091525061222b92505050565b867f702fe2dc2dc0f68023540aa4a1e11811c0f29112f6ebf01e61b90538e4f29810338888604051610e5a93929190613e0f565b60405180910390a250506001600b555050505050565b6001600160a01b03811660009081526011602052604081208190600190610e96906122b4565b610ea091906143c8565b6001600160a01b0384166000908152601160205260409020909150610ec590826122be565b9392505050565b610ed63382612161565b610ef25760405162461bcd60e51b81526004016107ce90614096565b6109338383836122ca565b6002600b541415610f205760405162461bcd60e51b81526004016107ce9061414b565b6002600b553381610f308261214d565b80610f405750610f408282612161565b610f5c5760405162461bcd60e51b81526004016107ce9061405f565b600e546040516328220f3560e01b8152600481018590526001600160a01b03909116906328220f35906024015b600060405180830381600087803b158015610fa357600080fd5b505af1158015610bcd573d6000803e3d6000fd5b6002600b541415610fda5760405162461bcd60e51b81526004016107ce9061414b565b6002600b81905550610ffd33838360405180602001604052806000815250612333565b50506001600b55565b6001600160a01b0382166000908152600160205260408120610ec590836122be565b61093383838360405180602001604052806000815250611a84565b6002600b5414156110665760405162461bcd60e51b81526004016107ce9061414b565b6002600b558061107581610687565b6110915760405162461bcd60e51b81526004016107ce90614119565b338261109c3361214d565b806110ac57506110ac8282612161565b6110c85760405162461bcd60e51b81526004016107ce9061405f565b60006110d385611350565b6000868152601060205260409020549091506001600160a01b0380831691161461114b5760405162461bcd60e51b8152602060048201526024808201527f4d656469613a206f776e6572206973206e6f742063726561746f72206f66206d6044820152636564696160e01b60648201526084016107ce565b611154856125a4565b50506001600b55505050565b6000610ec58383612161565b60008061117a6002846125cb565b509392505050565b6002600b5414156111a55760405162461bcd60e51b81526004016107ce9061414b565b6002600b55816111b481610687565b6111d05760405162461bcd60e51b81526004016107ce90614119565b81604001516001600160a01b0316336001600160a01b03161461123f5760405162461bcd60e51b815260206004820152602160248201527f4d61726b65743a20426964646572206d757374206265206d73672073656e64656044820152603960f91b60648201526084016107ce565b600e546040516317b6b0d360e31b81526001600160a01b039091169063bdb5869890610f899086908690339060040161432e565b6002600b5414156112965760405162461bcd60e51b81526004016107ce9061414b565b6002600b5533826112a68261214d565b806112b657506112b68282612161565b6112d25760405162461bcd60e51b81526004016107ce9061405f565b600e5460405163062f24b760e41b8152600481018690528451602482015260208501516001600160a01b039081166044830152909116906362f24b70906064015b600060405180830381600087803b15801561132d57600080fd5b505af1158015611341573d6000803e3d6000fd5b50506001600b55505050505050565b6000610692826040518060600160405280602981526020016144d060299139600291906125e7565b6060600a80546106e39061440b565b60006001600160a01b0382166113f25760405162461bcd60e51b815260206004820152602a60248201527f4552433732313a2062616c616e636520717565727920666f7220746865207a65604482015269726f206164647265737360b01b60648201526084016107ce565b6001600160a01b0382166000908152600160205260409020610692906122b4565b6002600b5414156114365760405162461bcd60e51b81526004016107ce9061414b565b6002600b5533836114468261214d565b8061145657506114568282612161565b6114725760405162461bcd60e51b81526004016107ce9061405f565b60008581526013602052604090205485906114e75760405162461bcd60e51b815260206004820152602f60248201527f4d656469613a20746f6b656e20646f6573206e6f74206861766520686173682060448201526e6f6620697473206d6574616461746160881b60648201526084016107ce565b84848080601f0160208091040260200160405190810160405280939291908181526020018383808284376000920191909152505082511515915061153f90505760405162461bcd60e51b81526004016107ce90614182565b61157f8787878080601f0160208091040260200160405190810160405280939291908181526020018383808284376000920191909152506125f492505050565b867fe3df41127db820c79e5b8d541a63e40e3e97b9af96f7a50bded13091b70df9ae338888604051610e5a93929190613e0f565b6002600b5414156115d65760405162461bcd60e51b81526004016107ce9061414b565b6002600b55805115806115ea575080514211155b6116335760405162461bcd60e51b815260206004820152601a6024820152791359591a584e881b5a5b9d15da5d1a14da59c8195e1c1a5c995960321b60448201526064016107ce565b600061163d612072565b6040808601516060870151602080880151516001600160a01b038b16600090815260179092529381208054959650909486947f2952e482b8e2b192305f87374d7af45dc2eafafe4f50d26a0c02e90f2fdbe14b949392909190876116a083614440565b9091555088516040805160208101979097528601949094526060850192909252608084015260a083015260c082015260e001604051602081830303815290604052805190602001206040516020016116f9929190613da3565b6040516020818303038152906040528051906020012090506000600182856020015186604001518760600151604051600081526020016040526040516117429493929190613e4f565b6020604051602081039080840390855afa158015611764573d6000803e3d6000fd5b5050604051601f1901519150506001600160a01b0381161580159061179a5750806001600160a01b0316876001600160a01b0316145b6117b65760405162461bcd60e51b81526004016107ce906140e7565b610bcd81878760405180602001604052806000815250612333565b6060600880546106e39061440b565b6001600160a01b0382163314156118355760405162461bcd60e51b815260206004820152601960248201527822a9219b99189d1030b8383937bb32903a379031b0b63632b960391b60448201526064016107ce565b3360008181526006602090815260408083206001600160a01b03871680855290835292819020805460ff191686151590811790915590519081529192917f17307eab39ab6107e8899845ad3d59bd9653f200f220920489ca2b5937696c31910160405180910390a35050565b6002600b5414156118c45760405162461bcd60e51b81526004016107ce9061414b565b6002600b556118d281610766565b6001600160a01b0316336001600160a01b03161461193d5760405162461bcd60e51b815260206004820152602260248201527f4d656469613a2063616c6c6572206e6f7420617070726f766564206164647265604482015261737360f01b60648201526084016107ce565b611948600082612004565b506001600b55565b6002600b5414156119735760405162461bcd60e51b81526004016107ce9061414b565b6002600b55808061198360185490565b10156119a15760405162461bcd60e51b81526004016107ce90613f90565b600e5460405163776a083560e01b8152600481018490523360248201526001600160a01b039091169063776a083590604401600060405180830381600087803b1580156119ed57600080fd5b505af1158015611a01573d6000803e3d6000fd5b50506001600b5550505050565b600e546001600160a01b03163314611a385760405162461bcd60e51b81526004016107ce9061402a565b611a4182611350565b6000838152600f6020526040902080546001600160a01b0319166001600160a01b0392909216919091179055611a80611a7983611350565b82846122ca565b5050565b611a8e3383612161565b611aaa5760405162461bcd60e51b81526004016107ce90614096565b611ab684848484612639565b50505050565b6002600b541415611adf5760405162461bcd60e51b81526004016107ce9061414b565b6002600b553382611aef8261214d565b80611aff5750611aff8282612161565b611b1b5760405162461bcd60e51b81526004016107ce9061405f565b600e5460405163ba33939960e01b81526001600160a01b039091169063ba33939990611313908790879060040161431a565b60608180611b5a60185490565b1015611b785760405162461bcd60e51b81526004016107ce90613f90565b60008381526009602052604081208054611b919061440b565b80601f0160208091040260200160405190810160405280929190818152602001828054611bbd9061440b565b8015611c0a5780601f10611bdf57610100808354040283529160200191611c0a565b820191906000526020600020905b815481529060010190602001808311611bed57829003601f168201915b509398975050505050505050565b6002600b541415611c3b5760405162461bcd60e51b81526004016107ce9061414b565b6002600b5580611c4a81610687565b611c665760405162461bcd60e51b81526004016107ce90614119565b8282611c713361214d565b80611c815750611c818282612161565b611c9d5760405162461bcd60e51b81526004016107ce9061405f565b611154846125a4565b600c546001600160a01b03163314611d005760405162461bcd60e51b815260206004820152601d60248201527f4d61726b65743a204f6e6c79206f776e6572206861732061636365737300000060448201526064016107ce565b6001600160a01b038216611d715760405162461bcd60e51b815260206004820152603260248201527f4d61726b65743a2063616e6e6f7420736574206b656570657220636f6e7472616044820152716374206173207a65726f206164647265737360701b60648201526084016107ce565b6001600160a01b038116611de25760405162461bcd60e51b815260206004820152603260248201527f4d61726b65743a2063616e6e6f7420736574206d61726b657420636f6e7472616044820152716374206173207a65726f206164647265737360701b60648201526084016107ce565b600d80546001600160a01b039384166001600160a01b031991821617909155600e8054929093169116179055565b6001600160a01b03918216600090815260066020908152604080832093909416825291909152205460ff1690565b611e4661313a565b6002600b541415611e695760405162461bcd60e51b81526004016107ce9061414b565b6002600b55604080518082018252600981526836b4b73a2a37b5b2b760b91b602082015290830151611e9d9190859061266c565b611ea783836126b3565b9150611ece8383610140015184610160015160405180602001604052806000815250612333565b6000611ed984610e70565b606084015250506001600b55919050565b600e546001600160a01b03163314611f145760405162461bcd60e51b81526004016107ce9061402a565b611f1d82611350565b6000838152600f6020526040902080546001600160a01b0319166001600160a01b0392909216919091179055611a80611f5583611350565b828460405180602001604052806000815250612639565b6000610692600283612776565b611a808282604051602401611f8f929190613e80565b60408051601f198184030181529190526020810180516001600160e01b031663319af33360e01b179052612782565b61200181604051602401611fd29190613dbe565b60408051601f198184030181529190526020810180516001600160e01b031663161765e160e11b179052612782565b50565b600081815260056020526040902080546001600160a01b0319166001600160a01b038416908117909155819061203982611350565b6001600160a01b03167f8c5be1e5ebec7d5bd14f71427d1e84f3dd0314c0f7b2291e5b200ac8c7c3b92560405160405180910390a45050565b604080518082018252600981526843727970746f5a6f6f60b81b6020918201528151808301835260018152603160f81b9082015281517f5f0ab12ddd209342520b36ea8b7094f9f2ce050c5ecf3c3089d43aaef6ce395e818301527fc546bd27cb87e09030592d50b7a6eb23f56c4c0a6444469d7593ecdf7b622945818401527fc89efdaa54c0f20c7adf612882df0950f5a951637e0307cdcb4c672f298b8bc660608201524660808201523060a0808301919091528351808303909101815260c0909101909252815191012090565b6000610692826127a3565b600d546001600160a01b0390811691161490565b600061216c82611f6c565b6121cd5760405162461bcd60e51b815260206004820152602c60248201527f4552433732313a206f70657261746f7220717565727920666f72206e6f6e657860448201526b34b9ba32b73a103a37b5b2b760a11b60648201526084016107ce565b60006121d883611350565b9050806001600160a01b0316846001600160a01b031614806122135750836001600160a01b031661220884610766565b6001600160a01b0316145b8061222357506122238185611e10565b949350505050565b61223482611f6c565b6122955760405162461bcd60e51b815260206004820152602c60248201527f4552433732314d657461646174613a2055524920736574206f66206e6f6e657860448201526b34b9ba32b73a103a37b5b2b760a11b60648201526084016107ce565b6000828152600960209081526040909120825161093392840190613255565b6000610692825490565b6000610ec583836127ae565b600e546040516328220f3560e01b8152600481018390526001600160a01b03909116906328220f3590602401600060405180830381600087803b15801561231057600080fd5b505af1158015612324573d6000803e3d6000fd5b505050506109338383836127e6565b825180516123535760405162461bcd60e51b81526004016107ce90614182565b602084015180516123765760405162461bcd60e51b81526004016107ce90614182565b6123b96040518060400160405280600f81526020016e2fb6b4b73a2337b921b932b0ba37b960891b81525086600001518760200151876020015160000151612955565b60408501516124165760405162461bcd60e51b8152602060048201526024808201527f4d656469613a20636f6e74656e742068617368206d757374206265206e6f6e2d6044820152637a65726f60e01b60648201526084016107ce565b60608501516124755760405162461bcd60e51b815260206004820152602560248201527f4d656469613a206d657461646174612068617368206d757374206265206e6f6e6044820152642d7a65726f60d81b60648201526084016107ce565b612483601880546001019055565b600061248e60185490565b90506124bc6040518060400160405280600981526020016817dcd85999535a5b9d60ba1b815250888361299e565b6124c78782866129e5565b6124d5818760400151612a18565b6124e3818760600151612a51565b6124f18187602001516125f4565b6124ff81876000015161222b565b6001600160a01b03871660009081526011602052604090206125219082612a8a565b50604080870151600090815260156020908152828220805460ff191660011790558382526010815282822080546001600160a01b038c166001600160a01b03199182168117909255600f835292849020805490931617909155815160608101909252602480835261259b929161451990830139888361299e565b50505050505050565b6125ad81612a96565b6000908152600f6020526040902080546001600160a01b0319169055565b60008080806125da8686612b3e565b9097909650945050505050565b6000612223848484612b69565b816125fe81610687565b61261a5760405162461bcd60e51b81526004016107ce90614119565b60008381526014602090815260409091208351611ab692850190613255565b6126448484846122ca565b61265084848484612bb5565b611ab65760405162461bcd60e51b81526004016107ce90613fd8565b61093383838360405160240161268493929190613eaa565b60408051601f198184030181529190526020810180516001600160e01b031663e0e9ad4f60e01b179052612782565b6126bb61313a565b6126fa6040518060400160405280600a8152602001692fb430b9b42a37b5b2b760b11b8152508361014001516000015184610140015160200151612c86565b61014082015151604051612715919043908690602001613d6f565b60408051601f1981840301815291815281516020928301206101408501805183019190915251820151905161274e924391879101613d6f565b60408051808303601f1901815291905280516020909101206101408301516060015250919050565b6000610ec58383612ccd565b80516a636f6e736f6c652e6c6f67602083016000808483855afa5050505050565b6000610692826122b4565b60008260000182815481106127d357634e487b7160e01b600052603260045260246000fd5b9060005260206000200154905092915050565b826001600160a01b03166127f982611350565b6001600160a01b0316146128615760405162461bcd60e51b815260206004820152602960248201527f4552433732313a207472616e73666572206f6620746f6b656e2074686174206960448201526839903737ba1037bbb760b91b60648201526084016107ce565b6001600160a01b0382166128c35760405162461bcd60e51b8152602060048201526024808201527f4552433732313a207472616e7366657220746f20746865207a65726f206164646044820152637265737360e01b60648201526084016107ce565b6128ce600082612004565b6001600160a01b03831660009081526001602052604090206128f09082612cd9565b506001600160a01b03821660009081526001602052604090206129139082612a8a565b5061292060028284612ce5565b5080826001600160a01b0316846001600160a01b03166000805160206144f983398151915260405160405180910390a4505050565b611ab68484848460405160240161296f9493929190613f45565b60408051601f198184030181529190526020810180516001600160e01b0316639fd009f560e01b179052612782565b6109338383836040516024016129b693929190613ede565b60408051601f198184030181529190526020810180516001600160e01b03166307c8121760e01b179052612782565b6129ef8383612cfb565b6129fc6000848484612bb5565b6109335760405162461bcd60e51b81526004016107ce90613fd8565b81612a2281610687565b612a3e5760405162461bcd60e51b81526004016107ce90614119565b5060009182526012602052604090912055565b81612a5b81610687565b612a775760405162461bcd60e51b81526004016107ce90614119565b5060009182526013602052604090912055565b6000610ec58383612e00565b6000612aa182611350565b9050612aae600083612004565b60008281526009602052604090208054612ac79061440b565b159050612ae5576000828152600960205260408120612ae5916132d9565b6001600160a01b0381166000908152600160205260409020612b079083612cd9565b50612b13600283612e4f565b5060405182906000906001600160a01b038416906000805160206144f9833981519152908390a45050565b60008080612b4c85856122be565b600081815260029690960160205260409095205494959350505050565b600082815260028401602052604081205480151580612b8d5750612b8d8585612ccd565b8390612bac5760405162461bcd60e51b81526004016107ce9190613e6d565b50949350505050565b60006001600160a01b0384163b612bce57506001612223565b6000612c4f630a85bd0160e11b33888787604051602401612bf29493929190613dd2565b604051602081830303815290604052906001600160e01b0319166020820180516001600160e01b03838183161783525050505060405180606001604052806032815260200161449e603291396001600160a01b0388169190612e5b565b9050600081806020019051810190612c679190613a2c565b6001600160e01b031916630a85bd0160e11b1492505050949350505050565b610933838383604051602401612c9e93929190613f0c565b60408051601f198184030181529190526020810180516001600160e01b0316632ced7cef60e01b179052612782565b6000610ec58383612e6a565b6000610ec58383612e82565b600061222384846001600160a01b038516612f9f565b6001600160a01b038216612d515760405162461bcd60e51b815260206004820181905260248201527f4552433732313a206d696e7420746f20746865207a65726f206164647265737360448201526064016107ce565b612d5a81611f6c565b15612da65760405162461bcd60e51b815260206004820152601c60248201527b115490cdcc8c4e881d1bdad95b88185b1c9958591e481b5a5b9d195960221b60448201526064016107ce565b6001600160a01b0382166000908152600160205260409020612dc89082612a8a565b50612dd560028284612ce5565b5060405181906001600160a01b038416906000906000805160206144f9833981519152908290a45050565b6000818152600183016020526040812054612e4757508154600181810184556000848152602080822090930184905584548482528286019093526040902091909155610692565b506000610692565b6000610ec58383612fbc565b60606122238484600085612fd9565b60008181526001830160205260408120541515610ec5565b60008181526001830160205260408120548015612f95576000612ea66001836143c8565b8554909150600090612eba906001906143c8565b9050818114612f3b576000866000018281548110612ee857634e487b7160e01b600052603260045260246000fd5b9060005260206000200154905080876000018481548110612f1957634e487b7160e01b600052603260045260246000fd5b6000918252602080832090910192909255918252600188019052604090208390555b8554869080612f5a57634e487b7160e01b600052603160045260246000fd5b600190038181906000526020600020016000905590558560010160008681526020019081526020016000206000905560019350505050610692565b6000915050610692565b600082815260028401602052604081208290556122238484612a8a565b60008181526002830160205260408120819055610ec58383612cd9565b60608247101561303a5760405162461bcd60e51b815260206004820152602660248201527f416464726573733a20696e73756666696369656e742062616c616e636520666f6044820152651c8818d85b1b60d21b60648201526084016107ce565b843b6130885760405162461bcd60e51b815260206004820152601d60248201527f416464726573733a2063616c6c20746f206e6f6e2d636f6e747261637400000060448201526064016107ce565b600080866001600160a01b031685876040516130a49190613d53565b60006040518083038185875af1925050503d80600081146130e1576040519150601f19603f3d011682016040523d82523d6000602084013e6130e6565b606091505b50915091506130f6828286613101565b979650505050505050565b60608315613110575081610ec5565b8251156131205782518084602001fd5b8160405162461bcd60e51b81526004016107ce9190613e6d565b6040805161020081019091526060610180820190815260006101a083018190526101c083018190526101e0830152819081526020016000815260200160608152602001600081526020016000815260200160008152602001606081526020016131c46040518060800160405280606081526020016060815260200160008152602001600081525090565b81526020016131e6604051806040016040528060008152602001600081525090565b81526040805160808101825260008082526020828101829052928201819052606082015291019081526020016132436040518060800160405280606081526020016060815260200160008019168152602001600080191681525090565b8152602001613250613313565b905290565b8280546132619061440b565b90600052602060002090601f01602090048101928261328357600085556132c9565b82601f1061329c57805160ff19168380011785556132c9565b828001600101855582156132c9579182015b828111156132c95782518255916020019190600101906132ae565b506132d5929150613340565b5090565b5080546132e59061440b565b6000825580601f106132f5575050565b601f0160209004906000526020600020908101906120019190613340565b6040518060600160405280613326613355565b8152602001613333613355565b8152602001613250613355565b5b808211156132d55760008155600101613341565b6040518060200160405280600081525090565b60006001600160401b038084111561338257613382614471565b604051601f8501601f19908116603f011681019082821181831017156133aa576133aa614471565b816040528093508581528686860111156133c357600080fd5b858560208301376000602087830101525050509392505050565b80356001600160a01b03811681146133f457600080fd5b919050565b803580151581146133f457600080fd5b8035600481106133f457600080fd5b600082601f830112613428578081fd5b610ec583833560208501613368565b600060608284031215613448578081fd5b604051606081018181106001600160401b038211171561346a5761346a614471565b60405290508061347a84846134d6565b815261348984602085016134d6565b602082015261349b84604085016134d6565b60408201525092915050565b6000604082840312156134b8578081fd5b6134c061435b565b9050813581526020820135602082015292915050565b6000602082840312156134e7578081fd5b604051602081018181106001600160401b038211171561350957613509614471565b6040529135825250919050565b600060808284031215613527578081fd5b61352f614383565b905081358152602082013560ff8116811461354957600080fd5b80602083015250604082013560408201526060820135606082015292915050565b60006080828403121561357b578081fd5b613583614383565b905081356001600160401b038082111561359c57600080fd5b6135a885838601613418565b835260208401359150808211156135be57600080fd5b506135cb84828501613418565b602083015250604082013560408201526060820135606082015292915050565b6000608082840312156135fc578081fd5b613604614383565b90508135815260208201356020820152613620604083016133f9565b6040820152613631606083016133f9565b606082015292915050565b60006080828403121561364d578081fd5b613655614383565b905081356001600160401b0381111561366d57600080fd5b61367984828501613418565b82525060208201356020820152604082013560408201526060820135606082015292915050565b6000602082840312156136b1578081fd5b610ec5826133dd565b600080604083850312156136cc578081fd5b6136d5836133dd565b91506136e3602084016133dd565b90509250929050565b600080600060608486031215613700578081fd5b613709846133dd565b9250613717602085016133dd565b9150604084013590509250925092565b6000806000806080858703121561373c578182fd5b613745856133dd565b9350613753602086016133dd565b92506040850135915060608501356001600160401b03811115613774578182fd5b8501601f81018713613784578182fd5b61379387823560208401613368565b91505092959194509250565b600080604083850312156137b1578182fd5b6137ba836133dd565b91506136e3602084016133f9565b60008060008061012085870312156137de578182fd5b6137e7856133dd565b935060208501356001600160401b03811115613801578283fd5b61380d8782880161356a565b93505061381d8660408701613437565b915061382c8660a08701613516565b905092959194509250565b60008060408385031215613849578182fd5b613852836133dd565b915060208301356001600160401b038082111561386d578283fd5b908401906102408287031215613881578283fd5b6138896143a5565b823582811115613897578485fd5b6138a38882860161363c565b8252506138b260208401613409565b60208201526040830135828111156138c8578485fd5b6138d488828601613418565b604083015250606083013560608201526080830135608082015260a083013560a082015260c083013582811115613909578485fd5b61391588828601613418565b60c08301525060e08301358281111561392c578485fd5b6139388882860161356a565b60e08301525061010061394d888286016134a7565b90820152610140613960888583016135eb565b6101208301526101c084013583811115613978578586fd5b6139848982870161356a565b828401525050613998876101e08501613437565b6101608201528093505050509250929050565b600080604083850312156139bd578182fd5b6139c6836133dd565b946020939093013593505050565b600080600060c084860312156139e8578081fd5b6139f1846133dd565b925060208401359150613a078560408601613516565b90509250925092565b600060208284031215613a21578081fd5b8135610ec581614487565b600060208284031215613a3d578081fd5b8151610ec581614487565b60008060808385031215613a5a578182fd5b82356001600160401b03811115613a6f578283fd5b613a7b8582860161356a565b9250506136e38460208501613437565b600060208284031215613a9c578081fd5b5035919050565b60008060408385031215613ab5578182fd5b823591506136e3602084016133dd565b600080600060408486031215613ad9578081fd5b8335925060208401356001600160401b0380821115613af6578283fd5b818601915086601f830112613b09578283fd5b813581811115613b17578384fd5b876020828501011115613b28578384fd5b6020830194508093505050509250925092565b6000808284036060811215613b4e578283fd5b833592506040601f1982011215613b63578182fd5b50613b6c61435b565b60208401358152613b7f604085016133dd565b6020820152809150509250929050565b60008082840360c0811215613ba2578283fd5b8335925060a0601f1982011215613bb7578182fd5b5060405160a081018181106001600160401b0382111715613bda57613bda614471565b806040525060208401358152613bf2604085016133dd565b6020820152613c03606085016133dd565b6040820152613c14608085016133dd565b6060820152613c268560a086016134d6565b6080820152809150509250929050565b60008151808452613c4e8160208601602086016143df565b601f01601f19169290920160200192915050565b60048110613c8057634e487b7160e01b600052602160045260246000fd5b9052565b805182526020808201516001600160a01b03908116918401919091526040808301518216908401526060808301519091169083015260809081015151910152565b6000815160808452613cda6080850182613c36565b905060208301518482036020860152613cf38282613c36565b91505060408301516040850152606083015160608501528091505092915050565b6000815160808452613d296080850182613c36565b90506020830151602085015260408301516040850152606083015160608501528091505092915050565b60008251613d658184602087016143df565b9190910192915050565b60008451613d818184602089016143df565b919091019283525060601b6001600160601b0319166020820152603401919050565b61190160f01b81526002810192909252602282015260420190565b6001600160a01b0391909116815260200190565b6001600160a01b0385811682528416602082015260408101839052608060608201819052600090613e0590830184613c36565b9695505050505050565b6001600160a01b03841681526040602082018190528101829052818360608301376000818301606090810191909152601f909201601f1916010192915050565b93845260ff9290921660208401526040830152606082015260800190565b602081526000610ec56020830184613c36565b604081526000613e936040830185613c36565b905060018060a01b03831660208301529392505050565b606081526000613ebd6060830186613c36565b6001600160a01b03851660208401528281036040840152613e058185613c36565b606081526000613ef16060830186613c36565b6001600160a01b039490941660208301525060400152919050565b606081526000613f1f6060830186613c36565b8281036020840152613f318186613c36565b90508281036040840152613e058185613c36565b608081526000613f586080830187613c36565b8281036020840152613f6a8187613c36565b90508281036040840152613f7e8186613c36565b91505082606083015295945050505050565b60208082526028908201527f4d656469613a20746f6b656e2077697468207468617420696420646f6573206e6040820152671bdd08195e1a5cdd60c21b606082015260800190565b60208082526032908201527f4552433732313a207472616e7366657220746f206e6f6e20455243373231526560408201527131b2b4bb32b91034b6b83632b6b2b73a32b960711b606082015260800190565b6020808252601b908201527a1359591a584e881bdb9b1e481b585c9ad95d0818dbdb9d1c9858dd602a1b604082015260600190565b6020808252601d908201527f4d656469613a204f6e6c7920617070726f766564206f72206f776e6572000000604082015260600190565b60208082526031908201527f4552433732313a207472616e736665722063616c6c6572206973206e6f74206f6040820152701ddb995c881b9bdc88185c1c1c9bdd9959607a1b606082015260800190565b6020808252601890820152771359591a584e8814da59db985d1d5c99481a5b9d985b1a5960421b604082015260600190565b60208082526018908201527726b2b234b09d103737b732bc34b9ba32b73a103a37b5b2b760411b604082015260600190565b6020808252601f908201527f5265656e7472616e637947756172643a207265656e7472616e742063616c6c00604082015260600190565b60208082526026908201527f4d656469613a2073706563696669656420757269206d757374206265206e6f6e6040820152652d656d70747960d01b606082015260800190565b602081526000825161024060208401526141e6610260840182613d14565b905060208401516141fa6040850182613c62565b506040840151601f19808584030160608601526142178383613c36565b925060608601516080860152608086015160a086015260a086015160c086015260c08601519150808584030160e08601526142528383613c36565b925060e086015191506101008186850301818701526142718484613cc5565b9350808701519250506101206142938187018480518252602090810151910152565b86015191506101606142cc8682018480518252602081015160208301526040810151151560408301526060810151151560608301525050565b610140870151925081868503016101e08701526142e98484613cc5565b90870151805151610200880152602081015151610220880152604081015151610240880152909350915061117a9050565b82815260c08101610ec56020830184613c84565b83815260e081016143426020830185613c84565b6001600160a01b039290921660c0919091015292915050565b604080519081016001600160401b038111828210171561437d5761437d614471565b60405290565b604051608081016001600160401b038111828210171561437d5761437d614471565b60405161018081016001600160401b038111828210171561437d5761437d614471565b6000828210156143da576143da61445b565b500390565b60005b838110156143fa5781810151838201526020016143e2565b83811115611ab65750506000910152565b600181811c9082168061441f57607f821691505b60208210811415610ca057634e487b7160e01b600052602260045260246000fd5b60006000198214156144545761445461445b565b5060010190565b634e487b7160e01b600052601160045260246000fd5b634e487b7160e01b600052604160045260246000fd5b6001600160e01b03198116811461200157600080fdfe4552433732313a207472616e7366657220746f206e6f6e20455243373231526563656976657220696d706c656d656e7465724552433732313a206f776e657220717565727920666f72206e6f6e6578697374656e7420746f6b656eddf252ad1be2c89b69c2b068fc378daa952ba7f163c4a11628f55a4df523b3ef5f63726561746f72546f6b656e735b63726561746f725d2e61646428746f6b656e494429a264697066735822122039cd959349aef893290dd49faa8625af9ea0050910ecda97c7da11b59249052764736f6c63430008040033",
  "libraries": {},
  "devdoc": {
    "kind": "dev",
    "methods": {
      "approve(address,uint256)": {
        "details": "See {IERC721-approve}."
      },
      "balanceOf(address)": {
        "details": "See {IERC721-balanceOf}."
      },
      "baseURI()": {
        "details": "Returns the base URI set via {_setBaseURI}. This will be automatically added as a prefix in {tokenURI} to each token's URI, or to the token ID if no specific URI is set for that token ID."
      },
      "burn(uint256)": {
        "details": "Only callable if the media owner is also the creator."
      },
      "getApproved(uint256)": {
        "details": "See {IERC721-getApproved}."
      },
      "isApprovedForAll(address,address)": {
        "details": "See {IERC721-isApprovedForAll}."
      },
      "isApprovedOrOwner(address,uint256)": {
        "details": "Public method which returns whether `spender` is allowed to manage `tokenID`. Requirements: - `tokenID` must exist."
      },
      "name()": {
        "details": "See {IERC721Metadata-name}."
      },
      "ownerOf(uint256)": {
        "details": "See {IERC721-ownerOf}."
      },
      "permit(address,uint256,(uint256,uint8,bytes32,bytes32))": {
        "details": "This method is loosely based on the permit for ERC-20 tokens in  EIP-2612, but modified for ERC-721."
      },
      "safeTransferFrom(address,address,uint256)": {
        "details": "See {IERC721-safeTransferFrom}."
      },
      "safeTransferFrom(address,address,uint256,bytes)": {
        "details": "See {IERC721-safeTransferFrom}."
      },
      "setApprovalForAll(address,bool)": {
        "details": "See {IERC721-setApprovalForAll}."
      },
      "supportsInterface(bytes4)": {
        "details": "See {IERC165-supportsInterface}."
      },
      "symbol()": {
        "details": "See {IERC721Metadata-symbol}."
      },
      "tokenByIndex(uint256)": {
        "details": "See {IERC721Enumerable-tokenByIndex}."
      },
      "tokenMetadataURI(uint256)": {
        "returns": {
          "_0": "the metadata URI for the token"
        }
      },
      "tokenOfOwnerByIndex(address,uint256)": {
        "details": "See {IERC721Enumerable-tokenOfOwnerByIndex}."
      },
      "tokenURI(uint256)": {
        "details": "This function is an override of the base OZ implementation because we will return the tokenURI even if the media has been burned. In addition, this protocol does not support a base URI, so relevant conditionals are removed.",
        "returns": {
          "_0": "the URI for a token"
        }
      },
      "totalSupply()": {
        "details": "See {IERC721Enumerable-totalSupply}."
      },
      "transferFrom(address,address,uint256)": {
        "details": "See {IERC721-transferFrom}."
      },
      "updateTokenMetadataURI(uint256,string)": {
        "details": "only callable by approved or owner"
      },
      "updateTokenURI(uint256,string)": {
        "details": "only callable by approved or owner"
      }
    },
    "title": "A media value system, with perpetual equity to creators",
    "version": 1
  },
  "userdoc": {
    "kind": "user",
    "methods": {
      "acceptBid(uint256,(uint256,address,address,address,(uint256)))": {
        "notice": "see IMedia"
      },
      "auctionTransfer(uint256,address)": {
        "notice": "see IMedia"
      },
      "burn(uint256)": {
        "notice": "Burn a token."
      },
      "configure(address,address)": {
        "notice": "Sets the media contract address. This address is the only permitted address that can call the mutable functions. This method can only be called once."
      },
      "constructor": {
        "notice": "On deployment, set the market contract address and register the ERC721 metadata interface"
      },
      "getRecentToken(address)": {
        "notice": "see IMedia"
      },
      "mint((string,string,bytes32,bytes32),((uint256),(uint256),(uint256)))": {
        "notice": "see IMedia"
      },
      "mintWithSig(address,(string,string,bytes32,bytes32),((uint256),(uint256),(uint256)),(uint256,uint8,bytes32,bytes32))": {
        "notice": "see IMedia"
      },
      "permit(address,uint256,(uint256,uint8,bytes32,bytes32))": {
        "notice": "See IMedia"
      },
      "removeAsk(uint256)": {
        "notice": "see IMedia"
      },
      "removeBid(uint256)": {
        "notice": "see IMedia"
      },
      "revokeApproval(uint256)": {
        "notice": "Revoke the approvals for a token. The provided `approve` function is not sufficient for this protocol, as it does not allow an approved address to revoke it's own approval. In instances where a 3rd party is interacting on a user's behalf via `permit`, they should revoke their approval once their task is complete as a best practice."
      },
      "setAsk(uint256,(uint256,address))": {
        "notice": "see IMedia"
      },
      "setBid(uint256,(uint256,address,address,address,(uint256)))": {
        "notice": "see IMedia"
      },
      "tokenExists(uint256)": {
        "notice": "Helper to check that token has not been burned or minted"
      },
      "tokenMetadataURI(uint256)": {
        "notice": "Return the metadata URI for a piece of media given the token URI"
      },
      "tokenURI(uint256)": {
        "notice": "return the URI for a particular piece of media with the specified tokenID"
      },
      "transfer(uint256,address)": {
        "notice": "see IMedia"
      },
      "updateTokenMetadataURI(uint256,string)": {
        "notice": "see IMedia"
      },
      "updateTokenURI(uint256,string)": {
        "notice": "see IMedia"
      }
    },
    "notice": "This contract provides an interface to mint media with a market",
    "version": 1
  },
  "storageLayout": {
    "storage": [
      {
        "astId": 4194,
        "contract": "src/Media.sol:Media",
        "label": "_supportedInterfaces",
        "offset": 0,
        "slot": "0",
        "type": "t_mapping(t_bytes4,t_bool)"
      },
      {
        "astId": 9034,
        "contract": "src/Media.sol:Media",
        "label": "_holderTokens",
        "offset": 0,
        "slot": "1",
        "type": "t_mapping(t_address,t_struct(UintSet)5595_storage)"
      },
      {
        "astId": 9037,
        "contract": "src/Media.sol:Media",
        "label": "_tokenOwners",
        "offset": 0,
        "slot": "2",
        "type": "t_struct(UintToAddressMap)4892_storage"
      },
      {
        "astId": 9041,
        "contract": "src/Media.sol:Media",
        "label": "_tokenApprovals",
        "offset": 0,
        "slot": "5",
        "type": "t_mapping(t_uint256,t_address)"
      },
      {
        "astId": 9047,
        "contract": "src/Media.sol:Media",
        "label": "_operatorApprovals",
        "offset": 0,
        "slot": "6",
        "type": "t_mapping(t_address,t_mapping(t_address,t_bool))"
      },
      {
        "astId": 9049,
        "contract": "src/Media.sol:Media",
        "label": "_name",
        "offset": 0,
        "slot": "7",
        "type": "t_string_storage"
      },
      {
        "astId": 9051,
        "contract": "src/Media.sol:Media",
        "label": "_symbol",
        "offset": 0,
        "slot": "8",
        "type": "t_string_storage"
      },
      {
        "astId": 9055,
        "contract": "src/Media.sol:Media",
        "label": "_tokenURIs",
        "offset": 0,
        "slot": "9",
        "type": "t_mapping(t_uint256,t_string_storage)"
      },
      {
        "astId": 9057,
        "contract": "src/Media.sol:Media",
        "label": "_baseURI",
        "offset": 0,
        "slot": "10",
        "type": "t_string_storage"
      },
      {
        "astId": 1591,
        "contract": "src/Media.sol:Media",
        "label": "_status",
        "offset": 0,
        "slot": "11",
        "type": "t_uint256"
      },
      {
        "astId": 12070,
        "contract": "src/Media.sol:Media",
        "label": "_owner",
        "offset": 0,
        "slot": "12",
        "type": "t_address"
      },
      {
        "astId": 12072,
        "contract": "src/Media.sol:Media",
        "label": "keeperAddress",
        "offset": 0,
        "slot": "13",
        "type": "t_address"
      },
      {
        "astId": 12074,
        "contract": "src/Media.sol:Media",
        "label": "marketAddress",
        "offset": 0,
        "slot": "14",
        "type": "t_address"
      },
      {
        "astId": 12078,
        "contract": "src/Media.sol:Media",
        "label": "previousTokenOwners",
        "offset": 0,
        "slot": "15",
        "type": "t_mapping(t_uint256,t_address)"
      },
      {
        "astId": 12082,
        "contract": "src/Media.sol:Media",
        "label": "tokenCreators",
        "offset": 0,
        "slot": "16",
        "type": "t_mapping(t_uint256,t_address)"
      },
      {
        "astId": 12087,
        "contract": "src/Media.sol:Media",
        "label": "_creatorTokens",
        "offset": 0,
        "slot": "17",
        "type": "t_mapping(t_address,t_struct(UintSet)5595_storage)"
      },
      {
        "astId": 12091,
        "contract": "src/Media.sol:Media",
        "label": "tokenContentHashes",
        "offset": 0,
        "slot": "18",
        "type": "t_mapping(t_uint256,t_bytes32)"
      },
      {
        "astId": 12095,
        "contract": "src/Media.sol:Media",
        "label": "tokenMetadataHashes",
        "offset": 0,
        "slot": "19",
        "type": "t_mapping(t_uint256,t_bytes32)"
      },
      {
        "astId": 12099,
        "contract": "src/Media.sol:Media",
        "label": "_tokenMetadataURIs",
        "offset": 0,
        "slot": "20",
        "type": "t_mapping(t_uint256,t_string_storage)"
      },
      {
        "astId": 12103,
        "contract": "src/Media.sol:Media",
        "label": "_contentHashes",
        "offset": 0,
        "slot": "21",
        "type": "t_mapping(t_bytes32,t_bool)"
      },
      {
        "astId": 12115,
        "contract": "src/Media.sol:Media",
        "label": "permitNonces",
        "offset": 0,
        "slot": "22",
        "type": "t_mapping(t_address,t_mapping(t_uint256,t_uint256))"
      },
      {
        "astId": 12119,
        "contract": "src/Media.sol:Media",
        "label": "mintWithSigNonces",
        "offset": 0,
        "slot": "23",
        "type": "t_mapping(t_address,t_uint256)"
      },
      {
        "astId": 12125,
        "contract": "src/Media.sol:Media",
        "label": "_tokenIDTracker",
        "offset": 0,
        "slot": "24",
        "type": "t_struct(Counter)3888_storage"
      }
    ],
    "types": {
      "t_address": {
        "encoding": "inplace",
        "label": "address",
        "numberOfBytes": "20"
      },
      "t_array(t_bytes32)dyn_storage": {
        "base": "t_bytes32",
        "encoding": "dynamic_array",
        "label": "bytes32[]",
        "numberOfBytes": "32"
      },
      "t_bool": {
        "encoding": "inplace",
        "label": "bool",
        "numberOfBytes": "1"
      },
      "t_bytes32": {
        "encoding": "inplace",
        "label": "bytes32",
        "numberOfBytes": "32"
      },
      "t_bytes4": {
        "encoding": "inplace",
        "label": "bytes4",
        "numberOfBytes": "4"
      },
      "t_mapping(t_address,t_bool)": {
        "encoding": "mapping",
        "key": "t_address",
        "label": "mapping(address => bool)",
        "numberOfBytes": "32",
        "value": "t_bool"
      },
      "t_mapping(t_address,t_mapping(t_address,t_bool))": {
        "encoding": "mapping",
        "key": "t_address",
        "label": "mapping(address => mapping(address => bool))",
        "numberOfBytes": "32",
        "value": "t_mapping(t_address,t_bool)"
      },
      "t_mapping(t_address,t_mapping(t_uint256,t_uint256))": {
        "encoding": "mapping",
        "key": "t_address",
        "label": "mapping(address => mapping(uint256 => uint256))",
        "numberOfBytes": "32",
        "value": "t_mapping(t_uint256,t_uint256)"
      },
      "t_mapping(t_address,t_struct(UintSet)5595_storage)": {
        "encoding": "mapping",
        "key": "t_address",
        "label": "mapping(address => struct EnumerableSet.UintSet)",
        "numberOfBytes": "32",
        "value": "t_struct(UintSet)5595_storage"
      },
      "t_mapping(t_address,t_uint256)": {
        "encoding": "mapping",
        "key": "t_address",
        "label": "mapping(address => uint256)",
        "numberOfBytes": "32",
        "value": "t_uint256"
      },
      "t_mapping(t_bytes32,t_bool)": {
        "encoding": "mapping",
        "key": "t_bytes32",
        "label": "mapping(bytes32 => bool)",
        "numberOfBytes": "32",
        "value": "t_bool"
      },
      "t_mapping(t_bytes32,t_bytes32)": {
        "encoding": "mapping",
        "key": "t_bytes32",
        "label": "mapping(bytes32 => bytes32)",
        "numberOfBytes": "32",
        "value": "t_bytes32"
      },
      "t_mapping(t_bytes32,t_uint256)": {
        "encoding": "mapping",
        "key": "t_bytes32",
        "label": "mapping(bytes32 => uint256)",
        "numberOfBytes": "32",
        "value": "t_uint256"
      },
      "t_mapping(t_bytes4,t_bool)": {
        "encoding": "mapping",
        "key": "t_bytes4",
        "label": "mapping(bytes4 => bool)",
        "numberOfBytes": "32",
        "value": "t_bool"
      },
      "t_mapping(t_uint256,t_address)": {
        "encoding": "mapping",
        "key": "t_uint256",
        "label": "mapping(uint256 => address)",
        "numberOfBytes": "32",
        "value": "t_address"
      },
      "t_mapping(t_uint256,t_bytes32)": {
        "encoding": "mapping",
        "key": "t_uint256",
        "label": "mapping(uint256 => bytes32)",
        "numberOfBytes": "32",
        "value": "t_bytes32"
      },
      "t_mapping(t_uint256,t_string_storage)": {
        "encoding": "mapping",
        "key": "t_uint256",
        "label": "mapping(uint256 => string)",
        "numberOfBytes": "32",
        "value": "t_string_storage"
      },
      "t_mapping(t_uint256,t_uint256)": {
        "encoding": "mapping",
        "key": "t_uint256",
        "label": "mapping(uint256 => uint256)",
        "numberOfBytes": "32",
        "value": "t_uint256"
      },
      "t_string_storage": {
        "encoding": "bytes",
        "label": "string",
        "numberOfBytes": "32"
      },
      "t_struct(Bytes32Set)5331_storage": {
        "encoding": "inplace",
        "label": "struct EnumerableSet.Bytes32Set",
        "members": [
          {
            "astId": 5330,
            "contract": "src/Media.sol:Media",
            "label": "_inner",
            "offset": 0,
            "slot": "0",
            "type": "t_struct(Set)5137_storage"
          }
        ],
        "numberOfBytes": "64"
      },
      "t_struct(Counter)3888_storage": {
        "encoding": "inplace",
        "label": "struct Counters.Counter",
        "members": [
          {
            "astId": 3887,
            "contract": "src/Media.sol:Media",
            "label": "_value",
            "offset": 0,
            "slot": "0",
            "type": "t_uint256"
          }
        ],
        "numberOfBytes": "32"
      },
      "t_struct(Map)4662_storage": {
        "encoding": "inplace",
        "label": "struct EnumerableMap.Map",
        "members": [
          {
            "astId": 4657,
            "contract": "src/Media.sol:Media",
            "label": "_keys",
            "offset": 0,
            "slot": "0",
            "type": "t_struct(Bytes32Set)5331_storage"
          },
          {
            "astId": 4661,
            "contract": "src/Media.sol:Media",
            "label": "_values",
            "offset": 0,
            "slot": "2",
            "type": "t_mapping(t_bytes32,t_bytes32)"
          }
        ],
        "numberOfBytes": "96"
      },
      "t_struct(Set)5137_storage": {
        "encoding": "inplace",
        "label": "struct EnumerableSet.Set",
        "members": [
          {
            "astId": 5132,
            "contract": "src/Media.sol:Media",
            "label": "_values",
            "offset": 0,
            "slot": "0",
            "type": "t_array(t_bytes32)dyn_storage"
          },
          {
            "astId": 5136,
            "contract": "src/Media.sol:Media",
            "label": "_indexes",
            "offset": 0,
            "slot": "1",
            "type": "t_mapping(t_bytes32,t_uint256)"
          }
        ],
        "numberOfBytes": "64"
      },
      "t_struct(UintSet)5595_storage": {
        "encoding": "inplace",
        "label": "struct EnumerableSet.UintSet",
        "members": [
          {
            "astId": 5594,
            "contract": "src/Media.sol:Media",
            "label": "_inner",
            "offset": 0,
            "slot": "0",
            "type": "t_struct(Set)5137_storage"
          }
        ],
        "numberOfBytes": "64"
      },
      "t_struct(UintToAddressMap)4892_storage": {
        "encoding": "inplace",
        "label": "struct EnumerableMap.UintToAddressMap",
        "members": [
          {
            "astId": 4891,
            "contract": "src/Media.sol:Media",
            "label": "_inner",
            "offset": 0,
            "slot": "0",
            "type": "t_struct(Map)4662_storage"
          }
        ],
        "numberOfBytes": "96"
      },
      "t_uint256": {
        "encoding": "inplace",
        "label": "uint256",
        "numberOfBytes": "32"
      }
    }
  }
}