{
  "address": "0xfa397EFCA5FD60E672EFCB511fDB885D815e2fb8",
  "abi": [
    {
      "inputs": [],
      "stateMutability": "nonpayable",
      "type": "constructor"
    },
    {
      "anonymous": false,
      "inputs": [
        {
          "indexed": false,
          "internalType": "address",
          "name": "b",
          "type": "address"
        },
        {
          "indexed": false,
          "internalType": "uint256",
          "name": "bAmount",
          "type": "uint256"
        },
        {
          "indexed": false,
          "internalType": "address",
          "name": "c",
          "type": "address"
        },
        {
          "indexed": false,
          "internalType": "uint256",
          "name": "cAmount",
          "type": "uint256"
        }
      ],
      "name": "Liquidity",
      "type": "event"
    },
    {
      "anonymous": false,
      "inputs": [
        {
          "indexed": false,
          "internalType": "address",
          "name": "pair",
          "type": "address"
        },
        {
          "indexed": false,
          "internalType": "address",
          "name": "b",
          "type": "address"
        },
        {
          "indexed": false,
          "internalType": "address",
          "name": "c",
          "type": "address"
        }
      ],
      "name": "Pair",
      "type": "event"
    },
    {
      "anonymous": false,
      "inputs": [
        {
          "indexed": false,
          "internalType": "uint256",
          "name": "amountIn",
          "type": "uint256"
        },
        {
          "indexed": false,
          "internalType": "uint256",
          "name": "amountOutMin",
          "type": "uint256"
        }
      ],
      "name": "SwapTokens",
      "type": "event"
    },
    {
      "inputs": [],
      "name": "balanceBNB",
      "outputs": [
        {
          "internalType": "uint256",
          "name": "",
          "type": "uint256"
        }
      ],
      "stateMutability": "view",
      "type": "function"
    },
    {
      "inputs": [],
      "name": "balanceZ1",
      "outputs": [
        {
          "internalType": "uint256",
          "name": "",
          "type": "uint256"
        }
      ],
      "stateMutability": "view",
      "type": "function"
    },
    {
      "inputs": [],
      "name": "balanceZOO",
      "outputs": [
        {
          "internalType": "uint256",
          "name": "",
          "type": "uint256"
        }
      ],
      "stateMutability": "view",
      "type": "function"
    },
    {
      "inputs": [],
      "name": "bnbAddress",
      "outputs": [
        {
          "internalType": "address",
          "name": "",
          "type": "address"
        }
      ],
      "stateMutability": "view",
      "type": "function"
    },
    {
      "inputs": [
        {
          "internalType": "address",
          "name": "_z1",
          "type": "address"
        },
        {
          "internalType": "address",
          "name": "_bnb",
          "type": "address"
        },
        {
          "internalType": "address",
          "name": "_zoo",
          "type": "address"
        },
        {
          "internalType": "address",
          "name": "_factory",
          "type": "address"
        },
        {
          "internalType": "address",
          "name": "_router",
          "type": "address"
        }
      ],
      "name": "configure",
      "outputs": [],
      "stateMutability": "nonpayable",
      "type": "function"
    },
    {
      "inputs": [],
      "name": "drainPool",
      "outputs": [],
      "stateMutability": "nonpayable",
      "type": "function"
    },
    {
      "inputs": [],
      "name": "factoryAddress",
      "outputs": [
        {
          "internalType": "address",
          "name": "",
          "type": "address"
        }
      ],
      "stateMutability": "view",
      "type": "function"
    },
    {
      "inputs": [],
      "name": "getInitHash",
      "outputs": [
        {
          "internalType": "bytes32",
          "name": "",
          "type": "bytes32"
        }
      ],
      "stateMutability": "view",
      "type": "function"
    },
    {
      "inputs": [],
      "name": "launchPool",
      "outputs": [
        {
          "internalType": "address",
          "name": "",
          "type": "address"
        }
      ],
      "stateMutability": "nonpayable",
      "type": "function"
    },
    {
      "inputs": [],
      "name": "routerAddress",
      "outputs": [
        {
          "internalType": "address",
          "name": "",
          "type": "address"
        }
      ],
      "stateMutability": "view",
      "type": "function"
    },
    {
      "inputs": [
        {
          "internalType": "uint256",
          "name": "amountIn",
          "type": "uint256"
        },
        {
          "internalType": "uint256",
          "name": "amountOutMin",
          "type": "uint256"
        }
      ],
      "name": "swapTokens",
      "outputs": [],
      "stateMutability": "nonpayable",
      "type": "function"
    },
    {
      "inputs": [
        {
          "internalType": "address",
          "name": "receiver",
          "type": "address"
        }
      ],
      "name": "withdrawAll",
      "outputs": [],
      "stateMutability": "nonpayable",
      "type": "function"
    },
    {
      "inputs": [],
      "name": "z1Address",
      "outputs": [
        {
          "internalType": "address",
          "name": "",
          "type": "address"
        }
      ],
      "stateMutability": "view",
      "type": "function"
    },
    {
      "inputs": [],
      "name": "zooAddress",
      "outputs": [
        {
          "internalType": "address",
          "name": "",
          "type": "address"
        }
      ],
      "stateMutability": "view",
      "type": "function"
    }
  ],
  "transactionHash": "0xd409368a727b2dbcece671e73cea80ca6cce7e7cd0b872f4bceb7d24de8bee87",
  "args": [],
  "solcInputHash": "4e5771324feeeaef1d3d8da816e2dda9",
  "bytecode": "0x608060405234801561001057600080fd5b50600a80546001600160a01b03191633179055614803806100326000396000f3fe608060405234801561001057600080fd5b50600436106100ea5760003560e01c806388ab076f1161008c578063a408096c11610066578063a408096c146101ca578063a7b4961f146101d2578063d11c583a146101da578063fa09e630146101e2576100ea565b806388ab076f14610197578063966dae0e146101ba578063a1d4958c146101c2576100ea565b8063382f2dc0116100c8578063382f2dc0146101355780633c9de1b81461013d5780635d33a1f414610145578063760fcb3e1461014d576100ea565b80630804c58b146100ef5780630b04fffe146101095780633268cc5614610111575b600080fd5b6100f7610208565b60408051918252519081900360200190f35b6100f7610285565b6101196102d0565b604080516001600160a01b039092168252519081900360200190f35b6100f76102df565b6100f761032a565b61011961043e565b610195600480360360a081101561016357600080fd5b506001600160a01b0381358116916020810135821691604082013581169160608101358216916080909101351661044d565b005b610195600480360360408110156101ad57600080fd5b508035906020013561052e565b610119610dd8565b610119610de7565b610119611366565b610195611375565b610119611562565b610195600480360360208110156101f857600080fd5b50356001600160a01b0316611571565b60008054604080516370a0823160e01b815230600482015290516001600160a01b03909216916370a0823191602480820192602092909190829003018186803b15801561025457600080fd5b505afa158015610268573d6000803e3d6000fd5b505050506040513d602081101561027e57600080fd5b5051905090565b600154604080516370a0823160e01b815230600482015290516000926001600160a01b0316916370a08231916024808301926020929190829003018186803b15801561025457600080fd5b6008546001600160a01b031690565b600254604080516370a0823160e01b815230600482015290516000926001600160a01b0316916370a08231916024808301926020929190829003018186803b15801561025457600080fd5b600060606040518060200161033e90612301565b6020820181038252601f19601f8201166040525090506103ca816040516020018082805190602001908083835b6020831061038a5780518252601f19909201916020918201910161036b565b6001836020036101000a03801982511681845116808217855250505050505090500191505060405160208183030381529060405280519060200120611b10565b806040516020018082805190602001908083835b602083106103fd5780518252601f1990920191602091820191016103de565b6001836020036101000a0380198251168184511680821785525050505050509050019150506040516020818303038152906040528051906020012091505090565b6007546001600160a01b031690565b600a546001600160a01b0316331461049a576040805162461bcd60e51b815260206004820152601d602482015260008051602061478a833981519152604482015290519081900360640190fd5b600580546001600160a01b039687166001600160a01b03199182168117909255600680549688169682168717905560078054958816958216861790556009805494881694821685179055600880549390971692811683179096556000805487169091179055600180548616909417909355600280548516909217909155600480548416909117905560038054909216179055565b600a546001600160a01b0316331461057b576040805162461bcd60e51b815260206004820152601d602482015260008051602061478a833981519152604482015290519081900360640190fd5b60408051808201909152600a81526973776170546f6b656e7360b01b6020820152600f4201906105ac908484611b54565b60408051808201825260148152733130b630b731b2a7b31036b9b39739b2b73232b960611b60208083019190915260005483516370a0823160e01b81523360048201529351610653946001600160a01b03909216926370a082319260248082019391829003018186803b15801561062257600080fd5b505afa158015610636573d6000803e3d6000fd5b505050506040513d602081101561064c57600080fd5b5051611c0a565b604080518082018252601081526f62616c616e63654f662073617661676560801b60208083019190915260005483516370a0823160e01b815230600482015293516106c5946001600160a01b03909216926370a082319260248082019391829003018186803b15801561062257600080fd5b604080518082018252601081526f3130b630b731b2a7b3103937baba32b960811b60208083019190915260005460085484516370a0823160e01b81526001600160a01b039182166004820152945161073c9591909216926370a0823192602480840193829003018186803b15801561062257600080fd5b61076f6040518060400160405280601081526020016f736166655472616e7366657246726f6d60801b8152503385611cbc565b600554610787906001600160a01b0316333086611d7b565b60408051808201825260148152733130b630b731b2a7b31036b9b39739b2b73232b960611b60208083019190915260005483516370a0823160e01b815233600482015293516107fd946001600160a01b03909216926370a082319260248082019391829003018186803b15801561062257600080fd5b604080518082018252601081526f62616c616e63654f662073617661676560801b60208083019190915260005483516370a0823160e01b8152306004820152935161086f946001600160a01b03909216926370a082319260248082019391829003018186803b15801561062257600080fd5b604080518082018252601081526f3130b630b731b2a7b3103937baba32b960811b60208083019190915260005460085484516370a0823160e01b81526001600160a01b03918216600482015294516108e69591909216926370a0823192602480840193829003018186803b15801561062257600080fd5b60408051808201909152600b81526a73616665417070726f766560a81b602082015260085461091f91906001600160a01b031685611cbc565b60055460085461093c916001600160a01b03908116911685611ed0565b6003546001600160a01b03166338ed1739848461095761203a565b30866040518663ffffffff1660e01b81526004018086815260200185815260200180602001846001600160a01b03168152602001838152602001828103825285818151815260200191508051906020019060200280838360005b838110156109c95781810151838201526020016109b1565b505050509050019650505050505050600060405180830381600087803b1580156109f257600080fd5b505af1158015610a06573d6000803e3d6000fd5b505050506040513d6000823e601f3d908101601f191682016040526020811015610a2f57600080fd5b8101908080516040519392919084640100000000821115610a4f57600080fd5b908301906020820185811115610a6457600080fd5b8251866020820283011164010000000082111715610a8157600080fd5b82525081516020918201928201910280838360005b83811015610aae578181015183820152602001610a96565b5050505090910160408181018152601782527f5a312062616c616e63654f66206d73672e73656e64657200000000000000000060208084019190915260005482516370a0823160e01b81523360048201529251610b3999509397506001600160a01b031695506370a08231945060248083019450909291829003018186803b15801561062257600080fd5b60408051808201825260138152725a312062616c616e63654f662073617661676560681b60208083019190915260005483516370a0823160e01b81523060048201529351610bae946001600160a01b03909216926370a082319260248082019391829003018186803b15801561062257600080fd5b60408051808201825260138152722d18903130b630b731b2a7b3103937baba32b960691b60208083019190915260005460085484516370a0823160e01b81526001600160a01b0391821660048201529451610c289591909216926370a0823192602480840193829003018186803b15801561062257600080fd5b604080518082018252601881527f424e422062616c616e63654f66206d73672e73656e646572000000000000000060208083019190915260015483516370a0823160e01b81523360048201529351610ca7946001600160a01b03909216926370a082319260248082019391829003018186803b15801561062257600080fd5b6040805180820182526014815273424e422062616c616e63654f662073617661676560601b60208083019190915260015483516370a0823160e01b81523060048201529351610d1d946001600160a01b03909216926370a082319260248082019391829003018186803b15801561062257600080fd5b6040805180820182526014815273212721103130b630b731b2a7b3103937baba32b960611b60208083019190915260015460085484516370a0823160e01b81526001600160a01b0391821660048201529451610d989591909216926370a0823192602480840193829003018186803b15801561062257600080fd5b604080518481526020810184905281517f738b737502df4c5f230bbb98a45ea9c2821bad262e880f883357ad3695f8dae4929181900390910190a1505050565b6009546001600160a01b031690565b600a546000906001600160a01b03163314610e37576040805162461bcd60e51b815260206004820152601d602482015260008051602061478a833981519152604482015290519081900360640190fd5b60048054600654600754604080516364e329cb60e11b81526001600160a01b039384169581019590955290821660248501525191169163c9c653969160448083019260209291908290030181600087803b158015610e9457600080fd5b505af1158015610ea8573d6000803e3d6000fd5b505050506040513d6020811015610ebe57600080fd5b50506040805180820190915260128152712330b1ba37b93c9731b932b0ba32a830b4b960711b6020820152600654600754610f0692916001600160a01b0390811691166120c0565b600480546006546007546040805163e6a4390560e01b81526001600160a01b0393841695810195909552908216602485015251600093919092169163e6a4390591604480820192602092909190829003018186803b158015610f6757600080fd5b505afa158015610f7b573d6000803e3d6000fd5b505050506040513d6020811015610f9157600080fd5b505160408051808201909152600f81526e2330b1ba37b93c9733b2ba2830b4b960891b6020820152909150610fc69082612188565b600654600754604080516001600160a01b0380861682529384166020820152919092168183015290517f7467344ef90ca12687994051e1ab13a23ebaa44d54b01258f196c4ff3a5e1f2d9181900360600190a1600154604080516370a0823160e01b815230600482015290516000926001600160a01b0316916370a08231916024808301926020929190829003018186803b15801561106457600080fd5b505afa158015611078573d6000803e3d6000fd5b505050506040513d602081101561108e57600080fd5b5051600254604080516370a0823160e01b815230600482015290519293506000926001600160a01b03909216916370a0823191602480820192602092909190829003018186803b1580156110e157600080fd5b505afa1580156110f5573d6000803e3d6000fd5b505050506040513d602081101561110b57600080fd5b50516001546008546040805163095ea7b360e01b81526001600160a01b039283166004820152602481018790529051939450600f420193919092169163095ea7b39160448083019260209291908290030181600087803b15801561116e57600080fd5b505af1158015611182573d6000803e3d6000fd5b505050506040513d602081101561119857600080fd5b50506002546008546040805163095ea7b360e01b81526001600160a01b039283166004820152602481018690529051919092169163095ea7b39160448083019260209291908290030181600087803b1580156111f357600080fd5b505af1158015611207573d6000803e3d6000fd5b505050506040513d602081101561121d57600080fd5b50506003546006546007546040805162e8e33760e81b81526001600160a01b03938416600482015291831660248301526044820187905260648281018790526084830181905260a48301523360c483015260e4820185905251919092169163e8e33700916101048083019260609291908290030181600087803b1580156112a357600080fd5b505af11580156112b7573d6000803e3d6000fd5b505050506040513d60608110156112cd57600080fd5b5050604080518082019091526013815272526f757465722e6164644c697175696469747960681b6020820152611304908484611b54565b600654600754604080516001600160a01b0393841681526020810187905291909216818301526060810184905290517f3a51bdd8f0ce248026483399fa98c498d12a66404c068ae7af4b729b40426daa9181900360800190a150919250505090565b6005546001600160a01b031690565b600a546001600160a01b031633146113c2576040805162461bcd60e51b815260206004820152601d602482015260008051602061478a833981519152604482015290519081900360640190fd5b600480546006546007546040805163e6a4390560e01b81526001600160a01b0393841695810195909552908216602485015251600093919092169163e6a4390591604480820192602092909190829003018186803b15801561142357600080fd5b505afa158015611437573d6000803e3d6000fd5b505050506040513d602081101561144d57600080fd5b5051600154604080516370a0823160e01b81526001600160a01b038085166004830152915193945060009391909216916370a08231916024808301926020929190829003018186803b1580156114a257600080fd5b505afa1580156114b6573d6000803e3d6000fd5b505050506040513d60208110156114cc57600080fd5b5051600054604080516370a0823160e01b81523360048201529051929350600a84049261155d926001600160a01b0316916370a08231916024808301926020929190829003018186803b15801561152257600080fd5b505afa158015611536573d6000803e3d6000fd5b505050506040513d602081101561154c57600080fd5b5051611558848461223f565b61052e565b505050565b6006546001600160a01b031690565b600a546001600160a01b031633146115be576040805162461bcd60e51b815260206004820152601d602482015260008051602061478a833981519152604482015290519081900360640190fd5b6001600160a01b0381166115d157600080fd5b60008054604080516370a0823160e01b815230600482015290516001600160a01b03909216916370a0823191602480820192602092909190829003018186803b15801561161d57600080fd5b505afa158015611631573d6000803e3d6000fd5b505050506040513d602081101561164757600080fd5b5051600154604080516370a0823160e01b815230600482015290519293506000926001600160a01b03909216916370a0823191602480820192602092909190829003018186803b15801561169a57600080fd5b505afa1580156116ae573d6000803e3d6000fd5b505050506040513d60208110156116c457600080fd5b5051600254604080516370a0823160e01b815230600482015290519293506000926001600160a01b03909216916370a0823191602480820192602092909190829003018186803b15801561171757600080fd5b505afa15801561172b573d6000803e3d6000fd5b505050506040513d602081101561174157600080fd5b50519050611750838383612295565b8215611892576117876040518060400160405280600e81526020016d7472616e7366657246726f6d204160901b8152508585611cbc565b600080546040805163095ea7b360e01b81526001600160a01b038881166004830152602482018890529151919092169263095ea7b392604480820193602093909283900390910190829087803b1580156117e057600080fd5b505af11580156117f4573d6000803e3d6000fd5b505050506040513d602081101561180a57600080fd5b5050600080546040805163a9059cbb60e01b81526001600160a01b038881166004830152602482018890529151919092169263a9059cbb92604480820193602093909283900390910190829087803b15801561186557600080fd5b505af1158015611879573d6000803e3d6000fd5b505050506040513d602081101561188f57600080fd5b50505b81156119ce576118c96040518060400160405280600e81526020016d3a3930b739b332b9233937b6902160911b8152508584611cbc565b6001546040805163095ea7b360e01b81526001600160a01b038781166004830152602482018690529151919092169163095ea7b39160448083019260209291908290030181600087803b15801561191f57600080fd5b505af1158015611933573d6000803e3d6000fd5b505050506040513d602081101561194957600080fd5b50506001546040805163a9059cbb60e01b81526001600160a01b038781166004830152602482018690529151919092169163a9059cbb9160448083019260209291908290030181600087803b1580156119a157600080fd5b505af11580156119b5573d6000803e3d6000fd5b505050506040513d60208110156119cb57600080fd5b50505b8015611b0a57611a056040518060400160405280600e81526020016d7472616e7366657246726f6d204360901b8152508583611cbc565b6002546040805163095ea7b360e01b81526001600160a01b038781166004830152602482018590529151919092169163095ea7b39160448083019260209291908290030181600087803b158015611a5b57600080fd5b505af1158015611a6f573d6000803e3d6000fd5b505050506040513d6020811015611a8557600080fd5b50506002546040805163a9059cbb60e01b81526001600160a01b038781166004830152602482018590529151919092169163a9059cbb9160448083019260209291908290030181600087803b158015611add57600080fd5b505af1158015611af1573d6000803e3d6000fd5b505050506040513d6020811015611b0757600080fd5b50505b50505050565b6040805160248082018490528251808303909101815260449091019091526020810180516001600160e01b03166327b7cf8560e01b179052611b51906122e0565b50565b61155d8383836040516024018080602001848152602001838152602001828103825285818151815260200191508051906020019080838360005b83811015611ba6578181015183820152602001611b8e565b50505050905090810190601f168015611bd35780820380516001836020036101000a031916815260200191505b5060408051601f198184030181529190526020810180516001600160e01b031663969cdd0360e01b17905294506122e09350505050565b611cb882826040516024018080602001838152602001828103825284818151815260200191508051906020019080838360005b83811015611c55578181015183820152602001611c3d565b50505050905090810190601f168015611c825780820380516001836020036101000a031916815260200191505b5060408051601f198184030181529190526020810180516001600160e01b03166309710a9d60e41b17905293506122e092505050565b5050565b61155d8383836040516024018080602001846001600160a01b03168152602001838152602001828103825285818151815260200191508051906020019080838360005b83811015611d17578181015183820152602001611cff565b50505050905090810190601f168015611d445780820380516001836020036101000a031916815260200191505b5060408051601f198184030181529190526020810180516001600160e01b03166307c8121760e01b17905294506122e09350505050565b604080516001600160a01b0385811660248301528481166044830152606480830185905283518084039091018152608490920183526020820180516001600160e01b03166323b872dd60e01b17815292518251600094606094938a169392918291908083835b60208310611e005780518252601f199092019160209182019101611de1565b6001836020036101000a0380198251168184511680821785525050505050509050019150506000604051808303816000865af19150503d8060008114611e62576040519150601f19603f3d011682016040523d82523d6000602084013e611e67565b606091505b5091509150818015611e95575080511580611e955750808060200190516020811015611e9257600080fd5b50515b611b075760405162461bcd60e51b81526004018080602001828103825260248152602001806147aa6024913960400191505060405180910390fd5b604080516001600160a01b038481166024830152604480830185905283518084039091018152606490920183526020820180516001600160e01b031663095ea7b360e01b178152925182516000946060949389169392918291908083835b60208310611f4d5780518252601f199092019160209182019101611f2e565b6001836020036101000a0380198251168184511680821785525050505050509050019150506000604051808303816000865af19150503d8060008114611faf576040519150601f19603f3d011682016040523d82523d6000602084013e611fb4565b606091505b5091509150818015611fe2575080511580611fe25750808060200190516020811015611fdf57600080fd5b50515b612033576040805162461bcd60e51b815260206004820152601e60248201527f5472616e7366657248656c7065723a20415050524f56455f4641494c45440000604482015290519081900360640190fd5b5050505050565b604080516002808252606080830184529283929190602083019080368337505060055482519293506001600160a01b03169183915060009061207857fe5b6001600160a01b0392831660209182029290920101526006548251911690829060019081106120a357fe5b6001600160a01b0390921660209283029190910190910152905090565b61155d8383836040516024018080602001846001600160a01b03168152602001836001600160a01b03168152602001828103825285818151815260200191508051906020019080838360005b8381101561212457818101518382015260200161210c565b50505050905090810190601f1680156121515780820380516001836020036101000a031916815260200191505b5060408051601f198184030181529190526020810180516001600160e01b03166307e763af60e51b17905294506122e09350505050565b611cb882826040516024018080602001836001600160a01b03168152602001828103825284818151815260200191508051906020019080838360005b838110156121dc5781810151838201526020016121c4565b50505050905090810190601f1680156122095780820380516001836020036101000a031916815260200191505b5060408051601f198184030181529190526020810180516001600160e01b031663319af33360e01b17905293506122e092505050565b8082038281111561228f576040805162461bcd60e51b815260206004820152601560248201527464732d6d6174682d7375622d756e646572666c6f7760581b604482015290519081900360640190fd5b92915050565b60408051602481018590526044810184905260648082018490528251808303909101815260849091019091526020810180516001600160e01b03166339e0829d60e21b17905261155d905b80516a636f6e736f6c652e6c6f67602083016000808483855afa5050505050565b61247b8061230f8339019056fe60806040526001600c5534801561001557600080fd5b50604080518082018252600c81526b2d27a7902628102a37b5b2b760a11b6020918201528151808301835260018152603160f81b9082015281517f8b73c3c69bb8fe3d512ecc4cf759cc79239f7b179b0ffacaa9a75d522b39400f818301527fd3885b2840af85aff51aa233be46e4fee8b3316e41706f80daafb9225ee522a2818401527fc89efdaa54c0f20c7adf612882df0950f5a951637e0307cdcb4c672f298b8bc660608201524660808201523060a0808301919091528351808303909101815260c09091019092528151910120600355600580546001600160a01b031916331790556123718061010a6000396000f3fe608060405234801561001057600080fd5b50600436106101a95760003560e01c80636a627842116100f9578063ba9a7a5611610097578063d21220a711610071578063d21220a714610534578063d505accf1461053c578063dd62ed3e1461058d578063fff6cae9146105bb576101a9565b8063ba9a7a56146104fe578063bc25cf7714610506578063c45a01551461052c576101a9565b80637ecebe00116100d35780637ecebe001461046557806389afcb441461048b57806395d89b41146104ca578063a9059cbb146104d2576101a9565b80636a6278421461041157806370a08231146104375780637464fc3d1461045d576101a9565b806323b872dd116101665780633644e515116101405780633644e515146103cb578063485cc955146103d35780635909c0d5146104015780635a3d549314610409576101a9565b806323b872dd1461036f57806330adf81f146103a5578063313ce567146103ad576101a9565b8063022c0d9f146101ae57806306fdde031461023c5780630902f1ac146102b9578063095ea7b3146102f15780630dfe16811461033157806318160ddd14610355575b600080fd5b61023a600480360360808110156101c457600080fd5b8135916020810135916001600160a01b0360408301351691908101906080810160608201356401000000008111156101fb57600080fd5b82018360208201111561020d57600080fd5b8035906020019184600183028401116401000000008311171561022f57600080fd5b5090925090506105c3565b005b610244610acb565b6040805160208082528351818301528351919283929083019185019080838360005b8381101561027e578181015183820152602001610266565b50505050905090810190601f1680156102ab5780820380516001836020036101000a031916815260200191505b509250505060405180910390f35b6102c1610af3565b604080516001600160701b03948516815292909316602083015263ffffffff168183015290519081900360600190f35b61031d6004803603604081101561030757600080fd5b506001600160a01b038135169060200135610b1d565b604080519115158252519081900360200190f35b610339610b34565b604080516001600160a01b039092168252519081900360200190f35b61035d610b43565b60408051918252519081900360200190f35b61031d6004803603606081101561038557600080fd5b506001600160a01b03813581169160208101359091169060400135610b49565b61035d610bdd565b6103b5610c01565b6040805160ff9092168252519081900360200190f35b61035d610c06565b61023a600480360360408110156103e957600080fd5b506001600160a01b0381358116916020013516610c0c565b61035d610c90565b61035d610c96565b61035d6004803603602081101561042757600080fd5b50356001600160a01b0316610c9c565b61035d6004803603602081101561044d57600080fd5b50356001600160a01b0316611118565b61035d61112a565b61035d6004803603602081101561047b57600080fd5b50356001600160a01b0316611130565b6104b1600480360360208110156104a157600080fd5b50356001600160a01b0316611142565b6040805192835260208301919091528051918290030190f35b6102446114d6565b61031d600480360360408110156104e857600080fd5b506001600160a01b0381351690602001356114f5565b61035d611502565b61023a6004803603602081101561051c57600080fd5b50356001600160a01b0316611508565b61033961167a565b610339611689565b61023a600480360360e081101561055257600080fd5b506001600160a01b03813581169160208101359091169060408101359060608101359060ff6080820135169060a08101359060c00135611698565b61035d600480360360408110156105a357600080fd5b506001600160a01b038135811691602001351661189a565b61023a6118b7565b600c5460011461060e576040805162461bcd60e51b8152602060048201526011602482015270155b9a5cddd85c158c8e881313d0d2d151607a1b604482015290519081900360640190fd5b6000600c55841515806106215750600084115b61065c5760405162461bcd60e51b81526004018080602001828103825260258152602001806122826025913960400191505060405180910390fd5b600080610667610af3565b5091509150816001600160701b03168710801561068c5750806001600160701b031686105b6106c75760405162461bcd60e51b81526004018080602001828103825260218152602001806122cb6021913960400191505060405180910390fd5b60065460075460009182916001600160a01b039182169190811690891682148015906107055750806001600160a01b0316896001600160a01b031614155b61074e576040805162461bcd60e51b8152602060048201526015602482015274556e697377617056323a20494e56414c49445f544f60581b604482015290519081900360640190fd5b8a1561075f5761075f828a8d611a19565b891561077057610770818a8c611a19565b861561082257886001600160a01b03166310d1e85c338d8d8c8c6040518663ffffffff1660e01b815260040180866001600160a01b03168152602001858152602001848152602001806020018281038252848482818152602001925080828437600081840152601f19601f8201169050808301925050509650505050505050600060405180830381600087803b15801561080957600080fd5b505af115801561081d573d6000803e3d6000fd5b505050505b604080516370a0823160e01b815230600482015290516001600160a01b038416916370a08231916024808301926020929190829003018186803b15801561086857600080fd5b505afa15801561087c573d6000803e3d6000fd5b505050506040513d602081101561089257600080fd5b5051604080516370a0823160e01b815230600482015290519195506001600160a01b038316916370a0823191602480820192602092909190829003018186803b1580156108de57600080fd5b505afa1580156108f2573d6000803e3d6000fd5b505050506040513d602081101561090857600080fd5b5051925060009150506001600160701b0385168a9003831161092b57600061093a565b89856001600160701b03160383035b9050600089856001600160701b0316038311610957576000610966565b89856001600160701b03160383035b905060008211806109775750600081115b6109b25760405162461bcd60e51b81526004018080602001828103825260248152602001806122a76024913960400191505060405180910390fd5b60006109d46109c2846003611bb3565b6109ce876103e8611bb3565b90611c16565b905060006109e66109c2846003611bb3565b9050610a0b620f4240610a056001600160701b038b8116908b16611bb3565b90611bb3565b610a158383611bb3565b1015610a57576040805162461bcd60e51b815260206004820152600c60248201526b556e697377617056323a204b60a01b604482015290519081900360640190fd5b5050610a6584848888611c66565b60408051838152602081018390528082018d9052606081018c905290516001600160a01b038b169133917fd78ad95fa46c994b6551d0da85fc275fe613ce37657fb8d5e3d130840159d8229181900360800190a350506001600c55505050505050505050565b6040518060400160405280600c81526020016b2d27a7902628102a37b5b2b760a11b81525081565b6008546001600160701b0380821692600160701b830490911691600160e01b900463ffffffff1690565b6000610b2a338484611e25565b5060015b92915050565b6006546001600160a01b031681565b60005481565b6001600160a01b038316600090815260026020908152604080832033845290915281205460001914610bc8576001600160a01b0384166000908152600260209081526040808320338452909152902054610ba39083611c16565b6001600160a01b03851660009081526002602090815260408083203384529091529020555b610bd3848484611e87565b5060019392505050565b7f6e71edae12b1b97f4d1f60370fef10105fa2faae0126114a169c64845d6126c981565b601281565b60035481565b6005546001600160a01b03163314610c62576040805162461bcd60e51b81526020600482015260146024820152732ab734b9bbb0b82b191d102327a92124a22222a760611b604482015290519081900360640190fd5b600680546001600160a01b039384166001600160a01b03199182161790915560078054929093169116179055565b60095481565b600a5481565b6000600c54600114610ce9576040805162461bcd60e51b8152602060048201526011602482015270155b9a5cddd85c158c8e881313d0d2d151607a1b604482015290519081900360640190fd5b6000600c81905580610cf9610af3565b50600654604080516370a0823160e01b815230600482015290519395509193506000926001600160a01b03909116916370a08231916024808301926020929190829003018186803b158015610d4d57600080fd5b505afa158015610d61573d6000803e3d6000fd5b505050506040513d6020811015610d7757600080fd5b5051600754604080516370a0823160e01b815230600482015290519293506000926001600160a01b03909216916370a0823191602480820192602092909190829003018186803b158015610dca57600080fd5b505afa158015610dde573d6000803e3d6000fd5b505050506040513d6020811015610df457600080fd5b505190506000610e0d836001600160701b038716611c16565b90506000610e24836001600160701b038716611c16565b90506000610e328787611f35565b600054909150806110095760055460408051637cd07e4760e01b815290516000926001600160a01b031691637cd07e47916004808301926020929190829003018186803b158015610e8257600080fd5b505afa158015610e96573d6000803e3d6000fd5b505050506040513d6020811015610eac57600080fd5b50519050336001600160a01b0382161415610f8757806001600160a01b03166340dc0e376040518163ffffffff1660e01b815260040160206040518083038186803b158015610efa57600080fd5b505afa158015610f0e573d6000803e3d6000fd5b505050506040513d6020811015610f2457600080fd5b505199508915801590610f3957506000198a14155b610f82576040805162461bcd60e51b81526020600482015260156024820152744261642064657369726564206c697175696469747960581b604482015290519081900360640190fd5b611003565b6001600160a01b03811615610fdc576040805162461bcd60e51b815260206004820152601660248201527526bab9ba103737ba103430bb329036b4b3b930ba37b960511b604482015290519081900360640190fd5b610ff46103e86109ce610fef8888611bb3565b612075565b995061100360006103e86120c7565b5061104c565b6110496001600160701b0389166110208684611bb3565b8161102757fe5b046001600160701b03891661103c8685611bb3565b8161104357fe5b04612151565b98505b6000891161108b5760405162461bcd60e51b81526004018080602001828103825260288152602001806123146028913960400191505060405180910390fd5b6110958a8a6120c7565b6110a186868a8a611c66565b81156110cb576008546110c7906001600160701b0380821691600160701b900416611bb3565b600b555b6040805185815260208101859052815133927f4c209b5fc8ad50758f13e2e1088ba56a560dff690a1c6fef26394f4c03821c4f928290030190a250506001600c5550949695505050505050565b60016020526000908152604090205481565b600b5481565b60046020526000908152604090205481565b600080600c54600114611190576040805162461bcd60e51b8152602060048201526011602482015270155b9a5cddd85c158c8e881313d0d2d151607a1b604482015290519081900360640190fd5b6000600c819055806111a0610af3565b50600654600754604080516370a0823160e01b815230600482015290519496509294506001600160a01b039182169391169160009184916370a08231916024808301926020929190829003018186803b1580156111fc57600080fd5b505afa158015611210573d6000803e3d6000fd5b505050506040513d602081101561122657600080fd5b5051604080516370a0823160e01b815230600482015290519192506000916001600160a01b038516916370a08231916024808301926020929190829003018186803b15801561127457600080fd5b505afa158015611288573d6000803e3d6000fd5b505050506040513d602081101561129e57600080fd5b5051306000908152600160205260408120549192506112bd8888611f35565b600054909150806112ce8487611bb3565b816112d557fe5b049a50806112e38486611bb3565b816112ea57fe5b04995060008b1180156112fd575060008a115b6113385760405162461bcd60e51b81526004018080602001828103825260288152602001806122ec6028913960400191505060405180910390fd5b6113423084612169565b61134d878d8d611a19565b611358868d8c611a19565b604080516370a0823160e01b815230600482015290516001600160a01b038916916370a08231916024808301926020929190829003018186803b15801561139e57600080fd5b505afa1580156113b2573d6000803e3d6000fd5b505050506040513d60208110156113c857600080fd5b5051604080516370a0823160e01b815230600482015290519196506001600160a01b038816916370a0823191602480820192602092909190829003018186803b15801561141457600080fd5b505afa158015611428573d6000803e3d6000fd5b505050506040513d602081101561143e57600080fd5b5051935061144e85858b8b611c66565b811561147857600854611474906001600160701b0380821691600160701b900416611bb3565b600b555b604080518c8152602081018c905281516001600160a01b038f169233927fdccd412f0b1252819cb1fd330b93224ca42612892bb3f4f789976e6d81936496929081900390910190a35050505050505050506001600c81905550915091565b6040518060400160405280600381526020016205a4c560ec1b81525081565b6000610b2a338484611e87565b6103e881565b600c54600114611553576040805162461bcd60e51b8152602060048201526011602482015270155b9a5cddd85c158c8e881313d0d2d151607a1b604482015290519081900360640190fd5b6000600c55600654600754600854604080516370a0823160e01b815230600482015290516001600160a01b0394851694909316926115fc92859287926115f7926001600160701b03169185916370a0823191602480820192602092909190829003018186803b1580156115c557600080fd5b505afa1580156115d9573d6000803e3d6000fd5b505050506040513d60208110156115ef57600080fd5b505190611c16565b611a19565b61167081846115f76008600e9054906101000a90046001600160701b03166001600160701b0316856001600160a01b03166370a08231306040518263ffffffff1660e01b815260040180826001600160a01b0316815260200191505060206040518083038186803b1580156115c557600080fd5b50506001600c5550565b6005546001600160a01b031681565b6007546001600160a01b031681565b428410156116e2576040805162461bcd60e51b8152602060048201526012602482015271155b9a5cddd85c158c8e881156141254915160721b604482015290519081900360640190fd5b6003546001600160a01b0380891660008181526004602090815260408083208054600180820190925582517f6e71edae12b1b97f4d1f60370fef10105fa2faae0126114a169c64845d6126c98186015280840196909652958d166060860152608085018c905260a085019590955260c08085018b90528151808603909101815260e08501825280519083012061190160f01b6101008601526101028501969096526101228085019690965280518085039096018652610142840180825286519683019690962095839052610162840180825286905260ff89166101828501526101a284018890526101c28401879052519193926101e280820193601f1981019281900390910190855afa1580156117fd573d6000803e3d6000fd5b5050604051601f1901519150506001600160a01b038116158015906118335750886001600160a01b0316816001600160a01b0316145b611884576040805162461bcd60e51b815260206004820152601c60248201527f556e697377617056323a20494e56414c49445f5349474e415455524500000000604482015290519081900360640190fd5b61188f898989611e25565b505050505050505050565b600260209081526000928352604080842090915290825290205481565b600c54600114611902576040805162461bcd60e51b8152602060048201526011602482015270155b9a5cddd85c158c8e881313d0d2d151607a1b604482015290519081900360640190fd5b6000600c55600654604080516370a0823160e01b81523060048201529051611a12926001600160a01b0316916370a08231916024808301926020929190829003018186803b15801561195357600080fd5b505afa158015611967573d6000803e3d6000fd5b505050506040513d602081101561197d57600080fd5b5051600754604080516370a0823160e01b815230600482015290516001600160a01b03909216916370a0823191602480820192602092909190829003018186803b1580156119ca57600080fd5b505afa1580156119de573d6000803e3d6000fd5b505050506040513d60208110156119f457600080fd5b50516008546001600160701b0380821691600160701b900416611c66565b6001600c55565b604080518082018252601981527f7472616e7366657228616464726573732c75696e74323536290000000000000060209182015281516001600160a01b0385811660248301526044808301869052845180840390910181526064909201845291810180516001600160e01b031663a9059cbb60e01b1781529251815160009460609489169392918291908083835b60208310611ac65780518252601f199092019160209182019101611aa7565b6001836020036101000a0380198251168184511680821785525050505050509050019150506000604051808303816000865af19150503d8060008114611b28576040519150601f19603f3d011682016040523d82523d6000602084013e611b2d565b606091505b5091509150818015611b5b575080511580611b5b5750808060200190516020811015611b5857600080fd5b50515b611bac576040805162461bcd60e51b815260206004820152601a60248201527f556e697377617056323a205452414e534645525f4641494c4544000000000000604482015290519081900360640190fd5b5050505050565b6000811580611bce57505080820282828281611bcb57fe5b04145b610b2e576040805162461bcd60e51b815260206004820152601460248201527364732d6d6174682d6d756c2d6f766572666c6f7760601b604482015290519081900360640190fd5b80820382811115610b2e576040805162461bcd60e51b815260206004820152601560248201527464732d6d6174682d7375622d756e646572666c6f7760581b604482015290519081900360640190fd5b6001600160701b038411801590611c8457506001600160701b038311155b611ccb576040805162461bcd60e51b8152602060048201526013602482015272556e697377617056323a204f564552464c4f5760681b604482015290519081900360640190fd5b60085463ffffffff42811691600160e01b90048116820390811615801590611cfb57506001600160701b03841615155b8015611d0f57506001600160701b03831615155b15611d7a578063ffffffff16611d3785611d28866121fb565b6001600160e01b03169061220d565b600980546001600160e01b03929092169290920201905563ffffffff8116611d6284611d28876121fb565b600a80546001600160e01b0392909216929092020190555b600880546dffffffffffffffffffffffffffff19166001600160701b03888116919091176dffffffffffffffffffffffffffff60701b1916600160701b8883168102919091176001600160e01b0316600160e01b63ffffffff871602179283905560408051848416815291909304909116602082015281517f1c411e9a96e071241c2f21f7726b17ae89e3cab4c78be50e062b03a9fffbbad1929181900390910190a1505050505050565b6001600160a01b03808416600081815260026020908152604080832094871680845294825291829020859055815185815291517f8c5be1e5ebec7d5bd14f71427d1e84f3dd0314c0f7b2291e5b200ac8c7c3b9259281900390910190a3505050565b6001600160a01b038316600090815260016020526040902054611eaa9082611c16565b6001600160a01b038085166000908152600160205260408082209390935590841681522054611ed99082612232565b6001600160a01b0380841660008181526001602090815260409182902094909455805185815290519193928716927fddf252ad1be2c89b69c2b068fc378daa952ba7f163c4a11628f55a4df523b3ef92918290030190a3505050565b600080600560009054906101000a90046001600160a01b03166001600160a01b031663017e7e586040518163ffffffff1660e01b815260040160206040518083038186803b158015611f8657600080fd5b505afa158015611f9a573d6000803e3d6000fd5b505050506040513d6020811015611fb057600080fd5b5051600b546001600160a01b03821615801594509192509061206157801561205c576000611fed610fef6001600160701b03888116908816611bb3565b90506000611ffa83612075565b90508082111561205957600061201c6120138484611c16565b60005490611bb3565b905060006120358361202f866005611bb3565b90612232565b9050600081838161204257fe5b04905080156120555761205587826120c7565b5050505b50505b61206d565b801561206d576000600b555b505092915050565b600060038211156120b8575080600160028204015b818110156120b2578091506002818285816120a157fe5b0401816120aa57fe5b04905061208a565b506120c2565b81156120c2575060015b919050565b6000546120d49082612232565b60009081556001600160a01b0383168152600160205260409020546120f99082612232565b6001600160a01b03831660008181526001602090815260408083209490945583518581529351929391927fddf252ad1be2c89b69c2b068fc378daa952ba7f163c4a11628f55a4df523b3ef9281900390910190a35050565b60008183106121605781612162565b825b9392505050565b6001600160a01b03821660009081526001602052604090205461218c9082611c16565b6001600160a01b038316600090815260016020526040812091909155546121b39082611c16565b60009081556040805183815290516001600160a01b038516917fddf252ad1be2c89b69c2b068fc378daa952ba7f163c4a11628f55a4df523b3ef919081900360200190a35050565b6001600160701b0316600160701b0290565b60006001600160701b0382166001600160e01b0384168161222a57fe5b049392505050565b80820182811015610b2e576040805162461bcd60e51b815260206004820152601460248201527364732d6d6174682d6164642d6f766572666c6f7760601b604482015290519081900360640190fdfe556e697377617056323a20494e53554646494349454e545f4f55545055545f414d4f554e54556e697377617056323a20494e53554646494349454e545f494e5055545f414d4f554e54556e697377617056323a20494e53554646494349454e545f4c4951554944495459556e697377617056323a20494e53554646494349454e545f4c49515549444954595f4255524e4544556e697377617056323a20494e53554646494349454e545f4c49515549444954595f4d494e544544a2646970667358221220c446dcd9323895b71016e9766a2ab84127132641c0c059c5514ad2ca43e9557064736f6c634300060c00335361766167653a204f6e6c79206f776e657220686173206163636573730000005472616e7366657248656c7065723a205452414e534645525f46524f4d5f4641494c4544a2646970667358221220feb2748725ae9770c8d3b493ae060119851dc93637e236ef3f367b6f4801f2d864736f6c634300060c0033",
  "libraries": {},
  "devdoc": {
    "kind": "dev",
    "methods": {},
    "version": 1
  },
  "userdoc": {
    "kind": "user",
    "methods": {},
    "version": 1
  },
  "storageLayout": {
    "storage": [
      {
        "astId": 22,
        "contract": "src/Savage.sol:Savage",
        "label": "A",
        "offset": 0,
        "slot": "0",
        "type": "t_contract(IERC20)12745"
      },
      {
        "astId": 24,
        "contract": "src/Savage.sol:Savage",
        "label": "B",
        "offset": 0,
        "slot": "1",
        "type": "t_contract(IERC20)12745"
      },
      {
        "astId": 26,
        "contract": "src/Savage.sol:Savage",
        "label": "C",
        "offset": 0,
        "slot": "2",
        "type": "t_contract(IERC20)12745"
      },
      {
        "astId": 28,
        "contract": "src/Savage.sol:Savage",
        "label": "Router",
        "offset": 0,
        "slot": "3",
        "type": "t_contract(IUniswapV2Router01)13382"
      },
      {
        "astId": 30,
        "contract": "src/Savage.sol:Savage",
        "label": "Factory",
        "offset": 0,
        "slot": "4",
        "type": "t_contract(IUniswapV2Factory)12832"
      },
      {
        "astId": 32,
        "contract": "src/Savage.sol:Savage",
        "label": "a",
        "offset": 0,
        "slot": "5",
        "type": "t_address"
      },
      {
        "astId": 34,
        "contract": "src/Savage.sol:Savage",
        "label": "b",
        "offset": 0,
        "slot": "6",
        "type": "t_address"
      },
      {
        "astId": 36,
        "contract": "src/Savage.sol:Savage",
        "label": "c",
        "offset": 0,
        "slot": "7",
        "type": "t_address"
      },
      {
        "astId": 38,
        "contract": "src/Savage.sol:Savage",
        "label": "router",
        "offset": 0,
        "slot": "8",
        "type": "t_address"
      },
      {
        "astId": 40,
        "contract": "src/Savage.sol:Savage",
        "label": "factory",
        "offset": 0,
        "slot": "9",
        "type": "t_address"
      },
      {
        "astId": 42,
        "contract": "src/Savage.sol:Savage",
        "label": "owner",
        "offset": 0,
        "slot": "10",
        "type": "t_address"
      }
    ],
    "types": {
      "t_address": {
        "encoding": "inplace",
        "label": "address",
        "numberOfBytes": "20"
      },
      "t_contract(IERC20)12745": {
        "encoding": "inplace",
        "label": "contract IERC20",
        "numberOfBytes": "20"
      },
      "t_contract(IUniswapV2Factory)12832": {
        "encoding": "inplace",
        "label": "contract IUniswapV2Factory",
        "numberOfBytes": "20"
      },
      "t_contract(IUniswapV2Router01)13382": {
        "encoding": "inplace",
        "label": "contract IUniswapV2Router01",
        "numberOfBytes": "20"
      }
    }
  }
}