{
  "address": "0xDA4820C5787d0177Fb3EF47d9943Ca3bdAC0673b",
  "abi": [
    {
      "inputs": [
        {
          "internalType": "string",
          "name": "_title",
          "type": "string"
        }
      ],
      "stateMutability": "nonpayable",
      "type": "constructor"
    },
    {
      "anonymous": false,
      "inputs": [
        {
          "indexed": true,
          "internalType": "address",
          "name": "previousOwner",
          "type": "address"
        },
        {
          "indexed": true,
          "internalType": "address",
          "name": "newOwner",
          "type": "address"
        }
      ],
      "name": "OwnershipTransferred",
      "type": "event"
    },
    {
      "inputs": [],
      "name": "appAddress",
      "outputs": [
        {
          "internalType": "address",
          "name": "",
          "type": "address"
        }
      ],
      "stateMutability": "view",
      "type": "function"
    },
    {
      "inputs": [
        {
          "internalType": "address",
          "name": "_appAddress",
          "type": "address"
        }
      ],
      "name": "configure",
      "outputs": [],
      "stateMutability": "nonpayable",
      "type": "function"
    },
    {
      "inputs": [
        {
          "internalType": "string",
          "name": "name",
          "type": "string"
        }
      ],
      "name": "getTokenType",
      "outputs": [
        {
          "components": [
            {
              "internalType": "enum ILux.Type",
              "name": "kind",
              "type": "uint8"
            },
            {
              "internalType": "string",
              "name": "name",
              "type": "string"
            },
            {
              "components": [
                {
                  "internalType": "uint256",
                  "name": "amount",
                  "type": "uint256"
                },
                {
                  "internalType": "address",
                  "name": "currency",
                  "type": "address"
                },
                {
                  "internalType": "bool",
                  "name": "offline",
                  "type": "bool"
                }
              ],
              "internalType": "struct IMarket.Ask",
              "name": "ask",
              "type": "tuple"
            },
            {
              "internalType": "uint256",
              "name": "supply",
              "type": "uint256"
            },
            {
              "internalType": "uint256",
              "name": "timestamp",
              "type": "uint256"
            },
            {
              "internalType": "uint256",
              "name": "minted",
              "type": "uint256"
            },
            {
              "components": [
                {
                  "internalType": "string",
                  "name": "tokenURI",
                  "type": "string"
                },
                {
                  "internalType": "string",
                  "name": "metadataURI",
                  "type": "string"
                },
                {
                  "internalType": "bytes32",
                  "name": "contentHash",
                  "type": "bytes32"
                },
                {
                  "internalType": "bytes32",
                  "name": "metadataHash",
                  "type": "bytes32"
                }
              ],
              "internalType": "struct IMedia.MediaData",
              "name": "data",
              "type": "tuple"
            },
            {
              "components": [
                {
                  "components": [
                    {
                      "internalType": "uint256",
                      "name": "value",
                      "type": "uint256"
                    }
                  ],
                  "internalType": "struct Decimal.D256",
                  "name": "prevOwner",
                  "type": "tuple"
                },
                {
                  "components": [
                    {
                      "internalType": "uint256",
                      "name": "value",
                      "type": "uint256"
                    }
                  ],
                  "internalType": "struct Decimal.D256",
                  "name": "creator",
                  "type": "tuple"
                },
                {
                  "components": [
                    {
                      "internalType": "uint256",
                      "name": "value",
                      "type": "uint256"
                    }
                  ],
                  "internalType": "struct Decimal.D256",
                  "name": "owner",
                  "type": "tuple"
                }
              ],
              "internalType": "struct IMarket.BidShares",
              "name": "bidShares",
              "type": "tuple"
            }
          ],
          "internalType": "struct Drop.TokenType",
          "name": "",
          "type": "tuple"
        }
      ],
      "stateMutability": "view",
      "type": "function"
    },
    {
      "inputs": [],
      "name": "getTokenTypes",
      "outputs": [
        {
          "components": [
            {
              "internalType": "enum ILux.Type",
              "name": "kind",
              "type": "uint8"
            },
            {
              "internalType": "string",
              "name": "name",
              "type": "string"
            },
            {
              "components": [
                {
                  "internalType": "uint256",
                  "name": "amount",
                  "type": "uint256"
                },
                {
                  "internalType": "address",
                  "name": "currency",
                  "type": "address"
                },
                {
                  "internalType": "bool",
                  "name": "offline",
                  "type": "bool"
                }
              ],
              "internalType": "struct IMarket.Ask",
              "name": "ask",
              "type": "tuple"
            },
            {
              "internalType": "uint256",
              "name": "supply",
              "type": "uint256"
            },
            {
              "internalType": "uint256",
              "name": "timestamp",
              "type": "uint256"
            },
            {
              "internalType": "uint256",
              "name": "minted",
              "type": "uint256"
            },
            {
              "components": [
                {
                  "internalType": "string",
                  "name": "tokenURI",
                  "type": "string"
                },
                {
                  "internalType": "string",
                  "name": "metadataURI",
                  "type": "string"
                },
                {
                  "internalType": "bytes32",
                  "name": "contentHash",
                  "type": "bytes32"
                },
                {
                  "internalType": "bytes32",
                  "name": "metadataHash",
                  "type": "bytes32"
                }
              ],
              "internalType": "struct IMedia.MediaData",
              "name": "data",
              "type": "tuple"
            },
            {
              "components": [
                {
                  "components": [
                    {
                      "internalType": "uint256",
                      "name": "value",
                      "type": "uint256"
                    }
                  ],
                  "internalType": "struct Decimal.D256",
                  "name": "prevOwner",
                  "type": "tuple"
                },
                {
                  "components": [
                    {
                      "internalType": "uint256",
                      "name": "value",
                      "type": "uint256"
                    }
                  ],
                  "internalType": "struct Decimal.D256",
                  "name": "creator",
                  "type": "tuple"
                },
                {
                  "components": [
                    {
                      "internalType": "uint256",
                      "name": "value",
                      "type": "uint256"
                    }
                  ],
                  "internalType": "struct Decimal.D256",
                  "name": "owner",
                  "type": "tuple"
                }
              ],
              "internalType": "struct IMarket.BidShares",
              "name": "bidShares",
              "type": "tuple"
            }
          ],
          "internalType": "struct Drop.TokenType[]",
          "name": "",
          "type": "tuple[]"
        }
      ],
      "stateMutability": "view",
      "type": "function"
    },
    {
      "inputs": [
        {
          "internalType": "string",
          "name": "name",
          "type": "string"
        }
      ],
      "name": "newNFT",
      "outputs": [
        {
          "components": [
            {
              "internalType": "enum ILux.Type",
              "name": "kind",
              "type": "uint8"
            },
            {
              "internalType": "string",
              "name": "name",
              "type": "string"
            },
            {
              "internalType": "uint256",
              "name": "id",
              "type": "uint256"
            },
            {
              "internalType": "uint256",
              "name": "timestamp",
              "type": "uint256"
            },
            {
              "components": [
                {
                  "internalType": "string",
                  "name": "tokenURI",
                  "type": "string"
                },
                {
                  "internalType": "string",
                  "name": "metadataURI",
                  "type": "string"
                },
                {
                  "internalType": "bytes32",
                  "name": "contentHash",
                  "type": "bytes32"
                },
                {
                  "internalType": "bytes32",
                  "name": "metadataHash",
                  "type": "bytes32"
                }
              ],
              "internalType": "struct IMedia.MediaData",
              "name": "data",
              "type": "tuple"
            },
            {
              "components": [
                {
                  "components": [
                    {
                      "internalType": "uint256",
                      "name": "value",
                      "type": "uint256"
                    }
                  ],
                  "internalType": "struct Decimal.D256",
                  "name": "prevOwner",
                  "type": "tuple"
                },
                {
                  "components": [
                    {
                      "internalType": "uint256",
                      "name": "value",
                      "type": "uint256"
                    }
                  ],
                  "internalType": "struct Decimal.D256",
                  "name": "creator",
                  "type": "tuple"
                },
                {
                  "components": [
                    {
                      "internalType": "uint256",
                      "name": "value",
                      "type": "uint256"
                    }
                  ],
                  "internalType": "struct Decimal.D256",
                  "name": "owner",
                  "type": "tuple"
                }
              ],
              "internalType": "struct IMarket.BidShares",
              "name": "bidShares",
              "type": "tuple"
            },
            {
              "components": [
                {
                  "internalType": "uint256",
                  "name": "tokenId",
                  "type": "uint256"
                },
                {
                  "internalType": "uint256",
                  "name": "dropId",
                  "type": "uint256"
                },
                {
                  "internalType": "bool",
                  "name": "burned",
                  "type": "bool"
                }
              ],
              "internalType": "struct ILux.Meta",
              "name": "meta",
              "type": "tuple"
            }
          ],
          "internalType": "struct ILux.Token",
          "name": "",
          "type": "tuple"
        }
      ],
      "stateMutability": "nonpayable",
      "type": "function"
    },
    {
      "inputs": [],
      "name": "owner",
      "outputs": [
        {
          "internalType": "address",
          "name": "",
          "type": "address"
        }
      ],
      "stateMutability": "view",
      "type": "function"
    },
    {
      "inputs": [],
      "name": "renounceOwnership",
      "outputs": [],
      "stateMutability": "nonpayable",
      "type": "function"
    },
    {
      "inputs": [
        {
          "internalType": "enum ILux.Type",
          "name": "kind",
          "type": "uint8"
        },
        {
          "internalType": "string",
          "name": "name",
          "type": "string"
        },
        {
          "components": [
            {
              "internalType": "uint256",
              "name": "amount",
              "type": "uint256"
            },
            {
              "internalType": "address",
              "name": "currency",
              "type": "address"
            },
            {
              "internalType": "bool",
              "name": "offline",
              "type": "bool"
            }
          ],
          "internalType": "struct IMarket.Ask",
          "name": "ask",
          "type": "tuple"
        },
        {
          "internalType": "uint256",
          "name": "supply",
          "type": "uint256"
        },
        {
          "internalType": "string",
          "name": "tokenURI",
          "type": "string"
        },
        {
          "internalType": "string",
          "name": "metadataURI",
          "type": "string"
        }
      ],
      "name": "setTokenType",
      "outputs": [
        {
          "components": [
            {
              "internalType": "enum ILux.Type",
              "name": "kind",
              "type": "uint8"
            },
            {
              "internalType": "string",
              "name": "name",
              "type": "string"
            },
            {
              "components": [
                {
                  "internalType": "uint256",
                  "name": "amount",
                  "type": "uint256"
                },
                {
                  "internalType": "address",
                  "name": "currency",
                  "type": "address"
                },
                {
                  "internalType": "bool",
                  "name": "offline",
                  "type": "bool"
                }
              ],
              "internalType": "struct IMarket.Ask",
              "name": "ask",
              "type": "tuple"
            },
            {
              "internalType": "uint256",
              "name": "supply",
              "type": "uint256"
            },
            {
              "internalType": "uint256",
              "name": "timestamp",
              "type": "uint256"
            },
            {
              "internalType": "uint256",
              "name": "minted",
              "type": "uint256"
            },
            {
              "components": [
                {
                  "internalType": "string",
                  "name": "tokenURI",
                  "type": "string"
                },
                {
                  "internalType": "string",
                  "name": "metadataURI",
                  "type": "string"
                },
                {
                  "internalType": "bytes32",
                  "name": "contentHash",
                  "type": "bytes32"
                },
                {
                  "internalType": "bytes32",
                  "name": "metadataHash",
                  "type": "bytes32"
                }
              ],
              "internalType": "struct IMedia.MediaData",
              "name": "data",
              "type": "tuple"
            },
            {
              "components": [
                {
                  "components": [
                    {
                      "internalType": "uint256",
                      "name": "value",
                      "type": "uint256"
                    }
                  ],
                  "internalType": "struct Decimal.D256",
                  "name": "prevOwner",
                  "type": "tuple"
                },
                {
                  "components": [
                    {
                      "internalType": "uint256",
                      "name": "value",
                      "type": "uint256"
                    }
                  ],
                  "internalType": "struct Decimal.D256",
                  "name": "creator",
                  "type": "tuple"
                },
                {
                  "components": [
                    {
                      "internalType": "uint256",
                      "name": "value",
                      "type": "uint256"
                    }
                  ],
                  "internalType": "struct Decimal.D256",
                  "name": "owner",
                  "type": "tuple"
                }
              ],
              "internalType": "struct IMarket.BidShares",
              "name": "bidShares",
              "type": "tuple"
            }
          ],
          "internalType": "struct Drop.TokenType",
          "name": "",
          "type": "tuple"
        }
      ],
      "stateMutability": "nonpayable",
      "type": "function"
    },
    {
      "inputs": [],
      "name": "title",
      "outputs": [
        {
          "internalType": "string",
          "name": "",
          "type": "string"
        }
      ],
      "stateMutability": "view",
      "type": "function"
    },
    {
      "inputs": [
        {
          "internalType": "uint256",
          "name": "",
          "type": "uint256"
        }
      ],
      "name": "tokenNames",
      "outputs": [
        {
          "internalType": "string",
          "name": "",
          "type": "string"
        }
      ],
      "stateMutability": "view",
      "type": "function"
    },
    {
      "inputs": [
        {
          "internalType": "string",
          "name": "name",
          "type": "string"
        }
      ],
      "name": "tokenSupply",
      "outputs": [
        {
          "internalType": "uint256",
          "name": "",
          "type": "uint256"
        }
      ],
      "stateMutability": "view",
      "type": "function"
    },
    {
      "inputs": [
        {
          "internalType": "string",
          "name": "name",
          "type": "string"
        }
      ],
      "name": "tokenTypeAsk",
      "outputs": [
        {
          "components": [
            {
              "internalType": "uint256",
              "name": "amount",
              "type": "uint256"
            },
            {
              "internalType": "address",
              "name": "currency",
              "type": "address"
            },
            {
              "internalType": "bool",
              "name": "offline",
              "type": "bool"
            }
          ],
          "internalType": "struct IMarket.Ask",
          "name": "",
          "type": "tuple"
        }
      ],
      "stateMutability": "view",
      "type": "function"
    },
    {
      "inputs": [
        {
          "internalType": "string",
          "name": "",
          "type": "string"
        }
      ],
      "name": "tokenTypes",
      "outputs": [
        {
          "internalType": "enum ILux.Type",
          "name": "kind",
          "type": "uint8"
        },
        {
          "internalType": "string",
          "name": "name",
          "type": "string"
        },
        {
          "components": [
            {
              "internalType": "uint256",
              "name": "amount",
              "type": "uint256"
            },
            {
              "internalType": "address",
              "name": "currency",
              "type": "address"
            },
            {
              "internalType": "bool",
              "name": "offline",
              "type": "bool"
            }
          ],
          "internalType": "struct IMarket.Ask",
          "name": "ask",
          "type": "tuple"
        },
        {
          "internalType": "uint256",
          "name": "supply",
          "type": "uint256"
        },
        {
          "internalType": "uint256",
          "name": "timestamp",
          "type": "uint256"
        },
        {
          "internalType": "uint256",
          "name": "minted",
          "type": "uint256"
        },
        {
          "components": [
            {
              "internalType": "string",
              "name": "tokenURI",
              "type": "string"
            },
            {
              "internalType": "string",
              "name": "metadataURI",
              "type": "string"
            },
            {
              "internalType": "bytes32",
              "name": "contentHash",
              "type": "bytes32"
            },
            {
              "internalType": "bytes32",
              "name": "metadataHash",
              "type": "bytes32"
            }
          ],
          "internalType": "struct IMedia.MediaData",
          "name": "data",
          "type": "tuple"
        },
        {
          "components": [
            {
              "components": [
                {
                  "internalType": "uint256",
                  "name": "value",
                  "type": "uint256"
                }
              ],
              "internalType": "struct Decimal.D256",
              "name": "prevOwner",
              "type": "tuple"
            },
            {
              "components": [
                {
                  "internalType": "uint256",
                  "name": "value",
                  "type": "uint256"
                }
              ],
              "internalType": "struct Decimal.D256",
              "name": "creator",
              "type": "tuple"
            },
            {
              "components": [
                {
                  "internalType": "uint256",
                  "name": "value",
                  "type": "uint256"
                }
              ],
              "internalType": "struct Decimal.D256",
              "name": "owner",
              "type": "tuple"
            }
          ],
          "internalType": "struct IMarket.BidShares",
          "name": "bidShares",
          "type": "tuple"
        }
      ],
      "stateMutability": "view",
      "type": "function"
    },
    {
      "inputs": [
        {
          "internalType": "string",
          "name": "name",
          "type": "string"
        }
      ],
      "name": "totalMinted",
      "outputs": [
        {
          "internalType": "uint256",
          "name": "",
          "type": "uint256"
        }
      ],
      "stateMutability": "view",
      "type": "function"
    },
    {
      "inputs": [
        {
          "internalType": "address",
          "name": "newOwner",
          "type": "address"
        }
      ],
      "name": "transferOwnership",
      "outputs": [],
      "stateMutability": "nonpayable",
      "type": "function"
    }
  ],
  "transactionHash": "0xb65613ac9c65268062d0d1c8a2847b53eb6bc0afb68c510c369d29fbb0be0e28",
  "args": [
    "Gen 0"
  ],
  "solcInputHash": "aad94893dbf49146ec8b6f470208d05d",
  "bytecode": "0x60806040523480156200001157600080fd5b50604051620023df380380620023df833981016040819052620000349162000152565b6200003f336200005c565b805162000054906001906020840190620000ac565b50506200027b565b600080546001600160a01b038381166001600160a01b0319831681178455604051919092169283917f8be0079c531659141344cd1fd0a4f28419497f9722a3daafe3b4186f6b6457e09190a35050565b828054620000ba9062000228565b90600052602060002090601f016020900481019282620000de576000855562000129565b82601f10620000f957805160ff191683800117855562000129565b8280016001018555821562000129579182015b82811115620001295782518255916020019190600101906200010c565b50620001379291506200013b565b5090565b5b808211156200013757600081556001016200013c565b6000602080838503121562000165578182fd5b82516001600160401b03808211156200017c578384fd5b818501915085601f83011262000190578384fd5b815181811115620001a557620001a562000265565b604051601f8201601f19908116603f01168101908382118183101715620001d057620001d062000265565b816040528281528886848701011115620001e8578687fd5b8693505b828410156200020b5784840186015181850187015292850192620001ec565b828411156200021c57868684830101525b98975050505050505050565b600181811c908216806200023d57607f821691505b602082108114156200025f57634e487b7160e01b600052602260045260246000fd5b50919050565b634e487b7160e01b600052604160045260246000fd5b612154806200028b6000396000f3fe608060405234801561001057600080fd5b50600436106100c55760003560e01c806302696388146100ca578063310495ab146100fa5780634a79d50c1461011a5780635854c792146101225780636c1dbf1c146101435780636f592fc014610163578063715018a61461018357806375cb26721461018d57806375f699f0146101a05780638da5cb5b146101b3578063c853a1d0146101d3578063e72132d7146101e8578063f1e879c6146101fb578063f2fde38b1461021b578063f475871f1461022e575b600080fd5b6100dd6100d8366004611b11565b610241565b6040516100f1989796959493929190611de9565b60405180910390f35b61010d610108366004611b4b565b6104c8565b6040516100f19190611e5c565b61010d610574565b610135610130366004611b11565b610581565b6040519081526020016100f1565b610156610151366004611b11565b610596565b6040516100f19190611ec5565b610176610171366004611b11565b61084f565b6040516100f19190611ea4565b61018b61086a565b005b61018b61019b366004611a43565b6108a5565b6101356101ae366004611b11565b6108f6565b6101bb61090b565b6040516001600160a01b0390911681526020016100f1565b6101db61091a565b6040516100f19190611d88565b6002546101bb906001600160a01b031681565b61020e610209366004611a5d565b610cf6565b6040516100f19190611eb2565b61018b610229366004611a43565b6112a0565b61020e61023c366004611b11565b611340565b80516020818301810180516003825292820191909301209152805460018201805460ff9092169291610272906120a2565b80601f016020809104026020016040519081016040528092919081815260200182805461029e906120a2565b80156102eb5780601f106102c0576101008083540402835291602001916102eb565b820191906000526020600020905b8154815290600101906020018083116102ce57829003601f168201915b5050604080516060810182526002870154815260038701546001600160a01b0381166020830152600160a01b900460ff1615158183015260048701546005880154600689015484516080810190955260078a018054999a94999398509196509450919291908290829061035d906120a2565b80601f0160208091040260200160405190810160405280929190818152602001828054610389906120a2565b80156103d65780601f106103ab576101008083540402835291602001916103d6565b820191906000526020600020905b8154815290600101906020018083116103b957829003601f168201915b505050505081526020016001820180546103ef906120a2565b80601f016020809104026020016040519081016040528092919081815260200182805461041b906120a2565b80156104685780601f1061043d57610100808354040283529160200191610468565b820191906000526020600020905b81548152906001019060200180831161044b57829003601f168201915b505050918352505060028201546020808301919091526003909201546040918201528051608081018252600b85015460608201908152815281518084018352600c86015481528184015281519283018252600d9094015482528301529088565b600481815481106104d857600080fd5b9060005260206000200160009150905080546104f3906120a2565b80601f016020809104026020016040519081016040528092919081815260200182805461051f906120a2565b801561056c5780601f106105415761010080835404028352916020019161056c565b820191906000526020600020905b81548152906001019060200180831161054f57829003601f168201915b505050505081565b600180546104f3906120a2565b600061058c82611340565b6060015192915050565b61059e611763565b6002546001600160a01b031633146106095760405162461bcd60e51b815260206004820152602360248201527f44726f703a204f6e6c79204170702063616e2063616c6c2074686973206d65746044820152621a1bd960ea1b60648201526084015b60405180910390fd5b600061061483611340565b905061061f83610581565b1580610636575061062f83610581565b8160a00151105b6106725760405162461bcd60e51b815260206004820152600d60248201526c4f7574206f6620746f6b656e7360981b6044820152606401610600565b60a08101805190610682826120d7565b81525050806003826020015160405161069b9190611cd1565b90815260405190819003602001902081518154829060ff191660018360038111156106d657634e487b7160e01b600052602160045260246000fd5b021790555060208281015180516106f392600185019201906117c8565b506040828101518051600284015560208082015160038501805493909401511515600160a01b026001600160a81b03199093166001600160a01b039091161791909117909155606083015160048301556080830151600583015560a0830151600683015560c0830151805180519192600785019261077492849201906117c8565b50602082810151805161078d92600185019201906117c8565b50604082810151600283015560609092015160039182015560e093840151805151600b850155602081015151600c85015582015151600d9093019290925580519283019052825182918111156107f357634e487b7160e01b600052602160045260246000fd5b815260200182602001518152602001600081526020014281526020018260c0015181526020018260e00151815260200160405180606001604052806000815260200160008152602001600015158152508152509150505b919050565b61085761184c565b61086082611340565b6040015192915050565b3361087361090b565b6001600160a01b0316146108995760405162461bcd60e51b815260040161060090611e6f565b6108a36000611643565b565b336108ae61090b565b6001600160a01b0316146108d45760405162461bcd60e51b815260040161060090611e6f565b600280546001600160a01b0319166001600160a01b0392909216919091179055565b600061090182611340565b60a0015192915050565b6000546001600160a01b031690565b6004546060906000906001600160401b0381111561094857634e487b7160e01b600052604160045260246000fd5b60405190808252806020026020018201604052801561098157816020015b61096e61186c565b8152602001906001900390816109665790505b50905060005b600454811015610cf0576003600482815481106109b457634e487b7160e01b600052603260045260246000fd5b906000526020600020016040516109cb9190611ced565b9081526040805191829003602001822061010083019091528054829060ff166003811115610a0957634e487b7160e01b600052602160045260246000fd5b6003811115610a2857634e487b7160e01b600052602160045260246000fd5b8152602001600182018054610a3c906120a2565b80601f0160208091040260200160405190810160405280929190818152602001828054610a68906120a2565b8015610ab55780601f10610a8a57610100808354040283529160200191610ab5565b820191906000526020600020905b815481529060010190602001808311610a9857829003601f168201915b505050918352505060408051606080820183526002850154825260038501546001600160a01b038116602080850191909152600160a01b90910460ff161515838501528401919091526004840154828401526005840154908301526006830154608080840191909152815190810190915260078301805460a09093019282908290610b3f906120a2565b80601f0160208091040260200160405190810160405280929190818152602001828054610b6b906120a2565b8015610bb85780601f10610b8d57610100808354040283529160200191610bb8565b820191906000526020600020905b815481529060010190602001808311610b9b57829003601f168201915b50505050508152602001600182018054610bd1906120a2565b80601f0160208091040260200160405190810160405280929190818152602001828054610bfd906120a2565b8015610c4a5780601f10610c1f57610100808354040283529160200191610c4a565b820191906000526020600020905b815481529060010190602001808311610c2d57829003601f168201915b505050918352505060028201546020808301919091526003909201546040918201529183528151608081018352600b85015460608201908152815282518083018452600c86015481528183015282518083018452600d909501548552918201939093529101528251839083908110610cd257634e487b7160e01b600052603260045260246000fd5b60200260200101819052508080610ce8906120d7565b915050610987565b50919050565b610cfe61186c565b33610d0761090b565b6001600160a01b031614610d2d5760405162461bcd60e51b815260040161060090611e6f565b6000600387604051610d3f9190611cd1565b9081526040805191829003602001822061010083019091528054829060ff166003811115610d7d57634e487b7160e01b600052602160045260246000fd5b6003811115610d9c57634e487b7160e01b600052602160045260246000fd5b8152602001600182018054610db0906120a2565b80601f0160208091040260200160405190810160405280929190818152602001828054610ddc906120a2565b8015610e295780601f10610dfe57610100808354040283529160200191610e29565b820191906000526020600020905b815481529060010190602001808311610e0c57829003601f168201915b505050918352505060408051606080820183526002850154825260038501546001600160a01b038116602080850191909152600160a01b90910460ff161515838501528401919091526004840154828401526005840154908301526006830154608080840191909152815190810190915260078301805460a09093019282908290610eb3906120a2565b80601f0160208091040260200160405190810160405280929190818152602001828054610edf906120a2565b8015610f2c5780601f10610f0157610100808354040283529160200191610f2c565b820191906000526020600020905b815481529060010190602001808311610f0f57829003601f168201915b50505050508152602001600182018054610f45906120a2565b80601f0160208091040260200160405190810160405280929190818152602001828054610f71906120a2565b8015610fbe5780601f10610f9357610100808354040283529160200191610fbe565b820191906000526020600020905b815481529060010190602001808311610fa157829003601f168201915b505050918352505060028201546020808301919091526003909201546040918201529183528151608081018352600b850154606080830191825290825283518084018552600c87015481528284015283518084018552600d9096015486529281019490945291909101919091528101519091501561108a5760405162461bcd60e51b815260206004820152602360248201527f44726f703a20546f6b656e54797065206e616d6520616c72656164792065786960448201526273747360e81b6064820152608401610600565b61109261186c565b808960038111156110b357634e487b7160e01b600052602160045260246000fd5b908160038111156110d457634e487b7160e01b600052602160045260246000fd5b9052506020810188905260408101879052606081018690526110f68585611693565b60c08201526111036116c7565b60e08201524260808201526040518190600390611121908b90611cd1565b90815260405190819003602001902081518154829060ff1916600183600381111561115c57634e487b7160e01b600052602160045260246000fd5b0217905550602082810151805161117992600185019201906117c8565b506040828101518051600284015560208082015160038501805493909401511515600160a01b026001600160a81b03199093166001600160a01b039091161791909117909155606083015160048301556080830151600583015560a0830151600683015560c083015180518051919260078501926111fa92849201906117c8565b50602082810151805161121392600185019201906117c8565b50604082810151600283015560609092015160039091015560e09290920151805151600b83015560208082015151600c84015592015151600d90910155600480546001810182556000919091528951611293927f8a35acfbc15ff81a39ae7d344fd709f28e8600b4aa8c65c6b64bfe7fe36bd19b909201918b01906117c8565b5098975050505050505050565b336112a961090b565b6001600160a01b0316146112cf5760405162461bcd60e51b815260040161060090611e6f565b6001600160a01b0381166113345760405162461bcd60e51b815260206004820152602660248201527f4f776e61626c653a206e6577206f776e657220697320746865207a65726f206160448201526564647265737360d01b6064820152608401610600565b61133d81611643565b50565b61134861186c565b6003826040516113589190611cd1565b9081526040805191829003602001822061010083019091528054829060ff16600381111561139657634e487b7160e01b600052602160045260246000fd5b60038111156113b557634e487b7160e01b600052602160045260246000fd5b81526020016001820180546113c9906120a2565b80601f01602080910402602001604051908101604052809291908181526020018280546113f5906120a2565b80156114425780601f1061141757610100808354040283529160200191611442565b820191906000526020600020905b81548152906001019060200180831161142557829003601f168201915b505050918352505060408051606080820183526002850154825260038501546001600160a01b038116602080850191909152600160a01b90910460ff161515838501528401919091526004840154828401526005840154908301526006830154608080840191909152815190810190915260078301805460a090930192829082906114cc906120a2565b80601f01602080910402602001604051908101604052809291908181526020018280546114f8906120a2565b80156115455780601f1061151a57610100808354040283529160200191611545565b820191906000526020600020905b81548152906001019060200180831161152857829003601f168201915b5050505050815260200160018201805461155e906120a2565b80601f016020809104026020016040519081016040528092919081815260200182805461158a906120a2565b80156115d75780601f106115ac576101008083540402835291602001916115d7565b820191906000526020600020905b8154815290600101906020018083116115ba57829003601f168201915b505050918352505060028201546020808301919091526003909201546040918201529183528151608081018352600b85015460608201908152815282518083018452600c86015481528183015282518083018452600d9095015485529182019390935291015292915050565b600080546001600160a01b038381166001600160a01b0319831681178455604051919092169283917f8be0079c531659141344cd1fd0a4f28419497f9722a3daafe3b4186f6b6457e09190a35050565b61169b6118bc565b506040805160808101825283815260208101839052600091810182905260608101919091525b92915050565b6116cf6118e3565b60408051608081019091528060608101806116f76116ef6012600a611fab565b600090611750565b8152508152602001604051806020016040528061171b6012600a6116ef9190611fab565b815250815260200160405180602001604052806117476012600a61173f9190611fab565b606490611750565b90529052919050565b600061175c8284612053565b9392505050565b6040805160e0810190915280600081526020016060815260200160008152602001600081526020016117936118bc565b81526020016117a06118e3565b815260408051606081018252600080825260208281018290529282015291015290565b905290565b8280546117d4906120a2565b90600052602060002090601f0160209004810192826117f6576000855561183c565b82601f1061180f57805160ff191683800117855561183c565b8280016001018555821561183c579182015b8281111561183c578251825591602001919060010190611821565b50611848929150611910565b5090565b604080516060810182526000808252602082018190529181019190915290565b6040805161010081018252600081526060602082015290810161188d61184c565b81526020016000815260200160008152602001600081526020016118af6118bc565b81526020016117c36118e3565b60408051608081018252606080825260208201819052600092820183905281019190915290565b60405180606001604052806118f6611925565b8152602001611903611925565b81526020016117c3611925565b5b808211156118485760008155600101611911565b6040518060200160405280600081525090565b80356001600160a01b038116811461084a57600080fd5b600082601f83011261195f578081fd5b81356001600160401b038082111561197957611979612108565b604051601f8301601f19908116603f011681019082821181831017156119a1576119a1612108565b816040528381528660208588010111156119b9578485fd5b8360208701602083013792830160200193909352509392505050565b6000606082840312156119e6578081fd5b604051606081018181106001600160401b0382111715611a0857611a08612108565b60405282358152905080611a1e60208401611938565b602082015260408301358015158114611a3657600080fd5b6040919091015292915050565b600060208284031215611a54578081fd5b61175c82611938565b6000806000806000806101008789031215611a76578182fd5b863560048110611a84578283fd5b955060208701356001600160401b0380821115611a9f578384fd5b611aab8a838b0161194f565b9650611aba8a60408b016119d5565b955060a0890135945060c0890135915080821115611ad6578384fd5b611ae28a838b0161194f565b935060e0890135915080821115611af7578283fd5b50611b0489828a0161194f565b9150509295509295509295565b600060208284031215611b22578081fd5b81356001600160401b03811115611b37578182fd5b611b438482850161194f565b949350505050565b600060208284031215611b5c578081fd5b5035919050565b60048110611b8157634e487b7160e01b600052602160045260246000fd5b9052565b60008151808452611b9d816020860160208601612072565b601f01601f19169290920160200192915050565b805182526020808201516001600160a01b0316908301526040908101511515910152565b8051518252602080820151519083015260409081015151910152565b6000815160808452611c066080850182611b85565b905060208301518482036020860152611c1f8282611b85565b91505060408301516040850152606083015160608501528091505092915050565b6000610180611c50848451611b63565b6020830151816020860152611c6782860182611b85565b9150506040830151611c7c6040860182611bb1565b50606083015160a0850152608083015160c085015260a083015160e085015260c0830151848203610100860152611cb38282611bf1565b91505060e0830151611cc9610120860182611bd5565b509392505050565b60008251611ce3818460208701612072565b9190910192915050565b600080835482600182811c915080831680611d0957607f831692505b6020808410821415611d2957634e487b7160e01b87526022600452602487fd5b818015611d3d5760018114611d4e57611d7a565b60ff19861689528489019650611d7a565b60008a815260209020885b86811015611d725781548b820152908501908301611d59565b505084890196505b509498975050505050505050565b6000602080830181845280855180835260408601915060408160051b8701019250838701855b82811015611ddc57603f19888603018452611dca858351611c40565b94509285019290850190600101611dae565b5092979650505050505050565b6000610180611df8838c611b63565b806020840152611e0a8184018b611b85565b9050611e19604084018a611bb1565b8760a08401528660c08401528560e0840152828103610100840152611e3e8186611bf1565b915050611e4f610120830184611bd5565b9998505050505050505050565b60208152600061175c6020830184611b85565b6020808252818101527f4f776e61626c653a2063616c6c6572206973206e6f7420746865206f776e6572604082015260600190565b606081016116c18284611bb1565b60208152600061175c6020830184611c40565b60208152611ed7602082018351611b63565b60006020830151610160806040850152611ef5610180850183611b85565b915060408501516060850152606085015160808501526080850151601f198584030160a0860152611f268382611bf1565b92505060a0850151611f3b60c0860182611bd5565b5060c094909401518051610120850152602081015161014085015260400151151592909301919091525090565b600181815b80851115611fa3578160001904821115611f8957611f896120f2565b80851615611f9657918102915b93841c9390800290611f6d565b509250929050565b600061175c8383600082611fc1575060016116c1565b81611fce575060006116c1565b8160018114611fe45760028114611fee5761200a565b60019150506116c1565b60ff841115611fff57611fff6120f2565b50506001821b6116c1565b5060208310610133831016604e8410600b841016171561202d575081810a6116c1565b6120378383611f68565b806000190482111561204b5761204b6120f2565b029392505050565b600081600019048311821515161561206d5761206d6120f2565b500290565b60005b8381101561208d578181015183820152602001612075565b8381111561209c576000848401525b50505050565b600181811c908216806120b657607f821691505b60208210811415610cf057634e487b7160e01b600052602260045260246000fd5b60006000198214156120eb576120eb6120f2565b5060010190565b634e487b7160e01b600052601160045260246000fd5b634e487b7160e01b600052604160045260246000fdfea264697066735822122056fe32e0e0f23129f9eb1d8d5873044bad6976be35497237472b7ad3cb9de79e64736f6c63430008040033",
  "libraries": {},
  "devdoc": {
    "kind": "dev",
    "methods": {
      "owner()": {
        "details": "Returns the address of the current owner."
      },
      "renounceOwnership()": {
        "details": "Leaves the contract without owner. It will not be possible to call `onlyOwner` functions anymore. Can only be called by the current owner. NOTE: Renouncing ownership will leave the contract without an owner, thereby removing any functionality that is only available to the owner."
      },
      "transferOwnership(address)": {
        "details": "Transfers ownership of the contract to a new account (`newOwner`). Can only be called by the current owner."
      }
    },
    "version": 1
  },
  "userdoc": {
    "kind": "user",
    "methods": {},
    "version": 1
  },
  "storageLayout": {
    "storage": [
      {
        "astId": 1104,
        "contract": "src/Drop.sol:Drop",
        "label": "_owner",
        "offset": 0,
        "slot": "0",
        "type": "t_address"
      },
      {
        "astId": 5142,
        "contract": "src/Drop.sol:Drop",
        "label": "title",
        "offset": 0,
        "slot": "1",
        "type": "t_string_storage"
      },
      {
        "astId": 5144,
        "contract": "src/Drop.sol:Drop",
        "label": "appAddress",
        "offset": 0,
        "slot": "2",
        "type": "t_address"
      },
      {
        "astId": 5149,
        "contract": "src/Drop.sol:Drop",
        "label": "tokenTypes",
        "offset": 0,
        "slot": "3",
        "type": "t_mapping(t_string_memory_ptr,t_struct(TokenType)5140_storage)"
      },
      {
        "astId": 5152,
        "contract": "src/Drop.sol:Drop",
        "label": "tokenNames",
        "offset": 0,
        "slot": "4",
        "type": "t_array(t_string_storage)dyn_storage"
      }
    ],
    "types": {
      "t_address": {
        "encoding": "inplace",
        "label": "address",
        "numberOfBytes": "20"
      },
      "t_array(t_string_storage)dyn_storage": {
        "base": "t_string_storage",
        "encoding": "dynamic_array",
        "label": "string[]",
        "numberOfBytes": "32"
      },
      "t_bool": {
        "encoding": "inplace",
        "label": "bool",
        "numberOfBytes": "1"
      },
      "t_bytes32": {
        "encoding": "inplace",
        "label": "bytes32",
        "numberOfBytes": "32"
      },
      "t_enum(Type)17123": {
        "encoding": "inplace",
        "label": "enum ILux.Type",
        "numberOfBytes": "1"
      },
      "t_mapping(t_string_memory_ptr,t_struct(TokenType)5140_storage)": {
        "encoding": "mapping",
        "key": "t_string_memory_ptr",
        "label": "mapping(string => struct Drop.TokenType)",
        "numberOfBytes": "32",
        "value": "t_struct(TokenType)5140_storage"
      },
      "t_string_memory_ptr": {
        "encoding": "bytes",
        "label": "string",
        "numberOfBytes": "32"
      },
      "t_string_storage": {
        "encoding": "bytes",
        "label": "string",
        "numberOfBytes": "32"
      },
      "t_struct(Ask)17177_storage": {
        "encoding": "inplace",
        "label": "struct IMarket.Ask",
        "members": [
          {
            "astId": 17172,
            "contract": "src/Drop.sol:Drop",
            "label": "amount",
            "offset": 0,
            "slot": "0",
            "type": "t_uint256"
          },
          {
            "astId": 17174,
            "contract": "src/Drop.sol:Drop",
            "label": "currency",
            "offset": 0,
            "slot": "1",
            "type": "t_address"
          },
          {
            "astId": 17176,
            "contract": "src/Drop.sol:Drop",
            "label": "offline",
            "offset": 20,
            "slot": "1",
            "type": "t_bool"
          }
        ],
        "numberOfBytes": "64"
      },
      "t_struct(BidShares)17187_storage": {
        "encoding": "inplace",
        "label": "struct IMarket.BidShares",
        "members": [
          {
            "astId": 17180,
            "contract": "src/Drop.sol:Drop",
            "label": "prevOwner",
            "offset": 0,
            "slot": "0",
            "type": "t_struct(D256)5031_storage"
          },
          {
            "astId": 17183,
            "contract": "src/Drop.sol:Drop",
            "label": "creator",
            "offset": 0,
            "slot": "1",
            "type": "t_struct(D256)5031_storage"
          },
          {
            "astId": 17186,
            "contract": "src/Drop.sol:Drop",
            "label": "owner",
            "offset": 0,
            "slot": "2",
            "type": "t_struct(D256)5031_storage"
          }
        ],
        "numberOfBytes": "96"
      },
      "t_struct(D256)5031_storage": {
        "encoding": "inplace",
        "label": "struct Decimal.D256",
        "members": [
          {
            "astId": 5030,
            "contract": "src/Drop.sol:Drop",
            "label": "value",
            "offset": 0,
            "slot": "0",
            "type": "t_uint256"
          }
        ],
        "numberOfBytes": "32"
      },
      "t_struct(MediaData)17364_storage": {
        "encoding": "inplace",
        "label": "struct IMedia.MediaData",
        "members": [
          {
            "astId": 17357,
            "contract": "src/Drop.sol:Drop",
            "label": "tokenURI",
            "offset": 0,
            "slot": "0",
            "type": "t_string_storage"
          },
          {
            "astId": 17359,
            "contract": "src/Drop.sol:Drop",
            "label": "metadataURI",
            "offset": 0,
            "slot": "1",
            "type": "t_string_storage"
          },
          {
            "astId": 17361,
            "contract": "src/Drop.sol:Drop",
            "label": "contentHash",
            "offset": 0,
            "slot": "2",
            "type": "t_bytes32"
          },
          {
            "astId": 17363,
            "contract": "src/Drop.sol:Drop",
            "label": "metadataHash",
            "offset": 0,
            "slot": "3",
            "type": "t_bytes32"
          }
        ],
        "numberOfBytes": "128"
      },
      "t_struct(TokenType)5140_storage": {
        "encoding": "inplace",
        "label": "struct Drop.TokenType",
        "members": [
          {
            "astId": 5122,
            "contract": "src/Drop.sol:Drop",
            "label": "kind",
            "offset": 0,
            "slot": "0",
            "type": "t_enum(Type)17123"
          },
          {
            "astId": 5124,
            "contract": "src/Drop.sol:Drop",
            "label": "name",
            "offset": 0,
            "slot": "1",
            "type": "t_string_storage"
          },
          {
            "astId": 5127,
            "contract": "src/Drop.sol:Drop",
            "label": "ask",
            "offset": 0,
            "slot": "2",
            "type": "t_struct(Ask)17177_storage"
          },
          {
            "astId": 5129,
            "contract": "src/Drop.sol:Drop",
            "label": "supply",
            "offset": 0,
            "slot": "4",
            "type": "t_uint256"
          },
          {
            "astId": 5131,
            "contract": "src/Drop.sol:Drop",
            "label": "timestamp",
            "offset": 0,
            "slot": "5",
            "type": "t_uint256"
          },
          {
            "astId": 5133,
            "contract": "src/Drop.sol:Drop",
            "label": "minted",
            "offset": 0,
            "slot": "6",
            "type": "t_uint256"
          },
          {
            "astId": 5136,
            "contract": "src/Drop.sol:Drop",
            "label": "data",
            "offset": 0,
            "slot": "7",
            "type": "t_struct(MediaData)17364_storage"
          },
          {
            "astId": 5139,
            "contract": "src/Drop.sol:Drop",
            "label": "bidShares",
            "offset": 0,
            "slot": "11",
            "type": "t_struct(BidShares)17187_storage"
          }
        ],
        "numberOfBytes": "448"
      },
      "t_uint256": {
        "encoding": "inplace",
        "label": "uint256",
        "numberOfBytes": "32"
      }
    }
  }
}