{
  "address": "0x7f535f2f82Aa47a49F9f5ceb3433Ff706296008D",
  "abi": [
    {
      "inputs": [
        {
          "internalType": "string",
          "name": "_title",
          "type": "string"
        }
      ],
      "stateMutability": "nonpayable",
      "type": "constructor"
    },
    {
      "anonymous": false,
      "inputs": [
        {
          "indexed": true,
          "internalType": "address",
          "name": "previousOwner",
          "type": "address"
        },
        {
          "indexed": true,
          "internalType": "address",
          "name": "newOwner",
          "type": "address"
        }
      ],
      "name": "OwnershipTransferred",
      "type": "event"
    },
    {
      "anonymous": false,
      "inputs": [
        {
          "components": [
            {
              "internalType": "enum ILux.Type",
              "name": "kind",
              "type": "uint8"
            },
            {
              "internalType": "string",
              "name": "name",
              "type": "string"
            },
            {
              "components": [
                {
                  "internalType": "uint256",
                  "name": "amount",
                  "type": "uint256"
                },
                {
                  "internalType": "address",
                  "name": "currency",
                  "type": "address"
                },
                {
                  "internalType": "bool",
                  "name": "offline",
                  "type": "bool"
                }
              ],
              "internalType": "struct IMarket.Ask",
              "name": "ask",
              "type": "tuple"
            },
            {
              "internalType": "uint256",
              "name": "supply",
              "type": "uint256"
            },
            {
              "internalType": "uint256",
              "name": "timestamp",
              "type": "uint256"
            },
            {
              "internalType": "uint256",
              "name": "minted",
              "type": "uint256"
            },
            {
              "components": [
                {
                  "internalType": "string",
                  "name": "tokenURI",
                  "type": "string"
                },
                {
                  "internalType": "string",
                  "name": "metadataURI",
                  "type": "string"
                },
                {
                  "internalType": "bytes32",
                  "name": "contentHash",
                  "type": "bytes32"
                },
                {
                  "internalType": "bytes32",
                  "name": "metadataHash",
                  "type": "bytes32"
                }
              ],
              "internalType": "struct IMedia.MediaData",
              "name": "data",
              "type": "tuple"
            },
            {
              "components": [
                {
                  "components": [
                    {
                      "internalType": "uint256",
                      "name": "value",
                      "type": "uint256"
                    }
                  ],
                  "internalType": "struct Decimal.D256",
                  "name": "prevOwner",
                  "type": "tuple"
                },
                {
                  "components": [
                    {
                      "internalType": "uint256",
                      "name": "value",
                      "type": "uint256"
                    }
                  ],
                  "internalType": "struct Decimal.D256",
                  "name": "creator",
                  "type": "tuple"
                },
                {
                  "components": [
                    {
                      "internalType": "uint256",
                      "name": "value",
                      "type": "uint256"
                    }
                  ],
                  "internalType": "struct Decimal.D256",
                  "name": "owner",
                  "type": "tuple"
                }
              ],
              "internalType": "struct IMarket.BidShares",
              "name": "bidShares",
              "type": "tuple"
            }
          ],
          "indexed": false,
          "internalType": "struct IDrop.TokenType",
          "name": "tokenType",
          "type": "tuple"
        }
      ],
      "name": "TokenTypeAdded",
      "type": "event"
    },
    {
      "anonymous": false,
      "inputs": [
        {
          "indexed": false,
          "internalType": "string",
          "name": "name",
          "type": "string"
        },
        {
          "components": [
            {
              "internalType": "uint256",
              "name": "amount",
              "type": "uint256"
            },
            {
              "internalType": "address",
              "name": "currency",
              "type": "address"
            },
            {
              "internalType": "bool",
              "name": "offline",
              "type": "bool"
            }
          ],
          "indexed": false,
          "internalType": "struct IMarket.Ask",
          "name": "ask",
          "type": "tuple"
        }
      ],
      "name": "TokenTypeAskUpdated",
      "type": "event"
    },
    {
      "anonymous": false,
      "inputs": [
        {
          "indexed": false,
          "internalType": "string",
          "name": "name",
          "type": "string"
        },
        {
          "components": [
            {
              "components": [
                {
                  "internalType": "uint256",
                  "name": "value",
                  "type": "uint256"
                }
              ],
              "internalType": "struct Decimal.D256",
              "name": "prevOwner",
              "type": "tuple"
            },
            {
              "components": [
                {
                  "internalType": "uint256",
                  "name": "value",
                  "type": "uint256"
                }
              ],
              "internalType": "struct Decimal.D256",
              "name": "creator",
              "type": "tuple"
            },
            {
              "components": [
                {
                  "internalType": "uint256",
                  "name": "value",
                  "type": "uint256"
                }
              ],
              "internalType": "struct Decimal.D256",
              "name": "owner",
              "type": "tuple"
            }
          ],
          "indexed": false,
          "internalType": "struct IMarket.BidShares",
          "name": "bidShares",
          "type": "tuple"
        }
      ],
      "name": "TokenTypeBidSharesUpdated",
      "type": "event"
    },
    {
      "inputs": [],
      "name": "appAddress",
      "outputs": [
        {
          "internalType": "address",
          "name": "",
          "type": "address"
        }
      ],
      "stateMutability": "view",
      "type": "function"
    },
    {
      "inputs": [
        {
          "internalType": "address",
          "name": "_appAddress",
          "type": "address"
        }
      ],
      "name": "configure",
      "outputs": [],
      "stateMutability": "nonpayable",
      "type": "function"
    },
    {
      "inputs": [
        {
          "internalType": "string",
          "name": "name",
          "type": "string"
        }
      ],
      "name": "getTokenType",
      "outputs": [
        {
          "components": [
            {
              "internalType": "enum ILux.Type",
              "name": "kind",
              "type": "uint8"
            },
            {
              "internalType": "string",
              "name": "name",
              "type": "string"
            },
            {
              "components": [
                {
                  "internalType": "uint256",
                  "name": "amount",
                  "type": "uint256"
                },
                {
                  "internalType": "address",
                  "name": "currency",
                  "type": "address"
                },
                {
                  "internalType": "bool",
                  "name": "offline",
                  "type": "bool"
                }
              ],
              "internalType": "struct IMarket.Ask",
              "name": "ask",
              "type": "tuple"
            },
            {
              "internalType": "uint256",
              "name": "supply",
              "type": "uint256"
            },
            {
              "internalType": "uint256",
              "name": "timestamp",
              "type": "uint256"
            },
            {
              "internalType": "uint256",
              "name": "minted",
              "type": "uint256"
            },
            {
              "components": [
                {
                  "internalType": "string",
                  "name": "tokenURI",
                  "type": "string"
                },
                {
                  "internalType": "string",
                  "name": "metadataURI",
                  "type": "string"
                },
                {
                  "internalType": "bytes32",
                  "name": "contentHash",
                  "type": "bytes32"
                },
                {
                  "internalType": "bytes32",
                  "name": "metadataHash",
                  "type": "bytes32"
                }
              ],
              "internalType": "struct IMedia.MediaData",
              "name": "data",
              "type": "tuple"
            },
            {
              "components": [
                {
                  "components": [
                    {
                      "internalType": "uint256",
                      "name": "value",
                      "type": "uint256"
                    }
                  ],
                  "internalType": "struct Decimal.D256",
                  "name": "prevOwner",
                  "type": "tuple"
                },
                {
                  "components": [
                    {
                      "internalType": "uint256",
                      "name": "value",
                      "type": "uint256"
                    }
                  ],
                  "internalType": "struct Decimal.D256",
                  "name": "creator",
                  "type": "tuple"
                },
                {
                  "components": [
                    {
                      "internalType": "uint256",
                      "name": "value",
                      "type": "uint256"
                    }
                  ],
                  "internalType": "struct Decimal.D256",
                  "name": "owner",
                  "type": "tuple"
                }
              ],
              "internalType": "struct IMarket.BidShares",
              "name": "bidShares",
              "type": "tuple"
            }
          ],
          "internalType": "struct IDrop.TokenType",
          "name": "",
          "type": "tuple"
        }
      ],
      "stateMutability": "view",
      "type": "function"
    },
    {
      "inputs": [],
      "name": "getTokenTypes",
      "outputs": [
        {
          "components": [
            {
              "internalType": "enum ILux.Type",
              "name": "kind",
              "type": "uint8"
            },
            {
              "internalType": "string",
              "name": "name",
              "type": "string"
            },
            {
              "components": [
                {
                  "internalType": "uint256",
                  "name": "amount",
                  "type": "uint256"
                },
                {
                  "internalType": "address",
                  "name": "currency",
                  "type": "address"
                },
                {
                  "internalType": "bool",
                  "name": "offline",
                  "type": "bool"
                }
              ],
              "internalType": "struct IMarket.Ask",
              "name": "ask",
              "type": "tuple"
            },
            {
              "internalType": "uint256",
              "name": "supply",
              "type": "uint256"
            },
            {
              "internalType": "uint256",
              "name": "timestamp",
              "type": "uint256"
            },
            {
              "internalType": "uint256",
              "name": "minted",
              "type": "uint256"
            },
            {
              "components": [
                {
                  "internalType": "string",
                  "name": "tokenURI",
                  "type": "string"
                },
                {
                  "internalType": "string",
                  "name": "metadataURI",
                  "type": "string"
                },
                {
                  "internalType": "bytes32",
                  "name": "contentHash",
                  "type": "bytes32"
                },
                {
                  "internalType": "bytes32",
                  "name": "metadataHash",
                  "type": "bytes32"
                }
              ],
              "internalType": "struct IMedia.MediaData",
              "name": "data",
              "type": "tuple"
            },
            {
              "components": [
                {
                  "components": [
                    {
                      "internalType": "uint256",
                      "name": "value",
                      "type": "uint256"
                    }
                  ],
                  "internalType": "struct Decimal.D256",
                  "name": "prevOwner",
                  "type": "tuple"
                },
                {
                  "components": [
                    {
                      "internalType": "uint256",
                      "name": "value",
                      "type": "uint256"
                    }
                  ],
                  "internalType": "struct Decimal.D256",
                  "name": "creator",
                  "type": "tuple"
                },
                {
                  "components": [
                    {
                      "internalType": "uint256",
                      "name": "value",
                      "type": "uint256"
                    }
                  ],
                  "internalType": "struct Decimal.D256",
                  "name": "owner",
                  "type": "tuple"
                }
              ],
              "internalType": "struct IMarket.BidShares",
              "name": "bidShares",
              "type": "tuple"
            }
          ],
          "internalType": "struct IDrop.TokenType[]",
          "name": "",
          "type": "tuple[]"
        }
      ],
      "stateMutability": "view",
      "type": "function"
    },
    {
      "inputs": [
        {
          "components": [
            {
              "components": [
                {
                  "internalType": "uint256",
                  "name": "value",
                  "type": "uint256"
                }
              ],
              "internalType": "struct Decimal.D256",
              "name": "prevOwner",
              "type": "tuple"
            },
            {
              "components": [
                {
                  "internalType": "uint256",
                  "name": "value",
                  "type": "uint256"
                }
              ],
              "internalType": "struct Decimal.D256",
              "name": "creator",
              "type": "tuple"
            },
            {
              "components": [
                {
                  "internalType": "uint256",
                  "name": "value",
                  "type": "uint256"
                }
              ],
              "internalType": "struct Decimal.D256",
              "name": "owner",
              "type": "tuple"
            }
          ],
          "internalType": "struct IMarket.BidShares",
          "name": "bidShares",
          "type": "tuple"
        }
      ],
      "name": "isValidBidShares",
      "outputs": [
        {
          "internalType": "bool",
          "name": "",
          "type": "bool"
        }
      ],
      "stateMutability": "pure",
      "type": "function"
    },
    {
      "inputs": [
        {
          "internalType": "string",
          "name": "name",
          "type": "string"
        }
      ],
      "name": "newNFT",
      "outputs": [
        {
          "components": [
            {
              "internalType": "enum ILux.Type",
              "name": "kind",
              "type": "uint8"
            },
            {
              "internalType": "string",
              "name": "name",
              "type": "string"
            },
            {
              "internalType": "uint256",
              "name": "id",
              "type": "uint256"
            },
            {
              "internalType": "uint256",
              "name": "timestamp",
              "type": "uint256"
            },
            {
              "components": [
                {
                  "internalType": "string",
                  "name": "tokenURI",
                  "type": "string"
                },
                {
                  "internalType": "string",
                  "name": "metadataURI",
                  "type": "string"
                },
                {
                  "internalType": "bytes32",
                  "name": "contentHash",
                  "type": "bytes32"
                },
                {
                  "internalType": "bytes32",
                  "name": "metadataHash",
                  "type": "bytes32"
                }
              ],
              "internalType": "struct IMedia.MediaData",
              "name": "data",
              "type": "tuple"
            },
            {
              "components": [
                {
                  "components": [
                    {
                      "internalType": "uint256",
                      "name": "value",
                      "type": "uint256"
                    }
                  ],
                  "internalType": "struct Decimal.D256",
                  "name": "prevOwner",
                  "type": "tuple"
                },
                {
                  "components": [
                    {
                      "internalType": "uint256",
                      "name": "value",
                      "type": "uint256"
                    }
                  ],
                  "internalType": "struct Decimal.D256",
                  "name": "creator",
                  "type": "tuple"
                },
                {
                  "components": [
                    {
                      "internalType": "uint256",
                      "name": "value",
                      "type": "uint256"
                    }
                  ],
                  "internalType": "struct Decimal.D256",
                  "name": "owner",
                  "type": "tuple"
                }
              ],
              "internalType": "struct IMarket.BidShares",
              "name": "bidShares",
              "type": "tuple"
            },
            {
              "components": [
                {
                  "internalType": "uint256",
                  "name": "tokenId",
                  "type": "uint256"
                },
                {
                  "internalType": "uint256",
                  "name": "dropId",
                  "type": "uint256"
                },
                {
                  "internalType": "bool",
                  "name": "burned",
                  "type": "bool"
                }
              ],
              "internalType": "struct ILux.Meta",
              "name": "meta",
              "type": "tuple"
            }
          ],
          "internalType": "struct ILux.Token",
          "name": "",
          "type": "tuple"
        }
      ],
      "stateMutability": "nonpayable",
      "type": "function"
    },
    {
      "inputs": [],
      "name": "owner",
      "outputs": [
        {
          "internalType": "address",
          "name": "",
          "type": "address"
        }
      ],
      "stateMutability": "view",
      "type": "function"
    },
    {
      "inputs": [],
      "name": "renounceOwnership",
      "outputs": [],
      "stateMutability": "nonpayable",
      "type": "function"
    },
    {
      "inputs": [
        {
          "internalType": "string",
          "name": "name",
          "type": "string"
        },
        {
          "components": [
            {
              "components": [
                {
                  "internalType": "uint256",
                  "name": "value",
                  "type": "uint256"
                }
              ],
              "internalType": "struct Decimal.D256",
              "name": "prevOwner",
              "type": "tuple"
            },
            {
              "components": [
                {
                  "internalType": "uint256",
                  "name": "value",
                  "type": "uint256"
                }
              ],
              "internalType": "struct Decimal.D256",
              "name": "creator",
              "type": "tuple"
            },
            {
              "components": [
                {
                  "internalType": "uint256",
                  "name": "value",
                  "type": "uint256"
                }
              ],
              "internalType": "struct Decimal.D256",
              "name": "owner",
              "type": "tuple"
            }
          ],
          "internalType": "struct IMarket.BidShares",
          "name": "bidShares",
          "type": "tuple"
        }
      ],
      "name": "setBidShares",
      "outputs": [],
      "stateMutability": "nonpayable",
      "type": "function"
    },
    {
      "inputs": [
        {
          "internalType": "enum ILux.Type",
          "name": "kind",
          "type": "uint8"
        },
        {
          "internalType": "string",
          "name": "name",
          "type": "string"
        },
        {
          "components": [
            {
              "internalType": "uint256",
              "name": "amount",
              "type": "uint256"
            },
            {
              "internalType": "address",
              "name": "currency",
              "type": "address"
            },
            {
              "internalType": "bool",
              "name": "offline",
              "type": "bool"
            }
          ],
          "internalType": "struct IMarket.Ask",
          "name": "ask",
          "type": "tuple"
        },
        {
          "internalType": "uint256",
          "name": "supply",
          "type": "uint256"
        },
        {
          "internalType": "string",
          "name": "tokenURI",
          "type": "string"
        },
        {
          "internalType": "string",
          "name": "metadataURI",
          "type": "string"
        }
      ],
      "name": "setTokenType",
      "outputs": [
        {
          "components": [
            {
              "internalType": "enum ILux.Type",
              "name": "kind",
              "type": "uint8"
            },
            {
              "internalType": "string",
              "name": "name",
              "type": "string"
            },
            {
              "components": [
                {
                  "internalType": "uint256",
                  "name": "amount",
                  "type": "uint256"
                },
                {
                  "internalType": "address",
                  "name": "currency",
                  "type": "address"
                },
                {
                  "internalType": "bool",
                  "name": "offline",
                  "type": "bool"
                }
              ],
              "internalType": "struct IMarket.Ask",
              "name": "ask",
              "type": "tuple"
            },
            {
              "internalType": "uint256",
              "name": "supply",
              "type": "uint256"
            },
            {
              "internalType": "uint256",
              "name": "timestamp",
              "type": "uint256"
            },
            {
              "internalType": "uint256",
              "name": "minted",
              "type": "uint256"
            },
            {
              "components": [
                {
                  "internalType": "string",
                  "name": "tokenURI",
                  "type": "string"
                },
                {
                  "internalType": "string",
                  "name": "metadataURI",
                  "type": "string"
                },
                {
                  "internalType": "bytes32",
                  "name": "contentHash",
                  "type": "bytes32"
                },
                {
                  "internalType": "bytes32",
                  "name": "metadataHash",
                  "type": "bytes32"
                }
              ],
              "internalType": "struct IMedia.MediaData",
              "name": "data",
              "type": "tuple"
            },
            {
              "components": [
                {
                  "components": [
                    {
                      "internalType": "uint256",
                      "name": "value",
                      "type": "uint256"
                    }
                  ],
                  "internalType": "struct Decimal.D256",
                  "name": "prevOwner",
                  "type": "tuple"
                },
                {
                  "components": [
                    {
                      "internalType": "uint256",
                      "name": "value",
                      "type": "uint256"
                    }
                  ],
                  "internalType": "struct Decimal.D256",
                  "name": "creator",
                  "type": "tuple"
                },
                {
                  "components": [
                    {
                      "internalType": "uint256",
                      "name": "value",
                      "type": "uint256"
                    }
                  ],
                  "internalType": "struct Decimal.D256",
                  "name": "owner",
                  "type": "tuple"
                }
              ],
              "internalType": "struct IMarket.BidShares",
              "name": "bidShares",
              "type": "tuple"
            }
          ],
          "internalType": "struct IDrop.TokenType",
          "name": "",
          "type": "tuple"
        }
      ],
      "stateMutability": "nonpayable",
      "type": "function"
    },
    {
      "inputs": [
        {
          "internalType": "string",
          "name": "name",
          "type": "string"
        },
        {
          "components": [
            {
              "internalType": "uint256",
              "name": "amount",
              "type": "uint256"
            },
            {
              "internalType": "address",
              "name": "currency",
              "type": "address"
            },
            {
              "internalType": "bool",
              "name": "offline",
              "type": "bool"
            }
          ],
          "internalType": "struct IMarket.Ask",
          "name": "ask",
          "type": "tuple"
        }
      ],
      "name": "setTokenTypeAsk",
      "outputs": [],
      "stateMutability": "nonpayable",
      "type": "function"
    },
    {
      "inputs": [],
      "name": "title",
      "outputs": [
        {
          "internalType": "string",
          "name": "",
          "type": "string"
        }
      ],
      "stateMutability": "view",
      "type": "function"
    },
    {
      "inputs": [
        {
          "internalType": "uint256",
          "name": "",
          "type": "uint256"
        }
      ],
      "name": "tokenNames",
      "outputs": [
        {
          "internalType": "string",
          "name": "",
          "type": "string"
        }
      ],
      "stateMutability": "view",
      "type": "function"
    },
    {
      "inputs": [
        {
          "internalType": "string",
          "name": "name",
          "type": "string"
        }
      ],
      "name": "tokenSupply",
      "outputs": [
        {
          "internalType": "uint256",
          "name": "",
          "type": "uint256"
        }
      ],
      "stateMutability": "view",
      "type": "function"
    },
    {
      "inputs": [
        {
          "internalType": "string",
          "name": "name",
          "type": "string"
        }
      ],
      "name": "tokenTypeAsk",
      "outputs": [
        {
          "components": [
            {
              "internalType": "uint256",
              "name": "amount",
              "type": "uint256"
            },
            {
              "internalType": "address",
              "name": "currency",
              "type": "address"
            },
            {
              "internalType": "bool",
              "name": "offline",
              "type": "bool"
            }
          ],
          "internalType": "struct IMarket.Ask",
          "name": "",
          "type": "tuple"
        }
      ],
      "stateMutability": "view",
      "type": "function"
    },
    {
      "inputs": [
        {
          "internalType": "string",
          "name": "",
          "type": "string"
        }
      ],
      "name": "tokenTypes",
      "outputs": [
        {
          "internalType": "enum ILux.Type",
          "name": "kind",
          "type": "uint8"
        },
        {
          "internalType": "string",
          "name": "name",
          "type": "string"
        },
        {
          "components": [
            {
              "internalType": "uint256",
              "name": "amount",
              "type": "uint256"
            },
            {
              "internalType": "address",
              "name": "currency",
              "type": "address"
            },
            {
              "internalType": "bool",
              "name": "offline",
              "type": "bool"
            }
          ],
          "internalType": "struct IMarket.Ask",
          "name": "ask",
          "type": "tuple"
        },
        {
          "internalType": "uint256",
          "name": "supply",
          "type": "uint256"
        },
        {
          "internalType": "uint256",
          "name": "timestamp",
          "type": "uint256"
        },
        {
          "internalType": "uint256",
          "name": "minted",
          "type": "uint256"
        },
        {
          "components": [
            {
              "internalType": "string",
              "name": "tokenURI",
              "type": "string"
            },
            {
              "internalType": "string",
              "name": "metadataURI",
              "type": "string"
            },
            {
              "internalType": "bytes32",
              "name": "contentHash",
              "type": "bytes32"
            },
            {
              "internalType": "bytes32",
              "name": "metadataHash",
              "type": "bytes32"
            }
          ],
          "internalType": "struct IMedia.MediaData",
          "name": "data",
          "type": "tuple"
        },
        {
          "components": [
            {
              "components": [
                {
                  "internalType": "uint256",
                  "name": "value",
                  "type": "uint256"
                }
              ],
              "internalType": "struct Decimal.D256",
              "name": "prevOwner",
              "type": "tuple"
            },
            {
              "components": [
                {
                  "internalType": "uint256",
                  "name": "value",
                  "type": "uint256"
                }
              ],
              "internalType": "struct Decimal.D256",
              "name": "creator",
              "type": "tuple"
            },
            {
              "components": [
                {
                  "internalType": "uint256",
                  "name": "value",
                  "type": "uint256"
                }
              ],
              "internalType": "struct Decimal.D256",
              "name": "owner",
              "type": "tuple"
            }
          ],
          "internalType": "struct IMarket.BidShares",
          "name": "bidShares",
          "type": "tuple"
        }
      ],
      "stateMutability": "view",
      "type": "function"
    },
    {
      "inputs": [
        {
          "internalType": "string",
          "name": "name",
          "type": "string"
        }
      ],
      "name": "totalMinted",
      "outputs": [
        {
          "internalType": "uint256",
          "name": "",
          "type": "uint256"
        }
      ],
      "stateMutability": "view",
      "type": "function"
    },
    {
      "inputs": [
        {
          "internalType": "address",
          "name": "newOwner",
          "type": "address"
        }
      ],
      "name": "transferOwnership",
      "outputs": [],
      "stateMutability": "nonpayable",
      "type": "function"
    }
  ],
  "transactionHash": "0xf4e0470016a25c3890f37e6be1701c34c6c4ef460c83a29a814321678fe143a3",
  "args": [
    "Gen 0"
  ],
  "solcInputHash": "6fdea7d268e688197c2fe5c8e0eca7ca",
  "bytecode": "0x60806040523480156200001157600080fd5b506040516200294338038062002943833981016040819052620000349162000152565b6200003f336200005c565b805162000054906001906020840190620000ac565b50506200027b565b600080546001600160a01b038381166001600160a01b0319831681178455604051919092169283917f8be0079c531659141344cd1fd0a4f28419497f9722a3daafe3b4186f6b6457e09190a35050565b828054620000ba9062000228565b90600052602060002090601f016020900481019282620000de576000855562000129565b82601f10620000f957805160ff191683800117855562000129565b8280016001018555821562000129579182015b82811115620001295782518255916020019190600101906200010c565b50620001379291506200013b565b5090565b5b808211156200013757600081556001016200013c565b6000602080838503121562000165578182fd5b82516001600160401b03808211156200017c578384fd5b818501915085601f83011262000190578384fd5b815181811115620001a557620001a562000265565b604051601f8201601f19908116603f01168101908382118183101715620001d057620001d062000265565b816040528281528886848701011115620001e8578687fd5b8693505b828410156200020b5784840186015181850187015292850192620001ec565b828411156200021c57868684830101525b98975050505050505050565b600181811c908216806200023d57607f821691505b602082108114156200025f57634e487b7160e01b600052602260045260246000fd5b50919050565b634e487b7160e01b600052604160045260246000fd5b6126b8806200028b6000396000f3fe608060405234801561001057600080fd5b50600436106100e65760003560e01c806302696388146100eb578063310495ab1461011b578063360636eb1461013b5780633725bd411461015e5780634a79d50c146101735780635854c7921461017b5780636c1dbf1c1461019c5780636f592fc0146101bc578063715018a6146101dc57806375cb2672146101e457806375f699f0146101f75780638da5cb5b1461020a578063917731201461022a578063c853a1d01461023d578063e72132d714610252578063f1e879c614610265578063f2fde38b14610285578063f475871f14610298575b600080fd5b6100fe6100f9366004611f12565b6102ab565b604051610112989796959493929190612294565b60405180910390f35b61012e610129366004611ff6565b610532565b6040516101129190612307565b61014e610149366004611fdb565b6105de565b6040519015158152602001610112565b61017161016c366004611f98565b610622565b005b61012e61073a565b61018e610189366004611f12565b610747565b604051908152602001610112565b6101af6101aa366004611f12565b61075c565b60405161011291906123e9565b6101cf6101ca366004611f12565b610a10565b60405161011291906123c8565b610171610a2b565b6101716101f2366004611e44565b610a66565b61018e610205366004611f12565b610ab7565b610212610acc565b6040516001600160a01b039091168152602001610112565b610171610238366004611f4c565b610adb565b610245610b9a565b6040516101129190612233565b600254610212906001600160a01b031681565b610278610273366004611e5e565b610f76565b60405161011291906123d6565b610171610293366004611e44565b6115cd565b6102786102a6366004611f12565b61166d565b80516020818301810180516003825292820191909301209152805460018201805460ff90921692916102dc90612606565b80601f016020809104026020016040519081016040528092919081815260200182805461030890612606565b80156103555780601f1061032a57610100808354040283529160200191610355565b820191906000526020600020905b81548152906001019060200180831161033857829003601f168201915b5050604080516060810182526002870154815260038701546001600160a01b0381166020830152600160a01b900460ff1615158183015260048701546005880154600689015484516080810190955260078a018054999a9499939850919650945091929190829082906103c790612606565b80601f01602080910402602001604051908101604052809291908181526020018280546103f390612606565b80156104405780601f1061041557610100808354040283529160200191610440565b820191906000526020600020905b81548152906001019060200180831161042357829003601f168201915b5050505050815260200160018201805461045990612606565b80601f016020809104026020016040519081016040528092919081815260200182805461048590612606565b80156104d25780601f106104a7576101008083540402835291602001916104d2565b820191906000526020600020905b8154815290600101906020018083116104b557829003601f168201915b505050918352505060028201546020808301919091526003909201546040918201528051608081018252600b85015460608201908152815281518084018352600c86015481528184015281519283018252600d9094015482528301529088565b6004818154811061054257600080fd5b90600052602060002001600091509050805461055d90612606565b80601f016020809104026020016040519081016040528092919081815260200182805461058990612606565b80156105d65780601f106105ab576101008083540402835291602001916105d6565b820191906000526020600020905b8154815290600101906020018083116105b957829003601f168201915b505050505081565b60006105f76105ef6012600a61250f565b606490611970565b82515160408401515160208501515161061b92916106159190611985565b90611985565b1492915050565b3361062b610acc565b6001600160a01b03161461065a5760405162461bcd60e51b815260040161065190612393565b60405180910390fd5b610663816105de565b6106c15760405162461bcd60e51b815260206004820152602960248201527f44726f703a20496e76616c696420626964207368617265732c206d75737420736044820152680756d20746f203130360bc1b6064820152608401610651565b806003836040516106d2919061217c565b9081526040805160209281900383018120845151600b8201559284015151600c84015592015151600d909101557f43d9e417b5897836b42e8088b0069408bd9851b1495002be1f38d57d25e466319061072e9084908490612371565b60405180910390a15050565b6001805461055d90612606565b60006107528261166d565b6060015192915050565b610764611b02565b6002546001600160a01b031633146107ca5760405162461bcd60e51b815260206004820152602360248201527f44726f703a204f6e6c79204170702063616e2063616c6c2074686973206d65746044820152621a1bd960ea1b6064820152608401610651565b60006107d58361166d565b90506107e083610747565b15806107f757506107f083610747565b8160a00151105b6108335760405162461bcd60e51b815260206004820152600d60248201526c4f7574206f6620746f6b656e7360981b6044820152606401610651565b60a081018051906108438261263b565b81525050806003826020015160405161085c919061217c565b90815260405190819003602001902081518154829060ff1916600183600381111561089757634e487b7160e01b600052602160045260246000fd5b021790555060208281015180516108b49260018501920190611b67565b506040828101518051600284015560208082015160038501805493909401511515600160a01b026001600160a81b03199093166001600160a01b039091161791909117909155606083015160048301556080830151600583015560a0830151600683015560c083015180518051919260078501926109359284920190611b67565b50602082810151805161094e9260018501920190611b67565b50604082810151600283015560609092015160039182015560e093840151805151600b850155602081015151600c85015582015151600d9093019290925580519283019052825182918111156109b457634e487b7160e01b600052602160045260246000fd5b815260200182602001518152602001600081526020014281526020018260c0015181526020018260e00151815260200160405180606001604052806000815260200160008152602001600015158152508152509150505b919050565b610a18611beb565b610a218261166d565b6040015192915050565b33610a34610acc565b6001600160a01b031614610a5a5760405162461bcd60e51b815260040161065190612393565b610a646000611991565b565b33610a6f610acc565b6001600160a01b031614610a955760405162461bcd60e51b815260040161065190612393565b600280546001600160a01b0319166001600160a01b0392909216919091179055565b6000610ac28261166d565b60a0015192915050565b6000546001600160a01b031690565b33610ae4610acc565b6001600160a01b031614610b0a5760405162461bcd60e51b815260040161065190612393565b80600383604051610b1b919061217c565b90815260408051918290036020908101832084516002820155908401516003909101805494909201511515600160a01b026001600160a81b03199094166001600160a01b0390911617929092179091557fba45b975d745d3e7e543e42212204046c19d6d5b770446f8592b794d5ef675369061072e9084908490612348565b6004546060906000906001600160401b03811115610bc857634e487b7160e01b600052604160045260246000fd5b604051908082528060200260200182016040528015610c0157816020015b610bee611c0b565b815260200190600190039081610be65790505b50905060005b600454811015610f7057600360048281548110610c3457634e487b7160e01b600052603260045260246000fd5b90600052602060002001604051610c4b9190612198565b9081526040805191829003602001822061010083019091528054829060ff166003811115610c8957634e487b7160e01b600052602160045260246000fd5b6003811115610ca857634e487b7160e01b600052602160045260246000fd5b8152602001600182018054610cbc90612606565b80601f0160208091040260200160405190810160405280929190818152602001828054610ce890612606565b8015610d355780601f10610d0a57610100808354040283529160200191610d35565b820191906000526020600020905b815481529060010190602001808311610d1857829003601f168201915b505050918352505060408051606080820183526002850154825260038501546001600160a01b038116602080850191909152600160a01b90910460ff161515838501528401919091526004840154828401526005840154908301526006830154608080840191909152815190810190915260078301805460a09093019282908290610dbf90612606565b80601f0160208091040260200160405190810160405280929190818152602001828054610deb90612606565b8015610e385780601f10610e0d57610100808354040283529160200191610e38565b820191906000526020600020905b815481529060010190602001808311610e1b57829003601f168201915b50505050508152602001600182018054610e5190612606565b80601f0160208091040260200160405190810160405280929190818152602001828054610e7d90612606565b8015610eca5780601f10610e9f57610100808354040283529160200191610eca565b820191906000526020600020905b815481529060010190602001808311610ead57829003601f168201915b505050918352505060028201546020808301919091526003909201546040918201529183528151608081018352600b85015460608201908152815282518083018452600c86015481528183015282518083018452600d909501548552918201939093529101528251839083908110610f5257634e487b7160e01b600052603260045260246000fd5b60200260200101819052508080610f689061263b565b915050610c07565b50919050565b610f7e611c0b565b33610f87610acc565b6001600160a01b031614610fad5760405162461bcd60e51b815260040161065190612393565b6000600387604051610fbf919061217c565b9081526040805191829003602001822061010083019091528054829060ff166003811115610ffd57634e487b7160e01b600052602160045260246000fd5b600381111561101c57634e487b7160e01b600052602160045260246000fd5b815260200160018201805461103090612606565b80601f016020809104026020016040519081016040528092919081815260200182805461105c90612606565b80156110a95780601f1061107e576101008083540402835291602001916110a9565b820191906000526020600020905b81548152906001019060200180831161108c57829003601f168201915b505050918352505060408051606080820183526002850154825260038501546001600160a01b038116602080850191909152600160a01b90910460ff161515838501528401919091526004840154828401526005840154908301526006830154608080840191909152815190810190915260078301805460a0909301928290829061113390612606565b80601f016020809104026020016040519081016040528092919081815260200182805461115f90612606565b80156111ac5780601f10611181576101008083540402835291602001916111ac565b820191906000526020600020905b81548152906001019060200180831161118f57829003601f168201915b505050505081526020016001820180546111c590612606565b80601f01602080910402602001604051908101604052809291908181526020018280546111f190612606565b801561123e5780601f106112135761010080835404028352916020019161123e565b820191906000526020600020905b81548152906001019060200180831161122157829003601f168201915b505050918352505060028201546020808301919091526003909201546040918201529183528151608081018352600b850154606080830191825290825283518084018552600c87015481528284015283518084018552600d9096015486529281019490945291909101919091528101519091501561130a5760405162461bcd60e51b815260206004820152602360248201527f44726f703a20546f6b656e54797065206e616d6520616c72656164792065786960448201526273747360e81b6064820152608401610651565b611312611c0b565b8089600381111561133357634e487b7160e01b600052602160045260246000fd5b9081600381111561135457634e487b7160e01b600052602160045260246000fd5b90525060208101889052604081018790526060810186905261137685856119e1565b60c0820152611383611a0f565b60e082015242608082015260405181906003906113a1908b9061217c565b90815260405190819003602001902081518154829060ff191660018360038111156113dc57634e487b7160e01b600052602160045260246000fd5b021790555060208281015180516113f99260018501920190611b67565b506040828101518051600284015560208082015160038501805493909401511515600160a01b026001600160a81b03199093166001600160a01b039091161791909117909155606083015160048301556080830151600583015560a0830151600683015560c0830151805180519192600785019261147a9284920190611b67565b5060208281015180516114939260018501920190611b67565b50604082810151600283015560609092015160039091015560e09290920151805151600b83015560208082015151600c84015592015151600d90910155600480546001810182556000919091528951611513927f8a35acfbc15ff81a39ae7d344fd709f28e8600b4aa8c65c6b64bfe7fe36bd19b909201918b0190611b67565b5061155160405180604001604052806017815260200176223937b81d1020b23232b2103a37b5b2b7103a3cb8329d60491b8152508260200151611a98565b7fa65cdcf68986d5b23487732d0bb2c5d7d7d8e52a61054b9e8158f0925a88c0c98160405161158091906123d6565b60405180910390a17fba45b975d745d3e7e543e42212204046c19d6d5b770446f8592b794d5ef6753688886040516115b9929190612348565b60405180910390a198975050505050505050565b336115d6610acc565b6001600160a01b0316146115fc5760405162461bcd60e51b815260040161065190612393565b6001600160a01b0381166116615760405162461bcd60e51b815260206004820152602660248201527f4f776e61626c653a206e6577206f776e657220697320746865207a65726f206160448201526564647265737360d01b6064820152608401610651565b61166a81611991565b50565b611675611c0b565b600382604051611685919061217c565b9081526040805191829003602001822061010083019091528054829060ff1660038111156116c357634e487b7160e01b600052602160045260246000fd5b60038111156116e257634e487b7160e01b600052602160045260246000fd5b81526020016001820180546116f690612606565b80601f016020809104026020016040519081016040528092919081815260200182805461172290612606565b801561176f5780601f106117445761010080835404028352916020019161176f565b820191906000526020600020905b81548152906001019060200180831161175257829003601f168201915b505050918352505060408051606080820183526002850154825260038501546001600160a01b038116602080850191909152600160a01b90910460ff161515838501528401919091526004840154828401526005840154908301526006830154608080840191909152815190810190915260078301805460a090930192829082906117f990612606565b80601f016020809104026020016040519081016040528092919081815260200182805461182590612606565b80156118725780601f1061184757610100808354040283529160200191611872565b820191906000526020600020905b81548152906001019060200180831161185557829003601f168201915b5050505050815260200160018201805461188b90612606565b80601f01602080910402602001604051908101604052809291908181526020018280546118b790612606565b80156119045780601f106118d957610100808354040283529160200191611904565b820191906000526020600020905b8154815290600101906020018083116118e757829003601f168201915b505050918352505060028201546020808301919091526003909201546040918201529183528151608081018352600b85015460608201908152815282518083018452600c86015481528183015282518083018452600d9095015485529182019390935291015292915050565b600061197c82846125b7565b90505b92915050565b600061197c82846124b4565b600080546001600160a01b038381166001600160a01b0319831681178455604051919092169283917f8be0079c531659141344cd1fd0a4f28419497f9722a3daafe3b4186f6b6457e09190a35050565b6119e9611c5b565b506040805160808101825292835260208301919091526000908201819052606082015290565b611a17611c82565b6040805160808101909152806060810180611a3f611a376012600a61250f565b600a90611970565b81525081526020016040518060200160405280611a636012600a611a37919061250f565b81525081526020016040518060200160405280611a8f6012600a611a87919061250f565b605090611970565b90529052919050565b611add8282604051602401611aae92919061231a565b60408051601f198184030181529190526020810180516001600160e01b0316634b5c427760e01b179052611ae1565b5050565b80516a636f6e736f6c652e6c6f67602083016000808483855afa5050505050565b6040805160e081019091528060008152602001606081526020016000815260200160008152602001611b32611c5b565b8152602001611b3f611c82565b815260408051606081018252600080825260208281018290529282015291015290565b905290565b828054611b7390612606565b90600052602060002090601f016020900481019282611b955760008555611bdb565b82601f10611bae57805160ff1916838001178555611bdb565b82800160010185558215611bdb579182015b82811115611bdb578251825591602001919060010190611bc0565b50611be7929150611caf565b5090565b604080516060810182526000808252602082018190529181019190915290565b60408051610100810182526000815260606020820152908101611c2c611beb565b8152602001600081526020016000815260200160008152602001611c4e611c5b565b8152602001611b62611c82565b60408051608081018252606080825260208201819052600092820183905281019190915290565b6040518060600160405280611c95611cc4565b8152602001611ca2611cc4565b8152602001611b62611cc4565b5b80821115611be75760008155600101611cb0565b6040518060200160405280600081525090565b80356001600160a01b0381168114610a0b57600080fd5b600082601f830112611cfe578081fd5b81356001600160401b0380821115611d1857611d1861266c565b604051601f8301601f19908116603f01168101908282118183101715611d4057611d4061266c565b81604052838152866020858801011115611d58578485fd5b8360208701602083013792830160200193909352509392505050565b600060608284031215611d85578081fd5b611d8d61248c565b905081358152611d9f60208301611cd7565b602082015260408201358015158114611db757600080fd5b604082015292915050565b600060608284031215611dd3578081fd5b611ddb61248c565b9050611de78383611e04565b8152611df68360208401611e04565b6020820152611db783604084015b600060208284031215611e15578081fd5b604051602081018181106001600160401b0382111715611e3757611e3761266c565b6040529135825250919050565b600060208284031215611e55578081fd5b61197c82611cd7565b6000806000806000806101008789031215611e77578182fd5b863560048110611e85578283fd5b955060208701356001600160401b0380821115611ea0578384fd5b611eac8a838b01611cee565b9650611ebb8a60408b01611d74565b955060a0890135945060c0890135915080821115611ed7578384fd5b611ee38a838b01611cee565b935060e0890135915080821115611ef8578283fd5b50611f0589828a01611cee565b9150509295509295509295565b600060208284031215611f23578081fd5b81356001600160401b03811115611f38578182fd5b611f4484828501611cee565b949350505050565b60008060808385031215611f5e578182fd5b82356001600160401b03811115611f73578283fd5b611f7f85828601611cee565b925050611f8f8460208501611d74565b90509250929050565b60008060808385031215611faa578182fd5b82356001600160401b03811115611fbf578283fd5b611fcb85828601611cee565b925050611f8f8460208501611dc2565b600060608284031215611fec578081fd5b61197c8383611dc2565b600060208284031215612007578081fd5b5035919050565b6004811061202c57634e487b7160e01b600052602160045260246000fd5b9052565b600081518084526120488160208601602086016125d6565b601f01601f19169290920160200192915050565b805182526020808201516001600160a01b0316908301526040908101511515910152565b8051518252602080820151519083015260409081015151910152565b60008151608084526120b16080850182612030565b9050602083015184820360208601526120ca8282612030565b91505060408301516040850152606083015160608501528091505092915050565b60006101806120fb84845161200e565b602083015181602086015261211282860182612030565b9150506040830151612127604086018261205c565b50606083015160a0850152608083015160c085015260a083015160e085015260c083015184820361010086015261215e828261209c565b91505060e0830151612174610120860182612080565b509392505050565b6000825161218e8184602087016125d6565b9190910192915050565b600080835482600182811c9150808316806121b457607f831692505b60208084108214156121d457634e487b7160e01b87526022600452602487fd5b8180156121e857600181146121f957612225565b60ff19861689528489019650612225565b60008a815260209020885b8681101561221d5781548b820152908501908301612204565b505084890196505b509498975050505050505050565b6000602080830181845280855180835260408601915060408160051b8701019250838701855b8281101561228757603f198886030184526122758583516120eb565b94509285019290850190600101612259565b5092979650505050505050565b60006101806122a3838c61200e565b8060208401526122b58184018b612030565b90506122c4604084018a61205c565b8760a08401528660c08401528560e08401528281036101008401526122e9818661209c565b9150506122fa610120830184612080565b9998505050505050505050565b60208152600061197c6020830184612030565b60408152600061232d6040830185612030565b828103602084015261233f8185612030565b95945050505050565b60808152600061235b6080830185612030565b905061236a602083018461205c565b9392505050565b6080815260006123846080830185612030565b905061236a6020830184612080565b6020808252818101527f4f776e61626c653a2063616c6c6572206973206e6f7420746865206f776e6572604082015260600190565b6060810161197f828461205c565b60208152600061197c60208301846120eb565b602081526123fb60208201835161200e565b60006020830151610160806040850152612419610180850183612030565b915060408501516060850152606085015160808501526080850151601f198584030160a086015261244a838261209c565b92505060a085015161245f60c0860182612080565b5060c094909401518051610120850152602081015161014085015260400151151592909301919091525090565b604051606081016001600160401b03811182821017156124ae576124ae61266c565b60405290565b600082198211156124c7576124c7612656565b500190565b600181815b808511156125075781600019048211156124ed576124ed612656565b808516156124fa57918102915b93841c93908002906124d1565b509250929050565b600061197c83836000826125255750600161197f565b816125325750600061197f565b816001811461254857600281146125525761256e565b600191505061197f565b60ff84111561256357612563612656565b50506001821b61197f565b5060208310610133831016604e8410600b8410161715612591575081810a61197f565b61259b83836124cc565b80600019048211156125af576125af612656565b029392505050565b60008160001904831182151516156125d1576125d1612656565b500290565b60005b838110156125f15781810151838201526020016125d9565b83811115612600576000848401525b50505050565b600181811c9082168061261a57607f821691505b60208210811415610f7057634e487b7160e01b600052602260045260246000fd5b600060001982141561264f5761264f612656565b5060010190565b634e487b7160e01b600052601160045260246000fd5b634e487b7160e01b600052604160045260246000fdfea2646970667358221220d7e12aa2f51869b6cacf277afb03904b1d5a11807b80b4d11006f2c256ac3a0364736f6c63430008040033",
  "libraries": {},
  "devdoc": {
    "kind": "dev",
    "methods": {
      "owner()": {
        "details": "Returns the address of the current owner."
      },
      "renounceOwnership()": {
        "details": "Leaves the contract without owner. It will not be possible to call `onlyOwner` functions anymore. Can only be called by the current owner. NOTE: Renouncing ownership will leave the contract without an owner, thereby removing any functionality that is only available to the owner."
      },
      "transferOwnership(address)": {
        "details": "Transfers ownership of the contract to a new account (`newOwner`). Can only be called by the current owner."
      }
    },
    "version": 1
  },
  "userdoc": {
    "kind": "user",
    "methods": {
      "isValidBidShares(((uint256),(uint256),(uint256)))": {
        "notice": "Validates that the provided bid shares sum to 100"
      }
    },
    "version": 1
  },
  "storageLayout": {
    "storage": [
      {
        "astId": 1104,
        "contract": "src/Drop.sol:Drop",
        "label": "_owner",
        "offset": 0,
        "slot": "0",
        "type": "t_address"
      },
      {
        "astId": 5463,
        "contract": "src/Drop.sol:Drop",
        "label": "title",
        "offset": 0,
        "slot": "1",
        "type": "t_string_storage"
      },
      {
        "astId": 5465,
        "contract": "src/Drop.sol:Drop",
        "label": "appAddress",
        "offset": 0,
        "slot": "2",
        "type": "t_address"
      },
      {
        "astId": 5470,
        "contract": "src/Drop.sol:Drop",
        "label": "tokenTypes",
        "offset": 0,
        "slot": "3",
        "type": "t_mapping(t_string_memory_ptr,t_struct(TokenType)18229_storage)"
      },
      {
        "astId": 5473,
        "contract": "src/Drop.sol:Drop",
        "label": "tokenNames",
        "offset": 0,
        "slot": "4",
        "type": "t_array(t_string_storage)dyn_storage"
      }
    ],
    "types": {
      "t_address": {
        "encoding": "inplace",
        "label": "address",
        "numberOfBytes": "20"
      },
      "t_array(t_string_storage)dyn_storage": {
        "base": "t_string_storage",
        "encoding": "dynamic_array",
        "label": "string[]",
        "numberOfBytes": "32"
      },
      "t_bool": {
        "encoding": "inplace",
        "label": "bool",
        "numberOfBytes": "1"
      },
      "t_bytes32": {
        "encoding": "inplace",
        "label": "bytes32",
        "numberOfBytes": "32"
      },
      "t_enum(Type)18296": {
        "encoding": "inplace",
        "label": "enum ILux.Type",
        "numberOfBytes": "1"
      },
      "t_mapping(t_string_memory_ptr,t_struct(TokenType)18229_storage)": {
        "encoding": "mapping",
        "key": "t_string_memory_ptr",
        "label": "mapping(string => struct IDrop.TokenType)",
        "numberOfBytes": "32",
        "value": "t_struct(TokenType)18229_storage"
      },
      "t_string_memory_ptr": {
        "encoding": "bytes",
        "label": "string",
        "numberOfBytes": "32"
      },
      "t_string_storage": {
        "encoding": "bytes",
        "label": "string",
        "numberOfBytes": "32"
      },
      "t_struct(Ask)18354_storage": {
        "encoding": "inplace",
        "label": "struct IMarket.Ask",
        "members": [
          {
            "astId": 18349,
            "contract": "src/Drop.sol:Drop",
            "label": "amount",
            "offset": 0,
            "slot": "0",
            "type": "t_uint256"
          },
          {
            "astId": 18351,
            "contract": "src/Drop.sol:Drop",
            "label": "currency",
            "offset": 0,
            "slot": "1",
            "type": "t_address"
          },
          {
            "astId": 18353,
            "contract": "src/Drop.sol:Drop",
            "label": "offline",
            "offset": 20,
            "slot": "1",
            "type": "t_bool"
          }
        ],
        "numberOfBytes": "64"
      },
      "t_struct(BidShares)18364_storage": {
        "encoding": "inplace",
        "label": "struct IMarket.BidShares",
        "members": [
          {
            "astId": 18357,
            "contract": "src/Drop.sol:Drop",
            "label": "prevOwner",
            "offset": 0,
            "slot": "0",
            "type": "t_struct(D256)5368_storage"
          },
          {
            "astId": 18360,
            "contract": "src/Drop.sol:Drop",
            "label": "creator",
            "offset": 0,
            "slot": "1",
            "type": "t_struct(D256)5368_storage"
          },
          {
            "astId": 18363,
            "contract": "src/Drop.sol:Drop",
            "label": "owner",
            "offset": 0,
            "slot": "2",
            "type": "t_struct(D256)5368_storage"
          }
        ],
        "numberOfBytes": "96"
      },
      "t_struct(D256)5368_storage": {
        "encoding": "inplace",
        "label": "struct Decimal.D256",
        "members": [
          {
            "astId": 5367,
            "contract": "src/Drop.sol:Drop",
            "label": "value",
            "offset": 0,
            "slot": "0",
            "type": "t_uint256"
          }
        ],
        "numberOfBytes": "32"
      },
      "t_struct(MediaData)18620_storage": {
        "encoding": "inplace",
        "label": "struct IMedia.MediaData",
        "members": [
          {
            "astId": 18613,
            "contract": "src/Drop.sol:Drop",
            "label": "tokenURI",
            "offset": 0,
            "slot": "0",
            "type": "t_string_storage"
          },
          {
            "astId": 18615,
            "contract": "src/Drop.sol:Drop",
            "label": "metadataURI",
            "offset": 0,
            "slot": "1",
            "type": "t_string_storage"
          },
          {
            "astId": 18617,
            "contract": "src/Drop.sol:Drop",
            "label": "contentHash",
            "offset": 0,
            "slot": "2",
            "type": "t_bytes32"
          },
          {
            "astId": 18619,
            "contract": "src/Drop.sol:Drop",
            "label": "metadataHash",
            "offset": 0,
            "slot": "3",
            "type": "t_bytes32"
          }
        ],
        "numberOfBytes": "128"
      },
      "t_struct(TokenType)18229_storage": {
        "encoding": "inplace",
        "label": "struct IDrop.TokenType",
        "members": [
          {
            "astId": 18211,
            "contract": "src/Drop.sol:Drop",
            "label": "kind",
            "offset": 0,
            "slot": "0",
            "type": "t_enum(Type)18296"
          },
          {
            "astId": 18213,
            "contract": "src/Drop.sol:Drop",
            "label": "name",
            "offset": 0,
            "slot": "1",
            "type": "t_string_storage"
          },
          {
            "astId": 18216,
            "contract": "src/Drop.sol:Drop",
            "label": "ask",
            "offset": 0,
            "slot": "2",
            "type": "t_struct(Ask)18354_storage"
          },
          {
            "astId": 18218,
            "contract": "src/Drop.sol:Drop",
            "label": "supply",
            "offset": 0,
            "slot": "4",
            "type": "t_uint256"
          },
          {
            "astId": 18220,
            "contract": "src/Drop.sol:Drop",
            "label": "timestamp",
            "offset": 0,
            "slot": "5",
            "type": "t_uint256"
          },
          {
            "astId": 18222,
            "contract": "src/Drop.sol:Drop",
            "label": "minted",
            "offset": 0,
            "slot": "6",
            "type": "t_uint256"
          },
          {
            "astId": 18225,
            "contract": "src/Drop.sol:Drop",
            "label": "data",
            "offset": 0,
            "slot": "7",
            "type": "t_struct(MediaData)18620_storage"
          },
          {
            "astId": 18228,
            "contract": "src/Drop.sol:Drop",
            "label": "bidShares",
            "offset": 0,
            "slot": "11",
            "type": "t_struct(BidShares)18364_storage"
          }
        ],
        "numberOfBytes": "448"
      },
      "t_uint256": {
        "encoding": "inplace",
        "label": "uint256",
        "numberOfBytes": "32"
      }
    }
  }
}