{
  "address": "0x1e06C3f45EB1837dA43B0FA1aeD278df48C098Dc",
  "abi": [
    {
      "inputs": [
        {
          "internalType": "string",
          "name": "_title",
          "type": "string"
        }
      ],
      "stateMutability": "nonpayable",
      "type": "constructor"
    },
    {
      "anonymous": false,
      "inputs": [
        {
          "indexed": true,
          "internalType": "address",
          "name": "previousOwner",
          "type": "address"
        },
        {
          "indexed": true,
          "internalType": "address",
          "name": "newOwner",
          "type": "address"
        }
      ],
      "name": "OwnershipTransferred",
      "type": "event"
    },
    {
      "inputs": [
        {
          "internalType": "string",
          "name": "",
          "type": "string"
        }
      ],
      "name": "animals",
      "outputs": [
        {
          "internalType": "enum IZoo.Type",
          "name": "kind",
          "type": "uint8"
        },
        {
          "components": [
            {
              "internalType": "string",
              "name": "name",
              "type": "string"
            },
            {
              "internalType": "uint256",
              "name": "probability",
              "type": "uint256"
            },
            {
              "internalType": "uint256",
              "name": "yield",
              "type": "uint256"
            },
            {
              "internalType": "uint256",
              "name": "boost",
              "type": "uint256"
            }
          ],
          "internalType": "struct IZoo.Rarity",
          "name": "rarity",
          "type": "tuple"
        },
        {
          "internalType": "string",
          "name": "name",
          "type": "string"
        },
        {
          "components": [
            {
              "internalType": "string",
              "name": "tokenURI",
              "type": "string"
            },
            {
              "internalType": "string",
              "name": "metadataURI",
              "type": "string"
            },
            {
              "internalType": "bytes32",
              "name": "contentHash",
              "type": "bytes32"
            },
            {
              "internalType": "bytes32",
              "name": "metadataHash",
              "type": "bytes32"
            }
          ],
          "internalType": "struct IMedia.MediaData",
          "name": "data",
          "type": "tuple"
        },
        {
          "components": [
            {
              "components": [
                {
                  "internalType": "uint256",
                  "name": "value",
                  "type": "uint256"
                }
              ],
              "internalType": "struct Decimal.D256",
              "name": "prevOwner",
              "type": "tuple"
            },
            {
              "components": [
                {
                  "internalType": "uint256",
                  "name": "value",
                  "type": "uint256"
                }
              ],
              "internalType": "struct Decimal.D256",
              "name": "creator",
              "type": "tuple"
            },
            {
              "components": [
                {
                  "internalType": "uint256",
                  "name": "value",
                  "type": "uint256"
                }
              ],
              "internalType": "struct Decimal.D256",
              "name": "owner",
              "type": "tuple"
            }
          ],
          "internalType": "struct IMarket.BidShares",
          "name": "bidShares",
          "type": "tuple"
        }
      ],
      "stateMutability": "view",
      "type": "function"
    },
    {
      "inputs": [],
      "name": "baseEgg",
      "outputs": [
        {
          "internalType": "string",
          "name": "",
          "type": "string"
        }
      ],
      "stateMutability": "view",
      "type": "function"
    },
    {
      "inputs": [
        {
          "internalType": "string",
          "name": "_baseEgg",
          "type": "string"
        },
        {
          "internalType": "string",
          "name": "_hybridEgg",
          "type": "string"
        }
      ],
      "name": "configureEggs",
      "outputs": [],
      "stateMutability": "nonpayable",
      "type": "function"
    },
    {
      "inputs": [
        {
          "internalType": "address",
          "name": "zooKeeper",
          "type": "address"
        }
      ],
      "name": "configureKeeper",
      "outputs": [],
      "stateMutability": "nonpayable",
      "type": "function"
    },
    {
      "inputs": [],
      "name": "eggPrice",
      "outputs": [
        {
          "internalType": "uint256",
          "name": "",
          "type": "uint256"
        }
      ],
      "stateMutability": "view",
      "type": "function"
    },
    {
      "inputs": [],
      "name": "eggSupply",
      "outputs": [
        {
          "internalType": "uint256",
          "name": "",
          "type": "uint256"
        }
      ],
      "stateMutability": "view",
      "type": "function"
    },
    {
      "inputs": [
        {
          "internalType": "string",
          "name": "",
          "type": "string"
        }
      ],
      "name": "eggs",
      "outputs": [
        {
          "internalType": "enum IZoo.Type",
          "name": "kind",
          "type": "uint8"
        },
        {
          "internalType": "string",
          "name": "name",
          "type": "string"
        },
        {
          "internalType": "uint256",
          "name": "supply",
          "type": "uint256"
        },
        {
          "internalType": "uint256",
          "name": "price",
          "type": "uint256"
        },
        {
          "internalType": "uint256",
          "name": "timestamp",
          "type": "uint256"
        },
        {
          "internalType": "uint256",
          "name": "birthday",
          "type": "uint256"
        },
        {
          "internalType": "uint256",
          "name": "minted",
          "type": "uint256"
        },
        {
          "components": [
            {
              "internalType": "string",
              "name": "tokenURI",
              "type": "string"
            },
            {
              "internalType": "string",
              "name": "metadataURI",
              "type": "string"
            },
            {
              "internalType": "bytes32",
              "name": "contentHash",
              "type": "bytes32"
            },
            {
              "internalType": "bytes32",
              "name": "metadataHash",
              "type": "bytes32"
            }
          ],
          "internalType": "struct IMedia.MediaData",
          "name": "data",
          "type": "tuple"
        },
        {
          "components": [
            {
              "components": [
                {
                  "internalType": "uint256",
                  "name": "value",
                  "type": "uint256"
                }
              ],
              "internalType": "struct Decimal.D256",
              "name": "prevOwner",
              "type": "tuple"
            },
            {
              "components": [
                {
                  "internalType": "uint256",
                  "name": "value",
                  "type": "uint256"
                }
              ],
              "internalType": "struct Decimal.D256",
              "name": "creator",
              "type": "tuple"
            },
            {
              "components": [
                {
                  "internalType": "uint256",
                  "name": "value",
                  "type": "uint256"
                }
              ],
              "internalType": "struct Decimal.D256",
              "name": "owner",
              "type": "tuple"
            }
          ],
          "internalType": "struct IMarket.BidShares",
          "name": "bidShares",
          "type": "tuple"
        }
      ],
      "stateMutability": "view",
      "type": "function"
    },
    {
      "inputs": [
        {
          "internalType": "uint256",
          "name": "random",
          "type": "uint256"
        }
      ],
      "name": "getRandomAnimal",
      "outputs": [
        {
          "components": [
            {
              "components": [
                {
                  "internalType": "string",
                  "name": "name",
                  "type": "string"
                },
                {
                  "internalType": "uint256",
                  "name": "probability",
                  "type": "uint256"
                },
                {
                  "internalType": "uint256",
                  "name": "yield",
                  "type": "uint256"
                },
                {
                  "internalType": "uint256",
                  "name": "boost",
                  "type": "uint256"
                }
              ],
              "internalType": "struct IZoo.Rarity",
              "name": "rarity",
              "type": "tuple"
            },
            {
              "internalType": "enum IZoo.Type",
              "name": "kind",
              "type": "uint8"
            },
            {
              "internalType": "string",
              "name": "name",
              "type": "string"
            },
            {
              "internalType": "uint256",
              "name": "id",
              "type": "uint256"
            },
            {
              "internalType": "uint256",
              "name": "timestamp",
              "type": "uint256"
            },
            {
              "internalType": "uint256",
              "name": "birthday",
              "type": "uint256"
            },
            {
              "internalType": "string",
              "name": "customName",
              "type": "string"
            },
            {
              "components": [
                {
                  "internalType": "string",
                  "name": "animalA",
                  "type": "string"
                },
                {
                  "internalType": "string",
                  "name": "animalB",
                  "type": "string"
                },
                {
                  "internalType": "uint256",
                  "name": "tokenA",
                  "type": "uint256"
                },
                {
                  "internalType": "uint256",
                  "name": "tokenB",
                  "type": "uint256"
                }
              ],
              "internalType": "struct IZoo.Parents",
              "name": "parents",
              "type": "tuple"
            },
            {
              "components": [
                {
                  "internalType": "uint256",
                  "name": "count",
                  "type": "uint256"
                },
                {
                  "internalType": "uint256",
                  "name": "timestamp",
                  "type": "uint256"
                }
              ],
              "internalType": "struct IZoo.Breed",
              "name": "breed",
              "type": "tuple"
            },
            {
              "components": [
                {
                  "internalType": "uint256",
                  "name": "eggID",
                  "type": "uint256"
                },
                {
                  "internalType": "uint256",
                  "name": "dropID",
                  "type": "uint256"
                },
                {
                  "internalType": "bool",
                  "name": "burned",
                  "type": "bool"
                },
                {
                  "internalType": "bool",
                  "name": "swapped",
                  "type": "bool"
                }
              ],
              "internalType": "struct IZoo.Meta",
              "name": "meta",
              "type": "tuple"
            },
            {
              "components": [
                {
                  "internalType": "string",
                  "name": "tokenURI",
                  "type": "string"
                },
                {
                  "internalType": "string",
                  "name": "metadataURI",
                  "type": "string"
                },
                {
                  "internalType": "bytes32",
                  "name": "contentHash",
                  "type": "bytes32"
                },
                {
                  "internalType": "bytes32",
                  "name": "metadataHash",
                  "type": "bytes32"
                }
              ],
              "internalType": "struct IMedia.MediaData",
              "name": "data",
              "type": "tuple"
            },
            {
              "components": [
                {
                  "components": [
                    {
                      "internalType": "uint256",
                      "name": "value",
                      "type": "uint256"
                    }
                  ],
                  "internalType": "struct Decimal.D256",
                  "name": "prevOwner",
                  "type": "tuple"
                },
                {
                  "components": [
                    {
                      "internalType": "uint256",
                      "name": "value",
                      "type": "uint256"
                    }
                  ],
                  "internalType": "struct Decimal.D256",
                  "name": "creator",
                  "type": "tuple"
                },
                {
                  "components": [
                    {
                      "internalType": "uint256",
                      "name": "value",
                      "type": "uint256"
                    }
                  ],
                  "internalType": "struct Decimal.D256",
                  "name": "owner",
                  "type": "tuple"
                }
              ],
              "internalType": "struct IMarket.BidShares",
              "name": "bidShares",
              "type": "tuple"
            }
          ],
          "internalType": "struct IZoo.Token",
          "name": "token",
          "type": "tuple"
        }
      ],
      "stateMutability": "view",
      "type": "function"
    },
    {
      "inputs": [
        {
          "internalType": "uint256",
          "name": "random",
          "type": "uint256"
        },
        {
          "components": [
            {
              "internalType": "string",
              "name": "animalA",
              "type": "string"
            },
            {
              "internalType": "string",
              "name": "animalB",
              "type": "string"
            },
            {
              "internalType": "uint256",
              "name": "tokenA",
              "type": "uint256"
            },
            {
              "internalType": "uint256",
              "name": "tokenB",
              "type": "uint256"
            }
          ],
          "internalType": "struct IZoo.Parents",
          "name": "parents",
          "type": "tuple"
        }
      ],
      "name": "getRandomHybrid",
      "outputs": [
        {
          "components": [
            {
              "components": [
                {
                  "internalType": "string",
                  "name": "name",
                  "type": "string"
                },
                {
                  "internalType": "uint256",
                  "name": "probability",
                  "type": "uint256"
                },
                {
                  "internalType": "uint256",
                  "name": "yield",
                  "type": "uint256"
                },
                {
                  "internalType": "uint256",
                  "name": "boost",
                  "type": "uint256"
                }
              ],
              "internalType": "struct IZoo.Rarity",
              "name": "rarity",
              "type": "tuple"
            },
            {
              "internalType": "enum IZoo.Type",
              "name": "kind",
              "type": "uint8"
            },
            {
              "internalType": "string",
              "name": "name",
              "type": "string"
            },
            {
              "internalType": "uint256",
              "name": "id",
              "type": "uint256"
            },
            {
              "internalType": "uint256",
              "name": "timestamp",
              "type": "uint256"
            },
            {
              "internalType": "uint256",
              "name": "birthday",
              "type": "uint256"
            },
            {
              "internalType": "string",
              "name": "customName",
              "type": "string"
            },
            {
              "components": [
                {
                  "internalType": "string",
                  "name": "animalA",
                  "type": "string"
                },
                {
                  "internalType": "string",
                  "name": "animalB",
                  "type": "string"
                },
                {
                  "internalType": "uint256",
                  "name": "tokenA",
                  "type": "uint256"
                },
                {
                  "internalType": "uint256",
                  "name": "tokenB",
                  "type": "uint256"
                }
              ],
              "internalType": "struct IZoo.Parents",
              "name": "parents",
              "type": "tuple"
            },
            {
              "components": [
                {
                  "internalType": "uint256",
                  "name": "count",
                  "type": "uint256"
                },
                {
                  "internalType": "uint256",
                  "name": "timestamp",
                  "type": "uint256"
                }
              ],
              "internalType": "struct IZoo.Breed",
              "name": "breed",
              "type": "tuple"
            },
            {
              "components": [
                {
                  "internalType": "uint256",
                  "name": "eggID",
                  "type": "uint256"
                },
                {
                  "internalType": "uint256",
                  "name": "dropID",
                  "type": "uint256"
                },
                {
                  "internalType": "bool",
                  "name": "burned",
                  "type": "bool"
                },
                {
                  "internalType": "bool",
                  "name": "swapped",
                  "type": "bool"
                }
              ],
              "internalType": "struct IZoo.Meta",
              "name": "meta",
              "type": "tuple"
            },
            {
              "components": [
                {
                  "internalType": "string",
                  "name": "tokenURI",
                  "type": "string"
                },
                {
                  "internalType": "string",
                  "name": "metadataURI",
                  "type": "string"
                },
                {
                  "internalType": "bytes32",
                  "name": "contentHash",
                  "type": "bytes32"
                },
                {
                  "internalType": "bytes32",
                  "name": "metadataHash",
                  "type": "bytes32"
                }
              ],
              "internalType": "struct IMedia.MediaData",
              "name": "data",
              "type": "tuple"
            },
            {
              "components": [
                {
                  "components": [
                    {
                      "internalType": "uint256",
                      "name": "value",
                      "type": "uint256"
                    }
                  ],
                  "internalType": "struct Decimal.D256",
                  "name": "prevOwner",
                  "type": "tuple"
                },
                {
                  "components": [
                    {
                      "internalType": "uint256",
                      "name": "value",
                      "type": "uint256"
                    }
                  ],
                  "internalType": "struct Decimal.D256",
                  "name": "creator",
                  "type": "tuple"
                },
                {
                  "components": [
                    {
                      "internalType": "uint256",
                      "name": "value",
                      "type": "uint256"
                    }
                  ],
                  "internalType": "struct Decimal.D256",
                  "name": "owner",
                  "type": "tuple"
                }
              ],
              "internalType": "struct IMarket.BidShares",
              "name": "bidShares",
              "type": "tuple"
            }
          ],
          "internalType": "struct IZoo.Token",
          "name": "token",
          "type": "tuple"
        }
      ],
      "stateMutability": "view",
      "type": "function"
    },
    {
      "inputs": [],
      "name": "hybridEgg",
      "outputs": [
        {
          "internalType": "string",
          "name": "",
          "type": "string"
        }
      ],
      "stateMutability": "view",
      "type": "function"
    },
    {
      "inputs": [
        {
          "internalType": "string",
          "name": "",
          "type": "string"
        }
      ],
      "name": "hybridParents",
      "outputs": [
        {
          "internalType": "enum IZoo.Type",
          "name": "kind",
          "type": "uint8"
        },
        {
          "components": [
            {
              "internalType": "string",
              "name": "name",
              "type": "string"
            },
            {
              "internalType": "uint256",
              "name": "probability",
              "type": "uint256"
            },
            {
              "internalType": "uint256",
              "name": "yield",
              "type": "uint256"
            },
            {
              "internalType": "uint256",
              "name": "boost",
              "type": "uint256"
            }
          ],
          "internalType": "struct IZoo.Rarity",
          "name": "rarity",
          "type": "tuple"
        },
        {
          "internalType": "string",
          "name": "name",
          "type": "string"
        },
        {
          "internalType": "uint256",
          "name": "yield",
          "type": "uint256"
        },
        {
          "internalType": "string",
          "name": "parentA",
          "type": "string"
        },
        {
          "internalType": "string",
          "name": "parentB",
          "type": "string"
        },
        {
          "components": [
            {
              "internalType": "string",
              "name": "tokenURI",
              "type": "string"
            },
            {
              "internalType": "string",
              "name": "metadataURI",
              "type": "string"
            },
            {
              "internalType": "bytes32",
              "name": "contentHash",
              "type": "bytes32"
            },
            {
              "internalType": "bytes32",
              "name": "metadataHash",
              "type": "bytes32"
            }
          ],
          "internalType": "struct IMedia.MediaData",
          "name": "data",
          "type": "tuple"
        },
        {
          "components": [
            {
              "components": [
                {
                  "internalType": "uint256",
                  "name": "value",
                  "type": "uint256"
                }
              ],
              "internalType": "struct Decimal.D256",
              "name": "prevOwner",
              "type": "tuple"
            },
            {
              "components": [
                {
                  "internalType": "uint256",
                  "name": "value",
                  "type": "uint256"
                }
              ],
              "internalType": "struct Decimal.D256",
              "name": "creator",
              "type": "tuple"
            },
            {
              "components": [
                {
                  "internalType": "uint256",
                  "name": "value",
                  "type": "uint256"
                }
              ],
              "internalType": "struct Decimal.D256",
              "name": "owner",
              "type": "tuple"
            }
          ],
          "internalType": "struct IMarket.BidShares",
          "name": "bidShares",
          "type": "tuple"
        }
      ],
      "stateMutability": "view",
      "type": "function"
    },
    {
      "inputs": [],
      "name": "hybridSupply",
      "outputs": [
        {
          "internalType": "uint256",
          "name": "",
          "type": "uint256"
        }
      ],
      "stateMutability": "view",
      "type": "function"
    },
    {
      "inputs": [
        {
          "internalType": "string",
          "name": "",
          "type": "string"
        }
      ],
      "name": "hybrids",
      "outputs": [
        {
          "internalType": "enum IZoo.Type",
          "name": "kind",
          "type": "uint8"
        },
        {
          "components": [
            {
              "internalType": "string",
              "name": "name",
              "type": "string"
            },
            {
              "internalType": "uint256",
              "name": "probability",
              "type": "uint256"
            },
            {
              "internalType": "uint256",
              "name": "yield",
              "type": "uint256"
            },
            {
              "internalType": "uint256",
              "name": "boost",
              "type": "uint256"
            }
          ],
          "internalType": "struct IZoo.Rarity",
          "name": "rarity",
          "type": "tuple"
        },
        {
          "internalType": "string",
          "name": "name",
          "type": "string"
        },
        {
          "internalType": "uint256",
          "name": "yield",
          "type": "uint256"
        },
        {
          "internalType": "string",
          "name": "parentA",
          "type": "string"
        },
        {
          "internalType": "string",
          "name": "parentB",
          "type": "string"
        },
        {
          "components": [
            {
              "internalType": "string",
              "name": "tokenURI",
              "type": "string"
            },
            {
              "internalType": "string",
              "name": "metadataURI",
              "type": "string"
            },
            {
              "internalType": "bytes32",
              "name": "contentHash",
              "type": "bytes32"
            },
            {
              "internalType": "bytes32",
              "name": "metadataHash",
              "type": "bytes32"
            }
          ],
          "internalType": "struct IMedia.MediaData",
          "name": "data",
          "type": "tuple"
        },
        {
          "components": [
            {
              "components": [
                {
                  "internalType": "uint256",
                  "name": "value",
                  "type": "uint256"
                }
              ],
              "internalType": "struct Decimal.D256",
              "name": "prevOwner",
              "type": "tuple"
            },
            {
              "components": [
                {
                  "internalType": "uint256",
                  "name": "value",
                  "type": "uint256"
                }
              ],
              "internalType": "struct Decimal.D256",
              "name": "creator",
              "type": "tuple"
            },
            {
              "components": [
                {
                  "internalType": "uint256",
                  "name": "value",
                  "type": "uint256"
                }
              ],
              "internalType": "struct Decimal.D256",
              "name": "owner",
              "type": "tuple"
            }
          ],
          "internalType": "struct IMarket.BidShares",
          "name": "bidShares",
          "type": "tuple"
        }
      ],
      "stateMutability": "view",
      "type": "function"
    },
    {
      "inputs": [],
      "name": "keeperAddress",
      "outputs": [
        {
          "internalType": "address",
          "name": "",
          "type": "address"
        }
      ],
      "stateMutability": "view",
      "type": "function"
    },
    {
      "inputs": [],
      "name": "newEgg",
      "outputs": [
        {
          "components": [
            {
              "components": [
                {
                  "internalType": "string",
                  "name": "name",
                  "type": "string"
                },
                {
                  "internalType": "uint256",
                  "name": "probability",
                  "type": "uint256"
                },
                {
                  "internalType": "uint256",
                  "name": "yield",
                  "type": "uint256"
                },
                {
                  "internalType": "uint256",
                  "name": "boost",
                  "type": "uint256"
                }
              ],
              "internalType": "struct IZoo.Rarity",
              "name": "rarity",
              "type": "tuple"
            },
            {
              "internalType": "enum IZoo.Type",
              "name": "kind",
              "type": "uint8"
            },
            {
              "internalType": "string",
              "name": "name",
              "type": "string"
            },
            {
              "internalType": "uint256",
              "name": "id",
              "type": "uint256"
            },
            {
              "internalType": "uint256",
              "name": "timestamp",
              "type": "uint256"
            },
            {
              "internalType": "uint256",
              "name": "birthday",
              "type": "uint256"
            },
            {
              "internalType": "string",
              "name": "customName",
              "type": "string"
            },
            {
              "components": [
                {
                  "internalType": "string",
                  "name": "animalA",
                  "type": "string"
                },
                {
                  "internalType": "string",
                  "name": "animalB",
                  "type": "string"
                },
                {
                  "internalType": "uint256",
                  "name": "tokenA",
                  "type": "uint256"
                },
                {
                  "internalType": "uint256",
                  "name": "tokenB",
                  "type": "uint256"
                }
              ],
              "internalType": "struct IZoo.Parents",
              "name": "parents",
              "type": "tuple"
            },
            {
              "components": [
                {
                  "internalType": "uint256",
                  "name": "count",
                  "type": "uint256"
                },
                {
                  "internalType": "uint256",
                  "name": "timestamp",
                  "type": "uint256"
                }
              ],
              "internalType": "struct IZoo.Breed",
              "name": "breed",
              "type": "tuple"
            },
            {
              "components": [
                {
                  "internalType": "uint256",
                  "name": "eggID",
                  "type": "uint256"
                },
                {
                  "internalType": "uint256",
                  "name": "dropID",
                  "type": "uint256"
                },
                {
                  "internalType": "bool",
                  "name": "burned",
                  "type": "bool"
                },
                {
                  "internalType": "bool",
                  "name": "swapped",
                  "type": "bool"
                }
              ],
              "internalType": "struct IZoo.Meta",
              "name": "meta",
              "type": "tuple"
            },
            {
              "components": [
                {
                  "internalType": "string",
                  "name": "tokenURI",
                  "type": "string"
                },
                {
                  "internalType": "string",
                  "name": "metadataURI",
                  "type": "string"
                },
                {
                  "internalType": "bytes32",
                  "name": "contentHash",
                  "type": "bytes32"
                },
                {
                  "internalType": "bytes32",
                  "name": "metadataHash",
                  "type": "bytes32"
                }
              ],
              "internalType": "struct IMedia.MediaData",
              "name": "data",
              "type": "tuple"
            },
            {
              "components": [
                {
                  "components": [
                    {
                      "internalType": "uint256",
                      "name": "value",
                      "type": "uint256"
                    }
                  ],
                  "internalType": "struct Decimal.D256",
                  "name": "prevOwner",
                  "type": "tuple"
                },
                {
                  "components": [
                    {
                      "internalType": "uint256",
                      "name": "value",
                      "type": "uint256"
                    }
                  ],
                  "internalType": "struct Decimal.D256",
                  "name": "creator",
                  "type": "tuple"
                },
                {
                  "components": [
                    {
                      "internalType": "uint256",
                      "name": "value",
                      "type": "uint256"
                    }
                  ],
                  "internalType": "struct Decimal.D256",
                  "name": "owner",
                  "type": "tuple"
                }
              ],
              "internalType": "struct IMarket.BidShares",
              "name": "bidShares",
              "type": "tuple"
            }
          ],
          "internalType": "struct IZoo.Token",
          "name": "",
          "type": "tuple"
        }
      ],
      "stateMutability": "nonpayable",
      "type": "function"
    },
    {
      "inputs": [
        {
          "components": [
            {
              "internalType": "string",
              "name": "animalA",
              "type": "string"
            },
            {
              "internalType": "string",
              "name": "animalB",
              "type": "string"
            },
            {
              "internalType": "uint256",
              "name": "tokenA",
              "type": "uint256"
            },
            {
              "internalType": "uint256",
              "name": "tokenB",
              "type": "uint256"
            }
          ],
          "internalType": "struct IZoo.Parents",
          "name": "parents",
          "type": "tuple"
        }
      ],
      "name": "newHybridEgg",
      "outputs": [
        {
          "components": [
            {
              "components": [
                {
                  "internalType": "string",
                  "name": "name",
                  "type": "string"
                },
                {
                  "internalType": "uint256",
                  "name": "probability",
                  "type": "uint256"
                },
                {
                  "internalType": "uint256",
                  "name": "yield",
                  "type": "uint256"
                },
                {
                  "internalType": "uint256",
                  "name": "boost",
                  "type": "uint256"
                }
              ],
              "internalType": "struct IZoo.Rarity",
              "name": "rarity",
              "type": "tuple"
            },
            {
              "internalType": "enum IZoo.Type",
              "name": "kind",
              "type": "uint8"
            },
            {
              "internalType": "string",
              "name": "name",
              "type": "string"
            },
            {
              "internalType": "uint256",
              "name": "id",
              "type": "uint256"
            },
            {
              "internalType": "uint256",
              "name": "timestamp",
              "type": "uint256"
            },
            {
              "internalType": "uint256",
              "name": "birthday",
              "type": "uint256"
            },
            {
              "internalType": "string",
              "name": "customName",
              "type": "string"
            },
            {
              "components": [
                {
                  "internalType": "string",
                  "name": "animalA",
                  "type": "string"
                },
                {
                  "internalType": "string",
                  "name": "animalB",
                  "type": "string"
                },
                {
                  "internalType": "uint256",
                  "name": "tokenA",
                  "type": "uint256"
                },
                {
                  "internalType": "uint256",
                  "name": "tokenB",
                  "type": "uint256"
                }
              ],
              "internalType": "struct IZoo.Parents",
              "name": "parents",
              "type": "tuple"
            },
            {
              "components": [
                {
                  "internalType": "uint256",
                  "name": "count",
                  "type": "uint256"
                },
                {
                  "internalType": "uint256",
                  "name": "timestamp",
                  "type": "uint256"
                }
              ],
              "internalType": "struct IZoo.Breed",
              "name": "breed",
              "type": "tuple"
            },
            {
              "components": [
                {
                  "internalType": "uint256",
                  "name": "eggID",
                  "type": "uint256"
                },
                {
                  "internalType": "uint256",
                  "name": "dropID",
                  "type": "uint256"
                },
                {
                  "internalType": "bool",
                  "name": "burned",
                  "type": "bool"
                },
                {
                  "internalType": "bool",
                  "name": "swapped",
                  "type": "bool"
                }
              ],
              "internalType": "struct IZoo.Meta",
              "name": "meta",
              "type": "tuple"
            },
            {
              "components": [
                {
                  "internalType": "string",
                  "name": "tokenURI",
                  "type": "string"
                },
                {
                  "internalType": "string",
                  "name": "metadataURI",
                  "type": "string"
                },
                {
                  "internalType": "bytes32",
                  "name": "contentHash",
                  "type": "bytes32"
                },
                {
                  "internalType": "bytes32",
                  "name": "metadataHash",
                  "type": "bytes32"
                }
              ],
              "internalType": "struct IMedia.MediaData",
              "name": "data",
              "type": "tuple"
            },
            {
              "components": [
                {
                  "components": [
                    {
                      "internalType": "uint256",
                      "name": "value",
                      "type": "uint256"
                    }
                  ],
                  "internalType": "struct Decimal.D256",
                  "name": "prevOwner",
                  "type": "tuple"
                },
                {
                  "components": [
                    {
                      "internalType": "uint256",
                      "name": "value",
                      "type": "uint256"
                    }
                  ],
                  "internalType": "struct Decimal.D256",
                  "name": "creator",
                  "type": "tuple"
                },
                {
                  "components": [
                    {
                      "internalType": "uint256",
                      "name": "value",
                      "type": "uint256"
                    }
                  ],
                  "internalType": "struct Decimal.D256",
                  "name": "owner",
                  "type": "tuple"
                }
              ],
              "internalType": "struct IMarket.BidShares",
              "name": "bidShares",
              "type": "tuple"
            }
          ],
          "internalType": "struct IZoo.Token",
          "name": "",
          "type": "tuple"
        }
      ],
      "stateMutability": "view",
      "type": "function"
    },
    {
      "inputs": [],
      "name": "owner",
      "outputs": [
        {
          "internalType": "address",
          "name": "",
          "type": "address"
        }
      ],
      "stateMutability": "view",
      "type": "function"
    },
    {
      "inputs": [
        {
          "internalType": "string",
          "name": "",
          "type": "string"
        }
      ],
      "name": "rarities",
      "outputs": [
        {
          "internalType": "string",
          "name": "name",
          "type": "string"
        },
        {
          "internalType": "uint256",
          "name": "probability",
          "type": "uint256"
        },
        {
          "internalType": "uint256",
          "name": "yield",
          "type": "uint256"
        },
        {
          "internalType": "uint256",
          "name": "boost",
          "type": "uint256"
        }
      ],
      "stateMutability": "view",
      "type": "function"
    },
    {
      "inputs": [
        {
          "internalType": "string",
          "name": "",
          "type": "string"
        },
        {
          "internalType": "uint256",
          "name": "",
          "type": "uint256"
        }
      ],
      "name": "rarityAnimals",
      "outputs": [
        {
          "internalType": "string",
          "name": "",
          "type": "string"
        }
      ],
      "stateMutability": "view",
      "type": "function"
    },
    {
      "inputs": [
        {
          "internalType": "uint256",
          "name": "",
          "type": "uint256"
        }
      ],
      "name": "raritySorted",
      "outputs": [
        {
          "internalType": "string",
          "name": "",
          "type": "string"
        }
      ],
      "stateMutability": "view",
      "type": "function"
    },
    {
      "inputs": [],
      "name": "renounceOwnership",
      "outputs": [],
      "stateMutability": "nonpayable",
      "type": "function"
    },
    {
      "inputs": [
        {
          "internalType": "string",
          "name": "name",
          "type": "string"
        },
        {
          "internalType": "string",
          "name": "rarity",
          "type": "string"
        },
        {
          "internalType": "string",
          "name": "tokenURI",
          "type": "string"
        },
        {
          "internalType": "string",
          "name": "metadataURI",
          "type": "string"
        }
      ],
      "name": "setAnimal",
      "outputs": [
        {
          "internalType": "bool",
          "name": "",
          "type": "bool"
        }
      ],
      "stateMutability": "nonpayable",
      "type": "function"
    },
    {
      "inputs": [
        {
          "components": [
            {
              "internalType": "string",
              "name": "rarity",
              "type": "string"
            },
            {
              "internalType": "string",
              "name": "name",
              "type": "string"
            },
            {
              "internalType": "string",
              "name": "tokenURI",
              "type": "string"
            },
            {
              "internalType": "string",
              "name": "metadataURI",
              "type": "string"
            }
          ],
          "internalType": "struct Drop._Animal[]",
          "name": "_animals",
          "type": "tuple[]"
        }
      ],
      "name": "setAnimals",
      "outputs": [],
      "stateMutability": "nonpayable",
      "type": "function"
    },
    {
      "inputs": [
        {
          "internalType": "string",
          "name": "name",
          "type": "string"
        },
        {
          "internalType": "uint256",
          "name": "price",
          "type": "uint256"
        },
        {
          "internalType": "uint256",
          "name": "supply",
          "type": "uint256"
        },
        {
          "internalType": "string",
          "name": "tokenURI",
          "type": "string"
        },
        {
          "internalType": "string",
          "name": "metadataURI",
          "type": "string"
        }
      ],
      "name": "setEgg",
      "outputs": [
        {
          "components": [
            {
              "internalType": "enum IZoo.Type",
              "name": "kind",
              "type": "uint8"
            },
            {
              "internalType": "string",
              "name": "name",
              "type": "string"
            },
            {
              "internalType": "uint256",
              "name": "supply",
              "type": "uint256"
            },
            {
              "internalType": "uint256",
              "name": "price",
              "type": "uint256"
            },
            {
              "internalType": "uint256",
              "name": "timestamp",
              "type": "uint256"
            },
            {
              "internalType": "uint256",
              "name": "birthday",
              "type": "uint256"
            },
            {
              "internalType": "uint256",
              "name": "minted",
              "type": "uint256"
            },
            {
              "components": [
                {
                  "internalType": "string",
                  "name": "tokenURI",
                  "type": "string"
                },
                {
                  "internalType": "string",
                  "name": "metadataURI",
                  "type": "string"
                },
                {
                  "internalType": "bytes32",
                  "name": "contentHash",
                  "type": "bytes32"
                },
                {
                  "internalType": "bytes32",
                  "name": "metadataHash",
                  "type": "bytes32"
                }
              ],
              "internalType": "struct IMedia.MediaData",
              "name": "data",
              "type": "tuple"
            },
            {
              "components": [
                {
                  "components": [
                    {
                      "internalType": "uint256",
                      "name": "value",
                      "type": "uint256"
                    }
                  ],
                  "internalType": "struct Decimal.D256",
                  "name": "prevOwner",
                  "type": "tuple"
                },
                {
                  "components": [
                    {
                      "internalType": "uint256",
                      "name": "value",
                      "type": "uint256"
                    }
                  ],
                  "internalType": "struct Decimal.D256",
                  "name": "creator",
                  "type": "tuple"
                },
                {
                  "components": [
                    {
                      "internalType": "uint256",
                      "name": "value",
                      "type": "uint256"
                    }
                  ],
                  "internalType": "struct Decimal.D256",
                  "name": "owner",
                  "type": "tuple"
                }
              ],
              "internalType": "struct IMarket.BidShares",
              "name": "bidShares",
              "type": "tuple"
            }
          ],
          "internalType": "struct Drop.Egg",
          "name": "",
          "type": "tuple"
        }
      ],
      "stateMutability": "nonpayable",
      "type": "function"
    },
    {
      "inputs": [
        {
          "internalType": "string",
          "name": "name",
          "type": "string"
        },
        {
          "internalType": "string",
          "name": "rarity",
          "type": "string"
        },
        {
          "internalType": "uint256",
          "name": "yield",
          "type": "uint256"
        },
        {
          "internalType": "string",
          "name": "parentA",
          "type": "string"
        },
        {
          "internalType": "string",
          "name": "parentB",
          "type": "string"
        },
        {
          "internalType": "string",
          "name": "tokenURI",
          "type": "string"
        },
        {
          "internalType": "string",
          "name": "metadataURI",
          "type": "string"
        }
      ],
      "name": "setHybrid",
      "outputs": [
        {
          "internalType": "bool",
          "name": "",
          "type": "bool"
        }
      ],
      "stateMutability": "nonpayable",
      "type": "function"
    },
    {
      "inputs": [
        {
          "components": [
            {
              "internalType": "string",
              "name": "rarity",
              "type": "string"
            },
            {
              "internalType": "string",
              "name": "name",
              "type": "string"
            },
            {
              "internalType": "uint256",
              "name": "yield",
              "type": "uint256"
            },
            {
              "internalType": "string",
              "name": "parentA",
              "type": "string"
            },
            {
              "internalType": "string",
              "name": "parentB",
              "type": "string"
            },
            {
              "internalType": "string",
              "name": "tokenURI",
              "type": "string"
            },
            {
              "internalType": "string",
              "name": "metadataURI",
              "type": "string"
            }
          ],
          "internalType": "struct Drop._Hybrid[]",
          "name": "_hybrids",
          "type": "tuple[]"
        }
      ],
      "name": "setHybrids",
      "outputs": [],
      "stateMutability": "nonpayable",
      "type": "function"
    },
    {
      "inputs": [
        {
          "internalType": "string",
          "name": "name",
          "type": "string"
        },
        {
          "internalType": "uint256",
          "name": "probability",
          "type": "uint256"
        },
        {
          "internalType": "uint256",
          "name": "yield",
          "type": "uint256"
        },
        {
          "internalType": "uint256",
          "name": "boost",
          "type": "uint256"
        }
      ],
      "name": "setRarity",
      "outputs": [
        {
          "internalType": "bool",
          "name": "",
          "type": "bool"
        }
      ],
      "stateMutability": "nonpayable",
      "type": "function"
    },
    {
      "inputs": [],
      "name": "title",
      "outputs": [
        {
          "internalType": "string",
          "name": "",
          "type": "string"
        }
      ],
      "stateMutability": "view",
      "type": "function"
    },
    {
      "inputs": [],
      "name": "totalSupply",
      "outputs": [
        {
          "internalType": "uint256",
          "name": "",
          "type": "uint256"
        }
      ],
      "stateMutability": "view",
      "type": "function"
    },
    {
      "inputs": [
        {
          "internalType": "address",
          "name": "newOwner",
          "type": "address"
        }
      ],
      "name": "transferOwnership",
      "outputs": [],
      "stateMutability": "nonpayable",
      "type": "function"
    }
  ],
  "transactionHash": "0x017999646bd79aeb123fa993e3fce0e3db016eecf6576147624dc8563411de31",
  "args": [
    "Gen 0"
  ],
  "solcInputHash": "d34382ecf2146ad0057f767ad0206d21",
  "bytecode": "0x60806040523480156200001157600080fd5b5060405162004e4638038062004e46833981016040819052620000349162000152565b6200003f336200005c565b805162000054906001906020840190620000ac565b50506200027b565b600080546001600160a01b038381166001600160a01b0319831681178455604051919092169283917f8be0079c531659141344cd1fd0a4f28419497f9722a3daafe3b4186f6b6457e09190a35050565b828054620000ba9062000228565b90600052602060002090601f016020900481019282620000de576000855562000129565b82601f10620000f957805160ff191683800117855562000129565b8280016001018555821562000129579182015b82811115620001295782518255916020019190600101906200010c565b50620001379291506200013b565b5090565b5b808211156200013757600081556001016200013c565b6000602080838503121562000165578182fd5b82516001600160401b03808211156200017c578384fd5b818501915085601f83011262000190578384fd5b815181811115620001a557620001a562000265565b604051601f8201601f19908116603f01168101908382118183101715620001d057620001d062000265565b816040528281528886848701011115620001e8578687fd5b8693505b828410156200020b5784840186015181850187015292850192620001ec565b828411156200021c57868684830101525b98975050505050505050565b600181811c908216806200023d57607f821691505b602082108114156200025f57634e487b7160e01b600052602260045260246000fd5b50919050565b634e487b7160e01b600052604160045260246000fd5b614bbb806200028b6000396000f3fe608060405234801561001057600080fd5b506004361061016a5760003560e01c806301dca3b71461016f5780630489a8f61461018d57806308f8bcc6146101a257806318160ddd146101b557806319c920b5146101cb57806325fcf635146101ee578063305e35521461021657806335c3a2d41461021e5780633b5c9856146102315780634a79d50c1461024457806351b2440b1461024c5780636753e4651461025f578063715018a6146102745780637e617eca1461027c5780638398c91f146102a0578063899628f3146102a85780638da5cb5b146102bb5780639447c33d146102db5780639908a82a146102fe578063b67a85bd14610306578063ba349bde14610319578063bc1435061461032c578063c2b9bd631461034c578063c4903d2d1461035f578063c7d8b6c514610386578063d232b79714610399578063e82baf30146103a1578063ee99608e146103b4578063f2fde38b146103c7578063f51c654f146103da575b600080fd5b6101776103ed565b60405161018491906145bf565b60405180910390f35b61019561047b565b60405161018491906147f5565b6101956101b03660046142c4565b6107e2565b6101bd610ea9565b604051908152602001610184565b6101de6101d9366004613fc9565b610ec4565b6040519015158152602001610184565b6102016101fc366004613f2f565b61107d565b60405161018499989796959493929190614459565b6101bd6112d5565b61017761022c3660046142c4565b6112f0565b61019561023f3660046142dc565b61131b565b6101776113e6565b6101de61025a366004614070565b6113f3565b61027261026d366004613ec9565b611759565b005b6102726118f1565b61028f61028a366004613f2f565b61192c565b6040516101849594939291906144cb565b610177611c25565b6102726102b6366004613f08565b611c32565b6102c3611e4d565b6040516001600160a01b039091168152602001610184565b6102ee6102e9366004613f2f565b611e5c565b60405161018494939291906146a6565b6101bd611f17565b6004546102c3906001600160a01b031681565b610177610327366004614168565b611f32565b61033f61033a3660046141aa565b611f79565b6040516101849190614756565b61027261035a366004613ea2565b612115565b61037261036d366004613f2f565b612166565b60405161018498979695949392919061452b565b610372610394366004613f2f565b612581565b6101bd6125c1565b6101956103af366004614292565b6125d3565b6102726103c2366004613f69565b612752565b6102726103d5366004613ea2565b6127a8565b6101de6103e8366004614241565b612848565b600380546103fa90614ae9565b80601f016020809104026020016040519081016040528092919081815260200182805461042690614ae9565b80156104735780601f1061044857610100808354040283529160200191610473565b820191906000526020600020905b81548152906001019060200180831161045657829003601f168201915b505050505081565b61048361394b565b6004546001600160a01b031633146104b65760405162461bcd60e51b81526004016104ad9061470a565b60405180910390fd5b600061054b600280546104c890614ae9565b80601f01602080910402602001604051908101604052809291908181526020018280546104f490614ae9565b80156105415780601f1061051657610100808354040283529160200191610541565b820191906000526020600020905b81548152906001019060200180831161052457829003601f168201915b5050505050612998565b90506105556125c1565b158061056b57506105646125c1565b8160c00151105b6105a55760405162461bcd60e51b815260206004820152600b60248201526a4f7574206f66206567677360a81b60448201526064016104ad565b60c081018051906105b582614b1e565b8152505080600882602001516040516105ce919061440e565b90815260405190819003602001902081518154829060ff1916600183600381111561060957634e487b7160e01b600052602160045260246000fd5b021790555060208281015180516106269260018501920190613a21565b5060408201516002820155606082015160038201556080820151600482015560a0820151600582015560c0820151600682015560e082015180518051600784019161067691839160200190613a21565b50602082810151805161068f9260018501920190613a21565b5060408281015160028301556060909201516003909101556101009290920151805151600b830155602081015151600c83015582015151600d9091015580516101c08101909152600661018082019081526521b7b6b6b7b760d11b6101a083015281906106fb90612c6c565b81526020016000815260200182602001518152602001600081526020014281526020014381526020016040518060200160405280600081525081526020016040518060800160405280604051806020016040528060008152508152602001604051806020016040528060008152508152602001600081526020016000815250815260200160405180604001604052806000815260200160008152508152602001604051806080016040528060008152602001600081526020016000151581526020016000151581525081526020018260e00151815260200182610100015181525091505090565b6107ea61394b565b6107f2613aa5565b6108236040518060400160405280600f81526020016e19d95d14985b991bdb505b9a5b585b608a1b81525084612d54565b6040805180820190915260138152720e4c2e4d2e8f2a6dee4e8cac85cd8cadccee8d606b1b602082015260075461085a9190612d54565b60005b600754811015610da25760006007828154811061088a57634e487b7160e01b600052603260045260246000fd5b90600052602060002001805461089f90614ae9565b80601f01602080910402602001604051908101604052809291908181526020018280546108cb90614ae9565b80156109185780601f106108ed57610100808354040283529160200191610918565b820191906000526020600020905b8154815290600101906020018083116108fb57829003601f168201915b505050505090506000600582604051610931919061440e565b908152602001604051809103902060405180608001604052908160008201805461095a90614ae9565b80601f016020809104026020016040519081016040528092919081815260200182805461098690614ae9565b80156109d35780601f106109a8576101008083540402835291602001916109d3565b820191906000526020600020905b8154815290600101906020018083116109b657829003601f168201915b5050505050815260200160018201548152602001600282015481526020016003820154815250509050610a296040518060400160405280600b81526020016a7261726974792e6e616d6560a81b81525083612d9d565b610a61604051806040016040528060128152602001717261726974792e70726f626162696c69747960701b8152508260200151612d54565b610c316040518060400160405280600d81526020016c726172697479416e696d616c7360981b815250600684604051610a9a919061440e565b9081526020016040518091039020600081548110610ac857634e487b7160e01b600052603260045260246000fd5b906000526020600020018054610add90614ae9565b80601f0160208091040260200160405190810160405280929190818152602001828054610b0990614ae9565b8015610b565780601f10610b2b57610100808354040283529160200191610b56565b820191906000526020600020905b815481529060010190602001808311610b3957829003601f168201915b5050505050600685604051610b6b919061440e565b9081526020016040518091039020600181548110610b9957634e487b7160e01b600052603260045260246000fd5b906000526020600020018054610bae90614ae9565b80601f0160208091040260200160405190810160405280929190818152602001828054610bda90614ae9565b8015610c275780601f10610bfc57610100808354040283529160200191610c27565b820191906000526020600020905b815481529060010190602001808311610c0a57829003601f168201915b5050505050612de2565b8581602001511180610c505750600754610c4d90600190614aa6565b83145b15610d8d576000600683604051610c67919061440e565b9081526020016040518091039020805480602002602001604051908101604052809291908181526020016000905b82821015610d41578382906000526020600020018054610cb490614ae9565b80601f0160208091040260200160405190810160405280929190818152602001828054610ce090614ae9565b8015610d2d5780601f10610d0257610100808354040283529160200191610d2d565b820191906000526020600020905b815481529060010190602001808311610d1057829003601f168201915b505050505081526020019060010190610c95565b505050509050610d8381825189610d589190614b39565b81518110610d7657634e487b7160e01b600052603260045260246000fd5b6020026020010151612e29565b9450505050610da2565b50508080610d9a90614b1e565b91505061085d565b506001602083810191909152604082810180518286015260608401516101408601528383018051865260808086015161016088015242908701524360a087015282518084018452600c81526b1c985b991bdb505b9a5b585b60a21b94810194909452905190518051920151610e1893929061318e565b610e5c6040518060400160405280601a81526020017972616e646f6d416e696d616c2e646174612e746f6b656e55524960301b815250826060015160000151612d9d565b610ea36040518060400160405280601d81526020017f72616e646f6d416e696d616c2e646174612e6d65746164617461555249000000815250826060015160200151612d9d565b50919050565b6000610ebb600280546104c890614ae9565b60c00151905090565b600033610ecf611e4d565b6001600160a01b031614610ef55760405162461bcd60e51b81526004016104ad906146d5565b6040805160a081019091526000908060018152602001610f1487612c6c565b8152602001878152602001610f2986866131dd565b8152602001610f3661320b565b815250905080600987604051610f4c919061440e565b90815260405190819003602001902081518154829060ff19166001836003811115610f8757634e487b7160e01b600052602160045260246000fd5b02179055506020828101518051805191926001850192610faa9284920190613a21565b5060208201518160010155604082015181600201556060820151816003015550506040820151816005019080519060200190610fe7929190613a21565b50606082015180518051600684019161100591839160200190613a21565b50602082810151805161101e9260018501920190613a21565b50604082810151600283015560609092015160039091015560809290920151805151600a83015560208082015151600b8401559083015151600c9092019190915582015151908201516110719190613294565b50600195945050505050565b80516020818301810180516008825292820191909301209152805460018201805460ff90921692916110ae90614ae9565b80601f01602080910402602001604051908101604052809291908181526020018280546110da90614ae9565b80156111275780601f106110fc57610100808354040283529160200191611127565b820191906000526020600020905b81548152906001019060200180831161110a57829003601f168201915b5050505050908060020154908060030154908060040154908060050154908060060154908060070160405180608001604052908160008201805461116a90614ae9565b80601f016020809104026020016040519081016040528092919081815260200182805461119690614ae9565b80156111e35780601f106111b8576101008083540402835291602001916111e3565b820191906000526020600020905b8154815290600101906020018083116111c657829003601f168201915b505050505081526020016001820180546111fc90614ae9565b80601f016020809104026020016040519081016040528092919081815260200182805461122890614ae9565b80156112755780601f1061124a57610100808354040283529160200191611275565b820191906000526020600020905b81548152906001019060200180831161125857829003601f168201915b505050918352505060028201546020808301919091526003909201546040918201528051608081018252600b85015460608201908152815281518084018352600c86015481528184015281519283018252600d9094015482528301529089565b60006112e7600280546104c890614ae9565b60600151905090565b6007818154811061130057600080fd5b9060005260206000200160009150905080546103fa90614ae9565b61132361394b565b60006040518060400160405280611342856000015186602001516133fd565b8152602001611359856020015186600001516133fd565b9052905060008161136b600287614b39565b6002811061138957634e487b7160e01b600052603260045260246000fd5b602090810291909101516003858301526040808201518187015260c082015161014087015291810151808652606082015192019190915260e0908101516101608501524260808501524360a0850152830184905250505b92915050565b600180546103fa90614ae9565b6000336113fe611e4d565b6001600160a01b0316146114245760405162461bcd60e51b81526004016104ad906146d5565b60408051610100810190915260009080600381526020016114448a612c6c565b81526020018a815260200188815260200187815260200186815260200161146b86866131dd565b815260200161147861320b565b815250905080600a8a60405161148e919061440e565b90815260405190819003602001902081518154829060ff191660018360038111156114c957634e487b7160e01b600052602160045260246000fd5b021790555060208281015180518051919260018501926114ec9284920190613a21565b5060208201518160010155604082015181600201556060820151816003015550506040820151816005019080519060200190611529929190613a21565b50606082015160068201556080820151805161154f916007840191602090910190613a21565b5060a0820151805161156b916008840191602090910190613a21565b5060c082015180518051600984019161158991839160200190613a21565b5060208281015180516115a29260018501920190613a21565b50604082810151600283015560609092015160039091015560e09290920151805151600d830155602081015151600e8301559091015151600f9091015580600b6115ec888861389b565b6040516115f9919061440e565b90815260405190819003602001902081518154829060ff1916600183600381111561163457634e487b7160e01b600052602160045260246000fd5b021790555060208281015180518051919260018501926116579284920190613a21565b5060208201518160010155604082015181600201556060820151816003015550506040820151816005019080519060200190611694929190613a21565b5060608201516006820155608082015180516116ba916007840191602090910190613a21565b5060a082015180516116d6916008840191602090910190613a21565b5060c08201518051805160098401916116f491839160200190613a21565b50602082810151805161170d9260018501920190613a21565b50604082810151600283015560609092015160039091015560e09290920151805151600d830155602081015151600e8301559091015151600f9091015550600198975050505050505050565b33611762611e4d565b6001600160a01b0316146117885760405162461bcd60e51b81526004016104ad906146d5565b60005b818110156118ec57368383838181106117b457634e487b7160e01b600052603260045260246000fd5b90506020028101906117c69190614972565b90506118d76117d8602083018361492e565b8080601f016020809104026020016040519081016040528093929190818152602001838380828437600092019190915250611819925085915081905061492e565b8080601f01602080910402602001604051908101604052809392919081815260200183838082843760009201919091525061185b92505050604085018561492e565b8080601f01602080910402602001604051908101604052809392919081815260200183838082843760009201919091525061189d92505050606086018661492e565b8080601f016020809104026020016040519081016040528093929190818152602001838380828437600092019190915250610ec492505050565b505080806118e490614b1e565b91505061178b565b505050565b336118fa611e4d565b6001600160a01b0316146119205760405162461bcd60e51b81526004016104ad906146d5565b61192a60006138c7565b565b805160208183018101805160098252928201919093012091528054604080516080810190915260018301805460ff90931693928290829061196c90614ae9565b80601f016020809104026020016040519081016040528092919081815260200182805461199890614ae9565b80156119e55780601f106119ba576101008083540402835291602001916119e5565b820191906000526020600020905b8154815290600101906020018083116119c857829003601f168201915b50505050508152602001600182015481526020016002820154815260200160038201548152505090806005018054611a1c90614ae9565b80601f0160208091040260200160405190810160405280929190818152602001828054611a4890614ae9565b8015611a955780601f10611a6a57610100808354040283529160200191611a95565b820191906000526020600020905b815481529060010190602001808311611a7857829003601f168201915b50505050509080600601604051806080016040529081600082018054611aba90614ae9565b80601f0160208091040260200160405190810160405280929190818152602001828054611ae690614ae9565b8015611b335780601f10611b0857610100808354040283529160200191611b33565b820191906000526020600020905b815481529060010190602001808311611b1657829003601f168201915b50505050508152602001600182018054611b4c90614ae9565b80601f0160208091040260200160405190810160405280929190818152602001828054611b7890614ae9565b8015611bc55780601f10611b9a57610100808354040283529160200191611bc5565b820191906000526020600020905b815481529060010190602001808311611ba857829003601f168201915b505050918352505060028201546020808301919091526003909201546040918201528051608081018252600a85015460608201908152815281518084018352600b86015481528184015281519283018252600c9094015482528301529085565b600280546103fa90614ae9565b33611c3b611e4d565b6001600160a01b031614611c615760405162461bcd60e51b81526004016104ad906146d5565b60005b818110156118ec5736838383818110611c8d57634e487b7160e01b600052603260045260246000fd5b9050602002810190611c9f9190614987565b9050611e38611cb1602083018361492e565b8080601f016020809104026020016040519081016040528093929190818152602001838380828437600092019190915250611cf2925085915081905061492e565b8080601f0160208091040260200160405190810160405280939291908181526020018383808284376000920191909152505050506040840135611d38606086018661492e565b8080601f016020809104026020016040519081016040528093929190818152602001838380828437600092019190915250611d7a92505050608087018761492e565b8080601f016020809104026020016040519081016040528093929190818152602001838380828437600092019190915250611dbc9250505060a088018861492e565b8080601f016020809104026020016040519081016040528093929190818152602001838380828437600092019190915250611dfe9250505060c089018961492e565b8080601f0160208091040260200160405190810160405280939291908181526020018383808284376000920191909152506113f392505050565b50508080611e4590614b1e565b915050611c64565b6000546001600160a01b031690565b8051602081830181018051600582529282019190930120915280548190611e8290614ae9565b80601f0160208091040260200160405190810160405280929190818152602001828054611eae90614ae9565b8015611efb5780601f10611ed057610100808354040283529160200191611efb565b820191906000526020600020905b815481529060010190602001808311611ede57829003601f168201915b5050505050908060010154908060020154908060030154905084565b6000611f29600380546104c890614ae9565b60400151905090565b81516020818401810180516006825292820191850191909120919052805482908110611f5d57600080fd5b906000526020600020016000915091505080546103fa90614ae9565b611f81613ad4565b33611f8a611e4d565b6001600160a01b031614611fb05760405162461bcd60e51b81526004016104ad906146d5565b611fb8613ad4565b60208101879052611fc984846131dd565b60e0820152611fd661320b565b610100820152611fee86670de0b6b3a7640000613917565b6060820152604080820186905251819060089061200c908a9061440e565b90815260405190819003602001902081518154829060ff1916600183600381111561204757634e487b7160e01b600052602160045260246000fd5b021790555060208281015180516120649260018501920190613a21565b5060408201516002820155606082015160038201556080820151600482015560a0820151600582015560c0820151600682015560e08201518051805160078401916120b491839160200190613a21565b5060208281015180516120cd9260018501920190613a21565b5060408281015160028301556060909201516003909101556101009290920151805151600b830155602081015151600c8301559091015151600d909101559695505050505050565b3361211e611e4d565b6001600160a01b0316146121445760405162461bcd60e51b81526004016104ad906146d5565b600480546001600160a01b0319166001600160a01b0392909216919091179055565b8051602081830181018051600a8252928201919093012091528054604080516080810190915260018301805460ff9093169392829082906121a690614ae9565b80601f01602080910402602001604051908101604052809291908181526020018280546121d290614ae9565b801561221f5780601f106121f45761010080835404028352916020019161221f565b820191906000526020600020905b81548152906001019060200180831161220257829003601f168201915b5050505050815260200160018201548152602001600282015481526020016003820154815250509080600501805461225690614ae9565b80601f016020809104026020016040519081016040528092919081815260200182805461228290614ae9565b80156122cf5780601f106122a4576101008083540402835291602001916122cf565b820191906000526020600020905b8154815290600101906020018083116122b257829003601f168201915b5050505050908060060154908060070180546122ea90614ae9565b80601f016020809104026020016040519081016040528092919081815260200182805461231690614ae9565b80156123635780601f1061233857610100808354040283529160200191612363565b820191906000526020600020905b81548152906001019060200180831161234657829003601f168201915b50505050509080600801805461237890614ae9565b80601f01602080910402602001604051908101604052809291908181526020018280546123a490614ae9565b80156123f15780601f106123c6576101008083540402835291602001916123f1565b820191906000526020600020905b8154815290600101906020018083116123d457829003601f168201915b5050505050908060090160405180608001604052908160008201805461241690614ae9565b80601f016020809104026020016040519081016040528092919081815260200182805461244290614ae9565b801561248f5780601f106124645761010080835404028352916020019161248f565b820191906000526020600020905b81548152906001019060200180831161247257829003601f168201915b505050505081526020016001820180546124a890614ae9565b80601f01602080910402602001604051908101604052809291908181526020018280546124d490614ae9565b80156125215780601f106124f657610100808354040283529160200191612521565b820191906000526020600020905b81548152906001019060200180831161250457829003601f168201915b505050918352505060028201546020808301919091526003909201546040918201528051608081018252600d85015460608201908152815281518084018352600e86015481528184015281519283018252600f9094015482528301529088565b8051602081830181018051600b8252928201919093012091528054604080516080810190915260018301805460ff9093169392829082906121a690614ae9565b6000611f29600280546104c890614ae9565b6125db61394b565b6004546001600160a01b031633146126055760405162461bcd60e51b81526004016104ad9061470a565b6000612617600380546104c890614ae9565b9050612621611f17565b15806126375750612630611f17565b8160c00151105b6126785760405162461bcd60e51b81526020600482015260126024820152714f7574206f6620687962726964206567677360701b60448201526064016104ad565b604080516101c08101909152600661018082019081526521b7b6b6b7b760d11b6101a083015281906126a990612c6c565b815260200160028152602001826020015181526020016000815260200142815260200143815260200160405180602001604052806000815250815260200184815260200160405180604001604052806000815260200160008152508152602001604051806080016040528060008152602001600081526020016000151581526020016000151581525081526020018260e001518152602001826101000151815250915050919050565b3361275b611e4d565b6001600160a01b0316146127815760405162461bcd60e51b81526004016104ad906146d5565b8151612794906002906020850190613a21565b5080516118ec906003906020840190613a21565b336127b1611e4d565b6001600160a01b0316146127d75760405162461bcd60e51b81526004016104ad906146d5565b6001600160a01b03811661283c5760405162461bcd60e51b815260206004820152602660248201527f4f776e61626c653a206e6577206f776e657220697320746865207a65726f206160448201526564647265737360d01b60648201526084016104ad565b612845816138c7565b50565b600033612853611e4d565b6001600160a01b0316146128795760405162461bcd60e51b81526004016104ad906146d5565b600084116128c45760405162461bcd60e51b8152602060048201526018602482015277526172697479206d757374206265206f766572207a65726f60401b60448201526064016104ad565b604080516080810182528681526020810186905280820185905260608101849052905181906005906128f790899061440e565b90815260200160405180910390206000820151816000019080519060200190612921929190613a21565b50602082810151600180840191909155604084015160028401556060909301516003909201919091558251600780549384018155600052805161298b937fa66cc928b5edb82af9bd49922954155ab7b0942694bea4ce44661d9a8736c68801929190910190613a21565b5060019695505050505050565b6129a0613ad4565b6008826040516129b0919061440e565b9081526040805191829003602001822061012083019091528054829060ff1660038111156129ee57634e487b7160e01b600052602160045260246000fd5b6003811115612a0d57634e487b7160e01b600052602160045260246000fd5b8152602001600182018054612a2190614ae9565b80601f0160208091040260200160405190810160405280929190818152602001828054612a4d90614ae9565b8015612a9a5780601f10612a6f57610100808354040283529160200191612a9a565b820191906000526020600020905b815481529060010190602001808311612a7d57829003601f168201915b50505050508152602001600282015481526020016003820154815260200160048201548152602001600582015481526020016006820154815260200160078201604051806080016040529081600082018054612af590614ae9565b80601f0160208091040260200160405190810160405280929190818152602001828054612b2190614ae9565b8015612b6e5780601f10612b4357610100808354040283529160200191612b6e565b820191906000526020600020905b815481529060010190602001808311612b5157829003601f168201915b50505050508152602001600182018054612b8790614ae9565b80601f0160208091040260200160405190810160405280929190818152602001828054612bb390614ae9565b8015612c005780601f10612bd557610100808354040283529160200191612c00565b820191906000526020600020905b815481529060010190602001808311612be357829003601f168201915b505050918352505060028201546020808301919091526003909201546040918201529183528151608081018352600b85015460608201908152815282518083018452600c86015481528183015282518083018452600d9095015485529182019390935291015292915050565b612c74613b1a565b600582604051612c84919061440e565b9081526020016040518091039020604051806080016040529081600082018054612cad90614ae9565b80601f0160208091040260200160405190810160405280929190818152602001828054612cd990614ae9565b8015612d265780601f10612cfb57610100808354040283529160200191612d26565b820191906000526020600020905b815481529060010190602001808311612d0957829003601f168201915b5050505050815260200160018201548152602001600282015481526020016003820154815250509050919050565b612d998282604051602401612d6a929190614684565b60408051601f198184030181529190526020810180516001600160e01b03166309710a9d60e41b17905261392a565b5050565b612d998282604051602401612db39291906145d2565b60408051601f198184030181529190526020810180516001600160e01b0316634b5c427760e01b17905261392a565b6118ec838383604051602401612dfa93929190614600565b60408051601f198184030181529190526020810180516001600160e01b0316632ced7cef60e01b17905261392a565b612e31613aa5565b600982604051612e41919061440e565b9081526040805191829003602001822060a083019091528054829060ff166003811115612e7e57634e487b7160e01b600052602160045260246000fd5b6003811115612e9d57634e487b7160e01b600052602160045260246000fd5b815260200160018201604051806080016040529081600082018054612ec190614ae9565b80601f0160208091040260200160405190810160405280929190818152602001828054612eed90614ae9565b8015612f3a5780601f10612f0f57610100808354040283529160200191612f3a565b820191906000526020600020905b815481529060010190602001808311612f1d57829003601f168201915b5050505050815260200160018201548152602001600282015481526020016003820154815250508152602001600582018054612f7590614ae9565b80601f0160208091040260200160405190810160405280929190818152602001828054612fa190614ae9565b8015612fee5780601f10612fc357610100808354040283529160200191612fee565b820191906000526020600020905b815481529060010190602001808311612fd157829003601f168201915b505050505081526020016006820160405180608001604052908160008201805461301790614ae9565b80601f016020809104026020016040519081016040528092919081815260200182805461304390614ae9565b80156130905780601f1061306557610100808354040283529160200191613090565b820191906000526020600020905b81548152906001019060200180831161307357829003601f168201915b505050505081526020016001820180546130a990614ae9565b80601f01602080910402602001604051908101604052809291908181526020018280546130d590614ae9565b80156131225780601f106130f757610100808354040283529160200191613122565b820191906000526020600020905b81548152906001019060200180831161310557829003601f168201915b505050918352505060028201546020808301919091526003909201546040918201529183528151608081018352600a85015460608201908152815282518083018452600b86015481528183015282518083018452600c9095015485529182019390935291015292915050565b6131d7848484846040516024016131a89493929190614639565b60408051601f198184030181529190526020810180516001600160e01b0316639fd009f560e01b17905261392a565b50505050565b6131e5613b42565b506040805160808101825292835260208301919091526000908201819052606082015290565b613213613b69565b604080516080810190915280606081018061323b6132336012600a6149df565b600a90613917565b8152508152602001604051806020016040528061325f6012600a61323391906149df565b8152508152602001604051806020016040528061328b6012600a61328391906149df565b605090613917565b90529052919050565b60006006836040516132a6919061440e565b9081526020016040518091039020905060005b81548110156133a95760008282815481106132e457634e487b7160e01b600052603260045260246000fd5b9060005260206000200180546132f990614ae9565b80601f016020809104026020016040519081016040528092919081815260200182805461332590614ae9565b80156133725780601f1061334757610100808354040283529160200191613372565b820191906000526020600020905b81548152906001019060200180831161335557829003601f168201915b50505050509050808051906020012084805190602001201415613396575050505050565b50806133a181614b1e565b9150506132b9565b508054600181018255600082815260209081902084516133d0939190910191850190613a21565b50806006846040516133e2919061440e565b90815260405190819003602001902081546131d79290613b96565b613405613bf8565b600b613411848461389b565b60405161341e919061440e565b9081526040805191829003602001822061010083019091528054829060ff16600381111561345c57634e487b7160e01b600052602160045260246000fd5b600381111561347b57634e487b7160e01b600052602160045260246000fd5b81526020016001820160405180608001604052908160008201805461349f90614ae9565b80601f01602080910402602001604051908101604052809291908181526020018280546134cb90614ae9565b80156135185780601f106134ed57610100808354040283529160200191613518565b820191906000526020600020905b8154815290600101906020018083116134fb57829003601f168201915b505050505081526020016001820154815260200160028201548152602001600382015481525050815260200160058201805461355390614ae9565b80601f016020809104026020016040519081016040528092919081815260200182805461357f90614ae9565b80156135cc5780601f106135a1576101008083540402835291602001916135cc565b820191906000526020600020905b8154815290600101906020018083116135af57829003601f168201915b50505050508152602001600682015481526020016007820180546135ef90614ae9565b80601f016020809104026020016040519081016040528092919081815260200182805461361b90614ae9565b80156136685780601f1061363d57610100808354040283529160200191613668565b820191906000526020600020905b81548152906001019060200180831161364b57829003601f168201915b5050505050815260200160088201805461368190614ae9565b80601f01602080910402602001604051908101604052809291908181526020018280546136ad90614ae9565b80156136fa5780601f106136cf576101008083540402835291602001916136fa565b820191906000526020600020905b8154815290600101906020018083116136dd57829003601f168201915b505050505081526020016009820160405180608001604052908160008201805461372390614ae9565b80601f016020809104026020016040519081016040528092919081815260200182805461374f90614ae9565b801561379c5780601f106137715761010080835404028352916020019161379c565b820191906000526020600020905b81548152906001019060200180831161377f57829003601f168201915b505050505081526020016001820180546137b590614ae9565b80601f01602080910402602001604051908101604052809291908181526020018280546137e190614ae9565b801561382e5780601f106138035761010080835404028352916020019161382e565b820191906000526020600020905b81548152906001019060200180831161381157829003601f168201915b505050918352505060028201546020808301919091526003909201546040918201529183528151608081018352600d85015460608201908152815282518083018452600e86015481528183015282518083018452600f909501548552918201939093529101529392505050565b606082826040516020016138b092919061442a565b604051602081830303815290604052905092915050565b600080546001600160a01b038381166001600160a01b0319831681178455604051919092169283917f8be0079c531659141344cd1fd0a4f28419497f9722a3daafe3b4186f6b6457e09190a35050565b60006139238284614a87565b9392505050565b80516a636f6e736f6c652e6c6f67602083016000808483855afa5050505050565b60405180610180016040528061395f613b1a565b81526020016000815260200160608152602001600081526020016000815260200160008152602001606081526020016139b96040518060800160405280606081526020016060815260200160008152602001600081525090565b81526020016139db604051806040016040528060008152602001600081525090565b8152604080516080810182526000808252602082810182905292820181905260608201529101908152602001613a0f613b42565b8152602001613a1c613b69565b905290565b828054613a2d90614ae9565b90600052602060002090601f016020900481019282613a4f5760008555613a95565b82601f10613a6857805160ff1916838001178555613a95565b82800160010185558215613a95579182015b82811115613a95578251825591602001919060010190613a7a565b50613aa1929150613c3d565b5090565b6040805160a081019091528060008152602001613ac0613b1a565b815260200160608152602001613a0f613b42565b6040805161012081019091528060008152602001606081526020016000815260200160008152602001600081526020016000815260200160008152602001613a0f613b42565b6040518060800160405280606081526020016000815260200160008152602001600081525090565b60408051608081018252606080825260208201819052600092820183905281019190915290565b6040518060600160405280613b7c613c52565b8152602001613b89613c52565b8152602001613a1c613c52565b828054828255906000526020600020908101928215613bec5760005260206000209182015b82811115613bec578282908054613bd190614ae9565b613bdc929190613c65565b5091600101919060010190613bbb565b50613aa1929150613ce0565b6040805161010081019091528060008152602001613c14613b1a565b815260200160608152602001600081526020016060815260200160608152602001613a0f613b42565b5b80821115613aa15760008155600101613c3e565b6040518060200160405280600081525090565b828054613c7190614ae9565b90600052602060002090601f016020900481019282613c935760008555613a95565b82601f10613ca45780548555613a95565b82800160010185558215613a9557600052602060002091601f016020900482015b82811115613a95578254825591600101919060010190613cc5565b80821115613aa1576000613cf48282613cfd565b50600101613ce0565b508054613d0990614ae9565b6000825580601f10613d19575050565b601f0160209004906000526020600020908101906128459190613c3d565b60008083601f840112613d48578081fd5b5081356001600160401b03811115613d5e578182fd5b6020830191508360208260051b8501011115613d7957600080fd5b9250929050565b600082601f830112613d90578081fd5b81356001600160401b0380821115613daa57613daa614b6f565b604051601f8301601f19908116603f01168101908282118183101715613dd257613dd2614b6f565b81604052838152866020858801011115613dea578485fd5b8360208701602083013792830160200193909352509392505050565b600060808284031215613e17578081fd5b604051608081016001600160401b038282108183111715613e3a57613e3a614b6f565b816040528293508435915080821115613e5257600080fd5b613e5e86838701613d80565b83526020850135915080821115613e7457600080fd5b50613e8185828601613d80565b60208301525060408301356040820152606083013560608201525092915050565b600060208284031215613eb3578081fd5b81356001600160a01b0381168114613923578182fd5b60008060208385031215613edb578081fd5b82356001600160401b03811115613ef0578182fd5b613efc85828601613d37565b90969095509350505050565b60008060208385031215613f1a578182fd5b82356001600160401b03811115613ef0578283fd5b600060208284031215613f40578081fd5b81356001600160401b03811115613f55578182fd5b613f6184828501613d80565b949350505050565b60008060408385031215613f7b578182fd5b82356001600160401b0380821115613f91578384fd5b613f9d86838701613d80565b93506020850135915080821115613fb2578283fd5b50613fbf85828601613d80565b9150509250929050565b60008060008060808587031215613fde578182fd5b84356001600160401b0380821115613ff4578384fd5b61400088838901613d80565b95506020870135915080821115614015578384fd5b61402188838901613d80565b94506040870135915080821115614036578384fd5b61404288838901613d80565b93506060870135915080821115614057578283fd5b5061406487828801613d80565b91505092959194509250565b600080600080600080600060e0888a03121561408a578283fd5b87356001600160401b03808211156140a0578485fd5b6140ac8b838c01613d80565b985060208a01359150808211156140c1578485fd5b6140cd8b838c01613d80565b975060408a0135965060608a01359150808211156140e9578485fd5b6140f58b838c01613d80565b955060808a013591508082111561410a578485fd5b6141168b838c01613d80565b945060a08a013591508082111561412b578384fd5b6141378b838c01613d80565b935060c08a013591508082111561414c578283fd5b506141598a828b01613d80565b91505092959891949750929550565b6000806040838503121561417a578182fd5b82356001600160401b0381111561418f578283fd5b61419b85828601613d80565b95602094909401359450505050565b600080600080600060a086880312156141c1578081fd5b85356001600160401b03808211156141d7578283fd5b6141e389838a01613d80565b965060208801359550604088013594506060880135915080821115614206578283fd5b61421289838a01613d80565b93506080880135915080821115614227578283fd5b5061423488828901613d80565b9150509295509295909350565b60008060008060808587031215614256578384fd5b84356001600160401b0381111561426b578485fd5b61427787828801613d80565b97602087013597506040870135966060013595509350505050565b6000602082840312156142a3578081fd5b81356001600160401b038111156142b8578182fd5b613f6184828501613e06565b6000602082840312156142d5578081fd5b5035919050565b600080604083850312156142ee578182fd5b8235915060208301356001600160401b0381111561430a578182fd5b613fbf85828601613e06565b6004811061433457634e487b7160e01b600052602160045260246000fd5b9052565b60008151808452614350816020860160208601614abd565b601f01601f19169290920160200192915050565b8051518252602080820151519083015260409081015151910152565b60008151608084526143956080850182614338565b9050602083015184820360208601526143ae8282614338565b91505060408301516040850152606083015160608501528091505092915050565b60008151608084526143e46080850182614338565b90506020830151602085015260408301516040850152606083015160608501528091505092915050565b60008251614420818460208701614abd565b9190910192915050565b6000835161443c818460208801614abd565b835190830190614450818360208801614abd565b01949350505050565b6000610160614468838d614316565b80602084015261447a8184018c614338565b90508960408401528860608401528760808401528660a08401528560c084015282810360e08401526144ac8186614380565b9150506144bd610100830184614364565b9a9950505050505050505050565b6144d58187614316565b60e0602082015260006144eb60e08301876143cf565b82810360408401526144fd8187614338565b905082810360608401526145118186614380565b9150506145216080830184614364565b9695505050505050565b600061014061453a838c614316565b80602084015261454c8184018b6143cf565b90508281036040840152614560818a614338565b9050876060840152828103608084015261457a8188614338565b905082810360a084015261458e8187614338565b905082810360c08401526145a28186614380565b9150506145b260e0830184614364565b9998505050505050505050565b6020815260006139236020830184614338565b6040815260006145e56040830185614338565b82810360208401526145f78185614338565b95945050505050565b6060815260006146136060830186614338565b82810360208401526146258186614338565b905082810360408401526145218185614338565b60808152600061464c6080830187614338565b828103602084015261465e8187614338565b905082810360408401526146728186614338565b91505082606083015295945050505050565b6040815260006146976040830185614338565b90508260208301529392505050565b6080815260006146b96080830187614338565b6020830195909552506040810192909252606090910152919050565b6020808252818101527f4f776e61626c653a2063616c6c6572206973206e6f7420746865206f776e6572604082015260600190565b6020808252602c908201527f5a6f6f44726f703a204f6e6c79205a6f6f4b65657065722063616e2063616c6c60408201526b081d1a1a5cc81b595d1a1bd960a21b606082015260800190565b60208152614768602082018351614316565b600060208301516101606040840152614785610180840182614338565b90506040840151606084015260608401516080840152608084015160a084015260a084015160c084015260c084015160e084015260e0840151610100601f1985840301818601526147d68383614380565b9250808601519150506147ed610120850182614364565b509392505050565b602081526000825161024060208401526148136102608401826143cf565b905060208401516148276040850182614316565b506040840151601f19808584030160608601526148448383614338565b925060608601516080860152608086015160a086015260a086015160c086015260c08601519150808584030160e086015261487f8383614338565b925060e0860151915061010081868503018187015261489e8484614380565b9350808701519250506101206148c08187018480518252602090810151910152565b86015191506101606148f98682018480518252602081015160208301526040810151151560408301526060810151151560608301525050565b610140870151925081868503016101e08701526149168484614380565b935080870151925050506147ed610200850182614364565b6000808335601e19843603018112614944578283fd5b8301803591506001600160401b0382111561495d578283fd5b602001915036819003821315613d7957600080fd5b60008235607e19833603018112614420578182fd5b6000823560de19833603018112614420578182fd5b600181815b808511156149d75781600019048211156149bd576149bd614b59565b808516156149ca57918102915b93841c93908002906149a1565b509250929050565b600061392383836000826149f5575060016113e0565b81614a02575060006113e0565b8160018114614a185760028114614a2257614a3e565b60019150506113e0565b60ff841115614a3357614a33614b59565b50506001821b6113e0565b5060208310610133831016604e8410600b8410161715614a61575081810a6113e0565b614a6b838361499c565b8060001904821115614a7f57614a7f614b59565b029392505050565b6000816000190483118215151615614aa157614aa1614b59565b500290565b600082821015614ab857614ab8614b59565b500390565b60005b83811015614ad8578181015183820152602001614ac0565b838111156131d75750506000910152565b600181811c90821680614afd57607f821691505b60208210811415610ea357634e487b7160e01b600052602260045260246000fd5b6000600019821415614b3257614b32614b59565b5060010190565b600082614b5457634e487b7160e01b81526012600452602481fd5b500690565b634e487b7160e01b600052601160045260246000fd5b634e487b7160e01b600052604160045260246000fdfea2646970667358221220a31c4e1a6a2e31ba473cb764d3e701276ba5f4a627571aae21ae5d70d854c05764736f6c63430008040033",
  "libraries": {},
  "devdoc": {
    "kind": "dev",
    "methods": {
      "owner()": {
        "details": "Returns the address of the current owner."
      },
      "renounceOwnership()": {
        "details": "Leaves the contract without owner. It will not be possible to call `onlyOwner` functions anymore. Can only be called by the current owner. NOTE: Renouncing ownership will leave the contract without an owner, thereby removing any functionality that is only available to the owner."
      },
      "transferOwnership(address)": {
        "details": "Transfers ownership of the contract to a new account (`newOwner`). Can only be called by the current owner."
      }
    },
    "version": 1
  },
  "userdoc": {
    "kind": "user",
    "methods": {},
    "version": 1
  },
  "storageLayout": {
    "storage": [
      {
        "astId": 1426,
        "contract": "src/Drop.sol:Drop",
        "label": "_owner",
        "offset": 0,
        "slot": "0",
        "type": "t_address"
      },
      {
        "astId": 7846,
        "contract": "src/Drop.sol:Drop",
        "label": "title",
        "offset": 0,
        "slot": "1",
        "type": "t_string_storage"
      },
      {
        "astId": 7848,
        "contract": "src/Drop.sol:Drop",
        "label": "baseEgg",
        "offset": 0,
        "slot": "2",
        "type": "t_string_storage"
      },
      {
        "astId": 7850,
        "contract": "src/Drop.sol:Drop",
        "label": "hybridEgg",
        "offset": 0,
        "slot": "3",
        "type": "t_string_storage"
      },
      {
        "astId": 7852,
        "contract": "src/Drop.sol:Drop",
        "label": "keeperAddress",
        "offset": 0,
        "slot": "4",
        "type": "t_address"
      },
      {
        "astId": 7857,
        "contract": "src/Drop.sol:Drop",
        "label": "rarities",
        "offset": 0,
        "slot": "5",
        "type": "t_mapping(t_string_memory_ptr,t_struct(Rarity)23289_storage)"
      },
      {
        "astId": 7862,
        "contract": "src/Drop.sol:Drop",
        "label": "rarityAnimals",
        "offset": 0,
        "slot": "6",
        "type": "t_mapping(t_string_memory_ptr,t_array(t_string_storage)dyn_storage)"
      },
      {
        "astId": 7865,
        "contract": "src/Drop.sol:Drop",
        "label": "raritySorted",
        "offset": 0,
        "slot": "7",
        "type": "t_array(t_string_storage)dyn_storage"
      },
      {
        "astId": 7870,
        "contract": "src/Drop.sol:Drop",
        "label": "eggs",
        "offset": 0,
        "slot": "8",
        "type": "t_mapping(t_string_memory_ptr,t_struct(Egg)7808_storage)"
      },
      {
        "astId": 7875,
        "contract": "src/Drop.sol:Drop",
        "label": "animals",
        "offset": 0,
        "slot": "9",
        "type": "t_mapping(t_string_memory_ptr,t_struct(Animal)7823_storage)"
      },
      {
        "astId": 7880,
        "contract": "src/Drop.sol:Drop",
        "label": "hybrids",
        "offset": 0,
        "slot": "10",
        "type": "t_mapping(t_string_memory_ptr,t_struct(Hybrid)7844_storage)"
      },
      {
        "astId": 7885,
        "contract": "src/Drop.sol:Drop",
        "label": "hybridParents",
        "offset": 0,
        "slot": "11",
        "type": "t_mapping(t_string_memory_ptr,t_struct(Hybrid)7844_storage)"
      }
    ],
    "types": {
      "t_address": {
        "encoding": "inplace",
        "label": "address",
        "numberOfBytes": "20"
      },
      "t_array(t_string_storage)dyn_storage": {
        "base": "t_string_storage",
        "encoding": "dynamic_array",
        "label": "string[]",
        "numberOfBytes": "32"
      },
      "t_bytes32": {
        "encoding": "inplace",
        "label": "bytes32",
        "numberOfBytes": "32"
      },
      "t_enum(Type)23280": {
        "encoding": "inplace",
        "label": "enum IZoo.Type",
        "numberOfBytes": "1"
      },
      "t_mapping(t_string_memory_ptr,t_array(t_string_storage)dyn_storage)": {
        "encoding": "mapping",
        "key": "t_string_memory_ptr",
        "label": "mapping(string => string[])",
        "numberOfBytes": "32",
        "value": "t_array(t_string_storage)dyn_storage"
      },
      "t_mapping(t_string_memory_ptr,t_struct(Animal)7823_storage)": {
        "encoding": "mapping",
        "key": "t_string_memory_ptr",
        "label": "mapping(string => struct Drop.Animal)",
        "numberOfBytes": "32",
        "value": "t_struct(Animal)7823_storage"
      },
      "t_mapping(t_string_memory_ptr,t_struct(Egg)7808_storage)": {
        "encoding": "mapping",
        "key": "t_string_memory_ptr",
        "label": "mapping(string => struct Drop.Egg)",
        "numberOfBytes": "32",
        "value": "t_struct(Egg)7808_storage"
      },
      "t_mapping(t_string_memory_ptr,t_struct(Hybrid)7844_storage)": {
        "encoding": "mapping",
        "key": "t_string_memory_ptr",
        "label": "mapping(string => struct Drop.Hybrid)",
        "numberOfBytes": "32",
        "value": "t_struct(Hybrid)7844_storage"
      },
      "t_mapping(t_string_memory_ptr,t_struct(Rarity)23289_storage)": {
        "encoding": "mapping",
        "key": "t_string_memory_ptr",
        "label": "mapping(string => struct IZoo.Rarity)",
        "numberOfBytes": "32",
        "value": "t_struct(Rarity)23289_storage"
      },
      "t_string_memory_ptr": {
        "encoding": "bytes",
        "label": "string",
        "numberOfBytes": "32"
      },
      "t_string_storage": {
        "encoding": "bytes",
        "label": "string",
        "numberOfBytes": "32"
      },
      "t_struct(Animal)7823_storage": {
        "encoding": "inplace",
        "label": "struct Drop.Animal",
        "members": [
          {
            "astId": 7811,
            "contract": "src/Drop.sol:Drop",
            "label": "kind",
            "offset": 0,
            "slot": "0",
            "type": "t_enum(Type)23280"
          },
          {
            "astId": 7814,
            "contract": "src/Drop.sol:Drop",
            "label": "rarity",
            "offset": 0,
            "slot": "1",
            "type": "t_struct(Rarity)23289_storage"
          },
          {
            "astId": 7816,
            "contract": "src/Drop.sol:Drop",
            "label": "name",
            "offset": 0,
            "slot": "5",
            "type": "t_string_storage"
          },
          {
            "astId": 7819,
            "contract": "src/Drop.sol:Drop",
            "label": "data",
            "offset": 0,
            "slot": "6",
            "type": "t_struct(MediaData)23115_storage"
          },
          {
            "astId": 7822,
            "contract": "src/Drop.sol:Drop",
            "label": "bidShares",
            "offset": 0,
            "slot": "10",
            "type": "t_struct(BidShares)22938_storage"
          }
        ],
        "numberOfBytes": "416"
      },
      "t_struct(BidShares)22938_storage": {
        "encoding": "inplace",
        "label": "struct IMarket.BidShares",
        "members": [
          {
            "astId": 22931,
            "contract": "src/Drop.sol:Drop",
            "label": "prevOwner",
            "offset": 0,
            "slot": "0",
            "type": "t_struct(D256)7698_storage"
          },
          {
            "astId": 22934,
            "contract": "src/Drop.sol:Drop",
            "label": "creator",
            "offset": 0,
            "slot": "1",
            "type": "t_struct(D256)7698_storage"
          },
          {
            "astId": 22937,
            "contract": "src/Drop.sol:Drop",
            "label": "owner",
            "offset": 0,
            "slot": "2",
            "type": "t_struct(D256)7698_storage"
          }
        ],
        "numberOfBytes": "96"
      },
      "t_struct(D256)7698_storage": {
        "encoding": "inplace",
        "label": "struct Decimal.D256",
        "members": [
          {
            "astId": 7697,
            "contract": "src/Drop.sol:Drop",
            "label": "value",
            "offset": 0,
            "slot": "0",
            "type": "t_uint256"
          }
        ],
        "numberOfBytes": "32"
      },
      "t_struct(Egg)7808_storage": {
        "encoding": "inplace",
        "label": "struct Drop.Egg",
        "members": [
          {
            "astId": 7789,
            "contract": "src/Drop.sol:Drop",
            "label": "kind",
            "offset": 0,
            "slot": "0",
            "type": "t_enum(Type)23280"
          },
          {
            "astId": 7791,
            "contract": "src/Drop.sol:Drop",
            "label": "name",
            "offset": 0,
            "slot": "1",
            "type": "t_string_storage"
          },
          {
            "astId": 7793,
            "contract": "src/Drop.sol:Drop",
            "label": "supply",
            "offset": 0,
            "slot": "2",
            "type": "t_uint256"
          },
          {
            "astId": 7795,
            "contract": "src/Drop.sol:Drop",
            "label": "price",
            "offset": 0,
            "slot": "3",
            "type": "t_uint256"
          },
          {
            "astId": 7797,
            "contract": "src/Drop.sol:Drop",
            "label": "timestamp",
            "offset": 0,
            "slot": "4",
            "type": "t_uint256"
          },
          {
            "astId": 7799,
            "contract": "src/Drop.sol:Drop",
            "label": "birthday",
            "offset": 0,
            "slot": "5",
            "type": "t_uint256"
          },
          {
            "astId": 7801,
            "contract": "src/Drop.sol:Drop",
            "label": "minted",
            "offset": 0,
            "slot": "6",
            "type": "t_uint256"
          },
          {
            "astId": 7804,
            "contract": "src/Drop.sol:Drop",
            "label": "data",
            "offset": 0,
            "slot": "7",
            "type": "t_struct(MediaData)23115_storage"
          },
          {
            "astId": 7807,
            "contract": "src/Drop.sol:Drop",
            "label": "bidShares",
            "offset": 0,
            "slot": "11",
            "type": "t_struct(BidShares)22938_storage"
          }
        ],
        "numberOfBytes": "448"
      },
      "t_struct(Hybrid)7844_storage": {
        "encoding": "inplace",
        "label": "struct Drop.Hybrid",
        "members": [
          {
            "astId": 7826,
            "contract": "src/Drop.sol:Drop",
            "label": "kind",
            "offset": 0,
            "slot": "0",
            "type": "t_enum(Type)23280"
          },
          {
            "astId": 7829,
            "contract": "src/Drop.sol:Drop",
            "label": "rarity",
            "offset": 0,
            "slot": "1",
            "type": "t_struct(Rarity)23289_storage"
          },
          {
            "astId": 7831,
            "contract": "src/Drop.sol:Drop",
            "label": "name",
            "offset": 0,
            "slot": "5",
            "type": "t_string_storage"
          },
          {
            "astId": 7833,
            "contract": "src/Drop.sol:Drop",
            "label": "yield",
            "offset": 0,
            "slot": "6",
            "type": "t_uint256"
          },
          {
            "astId": 7835,
            "contract": "src/Drop.sol:Drop",
            "label": "parentA",
            "offset": 0,
            "slot": "7",
            "type": "t_string_storage"
          },
          {
            "astId": 7837,
            "contract": "src/Drop.sol:Drop",
            "label": "parentB",
            "offset": 0,
            "slot": "8",
            "type": "t_string_storage"
          },
          {
            "astId": 7840,
            "contract": "src/Drop.sol:Drop",
            "label": "data",
            "offset": 0,
            "slot": "9",
            "type": "t_struct(MediaData)23115_storage"
          },
          {
            "astId": 7843,
            "contract": "src/Drop.sol:Drop",
            "label": "bidShares",
            "offset": 0,
            "slot": "13",
            "type": "t_struct(BidShares)22938_storage"
          }
        ],
        "numberOfBytes": "512"
      },
      "t_struct(MediaData)23115_storage": {
        "encoding": "inplace",
        "label": "struct IMedia.MediaData",
        "members": [
          {
            "astId": 23108,
            "contract": "src/Drop.sol:Drop",
            "label": "tokenURI",
            "offset": 0,
            "slot": "0",
            "type": "t_string_storage"
          },
          {
            "astId": 23110,
            "contract": "src/Drop.sol:Drop",
            "label": "metadataURI",
            "offset": 0,
            "slot": "1",
            "type": "t_string_storage"
          },
          {
            "astId": 23112,
            "contract": "src/Drop.sol:Drop",
            "label": "contentHash",
            "offset": 0,
            "slot": "2",
            "type": "t_bytes32"
          },
          {
            "astId": 23114,
            "contract": "src/Drop.sol:Drop",
            "label": "metadataHash",
            "offset": 0,
            "slot": "3",
            "type": "t_bytes32"
          }
        ],
        "numberOfBytes": "128"
      },
      "t_struct(Rarity)23289_storage": {
        "encoding": "inplace",
        "label": "struct IZoo.Rarity",
        "members": [
          {
            "astId": 23282,
            "contract": "src/Drop.sol:Drop",
            "label": "name",
            "offset": 0,
            "slot": "0",
            "type": "t_string_storage"
          },
          {
            "astId": 23284,
            "contract": "src/Drop.sol:Drop",
            "label": "probability",
            "offset": 0,
            "slot": "1",
            "type": "t_uint256"
          },
          {
            "astId": 23286,
            "contract": "src/Drop.sol:Drop",
            "label": "yield",
            "offset": 0,
            "slot": "2",
            "type": "t_uint256"
          },
          {
            "astId": 23288,
            "contract": "src/Drop.sol:Drop",
            "label": "boost",
            "offset": 0,
            "slot": "3",
            "type": "t_uint256"
          }
        ],
        "numberOfBytes": "128"
      },
      "t_uint256": {
        "encoding": "inplace",
        "label": "uint256",
        "numberOfBytes": "32"
      }
    }
  }
}