{
  "address": "0xb2703AC5d136Aa815D11424f62AbF098d27e20B0",
  "abi": [
    {
      "inputs": [
        {
          "internalType": "address",
          "name": "zooAddress",
          "type": "address"
        }
      ],
      "stateMutability": "nonpayable",
      "type": "constructor"
    },
    {
      "anonymous": false,
      "inputs": [
        {
          "indexed": true,
          "internalType": "address",
          "name": "_address",
          "type": "address"
        },
        {
          "indexed": true,
          "internalType": "uint256",
          "name": "_amount",
          "type": "uint256"
        }
      ],
      "name": "Fund",
      "type": "event"
    },
    {
      "anonymous": false,
      "inputs": [
        {
          "indexed": true,
          "internalType": "address",
          "name": "previousOwner",
          "type": "address"
        },
        {
          "indexed": true,
          "internalType": "address",
          "name": "newOwner",
          "type": "address"
        }
      ],
      "name": "OwnershipTransferred",
      "type": "event"
    },
    {
      "inputs": [],
      "name": "balance",
      "outputs": [
        {
          "internalType": "uint256",
          "name": "",
          "type": "uint256"
        }
      ],
      "stateMutability": "view",
      "type": "function"
    },
    {
      "inputs": [
        {
          "internalType": "address",
          "name": "to",
          "type": "address"
        }
      ],
      "name": "fund",
      "outputs": [
        {
          "internalType": "uint256",
          "name": "",
          "type": "uint256"
        }
      ],
      "stateMutability": "nonpayable",
      "type": "function"
    },
    {
      "inputs": [],
      "name": "owner",
      "outputs": [
        {
          "internalType": "address",
          "name": "",
          "type": "address"
        }
      ],
      "stateMutability": "view",
      "type": "function"
    },
    {
      "inputs": [],
      "name": "rate",
      "outputs": [
        {
          "internalType": "uint256",
          "name": "",
          "type": "uint256"
        }
      ],
      "stateMutability": "view",
      "type": "function"
    },
    {
      "inputs": [],
      "name": "renounceOwnership",
      "outputs": [],
      "stateMutability": "nonpayable",
      "type": "function"
    },
    {
      "inputs": [
        {
          "internalType": "uint256",
          "name": "_rate",
          "type": "uint256"
        }
      ],
      "name": "setRate",
      "outputs": [],
      "stateMutability": "nonpayable",
      "type": "function"
    },
    {
      "inputs": [
        {
          "internalType": "address",
          "name": "newOwner",
          "type": "address"
        }
      ],
      "name": "transferOwnership",
      "outputs": [],
      "stateMutability": "nonpayable",
      "type": "function"
    },
    {
      "inputs": [],
      "name": "withdraw",
      "outputs": [],
      "stateMutability": "nonpayable",
      "type": "function"
    }
  ],
  "transactionHash": "0xa215283c3fe4756d31f596b04cd5290d05b3252733f8ae37e9fa487654c30fd6",
  "args": [
    "0x0f3B305306210aE983b65a44Fe17E0B1ea281159"
  ],
  "solcInputHash": "d34382ecf2146ad0057f767ad0206d21",
  "bytecode": "0x6080604052620186a060015534801561001757600080fd5b506040516107d83803806107d8833981016040819052610036916100b4565b61003f33610064565b600280546001600160a01b0319166001600160a01b03929092169190911790556100e2565b600080546001600160a01b038381166001600160a01b0319831681178455604051919092169283917f8be0079c531659141344cd1fd0a4f28419497f9722a3daafe3b4186f6b6457e09190a35050565b6000602082840312156100c5578081fd5b81516001600160a01b03811681146100db578182fd5b9392505050565b6106e7806100f16000396000f3fe608060405234801561001057600080fd5b50600436106100785760003560e01c8063230244081461007d5780632c4e722e146100a357806334fcf437146100ac5780633ccfd60b146100c1578063715018a6146100c95780638da5cb5b146100d1578063b69ef8a8146100e6578063f2fde38b146100ee575b600080fd5b61009061008b3660046105ad565b610101565b6040519081526020015b60405180910390f35b61009060015481565b6100bf6100ba3660046105f4565b610266565b005b6100bf6102a3565b6100bf6103dd565b6100d9610418565b60405161009a9190610624565b610090610427565b6100bf6100fc3660046105ad565b6104ad565b600080610121670de0b6b3a764000060015461054a90919063ffffffff16565b6002546040516370a0823160e01b81529192506001600160a01b0316906370a0823190610152903090600401610624565b60206040518083038186803b15801561016a57600080fd5b505afa15801561017e573d6000803e3d6000fd5b505050506040513d601f19601f820116820180604052508101906101a2919061060c565b8111156101ae57600080fd5b60025460405163a9059cbb60e01b81526001600160a01b039091169063a9059cbb906101e09086908590600401610638565b602060405180830381600087803b1580156101fa57600080fd5b505af115801561020e573d6000803e3d6000fd5b505050506040513d601f19601f8201168201806040525081019061023291906105d4565b50604051819033907fda8220a878ff7a89474ccffdaa31ea1ed1ffbb0207d5051afccc4fbaf81f9bcd90600090a392915050565b3361026f610418565b6001600160a01b03161461029e5760405162461bcd60e51b815260040161029590610651565b60405180910390fd5b600155565b336102ac610418565b6001600160a01b0316146102d25760405162461bcd60e51b815260040161029590610651565b6002546001600160a01b031663a9059cbb6102eb610418565b6002546040516370a0823160e01b81526001600160a01b03909116906370a082319061031b903090600401610624565b60206040518083038186803b15801561033357600080fd5b505afa158015610347573d6000803e3d6000fd5b505050506040513d601f19601f8201168201806040525081019061036b919061060c565b6040518363ffffffff1660e01b8152600401610388929190610638565b602060405180830381600087803b1580156103a257600080fd5b505af11580156103b6573d6000803e3d6000fd5b505050506040513d601f19601f820116820180604052508101906103da91906105d4565b50565b336103e6610418565b6001600160a01b03161461040c5760405162461bcd60e51b815260040161029590610651565b610416600061055d565b565b6000546001600160a01b031690565b6002546040516370a0823160e01b81526000916001600160a01b0316906370a0823190610458903090600401610624565b60206040518083038186803b15801561047057600080fd5b505afa158015610484573d6000803e3d6000fd5b505050506040513d601f19601f820116820180604052508101906104a8919061060c565b905090565b336104b6610418565b6001600160a01b0316146104dc5760405162461bcd60e51b815260040161029590610651565b6001600160a01b0381166105415760405162461bcd60e51b815260206004820152602660248201527f4f776e61626c653a206e6577206f776e657220697320746865207a65726f206160448201526564647265737360d01b6064820152608401610295565b6103da8161055d565b60006105568284610686565b9392505050565b600080546001600160a01b038381166001600160a01b0319831681178455604051919092169283917f8be0079c531659141344cd1fd0a4f28419497f9722a3daafe3b4186f6b6457e09190a35050565b6000602082840312156105be578081fd5b81356001600160a01b0381168114610556578182fd5b6000602082840312156105e5578081fd5b81518015158114610556578182fd5b600060208284031215610605578081fd5b5035919050565b60006020828403121561061d578081fd5b5051919050565b6001600160a01b0391909116815260200190565b6001600160a01b03929092168252602082015260400190565b6020808252818101527f4f776e61626c653a2063616c6c6572206973206e6f7420746865206f776e6572604082015260600190565b60008160001904831182151516156106ac57634e487b7160e01b81526011600452602481fd5b50029056fea2646970667358221220ab1c59b39a986cec6a309d1ab4ee5f1375febfe175a4f73125be5f95ac47716364736f6c63430008040033",
  "libraries": {},
  "devdoc": {
    "kind": "dev",
    "methods": {
      "owner()": {
        "details": "Returns the address of the current owner."
      },
      "renounceOwnership()": {
        "details": "Leaves the contract without owner. It will not be possible to call `onlyOwner` functions anymore. Can only be called by the current owner. NOTE: Renouncing ownership will leave the contract without an owner, thereby removing any functionality that is only available to the owner."
      },
      "transferOwnership(address)": {
        "details": "Transfers ownership of the contract to a new account (`newOwner`). Can only be called by the current owner."
      }
    },
    "version": 1
  },
  "userdoc": {
    "kind": "user",
    "methods": {},
    "version": 1
  },
  "storageLayout": {
    "storage": [
      {
        "astId": 1426,
        "contract": "src/Faucet.sol:Faucet",
        "label": "_owner",
        "offset": 0,
        "slot": "0",
        "type": "t_address"
      },
      {
        "astId": 10904,
        "contract": "src/Faucet.sol:Faucet",
        "label": "rate",
        "offset": 0,
        "slot": "1",
        "type": "t_uint256"
      },
      {
        "astId": 10907,
        "contract": "src/Faucet.sol:Faucet",
        "label": "token",
        "offset": 0,
        "slot": "2",
        "type": "t_contract(IERC20)2278"
      }
    ],
    "types": {
      "t_address": {
        "encoding": "inplace",
        "label": "address",
        "numberOfBytes": "20"
      },
      "t_contract(IERC20)2278": {
        "encoding": "inplace",
        "label": "contract IERC20",
        "numberOfBytes": "20"
      },
      "t_uint256": {
        "encoding": "inplace",
        "label": "uint256",
        "numberOfBytes": "32"
      }
    }
  }
}