{
  "address": "0x651Ceda90B51De372bf2A5DF833B3107965159A0",
  "abi": [
    {
      "inputs": [
        {
          "internalType": "string",
          "name": "name",
          "type": "string"
        },
        {
          "internalType": "string",
          "name": "symbol",
          "type": "string"
        }
      ],
      "stateMutability": "nonpayable",
      "type": "constructor"
    },
    {
      "anonymous": false,
      "inputs": [
        {
          "indexed": true,
          "internalType": "address",
          "name": "owner",
          "type": "address"
        },
        {
          "indexed": true,
          "internalType": "address",
          "name": "approved",
          "type": "address"
        },
        {
          "indexed": true,
          "internalType": "uint256",
          "name": "tokenId",
          "type": "uint256"
        }
      ],
      "name": "Approval",
      "type": "event"
    },
    {
      "anonymous": false,
      "inputs": [
        {
          "indexed": true,
          "internalType": "address",
          "name": "owner",
          "type": "address"
        },
        {
          "indexed": true,
          "internalType": "address",
          "name": "operator",
          "type": "address"
        },
        {
          "indexed": false,
          "internalType": "bool",
          "name": "approved",
          "type": "bool"
        }
      ],
      "name": "ApprovalForAll",
      "type": "event"
    },
    {
      "anonymous": false,
      "inputs": [
        {
          "indexed": true,
          "internalType": "address",
          "name": "previousOwner",
          "type": "address"
        },
        {
          "indexed": true,
          "internalType": "address",
          "name": "newOwner",
          "type": "address"
        }
      ],
      "name": "OwnershipTransferred",
      "type": "event"
    },
    {
      "anonymous": false,
      "inputs": [
        {
          "indexed": true,
          "internalType": "uint256",
          "name": "_tokenId",
          "type": "uint256"
        },
        {
          "indexed": false,
          "internalType": "address",
          "name": "owner",
          "type": "address"
        },
        {
          "indexed": false,
          "internalType": "string",
          "name": "_uri",
          "type": "string"
        }
      ],
      "name": "TokenMetadataURIUpdated",
      "type": "event"
    },
    {
      "anonymous": false,
      "inputs": [
        {
          "indexed": true,
          "internalType": "uint256",
          "name": "_tokenId",
          "type": "uint256"
        },
        {
          "indexed": false,
          "internalType": "address",
          "name": "owner",
          "type": "address"
        },
        {
          "indexed": false,
          "internalType": "string",
          "name": "_uri",
          "type": "string"
        }
      ],
      "name": "TokenURIUpdated",
      "type": "event"
    },
    {
      "anonymous": false,
      "inputs": [
        {
          "indexed": true,
          "internalType": "address",
          "name": "from",
          "type": "address"
        },
        {
          "indexed": true,
          "internalType": "address",
          "name": "to",
          "type": "address"
        },
        {
          "indexed": true,
          "internalType": "uint256",
          "name": "tokenId",
          "type": "uint256"
        }
      ],
      "name": "Transfer",
      "type": "event"
    },
    {
      "inputs": [],
      "name": "MINT_WITH_SIG_TYPEHASH",
      "outputs": [
        {
          "internalType": "bytes32",
          "name": "",
          "type": "bytes32"
        }
      ],
      "stateMutability": "view",
      "type": "function"
    },
    {
      "inputs": [],
      "name": "PERMIT_TYPEHASH",
      "outputs": [
        {
          "internalType": "bytes32",
          "name": "",
          "type": "bytes32"
        }
      ],
      "stateMutability": "view",
      "type": "function"
    },
    {
      "inputs": [
        {
          "internalType": "uint256",
          "name": "tokenId",
          "type": "uint256"
        },
        {
          "components": [
            {
              "internalType": "uint256",
              "name": "amount",
              "type": "uint256"
            },
            {
              "internalType": "address",
              "name": "currency",
              "type": "address"
            },
            {
              "internalType": "address",
              "name": "bidder",
              "type": "address"
            },
            {
              "internalType": "address",
              "name": "recipient",
              "type": "address"
            },
            {
              "components": [
                {
                  "internalType": "uint256",
                  "name": "value",
                  "type": "uint256"
                }
              ],
              "internalType": "struct Decimal.D256",
              "name": "sellOnShare",
              "type": "tuple"
            },
            {
              "internalType": "bool",
              "name": "offline",
              "type": "bool"
            }
          ],
          "internalType": "struct IMarket.Bid",
          "name": "bid",
          "type": "tuple"
        }
      ],
      "name": "acceptBid",
      "outputs": [],
      "stateMutability": "nonpayable",
      "type": "function"
    },
    {
      "inputs": [
        {
          "internalType": "uint256",
          "name": "tokenId",
          "type": "uint256"
        },
        {
          "components": [
            {
              "internalType": "uint256",
              "name": "amount",
              "type": "uint256"
            },
            {
              "internalType": "address",
              "name": "currency",
              "type": "address"
            },
            {
              "internalType": "address",
              "name": "bidder",
              "type": "address"
            },
            {
              "internalType": "address",
              "name": "recipient",
              "type": "address"
            },
            {
              "components": [
                {
                  "internalType": "uint256",
                  "name": "value",
                  "type": "uint256"
                }
              ],
              "internalType": "struct Decimal.D256",
              "name": "sellOnShare",
              "type": "tuple"
            },
            {
              "internalType": "bool",
              "name": "offline",
              "type": "bool"
            }
          ],
          "internalType": "struct IMarket.Bid",
          "name": "bid",
          "type": "tuple"
        },
        {
          "internalType": "address",
          "name": "sender",
          "type": "address"
        }
      ],
      "name": "acceptBidFromApp",
      "outputs": [],
      "stateMutability": "nonpayable",
      "type": "function"
    },
    {
      "inputs": [],
      "name": "appContract",
      "outputs": [
        {
          "internalType": "address",
          "name": "",
          "type": "address"
        }
      ],
      "stateMutability": "view",
      "type": "function"
    },
    {
      "inputs": [
        {
          "internalType": "address",
          "name": "to",
          "type": "address"
        },
        {
          "internalType": "uint256",
          "name": "tokenID",
          "type": "uint256"
        }
      ],
      "name": "approve",
      "outputs": [],
      "stateMutability": "nonpayable",
      "type": "function"
    },
    {
      "inputs": [
        {
          "internalType": "uint256",
          "name": "tokenId",
          "type": "uint256"
        },
        {
          "internalType": "address",
          "name": "recipient",
          "type": "address"
        }
      ],
      "name": "auctionTransfer",
      "outputs": [],
      "stateMutability": "nonpayable",
      "type": "function"
    },
    {
      "inputs": [
        {
          "internalType": "address",
          "name": "owner",
          "type": "address"
        }
      ],
      "name": "balanceOf",
      "outputs": [
        {
          "internalType": "uint256",
          "name": "",
          "type": "uint256"
        }
      ],
      "stateMutability": "view",
      "type": "function"
    },
    {
      "inputs": [],
      "name": "baseURI",
      "outputs": [
        {
          "internalType": "string",
          "name": "",
          "type": "string"
        }
      ],
      "stateMutability": "view",
      "type": "function"
    },
    {
      "inputs": [
        {
          "internalType": "uint256",
          "name": "tokenId",
          "type": "uint256"
        }
      ],
      "name": "burn",
      "outputs": [],
      "stateMutability": "nonpayable",
      "type": "function"
    },
    {
      "inputs": [
        {
          "internalType": "address",
          "name": "owner",
          "type": "address"
        },
        {
          "internalType": "uint256",
          "name": "tokenID",
          "type": "uint256"
        }
      ],
      "name": "burnToken",
      "outputs": [],
      "stateMutability": "nonpayable",
      "type": "function"
    },
    {
      "inputs": [
        {
          "internalType": "address",
          "name": "appContractAddr",
          "type": "address"
        },
        {
          "internalType": "address",
          "name": "marketContractAddr",
          "type": "address"
        }
      ],
      "name": "configure",
      "outputs": [],
      "stateMutability": "nonpayable",
      "type": "function"
    },
    {
      "inputs": [
        {
          "internalType": "uint256",
          "name": "tokenID",
          "type": "uint256"
        }
      ],
      "name": "getApproved",
      "outputs": [
        {
          "internalType": "address",
          "name": "",
          "type": "address"
        }
      ],
      "stateMutability": "view",
      "type": "function"
    },
    {
      "inputs": [
        {
          "internalType": "address",
          "name": "creator",
          "type": "address"
        }
      ],
      "name": "getRecentToken",
      "outputs": [
        {
          "internalType": "uint256",
          "name": "",
          "type": "uint256"
        }
      ],
      "stateMutability": "view",
      "type": "function"
    },
    {
      "inputs": [
        {
          "internalType": "address",
          "name": "owner",
          "type": "address"
        },
        {
          "internalType": "address",
          "name": "operator",
          "type": "address"
        }
      ],
      "name": "isApprovedForAll",
      "outputs": [
        {
          "internalType": "bool",
          "name": "",
          "type": "bool"
        }
      ],
      "stateMutability": "view",
      "type": "function"
    },
    {
      "inputs": [
        {
          "internalType": "address",
          "name": "spender",
          "type": "address"
        },
        {
          "internalType": "uint256",
          "name": "tokenID",
          "type": "uint256"
        }
      ],
      "name": "isApprovedOrOwner",
      "outputs": [
        {
          "internalType": "bool",
          "name": "",
          "type": "bool"
        }
      ],
      "stateMutability": "view",
      "type": "function"
    },
    {
      "inputs": [],
      "name": "marketContract",
      "outputs": [
        {
          "internalType": "address",
          "name": "",
          "type": "address"
        }
      ],
      "stateMutability": "view",
      "type": "function"
    },
    {
      "inputs": [
        {
          "components": [
            {
              "internalType": "string",
              "name": "tokenURI",
              "type": "string"
            },
            {
              "internalType": "string",
              "name": "metadataURI",
              "type": "string"
            },
            {
              "internalType": "bytes32",
              "name": "contentHash",
              "type": "bytes32"
            },
            {
              "internalType": "bytes32",
              "name": "metadataHash",
              "type": "bytes32"
            }
          ],
          "internalType": "struct IMedia.MediaData",
          "name": "data",
          "type": "tuple"
        },
        {
          "components": [
            {
              "components": [
                {
                  "internalType": "uint256",
                  "name": "value",
                  "type": "uint256"
                }
              ],
              "internalType": "struct Decimal.D256",
              "name": "prevOwner",
              "type": "tuple"
            },
            {
              "components": [
                {
                  "internalType": "uint256",
                  "name": "value",
                  "type": "uint256"
                }
              ],
              "internalType": "struct Decimal.D256",
              "name": "creator",
              "type": "tuple"
            },
            {
              "components": [
                {
                  "internalType": "uint256",
                  "name": "value",
                  "type": "uint256"
                }
              ],
              "internalType": "struct Decimal.D256",
              "name": "owner",
              "type": "tuple"
            }
          ],
          "internalType": "struct IMarket.BidShares",
          "name": "bidShares",
          "type": "tuple"
        }
      ],
      "name": "mint",
      "outputs": [],
      "stateMutability": "nonpayable",
      "type": "function"
    },
    {
      "inputs": [
        {
          "internalType": "address",
          "name": "owner",
          "type": "address"
        },
        {
          "components": [
            {
              "internalType": "enum ILux.Type",
              "name": "kind",
              "type": "uint8"
            },
            {
              "internalType": "string",
              "name": "name",
              "type": "string"
            },
            {
              "internalType": "uint256",
              "name": "id",
              "type": "uint256"
            },
            {
              "internalType": "uint256",
              "name": "timestamp",
              "type": "uint256"
            },
            {
              "components": [
                {
                  "internalType": "string",
                  "name": "tokenURI",
                  "type": "string"
                },
                {
                  "internalType": "string",
                  "name": "metadataURI",
                  "type": "string"
                },
                {
                  "internalType": "bytes32",
                  "name": "contentHash",
                  "type": "bytes32"
                },
                {
                  "internalType": "bytes32",
                  "name": "metadataHash",
                  "type": "bytes32"
                }
              ],
              "internalType": "struct IMedia.MediaData",
              "name": "data",
              "type": "tuple"
            },
            {
              "components": [
                {
                  "components": [
                    {
                      "internalType": "uint256",
                      "name": "value",
                      "type": "uint256"
                    }
                  ],
                  "internalType": "struct Decimal.D256",
                  "name": "prevOwner",
                  "type": "tuple"
                },
                {
                  "components": [
                    {
                      "internalType": "uint256",
                      "name": "value",
                      "type": "uint256"
                    }
                  ],
                  "internalType": "struct Decimal.D256",
                  "name": "creator",
                  "type": "tuple"
                },
                {
                  "components": [
                    {
                      "internalType": "uint256",
                      "name": "value",
                      "type": "uint256"
                    }
                  ],
                  "internalType": "struct Decimal.D256",
                  "name": "owner",
                  "type": "tuple"
                }
              ],
              "internalType": "struct IMarket.BidShares",
              "name": "bidShares",
              "type": "tuple"
            },
            {
              "components": [
                {
                  "internalType": "uint256",
                  "name": "tokenId",
                  "type": "uint256"
                },
                {
                  "internalType": "uint256",
                  "name": "dropId",
                  "type": "uint256"
                },
                {
                  "internalType": "bool",
                  "name": "burned",
                  "type": "bool"
                }
              ],
              "internalType": "struct ILux.Meta",
              "name": "meta",
              "type": "tuple"
            }
          ],
          "internalType": "struct ILux.Token",
          "name": "token",
          "type": "tuple"
        }
      ],
      "name": "mintToken",
      "outputs": [
        {
          "components": [
            {
              "internalType": "enum ILux.Type",
              "name": "kind",
              "type": "uint8"
            },
            {
              "internalType": "string",
              "name": "name",
              "type": "string"
            },
            {
              "internalType": "uint256",
              "name": "id",
              "type": "uint256"
            },
            {
              "internalType": "uint256",
              "name": "timestamp",
              "type": "uint256"
            },
            {
              "components": [
                {
                  "internalType": "string",
                  "name": "tokenURI",
                  "type": "string"
                },
                {
                  "internalType": "string",
                  "name": "metadataURI",
                  "type": "string"
                },
                {
                  "internalType": "bytes32",
                  "name": "contentHash",
                  "type": "bytes32"
                },
                {
                  "internalType": "bytes32",
                  "name": "metadataHash",
                  "type": "bytes32"
                }
              ],
              "internalType": "struct IMedia.MediaData",
              "name": "data",
              "type": "tuple"
            },
            {
              "components": [
                {
                  "components": [
                    {
                      "internalType": "uint256",
                      "name": "value",
                      "type": "uint256"
                    }
                  ],
                  "internalType": "struct Decimal.D256",
                  "name": "prevOwner",
                  "type": "tuple"
                },
                {
                  "components": [
                    {
                      "internalType": "uint256",
                      "name": "value",
                      "type": "uint256"
                    }
                  ],
                  "internalType": "struct Decimal.D256",
                  "name": "creator",
                  "type": "tuple"
                },
                {
                  "components": [
                    {
                      "internalType": "uint256",
                      "name": "value",
                      "type": "uint256"
                    }
                  ],
                  "internalType": "struct Decimal.D256",
                  "name": "owner",
                  "type": "tuple"
                }
              ],
              "internalType": "struct IMarket.BidShares",
              "name": "bidShares",
              "type": "tuple"
            },
            {
              "components": [
                {
                  "internalType": "uint256",
                  "name": "tokenId",
                  "type": "uint256"
                },
                {
                  "internalType": "uint256",
                  "name": "dropId",
                  "type": "uint256"
                },
                {
                  "internalType": "bool",
                  "name": "burned",
                  "type": "bool"
                }
              ],
              "internalType": "struct ILux.Meta",
              "name": "meta",
              "type": "tuple"
            }
          ],
          "internalType": "struct ILux.Token",
          "name": "",
          "type": "tuple"
        }
      ],
      "stateMutability": "nonpayable",
      "type": "function"
    },
    {
      "inputs": [
        {
          "internalType": "address",
          "name": "creator",
          "type": "address"
        },
        {
          "components": [
            {
              "internalType": "string",
              "name": "tokenURI",
              "type": "string"
            },
            {
              "internalType": "string",
              "name": "metadataURI",
              "type": "string"
            },
            {
              "internalType": "bytes32",
              "name": "contentHash",
              "type": "bytes32"
            },
            {
              "internalType": "bytes32",
              "name": "metadataHash",
              "type": "bytes32"
            }
          ],
          "internalType": "struct IMedia.MediaData",
          "name": "data",
          "type": "tuple"
        },
        {
          "components": [
            {
              "components": [
                {
                  "internalType": "uint256",
                  "name": "value",
                  "type": "uint256"
                }
              ],
              "internalType": "struct Decimal.D256",
              "name": "prevOwner",
              "type": "tuple"
            },
            {
              "components": [
                {
                  "internalType": "uint256",
                  "name": "value",
                  "type": "uint256"
                }
              ],
              "internalType": "struct Decimal.D256",
              "name": "creator",
              "type": "tuple"
            },
            {
              "components": [
                {
                  "internalType": "uint256",
                  "name": "value",
                  "type": "uint256"
                }
              ],
              "internalType": "struct Decimal.D256",
              "name": "owner",
              "type": "tuple"
            }
          ],
          "internalType": "struct IMarket.BidShares",
          "name": "bidShares",
          "type": "tuple"
        },
        {
          "components": [
            {
              "internalType": "uint256",
              "name": "deadline",
              "type": "uint256"
            },
            {
              "internalType": "uint8",
              "name": "v",
              "type": "uint8"
            },
            {
              "internalType": "bytes32",
              "name": "r",
              "type": "bytes32"
            },
            {
              "internalType": "bytes32",
              "name": "s",
              "type": "bytes32"
            }
          ],
          "internalType": "struct IMedia.EIP712Signature",
          "name": "sig",
          "type": "tuple"
        }
      ],
      "name": "mintWithSig",
      "outputs": [],
      "stateMutability": "nonpayable",
      "type": "function"
    },
    {
      "inputs": [
        {
          "internalType": "address",
          "name": "",
          "type": "address"
        }
      ],
      "name": "mintWithSigNonces",
      "outputs": [
        {
          "internalType": "uint256",
          "name": "",
          "type": "uint256"
        }
      ],
      "stateMutability": "view",
      "type": "function"
    },
    {
      "inputs": [],
      "name": "name",
      "outputs": [
        {
          "internalType": "string",
          "name": "",
          "type": "string"
        }
      ],
      "stateMutability": "view",
      "type": "function"
    },
    {
      "inputs": [],
      "name": "owner",
      "outputs": [
        {
          "internalType": "address",
          "name": "",
          "type": "address"
        }
      ],
      "stateMutability": "view",
      "type": "function"
    },
    {
      "inputs": [
        {
          "internalType": "uint256",
          "name": "tokenID",
          "type": "uint256"
        }
      ],
      "name": "ownerOf",
      "outputs": [
        {
          "internalType": "address",
          "name": "",
          "type": "address"
        }
      ],
      "stateMutability": "view",
      "type": "function"
    },
    {
      "inputs": [
        {
          "internalType": "address",
          "name": "spender",
          "type": "address"
        },
        {
          "internalType": "uint256",
          "name": "tokenId",
          "type": "uint256"
        },
        {
          "components": [
            {
              "internalType": "uint256",
              "name": "deadline",
              "type": "uint256"
            },
            {
              "internalType": "uint8",
              "name": "v",
              "type": "uint8"
            },
            {
              "internalType": "bytes32",
              "name": "r",
              "type": "bytes32"
            },
            {
              "internalType": "bytes32",
              "name": "s",
              "type": "bytes32"
            }
          ],
          "internalType": "struct IMedia.EIP712Signature",
          "name": "sig",
          "type": "tuple"
        }
      ],
      "name": "permit",
      "outputs": [],
      "stateMutability": "nonpayable",
      "type": "function"
    },
    {
      "inputs": [
        {
          "internalType": "address",
          "name": "",
          "type": "address"
        },
        {
          "internalType": "uint256",
          "name": "",
          "type": "uint256"
        }
      ],
      "name": "permitNonces",
      "outputs": [
        {
          "internalType": "uint256",
          "name": "",
          "type": "uint256"
        }
      ],
      "stateMutability": "view",
      "type": "function"
    },
    {
      "inputs": [
        {
          "internalType": "uint256",
          "name": "tokenID",
          "type": "uint256"
        }
      ],
      "name": "previousTokenOwner",
      "outputs": [
        {
          "internalType": "address",
          "name": "",
          "type": "address"
        }
      ],
      "stateMutability": "view",
      "type": "function"
    },
    {
      "inputs": [
        {
          "internalType": "uint256",
          "name": "",
          "type": "uint256"
        }
      ],
      "name": "previousTokenOwners",
      "outputs": [
        {
          "internalType": "address",
          "name": "",
          "type": "address"
        }
      ],
      "stateMutability": "view",
      "type": "function"
    },
    {
      "inputs": [
        {
          "internalType": "uint256",
          "name": "tokenId",
          "type": "uint256"
        }
      ],
      "name": "removeAsk",
      "outputs": [],
      "stateMutability": "nonpayable",
      "type": "function"
    },
    {
      "inputs": [
        {
          "internalType": "uint256",
          "name": "tokenId",
          "type": "uint256"
        }
      ],
      "name": "removeBid",
      "outputs": [],
      "stateMutability": "nonpayable",
      "type": "function"
    },
    {
      "inputs": [
        {
          "internalType": "uint256",
          "name": "tokenId",
          "type": "uint256"
        },
        {
          "internalType": "address",
          "name": "sender",
          "type": "address"
        }
      ],
      "name": "removeBidFromApp",
      "outputs": [],
      "stateMutability": "nonpayable",
      "type": "function"
    },
    {
      "inputs": [],
      "name": "renounceOwnership",
      "outputs": [],
      "stateMutability": "nonpayable",
      "type": "function"
    },
    {
      "inputs": [
        {
          "internalType": "uint256",
          "name": "tokenId",
          "type": "uint256"
        }
      ],
      "name": "revokeApproval",
      "outputs": [],
      "stateMutability": "nonpayable",
      "type": "function"
    },
    {
      "inputs": [
        {
          "internalType": "address",
          "name": "from",
          "type": "address"
        },
        {
          "internalType": "address",
          "name": "to",
          "type": "address"
        },
        {
          "internalType": "uint256",
          "name": "tokenID",
          "type": "uint256"
        }
      ],
      "name": "safeTransferFrom",
      "outputs": [],
      "stateMutability": "nonpayable",
      "type": "function"
    },
    {
      "inputs": [
        {
          "internalType": "address",
          "name": "from",
          "type": "address"
        },
        {
          "internalType": "address",
          "name": "to",
          "type": "address"
        },
        {
          "internalType": "uint256",
          "name": "tokenID",
          "type": "uint256"
        },
        {
          "internalType": "bytes",
          "name": "_data",
          "type": "bytes"
        }
      ],
      "name": "safeTransferFrom",
      "outputs": [],
      "stateMutability": "nonpayable",
      "type": "function"
    },
    {
      "inputs": [
        {
          "internalType": "address",
          "name": "operator",
          "type": "address"
        },
        {
          "internalType": "bool",
          "name": "approved",
          "type": "bool"
        }
      ],
      "name": "setApprovalForAll",
      "outputs": [],
      "stateMutability": "nonpayable",
      "type": "function"
    },
    {
      "inputs": [
        {
          "internalType": "uint256",
          "name": "tokenId",
          "type": "uint256"
        },
        {
          "components": [
            {
              "internalType": "uint256",
              "name": "amount",
              "type": "uint256"
            },
            {
              "internalType": "address",
              "name": "currency",
              "type": "address"
            },
            {
              "internalType": "bool",
              "name": "offline",
              "type": "bool"
            }
          ],
          "internalType": "struct IMarket.Ask",
          "name": "ask",
          "type": "tuple"
        }
      ],
      "name": "setAsk",
      "outputs": [],
      "stateMutability": "nonpayable",
      "type": "function"
    },
    {
      "inputs": [
        {
          "internalType": "uint256",
          "name": "tokenId",
          "type": "uint256"
        },
        {
          "components": [
            {
              "internalType": "uint256",
              "name": "amount",
              "type": "uint256"
            },
            {
              "internalType": "address",
              "name": "currency",
              "type": "address"
            },
            {
              "internalType": "bool",
              "name": "offline",
              "type": "bool"
            }
          ],
          "internalType": "struct IMarket.Ask",
          "name": "ask",
          "type": "tuple"
        }
      ],
      "name": "setAskFromApp",
      "outputs": [],
      "stateMutability": "nonpayable",
      "type": "function"
    },
    {
      "inputs": [
        {
          "internalType": "uint256",
          "name": "tokenId",
          "type": "uint256"
        },
        {
          "components": [
            {
              "internalType": "uint256",
              "name": "amount",
              "type": "uint256"
            },
            {
              "internalType": "address",
              "name": "currency",
              "type": "address"
            },
            {
              "internalType": "address",
              "name": "bidder",
              "type": "address"
            },
            {
              "internalType": "address",
              "name": "recipient",
              "type": "address"
            },
            {
              "components": [
                {
                  "internalType": "uint256",
                  "name": "value",
                  "type": "uint256"
                }
              ],
              "internalType": "struct Decimal.D256",
              "name": "sellOnShare",
              "type": "tuple"
            },
            {
              "internalType": "bool",
              "name": "offline",
              "type": "bool"
            }
          ],
          "internalType": "struct IMarket.Bid",
          "name": "bid",
          "type": "tuple"
        }
      ],
      "name": "setBid",
      "outputs": [],
      "stateMutability": "nonpayable",
      "type": "function"
    },
    {
      "inputs": [
        {
          "internalType": "uint256",
          "name": "tokenId",
          "type": "uint256"
        },
        {
          "components": [
            {
              "internalType": "uint256",
              "name": "amount",
              "type": "uint256"
            },
            {
              "internalType": "address",
              "name": "currency",
              "type": "address"
            },
            {
              "internalType": "address",
              "name": "bidder",
              "type": "address"
            },
            {
              "internalType": "address",
              "name": "recipient",
              "type": "address"
            },
            {
              "components": [
                {
                  "internalType": "uint256",
                  "name": "value",
                  "type": "uint256"
                }
              ],
              "internalType": "struct Decimal.D256",
              "name": "sellOnShare",
              "type": "tuple"
            },
            {
              "internalType": "bool",
              "name": "offline",
              "type": "bool"
            }
          ],
          "internalType": "struct IMarket.Bid",
          "name": "bid",
          "type": "tuple"
        },
        {
          "internalType": "address",
          "name": "sender",
          "type": "address"
        }
      ],
      "name": "setBidFromApp",
      "outputs": [],
      "stateMutability": "nonpayable",
      "type": "function"
    },
    {
      "inputs": [
        {
          "internalType": "bytes4",
          "name": "interfaceId",
          "type": "bytes4"
        }
      ],
      "name": "supportsInterface",
      "outputs": [
        {
          "internalType": "bool",
          "name": "",
          "type": "bool"
        }
      ],
      "stateMutability": "view",
      "type": "function"
    },
    {
      "inputs": [],
      "name": "symbol",
      "outputs": [
        {
          "internalType": "string",
          "name": "",
          "type": "string"
        }
      ],
      "stateMutability": "view",
      "type": "function"
    },
    {
      "inputs": [
        {
          "internalType": "uint256",
          "name": "index",
          "type": "uint256"
        }
      ],
      "name": "tokenByIndex",
      "outputs": [
        {
          "internalType": "uint256",
          "name": "",
          "type": "uint256"
        }
      ],
      "stateMutability": "view",
      "type": "function"
    },
    {
      "inputs": [
        {
          "internalType": "uint256",
          "name": "",
          "type": "uint256"
        }
      ],
      "name": "tokenContentHashes",
      "outputs": [
        {
          "internalType": "bytes32",
          "name": "",
          "type": "bytes32"
        }
      ],
      "stateMutability": "view",
      "type": "function"
    },
    {
      "inputs": [
        {
          "internalType": "uint256",
          "name": "tokenID",
          "type": "uint256"
        }
      ],
      "name": "tokenCreator",
      "outputs": [
        {
          "internalType": "address",
          "name": "",
          "type": "address"
        }
      ],
      "stateMutability": "view",
      "type": "function"
    },
    {
      "inputs": [
        {
          "internalType": "uint256",
          "name": "",
          "type": "uint256"
        }
      ],
      "name": "tokenCreators",
      "outputs": [
        {
          "internalType": "address",
          "name": "",
          "type": "address"
        }
      ],
      "stateMutability": "view",
      "type": "function"
    },
    {
      "inputs": [
        {
          "internalType": "uint256",
          "name": "tokenID",
          "type": "uint256"
        }
      ],
      "name": "tokenExists",
      "outputs": [
        {
          "internalType": "bool",
          "name": "",
          "type": "bool"
        }
      ],
      "stateMutability": "view",
      "type": "function"
    },
    {
      "inputs": [
        {
          "internalType": "uint256",
          "name": "",
          "type": "uint256"
        }
      ],
      "name": "tokenMetadataHashes",
      "outputs": [
        {
          "internalType": "bytes32",
          "name": "",
          "type": "bytes32"
        }
      ],
      "stateMutability": "view",
      "type": "function"
    },
    {
      "inputs": [
        {
          "internalType": "uint256",
          "name": "tokenId",
          "type": "uint256"
        }
      ],
      "name": "tokenMetadataURI",
      "outputs": [
        {
          "internalType": "string",
          "name": "",
          "type": "string"
        }
      ],
      "stateMutability": "view",
      "type": "function"
    },
    {
      "inputs": [
        {
          "internalType": "address",
          "name": "owner",
          "type": "address"
        },
        {
          "internalType": "uint256",
          "name": "index",
          "type": "uint256"
        }
      ],
      "name": "tokenOfOwnerByIndex",
      "outputs": [
        {
          "internalType": "uint256",
          "name": "",
          "type": "uint256"
        }
      ],
      "stateMutability": "view",
      "type": "function"
    },
    {
      "inputs": [
        {
          "internalType": "uint256",
          "name": "tokenId",
          "type": "uint256"
        }
      ],
      "name": "tokenURI",
      "outputs": [
        {
          "internalType": "string",
          "name": "",
          "type": "string"
        }
      ],
      "stateMutability": "view",
      "type": "function"
    },
    {
      "inputs": [],
      "name": "totalSupply",
      "outputs": [
        {
          "internalType": "uint256",
          "name": "",
          "type": "uint256"
        }
      ],
      "stateMutability": "view",
      "type": "function"
    },
    {
      "inputs": [
        {
          "internalType": "address",
          "name": "from",
          "type": "address"
        },
        {
          "internalType": "address",
          "name": "to",
          "type": "address"
        },
        {
          "internalType": "uint256",
          "name": "tokenID",
          "type": "uint256"
        }
      ],
      "name": "transferFrom",
      "outputs": [],
      "stateMutability": "nonpayable",
      "type": "function"
    },
    {
      "inputs": [
        {
          "internalType": "address",
          "name": "newOwner",
          "type": "address"
        }
      ],
      "name": "transferOwnership",
      "outputs": [],
      "stateMutability": "nonpayable",
      "type": "function"
    },
    {
      "inputs": [
        {
          "internalType": "uint256",
          "name": "tokenId",
          "type": "uint256"
        },
        {
          "internalType": "string",
          "name": "metadataURI",
          "type": "string"
        }
      ],
      "name": "updateTokenMetadataURI",
      "outputs": [],
      "stateMutability": "nonpayable",
      "type": "function"
    },
    {
      "inputs": [
        {
          "internalType": "uint256",
          "name": "tokenId",
          "type": "uint256"
        },
        {
          "internalType": "string",
          "name": "_tokenURI",
          "type": "string"
        }
      ],
      "name": "updateTokenURI",
      "outputs": [],
      "stateMutability": "nonpayable",
      "type": "function"
    }
  ],
  "transactionHash": "0x09bb0b08f38d7cb6ceea9aebe206cc15cd1e8b79e0589af70bb7ee0b91c72528",
  "args": [
    "LUXNFT",
    "LUXNFT"
  ],
  "solcInputHash": "aad94893dbf49146ec8b6f470208d05d",
  "bytecode": "0x60806040523480156200001157600080fd5b5060405162004d2e38038062004d2e833981016040819052620000349162000303565b8151829082906200004d906007906020850190620001aa565b50805162000063906008906020840190620001aa565b50620000766380ac58cd60e01b620000cb565b6200008863780e9d6360e01b620000cb565b50506001600b556200009a336200014f565b620000ac632711173360e11b620000cb565b620000c36018620001a160201b620025021760201c565b5050620003bd565b6001600160e01b031980821614156200012a5760405162461bcd60e51b815260206004820152601c60248201527f4552433136353a20696e76616c696420696e7465726661636520696400000000604482015260640160405180910390fd5b6001600160e01b0319166000908152602081905260409020805460ff19166001179055565b600c80546001600160a01b038381166001600160a01b0319831681179093556040519116919082907f8be0079c531659141344cd1fd0a4f28419497f9722a3daafe3b4186f6b6457e090600090a35050565b80546001019055565b828054620001b8906200036a565b90600052602060002090601f016020900481019282620001dc576000855562000227565b82601f10620001f757805160ff191683800117855562000227565b8280016001018555821562000227579182015b82811115620002275782518255916020019190600101906200020a565b506200023592915062000239565b5090565b5b808211156200023557600081556001016200023a565b600082601f83011262000261578081fd5b81516001600160401b03808211156200027e576200027e620003a7565b604051601f8301601f19908116603f01168101908282118183101715620002a957620002a9620003a7565b81604052838152602092508683858801011115620002c5578485fd5b8491505b83821015620002e85785820183015181830184015290820190620002c9565b83821115620002f957848385830101525b9695505050505050565b6000806040838503121562000316578182fd5b82516001600160401b03808211156200032d578384fd5b6200033b8683870162000250565b9350602085015191508082111562000351578283fd5b50620003608582860162000250565b9150509250929050565b600181811c908216806200037f57607f821691505b60208210811415620003a157634e487b7160e01b600052602260045260246000fd5b50919050565b634e487b7160e01b600052604160045260246000fd5b61496180620003cd6000396000f3fe608060405234801561001057600080fd5b50600436106102975760003560e01c8063715018a611610163578063715018a61461051257806375682e791461051a5780637a05050a1461052d5780637a7a1202146105405780637f9f5987146105535780638da5cb5b1461056657806395d89b411461056e5780639ac26549146105765780639d8e7260146105895780639f079396146105b2578063a1794bcd146105c5578063a22cb465146105d8578063b1e130fc146105eb578063b320f459146105fe578063b88d4fde14610611578063c87b56dd14610624578063d1df306c14610637578063de5236fb1461064a578063debe86ed14610671578063e0fd045f14610684578063e470d5cf146106ad578063e796edeb146106c0578063e985e9c5146106e9578063ea827ada146106fc578063f2fde38b1461071c578063f6b630f01461072f578063f8ccd5de14610742578063fad321971461076d57600080fd5b8062923f9e1461029c57806301ddc3b5146102c457806301ffc9a7146102f257806306fdde0314610305578063081812fc1461031a578063095ea7b31461033a5780630bcd899b1461034f5780630e2a17781461036f578063157c3df91461038257806318160ddd1461039557806318e97fd11461039d5780631b000df3146103b05780632110f20d146103c357806323b872dd146103d657806326f88abe146103e957806328220f35146103fc5780632cca32371461040f5780632f745c59146104225780632fc12ecf1461043557806330adf81f1461044857806340c1a0641461046f57806342842e0e1461049857806342966c68146104ab578063430c2081146104be5780634f6ccce7146104d15780636352211e146104e45780636c0360eb146104f757806370a08231146104ff575b600080fd5b6102af6102aa366004613f26565b61078d565b60405190151581526020015b60405180910390f35b6102e46102d2366004613f26565b60136020526000908152604090205481565b6040519081526020016102bb565b6102af610300366004613eab565b61079e565b61030d6107da565b6040516102bb9190614290565b61032d610328366004613f26565b61086c565b6040516102bb91906141e1565b61034d610348366004613e46565b6108f9565b005b6102e461035d366004613bc6565b60176020526000908152604090205481565b61034d61037d366004613e6f565b610a3e565b61030d610390366004613f26565b610ce1565b6102e4610dab565b61034d6103ab366004613f60565b610dbc565b61034d6103be36600461405e565b610f66565b6102e46103d1366004613bc6565b6110b3565b61034d6103e4366004613c12565b61110f565b61034d6103f736600461403b565b611140565b61034d61040a366004613f26565b611225565b61034d61041d366004613ee3565b6112a6565b6102e4610430366004613e46565b61133b565b61034d61044336600461405e565b61135d565b6102e47f49ecf333e5b8c95c40fdafc95c1ad136e8914a8fb55e9dc8bb01eaa83a2df9ad81565b61032d61047d366004613f26565b6000908152601060205260409020546001600160a01b031690565b61034d6104a6366004613c12565b611476565b61034d6104b9366004613f26565b611491565b6102af6104cc366004613e46565b61159f565b6102e46104df366004613f26565b6115ab565b61032d6104f2366004613f26565b6115c1565b61030d6115e9565b6102e461050d366004613bc6565b6115f8565b61034d611684565b61034d610528366004613f60565b6116bf565b61034d61053b366004613fd6565b611850565b61034d61054e366004613cee565b611929565b61034d61056136600461403b565b611b90565b61032d611c12565b61030d611c21565b61034d610584366004613fd6565b611c30565b61032d610597366004613f26565b600f602052600090815260409020546001600160a01b031681565b61034d6105c0366004613f3e565b611cb2565b600d5461032d906001600160a01b031681565b61034d6105e6366004613cc5565b611d8d565b61034d6105f9366004613f26565b611e4e565b61034d61060c366004613f26565b611efd565b61034d61061f366004613c4d565b611fba565b61030d610632366004613f26565b611ff2565b61034d610645366004613e46565b6120bc565b6102e47f2952e482b8e2b192305f87374d7af45dc2eafafe4f50d26a0c02e90f2fdbe14b81565b600e5461032d906001600160a01b031681565b61032d610692366004613f26565b6010602052600090815260409020546001600160a01b031681565b61034d6106bb366004613be0565b61213b565b61032d6106ce366004613f26565b6000908152600f60205260409020546001600160a01b031690565b6102af6106f7366004613be0565b612282565b61070f61070a366004613d5d565b6122b0565b6040516102bb9190614619565b61034d61072a366004613bc6565b6123ad565b61034d61073d366004613f3e565b61244d565b6102e4610750366004613e46565b601660209081526000928352604080842090915290825290205481565b6102e461077b366004613f26565b60126020526000908152604090205481565b60006107988261250b565b92915050565b60006301ffc9a760e01b6001600160e01b0319831614806107985750506001600160e01b03191660009081526020819052604090205460ff1690565b6060600780546107e99061481e565b80601f01602080910402602001604051908101604052809291908181526020018280546108159061481e565b80156108625780601f1061083757610100808354040283529160200191610862565b820191906000526020600020905b81548152906001019060200180831161084557829003601f168201915b5050505050905090565b60006108778261250b565b6108dd5760405162461bcd60e51b815260206004820152602c60248201527f4552433732313a20617070726f76656420717565727920666f72206e6f6e657860448201526b34b9ba32b73a103a37b5b2b760a11b60648201526084015b60405180910390fd5b506000908152600560205260409020546001600160a01b031690565b6000610904826115c1565b9050610931604051806040016040528060098152602001682a34329037bbb732b960b91b81525082612518565b806001600160a01b0316836001600160a01b0316141561099d5760405162461bcd60e51b815260206004820152602160248201527f4552433732313a20617070726f76616c20746f2063757272656e74206f776e656044820152603960f91b60648201526084016108d4565b6109a63361255d565b336001600160a01b03821614806109c257506109c28133612282565b610a2f5760405162461bcd60e51b815260206004820152603860248201527f4552433732313a20617070726f76652063616c6c6572206973206e6f74206f776044820152771b995c881b9bdc88185c1c1c9bdd995908199bdc88185b1b60421b60648201526084016108d4565b610a3983836125a0565b505050565b6002600b541415610a615760405162461bcd60e51b81526004016108d49061459c565b6002600b5581610a708161250b565b610a8c5760405162461bcd60e51b81526004016108d49061456a565b81511580610a9b575081514211155b610adf5760405162461bcd60e51b81526020600482015260156024820152741359591a584e8814195c9b5a5d08195e1c1a5c9959605a1b60448201526064016108d4565b6001600160a01b038416610b345760405162461bcd60e51b815260206004820152601c60248201527b04d656469613a207370656e6465722063616e6e6f74206265203078360241b60448201526064016108d4565b6000610b3e61260e565b90506000817f49ecf333e5b8c95c40fdafc95c1ad136e8914a8fb55e9dc8bb01eaa83a2df9ad8787601685610b72836115c1565b6001600160a01b03168152602080820192909252604090810160009081208c82529092528120805491610ba483614853565b9091555088516040805160208101969096526001600160a01b03909416938501939093526060840191909152608083015260a082015260c00160405160208183030381529060405280519060200120604051602001610c049291906141c6565b604051602081830303815290604052805190602001209050600060018286602001518760400151886060015160405160008152602001604052604051610c4d9493929190614272565b6020604051602081039080840390855afa158015610c6f573d6000803e3d6000fd5b5050604051601f1901519150506001600160a01b03811615801590610cad5750806001600160a01b0316610ca2876115c1565b6001600160a01b0316145b610cc95760405162461bcd60e51b81526004016108d490614538565b610cd387876125a0565b50506001600b555050505050565b60608180610cee60185490565b11610d0b5760405162461bcd60e51b81526004016108d49061434e565b60008381526014602052604090208054610d249061481e565b80601f0160208091040260200160405190810160405280929190818152602001828054610d509061481e565b8015610d9d5780601f10610d7257610100808354040283529160200191610d9d565b820191906000526020600020905b815481529060010190602001808311610d8057829003601f168201915b505050505091505b50919050565b6000610db760026126d8565b905090565b6002600b541415610ddf5760405162461bcd60e51b81526004016108d49061459c565b6002600b553383610df082826126e3565b610e0c5760405162461bcd60e51b81526004016108d49061447b565b6000858152601260205260409020548590610e845760405162461bcd60e51b815260206004820152603260248201527f4d656469613a20746f6b656e20646f6573206e6f7420686176652068617368206044820152711bd98818dc99585d19590818dbdb9d195b9d60721b60648201526084016108d4565b84848080601f01602080910402602001604051908101604052809392919081815260200183838082843760009201919091525050825115159150610edc90505760405162461bcd60e51b81526004016108d4906145d3565b610f1c8787878080601f0160208091040260200160405190810160405280939291908181526020018383808284376000920191909152506127ad92505050565b867f702fe2dc2dc0f68023540aa4a1e11811c0f29112f6ebf01e61b90538e4f29810338888604051610f5093929190614232565b60405180910390a250506001600b555050505050565b6002600b541415610f895760405162461bcd60e51b81526004016108d49061459c565b6002600b5582610f988161250b565b610fb45760405162461bcd60e51b81526004016108d49061456a565b600e546001600160a01b0316331480610fd75750600d546001600160a01b031633145b80610ff1575033610fe6611c12565b6001600160a01b0316145b61100d5760405162461bcd60e51b81526004016108d490614396565b82604001516001600160a01b0316826001600160a01b0316146110425760405162461bcd60e51b81526004016108d49061443a565b600d54604051638e3d633b60e01b81526001600160a01b0390911690638e3d633b9061107690879087908790600401614741565b600060405180830381600087803b15801561109057600080fd5b505af11580156110a4573d6000803e3d6000fd5b50506001600b55505050505050565b6001600160a01b038116600090815260116020526040812081906001906110d990612836565b6110e391906147db565b6001600160a01b03841660009081526011602052604090209091506111089082612840565b9392505050565b61111933826126e3565b6111355760405162461bcd60e51b81526004016108d4906144e7565b610a3983838361284c565b6002600b5414156111635760405162461bcd60e51b81526004016108d49061459c565b6002600b55816111728161250b565b61118e5760405162461bcd60e51b81526004016108d49061456a565b81604001516001600160a01b0316336001600160a01b0316146111c35760405162461bcd60e51b81526004016108d49061443a565b600d54604051638e3d633b60e01b81526001600160a01b0390911690638e3d633b906111f790869086903390600401614741565b600060405180830381600087803b15801561121157600080fd5b505af1158015610cd3573d6000803e3d6000fd5b6002600b5414156112485760405162461bcd60e51b81526004016108d49061459c565b6002600b55338161125982826126e3565b6112755760405162461bcd60e51b81526004016108d49061447b565b600d546040516328220f3560e01b8152600481018590526001600160a01b03909116906328220f35906024016111f7565b6002600b5414156112c95760405162461bcd60e51b81526004016108d49061459c565b6002600b55600e546001600160a01b03163314806112f15750600d546001600160a01b031633145b8061130b575033611300611c12565b6001600160a01b0316145b6113275760405162461bcd60e51b81526004016108d490614396565b6113323383836128b5565b50506001600b55565b6001600160a01b03821660009081526001602052604081206111089083612840565b6002600b5414156113805760405162461bcd60e51b81526004016108d49061459c565b6002600b55808361139182826126e3565b6113ad5760405162461bcd60e51b81526004016108d49061447b565b600e546001600160a01b03163314806113d05750600d546001600160a01b031633145b806113ea5750336113df611c12565b6001600160a01b0316145b6114065760405162461bcd60e51b81526004016108d490614396565b600d54604051637f9f598760e01b81526001600160a01b0390911690637f9f598790611438908890889060040161472d565b600060405180830381600087803b15801561145257600080fd5b505af1158015611466573d6000803e3d6000fd5b50506001600b5550505050505050565b610a3983838360405180602001604052806000815250611fba565b6002600b5414156114b45760405162461bcd60e51b81526004016108d49061459c565b6002600b55806114c38161250b565b6114df5760405162461bcd60e51b81526004016108d49061456a565b33826114eb82826126e3565b6115075760405162461bcd60e51b81526004016108d49061447b565b6000611512856115c1565b6000868152601060205260409020549091506001600160a01b0380831691161461158a5760405162461bcd60e51b8152602060048201526024808201527f4d656469613a206f776e6572206973206e6f742063726561746f72206f66206d6044820152636564696160e01b60648201526084016108d4565b61159385612af0565b50506001600b55505050565b600061110883836126e3565b6000806115b9600284612bd9565b509392505050565b6000610798826040518060600160405280602981526020016148e36029913960029190612bf5565b6060600a80546107e99061481e565b60006001600160a01b0382166116635760405162461bcd60e51b815260206004820152602a60248201527f4552433732313a2062616c616e636520717565727920666f7220746865207a65604482015269726f206164647265737360b01b60648201526084016108d4565b6001600160a01b038216600090815260016020526040902061079890612836565b3361168d611c12565b6001600160a01b0316146116b35760405162461bcd60e51b81526004016108d4906144b2565b6116bd6000612c02565b565b6002600b5414156116e25760405162461bcd60e51b81526004016108d49061459c565b6002600b5533836116f382826126e3565b61170f5760405162461bcd60e51b81526004016108d49061447b565b60008581526013602052604090205485906117845760405162461bcd60e51b815260206004820152602f60248201527f4d656469613a20746f6b656e20646f6573206e6f74206861766520686173682060448201526e6f6620697473206d6574616461746160881b60648201526084016108d4565b84848080601f016020809104026020016040519081016040528093929190818152602001838380828437600092019190915250508251151591506117dc90505760405162461bcd60e51b81526004016108d4906145d3565b61181c8787878080601f016020809104026020016040519081016040528093929190818152602001838380828437600092019190915250612c5492505050565b867fe3df41127db820c79e5b8d541a63e40e3e97b9af96f7a50bded13091b70df9ae338888604051610f5093929190614232565b6002600b5414156118735760405162461bcd60e51b81526004016108d49061459c565b6002600b55816118828161250b565b61189e5760405162461bcd60e51b81526004016108d49061456a565b600e546001600160a01b03163314806118c15750600d546001600160a01b031633145b806118db5750336118d0611c12565b6001600160a01b0316145b6118f75760405162461bcd60e51b81526004016108d490614396565b600d54604051639ac2654960e01b81526001600160a01b0390911690639ac26549906111f790869086906004016146e7565b6002600b54141561194c5760405162461bcd60e51b81526004016108d49061459c565b6002600b55600e546001600160a01b03163314806119745750600d546001600160a01b031633145b8061198e575033611983611c12565b6001600160a01b0316145b6119aa5760405162461bcd60e51b81526004016108d490614396565b805115806119b9575080514211155b611a025760405162461bcd60e51b815260206004820152601a6024820152791359591a584e881b5a5b9d15da5d1a14da59c8195e1c1a5c995960321b60448201526064016108d4565b6000611a0c61260e565b6040808601516060870151602080880151516001600160a01b038b16600090815260179092529381208054959650909486947f2952e482b8e2b192305f87374d7af45dc2eafafe4f50d26a0c02e90f2fdbe14b94939290919087611a6f83614853565b9091555088516040805160208101979097528601949094526060850192909252608084015260a083015260c082015260e00160405160208183030381529060405280519060200120604051602001611ac89291906141c6565b604051602081830303815290604052805190602001209050600060018285602001518660400151876060015160405160008152602001604052604051611b119493929190614272565b6020604051602081039080840390855afa158015611b33573d6000803e3d6000fd5b5050604051601f1901519150506001600160a01b03811615801590611b695750806001600160a01b0316876001600160a01b0316145b611b855760405162461bcd60e51b81526004016108d490614538565b610cd38187876128b5565b6002600b541415611bb35760405162461bcd60e51b81526004016108d49061459c565b6002600b553382611bc482826126e3565b611be05760405162461bcd60e51b81526004016108d49061447b565b600d54604051637f9f598760e01b81526001600160a01b0390911690637f9f598790611076908790879060040161472d565b600c546001600160a01b031690565b6060600880546107e99061481e565b6002600b541415611c535760405162461bcd60e51b81526004016108d49061459c565b6002600b553382611c6482826126e3565b611c805760405162461bcd60e51b81526004016108d49061447b565b600d54604051639ac2654960e01b81526001600160a01b0390911690639ac265499061107690879087906004016146e7565b6002600b541415611cd55760405162461bcd60e51b81526004016108d49061459c565b6002600b558180611ce560185490565b11611d025760405162461bcd60e51b81526004016108d49061434e565b600e546001600160a01b0316331480611d255750600d546001600160a01b031633145b80611d3f575033611d34611c12565b6001600160a01b0316145b611d5b5760405162461bcd60e51b81526004016108d490614396565b600d5460405163776a083560e01b81526001600160a01b039091169063776a0835906111f790869086906004016146d0565b6001600160a01b038216331415611de25760405162461bcd60e51b815260206004820152601960248201527822a9219b99189d1030b8383937bb32903a379031b0b63632b960391b60448201526064016108d4565b3360008181526006602090815260408083206001600160a01b03871680855290835292819020805460ff191686151590811790915590519081529192917f17307eab39ab6107e8899845ad3d59bd9653f200f220920489ca2b5937696c31910160405180910390a35050565b6002600b541415611e715760405162461bcd60e51b81526004016108d49061459c565b6002600b55611e7f8161086c565b6001600160a01b0316336001600160a01b031614611eea5760405162461bcd60e51b815260206004820152602260248201527f4d656469613a2063616c6c6572206e6f7420617070726f766564206164647265604482015261737360f01b60648201526084016108d4565b611ef56000826125a0565b506001600b55565b6002600b541415611f205760405162461bcd60e51b81526004016108d49061459c565b6002600b558080611f3060185490565b11611f4d5760405162461bcd60e51b81526004016108d49061434e565b600d5460405163776a083560e01b81526001600160a01b039091169063776a083590611f7f90859033906004016146d0565b600060405180830381600087803b158015611f9957600080fd5b505af1158015611fad573d6000803e3d6000fd5b50506001600b5550505050565b611fc433836126e3565b611fe05760405162461bcd60e51b81526004016108d4906144e7565b611fec84848484612c99565b50505050565b60608180611fff60185490565b1161201c5760405162461bcd60e51b81526004016108d49061434e565b600083815260096020526040812080546120359061481e565b80601f01602080910402602001604051908101604052809291908181526020018280546120619061481e565b80156120ae5780601f10612083576101008083540402835291602001916120ae565b820191906000526020600020905b81548152906001019060200180831161209157829003601f168201915b509398975050505050505050565b6002600b5414156120df5760405162461bcd60e51b81526004016108d49061459c565b6002600b55806120ee8161250b565b61210a5760405162461bcd60e51b81526004016108d49061456a565b828261211682826126e3565b6121325760405162461bcd60e51b81526004016108d49061447b565b61159384612af0565b33612144611c12565b6001600160a01b03161461216a5760405162461bcd60e51b81526004016108d4906144b2565b6001600160a01b0382166121d75760405162461bcd60e51b815260206004820152602e60248201527f4d656469613a2063616e6e6f74207365742061707020636f6e7472616374206160448201526d73207a65726f206164647265737360901b60648201526084016108d4565b600e80546001600160a01b0319166001600160a01b0384811691909117909155811661225f5760405162461bcd60e51b815260206004820152603160248201527f4d656469613a2063616e6e6f7420736574206d61726b657420636f6e7472616360448201527074206173207a65726f206164647265737360781b60648201526084016108d4565b600d80546001600160a01b0319166001600160a01b039290921691909117905550565b6001600160a01b03918216600090815260066020908152604080832093909416825291909152205460ff1690565b6122b8613721565b6002600b5414156122db5760405162461bcd60e51b81526004016108d49061459c565b6002600b55600e546001600160a01b03163314806123035750600d546001600160a01b031633145b8061231d575033612312611c12565b6001600160a01b0316145b6123395760405162461bcd60e51b81526004016108d490614396565b6123726040518060400160405280600981526020016836b4b73a2a37b5b2b760b91b815250848460200151856080015160000151612ccc565b61237c8383612d15565b91506123918383608001518460a001516128b5565b600061239c846110b3565b604084015250506001600b55919050565b336123b6611c12565b6001600160a01b0316146123dc5760405162461bcd60e51b81526004016108d4906144b2565b6001600160a01b0381166124415760405162461bcd60e51b815260206004820152602660248201527f4f776e61626c653a206e6577206f776e657220697320746865207a65726f206160448201526564647265737360d01b60648201526084016108d4565b61244a81612c02565b50565b600e546001600160a01b03163314806124705750600d546001600160a01b031633145b8061248a57503361247f611c12565b6001600160a01b0316145b6124a65760405162461bcd60e51b81526004016108d490614396565b6124af826115c1565b6000838152600f6020526040902080546001600160a01b0319166001600160a01b03929092169190911790556124fe6124e7836115c1565b828460405180602001604052806000815250612c99565b5050565b80546001019055565b6000610798600283612dd3565b6124fe828260405160240161252e9291906142a3565b60408051601f198184030181529190526020810180516001600160e01b031663319af33360e01b179052612ddf565b61244a8160405160240161257191906141e1565b60408051601f198184030181529190526020810180516001600160e01b031663161765e160e11b179052612ddf565b600081815260056020526040902080546001600160a01b0319166001600160a01b03841690811790915581906125d5826115c1565b6001600160a01b03167f8c5be1e5ebec7d5bd14f71427d1e84f3dd0314c0f7b2291e5b200ac8c7c3b92560405160405180910390a45050565b6040805180820182526003815262098aab60eb1b6020918201528151808301835260018152603160f81b9082015281517f8b73c3c69bb8fe3d512ecc4cf759cc79239f7b179b0ffacaa9a75d522b39400f818301527fc5d52c00f18c583276f90165da62daa81ba4c859580e526e76cddea6fd312124818401527fc89efdaa54c0f20c7adf612882df0950f5a951637e0307cdcb4c672f298b8bc660608201524660808201523060a0808301919091528351808303909101815260c0909101909252815191012090565b600061079882612e00565b60006126ee8261250b565b61274f5760405162461bcd60e51b815260206004820152602c60248201527f4552433732313a206f70657261746f7220717565727920666f72206e6f6e657860448201526b34b9ba32b73a103a37b5b2b760a11b60648201526084016108d4565b600061275a836115c1565b9050806001600160a01b0316846001600160a01b031614806127955750836001600160a01b031661278a8461086c565b6001600160a01b0316145b806127a557506127a58185612282565b949350505050565b6127b68261250b565b6128175760405162461bcd60e51b815260206004820152602c60248201527f4552433732314d657461646174613a2055524920736574206f66206e6f6e657860448201526b34b9ba32b73a103a37b5b2b760a11b60648201526084016108d4565b60008281526009602090815260409091208251610a39928401906137af565b6000610798825490565b60006111088383612e0b565b600d546040516328220f3560e01b8152600481018390526001600160a01b03909116906328220f3590602401600060405180830381600087803b15801561289257600080fd5b505af11580156128a6573d6000803e3d6000fd5b50505050610a39838383612e43565b815180516128d55760405162461bcd60e51b81526004016108d4906145d3565b602083015180516128f85760405162461bcd60e51b81526004016108d4906145d3565b60408401516129555760405162461bcd60e51b8152602060048201526024808201527f4d656469613a20636f6e74656e742068617368206d757374206265206e6f6e2d6044820152637a65726f60e01b60648201526084016108d4565b60608401516129b45760405162461bcd60e51b815260206004820152602560248201527f4d656469613a206d657461646174612068617368206d757374206265206e6f6e6044820152642d7a65726f60d81b60648201526084016108d4565b60006129bf60185490565b90506129cb8682612fb2565b6129d9601880546001019055565b6129e7818660400151612fcc565b6129f5818660600151613005565b612a03818660200151612c54565b612a118186600001516127ad565b6001600160a01b0386166000908152601160205260409020612a33908261303e565b50604080860151600090815260156020908152828220805460ff191660011790558382526010815282822080546001600160a01b03808c166001600160a01b03199283168117909355600f90935292849020805490931617909155600d5491516375aab41d60e11b815291169063eb55683a90612ab69084908890600401614719565b600060405180830381600087803b158015612ad057600080fd5b505af1158015612ae4573d6000803e3d6000fd5b50505050505050505050565b60008181526009602052604081208054612b099061481e565b80601f0160208091040260200160405190810160405280929190818152602001828054612b359061481e565b8015612b825780601f10612b5757610100808354040283529160200191612b82565b820191906000526020600020905b815481529060010190602001808311612b6557829003601f168201915b50505050509050612b928261304a565b805115612bba5760008281526009602090815260409091208251612bb8928401906137af565b505b506000908152600f6020526040902080546001600160a01b0319169055565b6000808080612be886866130f2565b9097909650945050505050565b60006127a584848461311d565b600c80546001600160a01b038381166001600160a01b0319831681179093556040519116919082907f8be0079c531659141344cd1fd0a4f28419497f9722a3daafe3b4186f6b6457e090600090a35050565b81612c5e8161250b565b612c7a5760405162461bcd60e51b81526004016108d49061456a565b60008381526014602090815260409091208351611fec928501906137af565b612ca484848461284c565b612cb084848484613169565b611fec5760405162461bcd60e51b81526004016108d4906143e8565b611fec84848484604051602401612ce694939291906142cd565b60408051601f198184030181529190526020810180516001600160e01b031663122cc37960e11b179052612ddf565b612d1d613721565b612d5a6040518060400160405280600a8152602001692fb430b9b42a37b5b2b760b11b81525083608001516000015184608001516020015161323a565b608082015151604051612d74919043908690602001614192565b60408051601f198184030181529181528151602092830120608085018051830191909152518201519051612dac924391879101614192565b60408051808303601f19018152919052805160209091012060808301516060015250919050565b60006111088383613281565b80516a636f6e736f6c652e6c6f67602083016000808483855afa5050505050565b600061079882612836565b6000826000018281548110612e3057634e487b7160e01b600052603260045260246000fd5b9060005260206000200154905092915050565b826001600160a01b0316612e56826115c1565b6001600160a01b031614612ebe5760405162461bcd60e51b815260206004820152602960248201527f4552433732313a207472616e73666572206f6620746f6b656e2074686174206960448201526839903737ba1037bbb760b91b60648201526084016108d4565b6001600160a01b038216612f205760405162461bcd60e51b8152602060048201526024808201527f4552433732313a207472616e7366657220746f20746865207a65726f206164646044820152637265737360e01b60648201526084016108d4565b612f2b6000826125a0565b6001600160a01b0383166000908152600160205260409020612f4d908261328d565b506001600160a01b0382166000908152600160205260409020612f70908261303e565b50612f7d60028284613299565b5080826001600160a01b0316846001600160a01b031660008051602061490c83398151915260405160405180910390a4505050565b6124fe8282604051806020016040528060008152506132af565b81612fd68161250b565b612ff25760405162461bcd60e51b81526004016108d49061456a565b5060009182526012602052604090912055565b8161300f8161250b565b61302b5760405162461bcd60e51b81526004016108d49061456a565b5060009182526013602052604090912055565b600061110883836132e2565b6000613055826115c1565b90506130626000836125a0565b6000828152600960205260409020805461307b9061481e565b15905061309957600082815260096020526040812061309991613833565b6001600160a01b03811660009081526001602052604090206130bb908361328d565b506130c7600283613331565b5060405182906000906001600160a01b0384169060008051602061490c833981519152908390a45050565b600080806131008585612840565b600081815260029690960160205260409095205494959350505050565b60008281526002840160205260408120548015158061314157506131418585613281565b83906131605760405162461bcd60e51b81526004016108d49190614290565b50949350505050565b60006001600160a01b0384163b613182575060016127a5565b6000613203630a85bd0160e11b338887876040516024016131a694939291906141f5565b604051602081830303815290604052906001600160e01b0319166020820180516001600160e01b0383818316178352505050506040518060600160405280603281526020016148b1603291396001600160a01b038816919061333d565b905060008180602001905181019061321b9190613ec7565b6001600160e01b031916630a85bd0160e11b1492505050949350505050565b610a3983838360405160240161325293929190614315565b60408051601f198184030181529190526020810180516001600160e01b0316632ced7cef60e01b179052612ddf565b6000611108838361334c565b60006111088383613364565b60006127a584846001600160a01b038516613481565b6132b9838361349e565b6132c66000848484613169565b610a395760405162461bcd60e51b81526004016108d4906143e8565b600081815260018301602052604081205461332957508154600181810184556000848152602080822090930184905584548482528286019093526040902091909155610798565b506000610798565b600061110883836135a3565b60606127a584846000856135c0565b60008181526001830160205260408120541515611108565b600081815260018301602052604081205480156134775760006133886001836147db565b855490915060009061339c906001906147db565b905081811461341d5760008660000182815481106133ca57634e487b7160e01b600052603260045260246000fd5b90600052602060002001549050808760000184815481106133fb57634e487b7160e01b600052603260045260246000fd5b6000918252602080832090910192909255918252600188019052604090208390555b855486908061343c57634e487b7160e01b600052603160045260246000fd5b600190038181906000526020600020016000905590558560010160008681526020019081526020016000206000905560019350505050610798565b6000915050610798565b600082815260028401602052604081208290556127a5848461303e565b6001600160a01b0382166134f45760405162461bcd60e51b815260206004820181905260248201527f4552433732313a206d696e7420746f20746865207a65726f206164647265737360448201526064016108d4565b6134fd8161250b565b156135495760405162461bcd60e51b815260206004820152601c60248201527b115490cdcc8c4e881d1bdad95b88185b1c9958591e481b5a5b9d195960221b60448201526064016108d4565b6001600160a01b038216600090815260016020526040902061356b908261303e565b5061357860028284613299565b5060405181906001600160a01b0384169060009060008051602061490c833981519152908290a45050565b60008181526002830160205260408120819055611108838361328d565b6060824710156136215760405162461bcd60e51b815260206004820152602660248201527f416464726573733a20696e73756666696369656e742062616c616e636520666f6044820152651c8818d85b1b60d21b60648201526084016108d4565b843b61366f5760405162461bcd60e51b815260206004820152601d60248201527f416464726573733a2063616c6c20746f206e6f6e2d636f6e747261637400000060448201526064016108d4565b600080866001600160a01b0316858760405161368b9190614176565b60006040518083038185875af1925050503d80600081146136c8576040519150601f19603f3d011682016040523d82523d6000602084013e6136cd565b606091505b50915091506136dd8282866136e8565b979650505050505050565b606083156136f7575081611108565b8251156137075782518084602001fd5b8160405162461bcd60e51b81526004016108d49190614290565b6040805160e08101909152806000815260200160608152602001600081526020016000815260200161377a6040518060800160405280606081526020016060815260200160008019168152602001600080191681525090565b815260200161378761386d565b815260408051606081018252600080825260208281018290529282015291015290565b905290565b8280546137bb9061481e565b90600052602060002090601f0160209004810192826137dd5760008555613823565b82601f106137f657805160ff1916838001178555613823565b82800160010185558215613823579182015b82811115613823578251825591602001919060010190613808565b5061382f92915061389a565b5090565b50805461383f9061481e565b6000825580601f1061384f575050565b601f01602090049060005260206000209081019061244a919061389a565b60405180606001604052806138806138af565b815260200161388d6138af565b81526020016137aa6138af565b5b8082111561382f576000815560010161389b565b6040518060200160405280600081525090565b60006001600160401b03808411156138dc576138dc614884565b604051601f8501601f19908116603f0116810190828211818310171561390457613904614884565b8160405280935085815286868601111561391d57600080fd5b858560208301376000602087830101525050509392505050565b80356001600160a01b038116811461394e57600080fd5b919050565b8035801515811461394e57600080fd5b80356004811061394e57600080fd5b600082601f830112613982578081fd5b611108838335602085016138c2565b6000606082840312156139a2578081fd5b6139aa61476f565b90506139b68383613a7c565b81526139c58360208401613a7c565b60208201526139d78360408401613a7c565b604082015292915050565b600060c082840312156139f3578081fd5b60405160c081018181106001600160401b0382111715613a1557613a15614884565b60405282358152905080613a2b60208401613937565b6020820152613a3c60408401613937565b6040820152613a4d60608401613937565b6060820152613a5f8460808501613a7c565b6080820152613a7060a08401613953565b60a08201525092915050565b600060208284031215613a8d578081fd5b604051602081018181106001600160401b0382111715613aaf57613aaf614884565b6040529135825250919050565b600060808284031215613acd578081fd5b613ad5614797565b905081358152602082013560ff81168114613aef57600080fd5b80602083015250604082013560408201526060820135606082015292915050565b600060808284031215613b21578081fd5b613b29614797565b905081356001600160401b0380821115613b4257600080fd5b613b4e85838601613972565b83526020840135915080821115613b6457600080fd5b50613b7184828501613972565b602083015250604082013560408201526060820135606082015292915050565b600060608284031215613ba2578081fd5b613baa61476f565b905081358152602082013560208201526139d760408301613953565b600060208284031215613bd7578081fd5b61110882613937565b60008060408385031215613bf2578081fd5b613bfb83613937565b9150613c0960208401613937565b90509250929050565b600080600060608486031215613c26578081fd5b613c2f84613937565b9250613c3d60208501613937565b9150604084013590509250925092565b60008060008060808587031215613c62578182fd5b613c6b85613937565b9350613c7960208601613937565b92506040850135915060608501356001600160401b03811115613c9a578182fd5b8501601f81018713613caa578182fd5b613cb9878235602084016138c2565b91505092959194509250565b60008060408385031215613cd7578182fd5b613ce083613937565b9150613c0960208401613953565b6000806000806101208587031215613d04578182fd5b613d0d85613937565b935060208501356001600160401b03811115613d27578283fd5b613d3387828801613b10565b935050613d438660408701613991565b9150613d528660a08701613abc565b905092959194509250565b60008060408385031215613d6f578182fd5b613d7883613937565b915060208301356001600160401b0380821115613d93578283fd5b908401906101608287031215613da7578283fd5b613daf6147b9565b613db883613963565b8152602083013582811115613dcb578485fd5b613dd788828601613972565b6020830152506040830135604082015260608301356060820152608083013582811115613e02578485fd5b613e0e88828601613b10565b608083015250613e218760a08501613991565b60a0820152613e34876101008501613b91565b60c08201528093505050509250929050565b60008060408385031215613e58578182fd5b613e6183613937565b946020939093013593505050565b600080600060c08486031215613e83578081fd5b613e8c84613937565b925060208401359150613ea28560408601613abc565b90509250925092565b600060208284031215613ebc578081fd5b81356111088161489a565b600060208284031215613ed8578081fd5b81516111088161489a565b60008060808385031215613ef5578182fd5b82356001600160401b03811115613f0a578283fd5b613f1685828601613b10565b925050613c098460208501613991565b600060208284031215613f37578081fd5b5035919050565b60008060408385031215613f50578182fd5b82359150613c0960208401613937565b600080600060408486031215613f74578081fd5b8335925060208401356001600160401b0380821115613f91578283fd5b818601915086601f830112613fa4578283fd5b813581811115613fb2578384fd5b876020828501011115613fc3578384fd5b6020830194508093505050509250925092565b6000808284036080811215613fe9578283fd5b833592506060601f1982011215613ffe578182fd5b5061400761476f565b6020840135815261401a60408501613937565b602082015261402b60608501613953565b6040820152809150509250929050565b60008060e0838503121561404d578182fd5b82359150613c0984602085016139e2565b60008060006101008486031215614073578081fd5b8335925061408485602086016139e2565b9150613ea260e08501613937565b600081518084526140aa8160208601602086016147f2565b601f01601f19169290920160200192915050565b8051518252602080820151519083015260409081015151910152565b80518252602081015160018060a01b0380821660208501528060408401511660408501528060608401511660608501525050608081015151608083015260a0810151151560a08301525050565b600081516080845261413c6080850182614092565b9050602083015184820360208601526141558282614092565b91505060408301516040850152606083015160608501528091505092915050565b600082516141888184602087016147f2565b9190910192915050565b600084516141a48184602089016147f2565b919091019283525060601b6001600160601b0319166020820152603401919050565b61190160f01b81526002810192909252602282015260420190565b6001600160a01b0391909116815260200190565b6001600160a01b038581168252841660208201526040810183905260806060820181905260009061422890830184614092565b9695505050505050565b6001600160a01b03841681526040602082018190528101829052818360608301376000818301606090810191909152601f909201601f1916010192915050565b93845260ff9290921660208401526040830152606082015260800190565b6020815260006111086020830184614092565b6040815260006142b66040830185614092565b905060018060a01b03831660208301529392505050565b6080815260006142e06080830187614092565b6001600160a01b038616602084015282810360408401526143018186614092565b905082810360608401526136dd8185614092565b6060815260006143286060830186614092565b828103602084015261433a8186614092565b905082810360408401526142288185614092565b60208082526028908201527f4d656469613a20746f6b656e2077697468207468617420696420646f6573206e6040820152671bdd08195e1a5cdd60c21b606082015260800190565b60208082526032908201527f4d656469613a204f6e6c792061707020636f6e74726163742c206d61726b65746040820152711031b7b73a3930b1ba1037b91037bbb732b960711b606082015260800190565b60208082526032908201527f4552433732313a207472616e7366657220746f206e6f6e20455243373231526560408201527131b2b4bb32b91034b6b83632b6b2b73a32b960711b606082015260800190565b60208082526021908201527f4d61726b65743a20426964646572206d757374206265206d73672073656e64656040820152603960f91b606082015260800190565b6020808252601d908201527f4d656469613a204f6e6c7920617070726f766564206f72206f776e6572000000604082015260600190565b6020808252818101527f4f776e61626c653a2063616c6c6572206973206e6f7420746865206f776e6572604082015260600190565b60208082526031908201527f4552433732313a207472616e736665722063616c6c6572206973206e6f74206f6040820152701ddb995c881b9bdc88185c1c1c9bdd9959607a1b606082015260800190565b6020808252601890820152771359591a584e8814da59db985d1d5c99481a5b9d985b1a5960421b604082015260600190565b60208082526018908201527726b2b234b09d103737b732bc34b9ba32b73a103a37b5b2b760411b604082015260600190565b6020808252601f908201527f5265656e7472616e637947756172643a207265656e7472616e742063616c6c00604082015260600190565b60208082526026908201527f4d656469613a2073706563696669656420757269206d757374206265206e6f6e6040820152652d656d70747960d01b606082015260800190565b60208152600082516004811061463d57634e487b7160e01b82526021600452602482fd5b806020840152506020830151610160604084015261465f610180840182614092565b905060408401516060840152606084015160808401526080840151601f198483030160a08501526146908282614127565b91505060a08401516146a560c08501826140be565b5060c084015180516101208501526020810151610140850152604081015115156101608501526115b9565b9182526001600160a01b0316602082015260400190565b91825280516020808401919091528101516001600160a01b031660408084019190915201511515606082015260800190565b8281526080810161110860208301846140be565b82815260e0810161110860208301846140da565b838152610100810161475660208301856140da565b6001600160a01b039290921660e0919091015292915050565b604051606081016001600160401b038111828210171561479157614791614884565b60405290565b604051608081016001600160401b038111828210171561479157614791614884565b60405160e081016001600160401b038111828210171561479157614791614884565b6000828210156147ed576147ed61486e565b500390565b60005b8381101561480d5781810151838201526020016147f5565b83811115611fec5750506000910152565b600181811c9082168061483257607f821691505b60208210811415610da557634e487b7160e01b600052602260045260246000fd5b60006000198214156148675761486761486e565b5060010190565b634e487b7160e01b600052601160045260246000fd5b634e487b7160e01b600052604160045260246000fd5b6001600160e01b03198116811461244a57600080fdfe4552433732313a207472616e7366657220746f206e6f6e20455243373231526563656976657220696d706c656d656e7465724552433732313a206f776e657220717565727920666f72206e6f6e6578697374656e7420746f6b656eddf252ad1be2c89b69c2b068fc378daa952ba7f163c4a11628f55a4df523b3efa2646970667358221220ed3e035bb0c0f958dc9f03ba63e8433c7e96474009bddc216891bfdc1bb62d7064736f6c63430008040033",
  "libraries": {},
  "devdoc": {
    "kind": "dev",
    "methods": {
      "approve(address,uint256)": {
        "details": "See {IERC721-approve}."
      },
      "balanceOf(address)": {
        "details": "See {IERC721-balanceOf}."
      },
      "baseURI()": {
        "details": "Returns the base URI set via {_setBaseURI}. This will be automatically added as a prefix in {tokenURI} to each token's URI, or to the token ID if no specific URI is set for that token ID."
      },
      "burn(uint256)": {
        "details": "Only callable if the media owner is also the creator."
      },
      "getApproved(uint256)": {
        "details": "See {IERC721-getApproved}."
      },
      "isApprovedForAll(address,address)": {
        "details": "See {IERC721-isApprovedForAll}."
      },
      "isApprovedOrOwner(address,uint256)": {
        "details": "Public method which returns whether `spender` is allowed to manage `tokenID`. Requirements: - `tokenID` must exist."
      },
      "name()": {
        "details": "See {IERC721Metadata-name}."
      },
      "owner()": {
        "details": "Returns the address of the current owner."
      },
      "ownerOf(uint256)": {
        "details": "See {IERC721-ownerOf}."
      },
      "permit(address,uint256,(uint256,uint8,bytes32,bytes32))": {
        "details": "This method is loosely based on the permit for ERC-20 tokens in  EIP-2612, but modified for ERC-721."
      },
      "renounceOwnership()": {
        "details": "Leaves the contract without owner. It will not be possible to call `onlyOwner` functions anymore. Can only be called by the current owner. NOTE: Renouncing ownership will leave the contract without an owner, thereby removing any functionality that is only available to the owner."
      },
      "safeTransferFrom(address,address,uint256)": {
        "details": "See {IERC721-safeTransferFrom}."
      },
      "safeTransferFrom(address,address,uint256,bytes)": {
        "details": "See {IERC721-safeTransferFrom}."
      },
      "setApprovalForAll(address,bool)": {
        "details": "See {IERC721-setApprovalForAll}."
      },
      "supportsInterface(bytes4)": {
        "details": "See {IERC165-supportsInterface}."
      },
      "symbol()": {
        "details": "See {IERC721Metadata-symbol}."
      },
      "tokenByIndex(uint256)": {
        "details": "See {IERC721Enumerable-tokenByIndex}."
      },
      "tokenMetadataURI(uint256)": {
        "returns": {
          "_0": "the metadata URI for the token"
        }
      },
      "tokenOfOwnerByIndex(address,uint256)": {
        "details": "See {IERC721Enumerable-tokenOfOwnerByIndex}."
      },
      "tokenURI(uint256)": {
        "details": "This function is an override of the base OZ implementation because we will return the tokenURI even if the media has been burned. In addition, this protocol does not support a base URI, so relevant conditionals are removed.",
        "returns": {
          "_0": "the URI for a token"
        }
      },
      "totalSupply()": {
        "details": "See {IERC721Enumerable-totalSupply}."
      },
      "transferFrom(address,address,uint256)": {
        "details": "See {IERC721-transferFrom}."
      },
      "transferOwnership(address)": {
        "details": "Transfers ownership of the contract to a new account (`newOwner`). Can only be called by the current owner."
      },
      "updateTokenMetadataURI(uint256,string)": {
        "details": "only callable by approved or owner"
      },
      "updateTokenURI(uint256,string)": {
        "details": "only callable by approved or owner"
      }
    },
    "title": "A media value system, with perpetual equity to creators",
    "version": 1
  },
  "userdoc": {
    "kind": "user",
    "methods": {
      "acceptBid(uint256,(uint256,address,address,address,(uint256),bool))": {
        "notice": "see IMedia"
      },
      "acceptBidFromApp(uint256,(uint256,address,address,address,(uint256),bool),address)": {
        "notice": "see IMedia"
      },
      "auctionTransfer(uint256,address)": {
        "notice": "see IMedia"
      },
      "burn(uint256)": {
        "notice": "Burn a token."
      },
      "configure(address,address)": {
        "notice": "Sets the market contract address. This address is the only permitted address that can call the mutable functions."
      },
      "constructor": {
        "notice": "On deployment, set the market contract address and register the ERC721 metadata interface"
      },
      "getRecentToken(address)": {
        "notice": "see IMedia"
      },
      "mint((string,string,bytes32,bytes32),((uint256),(uint256),(uint256)))": {
        "notice": "see IMedia"
      },
      "mintWithSig(address,(string,string,bytes32,bytes32),((uint256),(uint256),(uint256)),(uint256,uint8,bytes32,bytes32))": {
        "notice": "see IMedia"
      },
      "permit(address,uint256,(uint256,uint8,bytes32,bytes32))": {
        "notice": "See IMedia"
      },
      "removeAsk(uint256)": {
        "notice": "see IMedia"
      },
      "removeBid(uint256)": {
        "notice": "see IMedia"
      },
      "removeBidFromApp(uint256,address)": {
        "notice": "see IMedia"
      },
      "revokeApproval(uint256)": {
        "notice": "Revoke the approvals for a token. The provided `approve` function is not sufficient for this protocol, as it does not allow an approved address to revoke it's own approval. In instances where a 3rd party is interacting on a user's behalf via `permit`, they should revoke their approval once their task is complete as a best practice."
      },
      "setAsk(uint256,(uint256,address,bool))": {
        "notice": "see IMedia"
      },
      "setAskFromApp(uint256,(uint256,address,bool))": {
        "notice": "see IMedia"
      },
      "setBid(uint256,(uint256,address,address,address,(uint256),bool))": {
        "notice": "see IMedia"
      },
      "setBidFromApp(uint256,(uint256,address,address,address,(uint256),bool),address)": {
        "notice": "Custom version of setBid where App must be onlyApprovedOrOwnersee IMedia"
      },
      "tokenExists(uint256)": {
        "notice": "Helper to check that token has not been burned or minted"
      },
      "tokenMetadataURI(uint256)": {
        "notice": "Return the metadata URI for a piece of media given the token URI"
      },
      "tokenURI(uint256)": {
        "notice": "return the URI for a particular piece of media with the specified tokenId"
      },
      "updateTokenMetadataURI(uint256,string)": {
        "notice": "see IMedia"
      },
      "updateTokenURI(uint256,string)": {
        "notice": "see IMedia"
      }
    },
    "notice": "This contract provides an interface to mint media with a market owned by the creator.",
    "version": 1
  },
  "storageLayout": {
    "storage": [
      {
        "astId": 2982,
        "contract": "src/Media.sol:Media",
        "label": "_supportedInterfaces",
        "offset": 0,
        "slot": "0",
        "type": "t_mapping(t_bytes4,t_bool)"
      },
      {
        "astId": 5578,
        "contract": "src/Media.sol:Media",
        "label": "_holderTokens",
        "offset": 0,
        "slot": "1",
        "type": "t_mapping(t_address,t_struct(UintSet)4383_storage)"
      },
      {
        "astId": 5581,
        "contract": "src/Media.sol:Media",
        "label": "_tokenOwners",
        "offset": 0,
        "slot": "2",
        "type": "t_struct(UintToAddressMap)3680_storage"
      },
      {
        "astId": 5585,
        "contract": "src/Media.sol:Media",
        "label": "_tokenApprovals",
        "offset": 0,
        "slot": "5",
        "type": "t_mapping(t_uint256,t_address)"
      },
      {
        "astId": 5591,
        "contract": "src/Media.sol:Media",
        "label": "_operatorApprovals",
        "offset": 0,
        "slot": "6",
        "type": "t_mapping(t_address,t_mapping(t_address,t_bool))"
      },
      {
        "astId": 5593,
        "contract": "src/Media.sol:Media",
        "label": "_name",
        "offset": 0,
        "slot": "7",
        "type": "t_string_storage"
      },
      {
        "astId": 5595,
        "contract": "src/Media.sol:Media",
        "label": "_symbol",
        "offset": 0,
        "slot": "8",
        "type": "t_string_storage"
      },
      {
        "astId": 5599,
        "contract": "src/Media.sol:Media",
        "label": "_tokenURIs",
        "offset": 0,
        "slot": "9",
        "type": "t_mapping(t_uint256,t_string_storage)"
      },
      {
        "astId": 5601,
        "contract": "src/Media.sol:Media",
        "label": "_baseURI",
        "offset": 0,
        "slot": "10",
        "type": "t_string_storage"
      },
      {
        "astId": 1257,
        "contract": "src/Media.sol:Media",
        "label": "_status",
        "offset": 0,
        "slot": "11",
        "type": "t_uint256"
      },
      {
        "astId": 1104,
        "contract": "src/Media.sol:Media",
        "label": "_owner",
        "offset": 0,
        "slot": "12",
        "type": "t_address"
      },
      {
        "astId": 7593,
        "contract": "src/Media.sol:Media",
        "label": "marketContract",
        "offset": 0,
        "slot": "13",
        "type": "t_address"
      },
      {
        "astId": 7595,
        "contract": "src/Media.sol:Media",
        "label": "appContract",
        "offset": 0,
        "slot": "14",
        "type": "t_address"
      },
      {
        "astId": 7599,
        "contract": "src/Media.sol:Media",
        "label": "previousTokenOwners",
        "offset": 0,
        "slot": "15",
        "type": "t_mapping(t_uint256,t_address)"
      },
      {
        "astId": 7603,
        "contract": "src/Media.sol:Media",
        "label": "tokenCreators",
        "offset": 0,
        "slot": "16",
        "type": "t_mapping(t_uint256,t_address)"
      },
      {
        "astId": 7608,
        "contract": "src/Media.sol:Media",
        "label": "_creatorTokens",
        "offset": 0,
        "slot": "17",
        "type": "t_mapping(t_address,t_struct(UintSet)4383_storage)"
      },
      {
        "astId": 7612,
        "contract": "src/Media.sol:Media",
        "label": "tokenContentHashes",
        "offset": 0,
        "slot": "18",
        "type": "t_mapping(t_uint256,t_bytes32)"
      },
      {
        "astId": 7616,
        "contract": "src/Media.sol:Media",
        "label": "tokenMetadataHashes",
        "offset": 0,
        "slot": "19",
        "type": "t_mapping(t_uint256,t_bytes32)"
      },
      {
        "astId": 7620,
        "contract": "src/Media.sol:Media",
        "label": "_tokenMetadataURIs",
        "offset": 0,
        "slot": "20",
        "type": "t_mapping(t_uint256,t_string_storage)"
      },
      {
        "astId": 7624,
        "contract": "src/Media.sol:Media",
        "label": "_contentHashes",
        "offset": 0,
        "slot": "21",
        "type": "t_mapping(t_bytes32,t_bool)"
      },
      {
        "astId": 7636,
        "contract": "src/Media.sol:Media",
        "label": "permitNonces",
        "offset": 0,
        "slot": "22",
        "type": "t_mapping(t_address,t_mapping(t_uint256,t_uint256))"
      },
      {
        "astId": 7640,
        "contract": "src/Media.sol:Media",
        "label": "mintWithSigNonces",
        "offset": 0,
        "slot": "23",
        "type": "t_mapping(t_address,t_uint256)"
      },
      {
        "astId": 7646,
        "contract": "src/Media.sol:Media",
        "label": "_tokenIdTracker",
        "offset": 0,
        "slot": "24",
        "type": "t_struct(Counter)2676_storage"
      }
    ],
    "types": {
      "t_address": {
        "encoding": "inplace",
        "label": "address",
        "numberOfBytes": "20"
      },
      "t_array(t_bytes32)dyn_storage": {
        "base": "t_bytes32",
        "encoding": "dynamic_array",
        "label": "bytes32[]",
        "numberOfBytes": "32"
      },
      "t_bool": {
        "encoding": "inplace",
        "label": "bool",
        "numberOfBytes": "1"
      },
      "t_bytes32": {
        "encoding": "inplace",
        "label": "bytes32",
        "numberOfBytes": "32"
      },
      "t_bytes4": {
        "encoding": "inplace",
        "label": "bytes4",
        "numberOfBytes": "4"
      },
      "t_mapping(t_address,t_bool)": {
        "encoding": "mapping",
        "key": "t_address",
        "label": "mapping(address => bool)",
        "numberOfBytes": "32",
        "value": "t_bool"
      },
      "t_mapping(t_address,t_mapping(t_address,t_bool))": {
        "encoding": "mapping",
        "key": "t_address",
        "label": "mapping(address => mapping(address => bool))",
        "numberOfBytes": "32",
        "value": "t_mapping(t_address,t_bool)"
      },
      "t_mapping(t_address,t_mapping(t_uint256,t_uint256))": {
        "encoding": "mapping",
        "key": "t_address",
        "label": "mapping(address => mapping(uint256 => uint256))",
        "numberOfBytes": "32",
        "value": "t_mapping(t_uint256,t_uint256)"
      },
      "t_mapping(t_address,t_struct(UintSet)4383_storage)": {
        "encoding": "mapping",
        "key": "t_address",
        "label": "mapping(address => struct EnumerableSet.UintSet)",
        "numberOfBytes": "32",
        "value": "t_struct(UintSet)4383_storage"
      },
      "t_mapping(t_address,t_uint256)": {
        "encoding": "mapping",
        "key": "t_address",
        "label": "mapping(address => uint256)",
        "numberOfBytes": "32",
        "value": "t_uint256"
      },
      "t_mapping(t_bytes32,t_bool)": {
        "encoding": "mapping",
        "key": "t_bytes32",
        "label": "mapping(bytes32 => bool)",
        "numberOfBytes": "32",
        "value": "t_bool"
      },
      "t_mapping(t_bytes32,t_bytes32)": {
        "encoding": "mapping",
        "key": "t_bytes32",
        "label": "mapping(bytes32 => bytes32)",
        "numberOfBytes": "32",
        "value": "t_bytes32"
      },
      "t_mapping(t_bytes32,t_uint256)": {
        "encoding": "mapping",
        "key": "t_bytes32",
        "label": "mapping(bytes32 => uint256)",
        "numberOfBytes": "32",
        "value": "t_uint256"
      },
      "t_mapping(t_bytes4,t_bool)": {
        "encoding": "mapping",
        "key": "t_bytes4",
        "label": "mapping(bytes4 => bool)",
        "numberOfBytes": "32",
        "value": "t_bool"
      },
      "t_mapping(t_uint256,t_address)": {
        "encoding": "mapping",
        "key": "t_uint256",
        "label": "mapping(uint256 => address)",
        "numberOfBytes": "32",
        "value": "t_address"
      },
      "t_mapping(t_uint256,t_bytes32)": {
        "encoding": "mapping",
        "key": "t_uint256",
        "label": "mapping(uint256 => bytes32)",
        "numberOfBytes": "32",
        "value": "t_bytes32"
      },
      "t_mapping(t_uint256,t_string_storage)": {
        "encoding": "mapping",
        "key": "t_uint256",
        "label": "mapping(uint256 => string)",
        "numberOfBytes": "32",
        "value": "t_string_storage"
      },
      "t_mapping(t_uint256,t_uint256)": {
        "encoding": "mapping",
        "key": "t_uint256",
        "label": "mapping(uint256 => uint256)",
        "numberOfBytes": "32",
        "value": "t_uint256"
      },
      "t_string_storage": {
        "encoding": "bytes",
        "label": "string",
        "numberOfBytes": "32"
      },
      "t_struct(Bytes32Set)4119_storage": {
        "encoding": "inplace",
        "label": "struct EnumerableSet.Bytes32Set",
        "members": [
          {
            "astId": 4118,
            "contract": "src/Media.sol:Media",
            "label": "_inner",
            "offset": 0,
            "slot": "0",
            "type": "t_struct(Set)3925_storage"
          }
        ],
        "numberOfBytes": "64"
      },
      "t_struct(Counter)2676_storage": {
        "encoding": "inplace",
        "label": "struct Counters.Counter",
        "members": [
          {
            "astId": 2675,
            "contract": "src/Media.sol:Media",
            "label": "_value",
            "offset": 0,
            "slot": "0",
            "type": "t_uint256"
          }
        ],
        "numberOfBytes": "32"
      },
      "t_struct(Map)3450_storage": {
        "encoding": "inplace",
        "label": "struct EnumerableMap.Map",
        "members": [
          {
            "astId": 3445,
            "contract": "src/Media.sol:Media",
            "label": "_keys",
            "offset": 0,
            "slot": "0",
            "type": "t_struct(Bytes32Set)4119_storage"
          },
          {
            "astId": 3449,
            "contract": "src/Media.sol:Media",
            "label": "_values",
            "offset": 0,
            "slot": "2",
            "type": "t_mapping(t_bytes32,t_bytes32)"
          }
        ],
        "numberOfBytes": "96"
      },
      "t_struct(Set)3925_storage": {
        "encoding": "inplace",
        "label": "struct EnumerableSet.Set",
        "members": [
          {
            "astId": 3920,
            "contract": "src/Media.sol:Media",
            "label": "_values",
            "offset": 0,
            "slot": "0",
            "type": "t_array(t_bytes32)dyn_storage"
          },
          {
            "astId": 3924,
            "contract": "src/Media.sol:Media",
            "label": "_indexes",
            "offset": 0,
            "slot": "1",
            "type": "t_mapping(t_bytes32,t_uint256)"
          }
        ],
        "numberOfBytes": "64"
      },
      "t_struct(UintSet)4383_storage": {
        "encoding": "inplace",
        "label": "struct EnumerableSet.UintSet",
        "members": [
          {
            "astId": 4382,
            "contract": "src/Media.sol:Media",
            "label": "_inner",
            "offset": 0,
            "slot": "0",
            "type": "t_struct(Set)3925_storage"
          }
        ],
        "numberOfBytes": "64"
      },
      "t_struct(UintToAddressMap)3680_storage": {
        "encoding": "inplace",
        "label": "struct EnumerableMap.UintToAddressMap",
        "members": [
          {
            "astId": 3679,
            "contract": "src/Media.sol:Media",
            "label": "_inner",
            "offset": 0,
            "slot": "0",
            "type": "t_struct(Map)3450_storage"
          }
        ],
        "numberOfBytes": "96"
      },
      "t_uint256": {
        "encoding": "inplace",
        "label": "uint256",
        "numberOfBytes": "32"
      }
    }
  }
}