{
  "address": "0x0f3B305306210aE983b65a44Fe17E0B1ea281159",
  "abi": [
    {
      "inputs": [],
      "stateMutability": "nonpayable",
      "type": "constructor"
    },
    {
      "anonymous": false,
      "inputs": [
        {
          "indexed": true,
          "internalType": "address",
          "name": "owner",
          "type": "address"
        },
        {
          "indexed": true,
          "internalType": "address",
          "name": "spender",
          "type": "address"
        },
        {
          "indexed": false,
          "internalType": "uint256",
          "name": "value",
          "type": "uint256"
        }
      ],
      "name": "Approval",
      "type": "event"
    },
    {
      "anonymous": false,
      "inputs": [
        {
          "indexed": true,
          "internalType": "address",
          "name": "previousOwner",
          "type": "address"
        },
        {
          "indexed": true,
          "internalType": "address",
          "name": "newOwner",
          "type": "address"
        }
      ],
      "name": "OwnershipTransferred",
      "type": "event"
    },
    {
      "anonymous": false,
      "inputs": [
        {
          "indexed": false,
          "internalType": "address",
          "name": "account",
          "type": "address"
        }
      ],
      "name": "Paused",
      "type": "event"
    },
    {
      "anonymous": false,
      "inputs": [
        {
          "indexed": true,
          "internalType": "bytes32",
          "name": "role",
          "type": "bytes32"
        },
        {
          "indexed": true,
          "internalType": "bytes32",
          "name": "previousAdminRole",
          "type": "bytes32"
        },
        {
          "indexed": true,
          "internalType": "bytes32",
          "name": "newAdminRole",
          "type": "bytes32"
        }
      ],
      "name": "RoleAdminChanged",
      "type": "event"
    },
    {
      "anonymous": false,
      "inputs": [
        {
          "indexed": true,
          "internalType": "bytes32",
          "name": "role",
          "type": "bytes32"
        },
        {
          "indexed": true,
          "internalType": "address",
          "name": "account",
          "type": "address"
        },
        {
          "indexed": true,
          "internalType": "address",
          "name": "sender",
          "type": "address"
        }
      ],
      "name": "RoleGranted",
      "type": "event"
    },
    {
      "anonymous": false,
      "inputs": [
        {
          "indexed": true,
          "internalType": "bytes32",
          "name": "role",
          "type": "bytes32"
        },
        {
          "indexed": true,
          "internalType": "address",
          "name": "account",
          "type": "address"
        },
        {
          "indexed": true,
          "internalType": "address",
          "name": "sender",
          "type": "address"
        }
      ],
      "name": "RoleRevoked",
      "type": "event"
    },
    {
      "anonymous": false,
      "inputs": [
        {
          "indexed": true,
          "internalType": "address",
          "name": "from",
          "type": "address"
        },
        {
          "indexed": true,
          "internalType": "address",
          "name": "to",
          "type": "address"
        },
        {
          "indexed": false,
          "internalType": "uint256",
          "name": "value",
          "type": "uint256"
        }
      ],
      "name": "Transfer",
      "type": "event"
    },
    {
      "anonymous": false,
      "inputs": [
        {
          "indexed": false,
          "internalType": "address",
          "name": "account",
          "type": "address"
        }
      ],
      "name": "Unpaused",
      "type": "event"
    },
    {
      "inputs": [],
      "name": "BLACKLIST",
      "outputs": [
        {
          "internalType": "bytes32",
          "name": "",
          "type": "bytes32"
        }
      ],
      "stateMutability": "view",
      "type": "function"
    },
    {
      "inputs": [],
      "name": "DEFAULT_ADMIN_ROLE",
      "outputs": [
        {
          "internalType": "bytes32",
          "name": "",
          "type": "bytes32"
        }
      ],
      "stateMutability": "view",
      "type": "function"
    },
    {
      "inputs": [
        {
          "internalType": "address[]",
          "name": "addresses",
          "type": "address[]"
        },
        {
          "internalType": "uint256[]",
          "name": "amounts",
          "type": "uint256[]"
        }
      ],
      "name": "airdrop",
      "outputs": [
        {
          "internalType": "uint256",
          "name": "",
          "type": "uint256"
        }
      ],
      "stateMutability": "nonpayable",
      "type": "function"
    },
    {
      "inputs": [],
      "name": "airdropDone",
      "outputs": [],
      "stateMutability": "nonpayable",
      "type": "function"
    },
    {
      "inputs": [
        {
          "internalType": "address",
          "name": "owner",
          "type": "address"
        },
        {
          "internalType": "address",
          "name": "spender",
          "type": "address"
        }
      ],
      "name": "allowance",
      "outputs": [
        {
          "internalType": "uint256",
          "name": "",
          "type": "uint256"
        }
      ],
      "stateMutability": "view",
      "type": "function"
    },
    {
      "inputs": [
        {
          "internalType": "address",
          "name": "spender",
          "type": "address"
        },
        {
          "internalType": "uint256",
          "name": "amount",
          "type": "uint256"
        }
      ],
      "name": "approve",
      "outputs": [
        {
          "internalType": "bool",
          "name": "",
          "type": "bool"
        }
      ],
      "stateMutability": "nonpayable",
      "type": "function"
    },
    {
      "inputs": [
        {
          "internalType": "address",
          "name": "account",
          "type": "address"
        }
      ],
      "name": "balanceOf",
      "outputs": [
        {
          "internalType": "uint256",
          "name": "",
          "type": "uint256"
        }
      ],
      "stateMutability": "view",
      "type": "function"
    },
    {
      "inputs": [
        {
          "internalType": "address",
          "name": "_addr",
          "type": "address"
        }
      ],
      "name": "blacklistAddress",
      "outputs": [],
      "stateMutability": "nonpayable",
      "type": "function"
    },
    {
      "inputs": [],
      "name": "bridge",
      "outputs": [
        {
          "internalType": "address",
          "name": "",
          "type": "address"
        }
      ],
      "stateMutability": "view",
      "type": "function"
    },
    {
      "inputs": [
        {
          "internalType": "address",
          "name": "account",
          "type": "address"
        },
        {
          "internalType": "uint256",
          "name": "amount",
          "type": "uint256"
        }
      ],
      "name": "bridgeBurn",
      "outputs": [],
      "stateMutability": "nonpayable",
      "type": "function"
    },
    {
      "inputs": [
        {
          "internalType": "address",
          "name": "to",
          "type": "address"
        },
        {
          "internalType": "uint256",
          "name": "value",
          "type": "uint256"
        }
      ],
      "name": "bridgeMint",
      "outputs": [],
      "stateMutability": "nonpayable",
      "type": "function"
    },
    {
      "inputs": [
        {
          "internalType": "uint256",
          "name": "amount",
          "type": "uint256"
        }
      ],
      "name": "burn",
      "outputs": [],
      "stateMutability": "nonpayable",
      "type": "function"
    },
    {
      "inputs": [
        {
          "internalType": "address",
          "name": "account",
          "type": "address"
        },
        {
          "internalType": "uint256",
          "name": "amount",
          "type": "uint256"
        }
      ],
      "name": "burnFrom",
      "outputs": [],
      "stateMutability": "nonpayable",
      "type": "function"
    },
    {
      "inputs": [
        {
          "internalType": "address",
          "name": "_bridge",
          "type": "address"
        }
      ],
      "name": "configure",
      "outputs": [],
      "stateMutability": "nonpayable",
      "type": "function"
    },
    {
      "inputs": [],
      "name": "decimals",
      "outputs": [
        {
          "internalType": "uint8",
          "name": "",
          "type": "uint8"
        }
      ],
      "stateMutability": "view",
      "type": "function"
    },
    {
      "inputs": [
        {
          "internalType": "address",
          "name": "spender",
          "type": "address"
        },
        {
          "internalType": "uint256",
          "name": "subtractedValue",
          "type": "uint256"
        }
      ],
      "name": "decreaseAllowance",
      "outputs": [
        {
          "internalType": "bool",
          "name": "",
          "type": "bool"
        }
      ],
      "stateMutability": "nonpayable",
      "type": "function"
    },
    {
      "inputs": [
        {
          "internalType": "bytes32",
          "name": "role",
          "type": "bytes32"
        }
      ],
      "name": "getRoleAdmin",
      "outputs": [
        {
          "internalType": "bytes32",
          "name": "",
          "type": "bytes32"
        }
      ],
      "stateMutability": "view",
      "type": "function"
    },
    {
      "inputs": [
        {
          "internalType": "bytes32",
          "name": "role",
          "type": "bytes32"
        },
        {
          "internalType": "address",
          "name": "account",
          "type": "address"
        }
      ],
      "name": "grantRole",
      "outputs": [],
      "stateMutability": "nonpayable",
      "type": "function"
    },
    {
      "inputs": [
        {
          "internalType": "bytes32",
          "name": "role",
          "type": "bytes32"
        },
        {
          "internalType": "address",
          "name": "account",
          "type": "address"
        }
      ],
      "name": "hasRole",
      "outputs": [
        {
          "internalType": "bool",
          "name": "",
          "type": "bool"
        }
      ],
      "stateMutability": "view",
      "type": "function"
    },
    {
      "inputs": [
        {
          "internalType": "address",
          "name": "spender",
          "type": "address"
        },
        {
          "internalType": "uint256",
          "name": "addedValue",
          "type": "uint256"
        }
      ],
      "name": "increaseAllowance",
      "outputs": [
        {
          "internalType": "bool",
          "name": "",
          "type": "bool"
        }
      ],
      "stateMutability": "nonpayable",
      "type": "function"
    },
    {
      "inputs": [
        {
          "internalType": "address",
          "name": "_addr",
          "type": "address"
        }
      ],
      "name": "isBlacklisted",
      "outputs": [
        {
          "internalType": "bool",
          "name": "",
          "type": "bool"
        }
      ],
      "stateMutability": "view",
      "type": "function"
    },
    {
      "inputs": [
        {
          "internalType": "address",
          "name": "to",
          "type": "address"
        },
        {
          "internalType": "uint256",
          "name": "value",
          "type": "uint256"
        }
      ],
      "name": "mint",
      "outputs": [],
      "stateMutability": "nonpayable",
      "type": "function"
    },
    {
      "inputs": [],
      "name": "name",
      "outputs": [
        {
          "internalType": "string",
          "name": "",
          "type": "string"
        }
      ],
      "stateMutability": "view",
      "type": "function"
    },
    {
      "inputs": [],
      "name": "owner",
      "outputs": [
        {
          "internalType": "address",
          "name": "",
          "type": "address"
        }
      ],
      "stateMutability": "view",
      "type": "function"
    },
    {
      "inputs": [],
      "name": "pause",
      "outputs": [],
      "stateMutability": "nonpayable",
      "type": "function"
    },
    {
      "inputs": [],
      "name": "paused",
      "outputs": [
        {
          "internalType": "bool",
          "name": "",
          "type": "bool"
        }
      ],
      "stateMutability": "view",
      "type": "function"
    },
    {
      "inputs": [],
      "name": "renounceOwnership",
      "outputs": [],
      "stateMutability": "nonpayable",
      "type": "function"
    },
    {
      "inputs": [
        {
          "internalType": "bytes32",
          "name": "role",
          "type": "bytes32"
        },
        {
          "internalType": "address",
          "name": "account",
          "type": "address"
        }
      ],
      "name": "renounceRole",
      "outputs": [],
      "stateMutability": "nonpayable",
      "type": "function"
    },
    {
      "inputs": [
        {
          "internalType": "bytes32",
          "name": "role",
          "type": "bytes32"
        },
        {
          "internalType": "address",
          "name": "account",
          "type": "address"
        }
      ],
      "name": "revokeRole",
      "outputs": [],
      "stateMutability": "nonpayable",
      "type": "function"
    },
    {
      "inputs": [
        {
          "internalType": "bytes4",
          "name": "interfaceId",
          "type": "bytes4"
        }
      ],
      "name": "supportsInterface",
      "outputs": [
        {
          "internalType": "bool",
          "name": "",
          "type": "bool"
        }
      ],
      "stateMutability": "view",
      "type": "function"
    },
    {
      "inputs": [],
      "name": "symbol",
      "outputs": [
        {
          "internalType": "string",
          "name": "",
          "type": "string"
        }
      ],
      "stateMutability": "view",
      "type": "function"
    },
    {
      "inputs": [],
      "name": "totalSupply",
      "outputs": [
        {
          "internalType": "uint256",
          "name": "",
          "type": "uint256"
        }
      ],
      "stateMutability": "view",
      "type": "function"
    },
    {
      "inputs": [
        {
          "internalType": "address",
          "name": "_to",
          "type": "address"
        },
        {
          "internalType": "uint256",
          "name": "_value",
          "type": "uint256"
        }
      ],
      "name": "transfer",
      "outputs": [
        {
          "internalType": "bool",
          "name": "",
          "type": "bool"
        }
      ],
      "stateMutability": "nonpayable",
      "type": "function"
    },
    {
      "inputs": [
        {
          "internalType": "address",
          "name": "_from",
          "type": "address"
        },
        {
          "internalType": "address",
          "name": "_to",
          "type": "address"
        },
        {
          "internalType": "uint256",
          "name": "_value",
          "type": "uint256"
        }
      ],
      "name": "transferFrom",
      "outputs": [
        {
          "internalType": "bool",
          "name": "",
          "type": "bool"
        }
      ],
      "stateMutability": "nonpayable",
      "type": "function"
    },
    {
      "inputs": [
        {
          "internalType": "address",
          "name": "newOwner",
          "type": "address"
        }
      ],
      "name": "transferOwnership",
      "outputs": [],
      "stateMutability": "nonpayable",
      "type": "function"
    },
    {
      "inputs": [],
      "name": "unpause",
      "outputs": [],
      "stateMutability": "nonpayable",
      "type": "function"
    }
  ],
  "transactionHash": "0xee1ddeb261af2b0f1f4b4da1b0ada086324865e70e3108d15b5a286a077c96a2",
  "args": [],
  "solcInputHash": "d34382ecf2146ad0057f767ad0206d21",
  "bytecode": "0x60806040523480156200001157600080fd5b50604051806040016040528060038152602001625a4f4f60e81b815250604051806040016040528060038152602001625a4f4f60e81b815250816003908051906020019062000062929190620001b1565b50805162000078906004906020840190620001b1565b50506005805460ff19169055506200009033620000a3565b6200009d600033620000fd565b62000294565b600580546001600160a01b03838116610100818102610100600160a81b031985161790945560405193909204169182907f8be0079c531659141344cd1fd0a4f28419497f9722a3daafe3b4186f6b6457e090600090a35050565b6200010982826200010d565b5050565b60008281526006602090815260408083206001600160a01b038516845290915290205460ff16620001095760008281526006602090815260408083206001600160a01b03851684529091529020805460ff191660011790556200016d3390565b6001600160a01b0316816001600160a01b0316837f2f8788117e7eff1d82e926ec794901d17c78024a50270940304540a733656f0d60405160405180910390a45050565b828054620001bf9062000257565b90600052602060002090601f016020900481019282620001e357600085556200022e565b82601f10620001fe57805160ff19168380011785556200022e565b828001600101855582156200022e579182015b828111156200022e57825182559160200191906001019062000211565b506200023c92915062000240565b5090565b5b808211156200023c576000815560010162000241565b600181811c908216806200026c57607f821691505b602082108114156200028e57634e487b7160e01b600052602260045260246000fd5b50919050565b611eb480620002a46000396000f3fe608060405234801561001057600080fd5b50600436106101bc5760003560e01c806374f4f547116100f557806374f4f5471461031857806375cb26721461032b57806379cc67901461033e5780638456cb59146103515780638c2a993e146103595780638da5cb5b1461036c57806391d148541461038157806395d89b4114610394578063a217fddf1461039c578063a457c2d7146103a4578063a9059cbb146103b7578063c8b0cf68146103ca578063d547741f146103df578063dd62ed3e146103f2578063e78cea921461042b578063f2fde38b1461043e578063f3290d7514610451578063fe575a871461046457600080fd5b806301ffc9a7146101c157806306fdde03146101e9578063095ea7b3146101fe57806318160ddd1461021157806323b872dd14610223578063248a9ca3146102365780632f2ff15d14610249578063313ce5671461025e57806336568abe1461026d57806339509351146102805780633f4ba83a1461029357806340c10f191461029b57806342966c68146102ae5780634ca64b5d146102c15780635c975abb146102c957806367243482146102d457806370a08231146102e7578063715018a614610310575b600080fd5b6101d46101cf366004611aea565b610477565b60405190151581526020015b60405180910390f35b6101f16104ae565b6040516101e09190611b95565b6101d461020c3660046119c7565b610540565b6002545b6040519081526020016101e0565b6101d461023136600461198c565b610556565b610215610244366004611ab0565b6105b8565b61025c610257366004611ac8565b6105cd565b005b604051601281526020016101e0565b61025c61027b366004611ac8565b6105ef565b6101d461028e3660046119c7565b61066d565b61025c6106a9565b61025c6102a93660046119c7565b610704565b61025c6102bc366004611ab0565b61075d565b61025c61076a565b60055460ff166101d4565b6102156102e23660046119f0565b61079f565b6102156102f5366004611940565b6001600160a01b031660009081526020819052604090205490565b61025c610a0a565b61025c6103263660046119c7565b610a43565b61025c610339366004611940565b610aa5565b61025c61034c3660046119c7565b610af6565b61025c610b77565b61025c6103673660046119c7565b610bd1565b610374610c1e565b6040516101e09190611b81565b6101d461038f366004611ac8565b610c32565b6101f1610c5d565b610215600081565b6101d46103b23660046119c7565b610c6c565b6101d46103c53660046119c7565b610d05565b610215600080516020611e3f83398151915281565b61025c6103ed366004611ac8565b610d53565b61021561040036600461195a565b6001600160a01b03918216600090815260016020908152604080832093909416825291909152205490565b600754610374906001600160a01b031681565b61025c61044c366004611940565b610d70565b61025c61045f366004611940565b610e0d565b6101d4610472366004611940565b610e54565b60006001600160e01b03198216637965db0b60e01b14806104a857506301ffc9a760e01b6001600160e01b03198316145b92915050565b6060600380546104bd90611dbc565b80601f01602080910402602001604051908101604052809291908181526020018280546104e990611dbc565b80156105365780601f1061050b57610100808354040283529160200191610536565b820191906000526020600020905b81548152906001019060200180831161051957829003601f168201915b5050505050905090565b600061054d338484610e6e565b50600192915050565b600061056460055460ff1690565b1561058a5760405162461bcd60e51b815260040161058190611c47565b60405180910390fd5b61059383610f92565b61059c84610f92565b6105a533610f92565b6105b0848484610ff1565b949350505050565b60009081526006602052604090206001015490565b6105d6826105b8565b6105e0813361109b565b6105ea83836110ff565b505050565b6001600160a01b038116331461065f5760405162461bcd60e51b815260206004820152602f60248201527f416363657373436f6e74726f6c3a2063616e206f6e6c792072656e6f756e636560448201526e103937b632b9903337b91039b2b63360891b6064820152608401610581565b6106698282611185565b5050565b3360008181526001602090815260408083206001600160a01b0387168452909152812054909161054d9185906106a4908690611d2b565b610e6e565b336106b2610c1e565b6001600160a01b0316146106d85760405162461bcd60e51b815260040161058190611c71565b60055460ff166106fa5760405162461bcd60e51b815260040161058190611bc8565b6107026111ec565b565b3361070d610c1e565b6001600160a01b0316146107335760405162461bcd60e51b815260040161058190611c71565b600854156107535760405162461bcd60e51b815260040161058190611bf6565b6106698282611252565b610767338261131f565b50565b33610773610c1e565b6001600160a01b0316146107995760405162461bcd60e51b815260040161058190611c71565b42600855565b6000336107aa610c1e565b6001600160a01b0316146107d05760405162461bcd60e51b815260040161058190611c71565b600854156107f05760405162461bcd60e51b815260040161058190611bf6565b60008351118015610802575081518351145b6108645760405162461bcd60e51b815260206004820152602d60248201527f61646472657373657320616e6420616d6f756e7473206d75737420626520657160448201526c0eac2d840d2dc40d8cadccee8d609b1b6064820152608401610581565b60005b835181101561098a5760006001600160a01b031684828151811061089b57634e487b7160e01b600052603260045260246000fd5b60200260200101516001600160a01b031614156108f75760405162461bcd60e51b815260206004820152601a6024820152790416e206164647265737320697320657175616c20746f203078360341b6044820152606401610581565b600083828151811061091957634e487b7160e01b600052603260045260246000fd5b6020026020010151116109785760405162461bcd60e51b815260206004820152602160248201527f41207a65726f20616d6f756e74206973206265696e67207472616e73666572656044820152601960fa1b6064820152608401610581565b8061098281611df7565b915050610867565b5060005b8351811015610a01576109ef8482815181106109ba57634e487b7160e01b600052603260045260246000fd5b60200260200101518483815181106109e257634e487b7160e01b600052603260045260246000fd5b6020026020010151611252565b806109f981611df7565b91505061098e565b50509051919050565b33610a13610c1e565b6001600160a01b031614610a395760405162461bcd60e51b815260040161058190611c71565b610702600061145b565b60055460ff1615610a665760405162461bcd60e51b815260040161058190611c47565b6007546001600160a01b03163314610a905760405162461bcd60e51b815260040161058190611ca6565b610a9b823383610e6e565b610669828261131f565b33610aae610c1e565b6001600160a01b031614610ad45760405162461bcd60e51b815260040161058190611c71565b600780546001600160a01b0319166001600160a01b0392909216919091179055565b6000610b028333610400565b905081811015610b605760405162461bcd60e51b8152602060048201526024808201527f45524332303a206275726e20616d6f756e74206578636565647320616c6c6f77604482015263616e636560e01b6064820152608401610581565b610b6d8333848403610e6e565b6105ea838361131f565b33610b80610c1e565b6001600160a01b031614610ba65760405162461bcd60e51b815260040161058190611c71565b60055460ff1615610bc95760405162461bcd60e51b815260040161058190611c47565b6107026114b5565b60055460ff1615610bf45760405162461bcd60e51b815260040161058190611c47565b6007546001600160a01b031633146107535760405162461bcd60e51b815260040161058190611ca6565b60055461010090046001600160a01b031690565b60009182526006602090815260408084206001600160a01b0393909316845291905290205460ff1690565b6060600480546104bd90611dbc565b3360009081526001602090815260408083206001600160a01b038616845290915281205482811015610cee5760405162461bcd60e51b815260206004820152602560248201527f45524332303a2064656372656173656420616c6c6f77616e63652062656c6f77604482015264207a65726f60d81b6064820152608401610581565b610cfb3385858403610e6e565b5060019392505050565b6000610d1360055460ff1690565b15610d305760405162461bcd60e51b815260040161058190611c47565b610d3983610f92565b610d4233610f92565b610d4c838361150d565b9392505050565b610d5c826105b8565b610d66813361109b565b6105ea8383611185565b33610d79610c1e565b6001600160a01b031614610d9f5760405162461bcd60e51b815260040161058190611c71565b6001600160a01b038116610e045760405162461bcd60e51b815260206004820152602660248201527f4f776e61626c653a206e6577206f776e657220697320746865207a65726f206160448201526564647265737360d01b6064820152608401610581565b6107678161145b565b33610e16610c1e565b6001600160a01b031614610e3c5760405162461bcd60e51b815260040161058190611c71565b610767600080516020611e3f833981519152826105cd565b60006104a8600080516020611e3f83398151915283610c32565b6001600160a01b038316610ed05760405162461bcd60e51b8152602060048201526024808201527f45524332303a20617070726f76652066726f6d20746865207a65726f206164646044820152637265737360e01b6064820152608401610581565b6001600160a01b038216610f315760405162461bcd60e51b815260206004820152602260248201527f45524332303a20617070726f766520746f20746865207a65726f206164647265604482015261737360f01b6064820152608401610581565b6001600160a01b0383811660008181526001602090815260408083209487168084529482529182902085905590518481527f8c5be1e5ebec7d5bd14f71427d1e84f3dd0314c0f7b2291e5b200ac8c7c3b925910160405180910390a3505050565b610faa600080516020611e3f83398151915282610c32565b156107675760405162461bcd60e51b81526020600482015260176024820152761059191c995cdcc81a5cc81bdb88189b1858dadb1a5cdd604a1b6044820152606401610581565b6000610ffe848484611516565b6001600160a01b0384166000908152600160209081526040808320338452909152902054828110156110835760405162461bcd60e51b815260206004820152602860248201527f45524332303a207472616e7366657220616d6f756e74206578636565647320616044820152676c6c6f77616e636560c01b6064820152608401610581565b6110908533858403610e6e565b506001949350505050565b6110a58282610c32565b610669576110bd816001600160a01b031660146116d4565b6110c88360206116d4565b6040516020016110d9929190611b12565b60408051601f198184030181529082905262461bcd60e51b825261058191600401611b95565b6111098282610c32565b6106695760008281526006602090815260408083206001600160a01b03851684529091529020805460ff191660011790556111413390565b6001600160a01b0316816001600160a01b0316837f2f8788117e7eff1d82e926ec794901d17c78024a50270940304540a733656f0d60405160405180910390a45050565b61118f8282610c32565b156106695760008281526006602090815260408083206001600160a01b0385168085529252808320805460ff1916905551339285917ff6391f5c32d9c69d2a47ea670b442974b53935d1edc7fd64eb21e047a839171b9190a45050565b60055460ff1661120e5760405162461bcd60e51b815260040161058190611bc8565b6005805460ff191690557f5db9ee0a495bf2e6ff9c91a7834c1ba4fdd244a5e8aa4e537bd38aeae4b073aa335b6040516112489190611b81565b60405180910390a1565b6001600160a01b0382166112a85760405162461bcd60e51b815260206004820152601f60248201527f45524332303a206d696e7420746f20746865207a65726f2061646472657373006044820152606401610581565b80600260008282546112ba9190611d2b565b90915550506001600160a01b038216600090815260208190526040812080548392906112e7908490611d2b565b90915550506040518181526001600160a01b03831690600090600080516020611e5f8339815191529060200160405180910390a35050565b6001600160a01b03821661137f5760405162461bcd60e51b815260206004820152602160248201527f45524332303a206275726e2066726f6d20746865207a65726f206164647265736044820152607360f81b6064820152608401610581565b6001600160a01b038216600090815260208190526040902054818110156113f35760405162461bcd60e51b815260206004820152602260248201527f45524332303a206275726e20616d6f756e7420657863656564732062616c616e604482015261636560f01b6064820152608401610581565b6001600160a01b0383166000908152602081905260408120838303905560028054849290611422908490611d62565b90915550506040518281526000906001600160a01b03851690600080516020611e5f8339815191529060200160405180910390a3505050565b600580546001600160a01b03838116610100818102610100600160a81b031985161790945560405193909204169182907f8be0079c531659141344cd1fd0a4f28419497f9722a3daafe3b4186f6b6457e090600090a35050565b60055460ff16156114d85760405162461bcd60e51b815260040161058190611c47565b6005805460ff191660011790557f62e78cea01bee320cd4e420270b5ea74000d11b0c9f74754ebdbfc544b05a25861123b3390565b600061054d3384845b6001600160a01b03831661157a5760405162461bcd60e51b815260206004820152602560248201527f45524332303a207472616e736665722066726f6d20746865207a65726f206164604482015264647265737360d81b6064820152608401610581565b6001600160a01b0382166115dc5760405162461bcd60e51b815260206004820152602360248201527f45524332303a207472616e7366657220746f20746865207a65726f206164647260448201526265737360e81b6064820152608401610581565b6001600160a01b038316600090815260208190526040902054818110156116545760405162461bcd60e51b815260206004820152602660248201527f45524332303a207472616e7366657220616d6f756e7420657863656564732062604482015265616c616e636560d01b6064820152608401610581565b6001600160a01b0380851660009081526020819052604080822085850390559185168152908120805484929061168b908490611d2b565b92505081905550826001600160a01b0316846001600160a01b0316600080516020611e5f833981519152846040516116c591815260200190565b60405180910390a35b50505050565b606060006116e3836002611d43565b6116ee906002611d2b565b6001600160401b0381111561171357634e487b7160e01b600052604160045260246000fd5b6040519080825280601f01601f19166020018201604052801561173d576020820181803683370190505b509050600360fc1b8160008151811061176657634e487b7160e01b600052603260045260246000fd5b60200101906001600160f81b031916908160001a905350600f60fb1b816001815181106117a357634e487b7160e01b600052603260045260246000fd5b60200101906001600160f81b031916908160001a90535060006117c7846002611d43565b6117d2906001611d2b565b90505b6001811115611866576f181899199a1a9b1b9c1cb0b131b232b360811b85600f166010811061181457634e487b7160e01b600052603260045260246000fd5b1a60f81b82828151811061183857634e487b7160e01b600052603260045260246000fd5b60200101906001600160f81b031916908160001a90535060049490941c9361185f81611da5565b90506117d5565b508315610d4c5760405162461bcd60e51b815260206004820181905260248201527f537472696e67733a20686578206c656e67746820696e73756666696369656e746044820152606401610581565b80356001600160a01b03811681146118cc57600080fd5b919050565b600082601f8301126118e1578081fd5b813560206118f66118f183611d08565b611cd8565b80838252828201915082860187848660051b8901011115611915578586fd5b855b8581101561193357813584529284019290840190600101611917565b5090979650505050505050565b600060208284031215611951578081fd5b610d4c826118b5565b6000806040838503121561196c578081fd5b611975836118b5565b9150611983602084016118b5565b90509250929050565b6000806000606084860312156119a0578081fd5b6119a9846118b5565b92506119b7602085016118b5565b9150604084013590509250925092565b600080604083850312156119d9578182fd5b6119e2836118b5565b946020939093013593505050565b60008060408385031215611a02578182fd5b82356001600160401b0380821115611a18578384fd5b818501915085601f830112611a2b578384fd5b81356020611a3b6118f183611d08565b8083825282820191508286018a848660051b8901011115611a5a578889fd5b8896505b84871015611a8357611a6f816118b5565b835260019690960195918301918301611a5e565b5096505086013592505080821115611a99578283fd5b50611aa6858286016118d1565b9150509250929050565b600060208284031215611ac1578081fd5b5035919050565b60008060408385031215611ada578182fd5b82359150611983602084016118b5565b600060208284031215611afb578081fd5b81356001600160e01b031981168114610d4c578182fd5b76020b1b1b2b9b9a1b7b73a3937b61d1030b1b1b7bab73a1604d1b815260008351611b44816017850160208801611d79565b7001034b99036b4b9b9b4b733903937b6329607d1b6017918401918201528351611b75816028840160208801611d79565b01602801949350505050565b6001600160a01b0391909116815260200190565b6020815260008251806020840152611bb4816040850160208701611d79565b601f01601f19169190910160400192915050565b60208082526014908201527314185d5cd8589b194e881b9bdd081c185d5cd95960621b604082015260600190565b60208082526031908201527f41697264726f702063616e6e6f742062652072756e20616761696e20616674656040820152701c8818995a5b99c818dbdb5c1b195d1959607a1b606082015260800190565b60208082526010908201526f14185d5cd8589b194e881c185d5cd95960821b604082015260600190565b6020808252818101527f4f776e61626c653a2063616c6c6572206973206e6f7420746865206f776e6572604082015260600190565b60208082526018908201527743616c6c6572206973206e6f74207468652062726964676560401b604082015260600190565b604051601f8201601f191681016001600160401b0381118282101715611d0057611d00611e28565b604052919050565b60006001600160401b03821115611d2157611d21611e28565b5060051b60200190565b60008219821115611d3e57611d3e611e12565b500190565b6000816000190483118215151615611d5d57611d5d611e12565b500290565b600082821015611d7457611d74611e12565b500390565b60005b83811015611d94578181015183820152602001611d7c565b838111156116ce5750506000910152565b600081611db457611db4611e12565b506000190190565b600181811c90821680611dd057607f821691505b60208210811415611df157634e487b7160e01b600052602260045260246000fd5b50919050565b6000600019821415611e0b57611e0b611e12565b5060010190565b634e487b7160e01b600052601160045260246000fd5b634e487b7160e01b600052604160045260246000fdfec88ef414e1d5ad1d458fdfa42b508737177470135860c2a2ce45583ce28f207cddf252ad1be2c89b69c2b068fc378daa952ba7f163c4a11628f55a4df523b3efa264697066735822122084bbf4ac658862acdf951ee6f944bb7391d5f86293a003f0cde678e9998bee5664736f6c63430008040033",
  "libraries": {},
  "devdoc": {
    "kind": "dev",
    "methods": {
      "allowance(address,address)": {
        "details": "See {IERC20-allowance}."
      },
      "approve(address,uint256)": {
        "details": "See {IERC20-approve}. Requirements: - `spender` cannot be the zero address."
      },
      "balanceOf(address)": {
        "details": "See {IERC20-balanceOf}."
      },
      "burn(uint256)": {
        "details": "Destroys `amount` tokens from the caller. See {ERC20-_burn}."
      },
      "burnFrom(address,uint256)": {
        "details": "Destroys `amount` tokens from `account`, deducting from the caller's allowance. See {ERC20-_burn} and {ERC20-allowance}. Requirements: - the caller must have allowance for ``accounts``'s tokens of at least `amount`."
      },
      "decimals()": {
        "details": "Returns the number of decimals used to get its user representation. For example, if `decimals` equals `2`, a balance of `505` tokens should be displayed to a user as `5.05` (`505 / 10 ** 2`). Tokens usually opt for a value of 18, imitating the relationship between Ether and Wei. This is the value {ERC20} uses, unless this function is overridden; NOTE: This information is only used for _display_ purposes: it in no way affects any of the arithmetic of the contract, including {IERC20-balanceOf} and {IERC20-transfer}."
      },
      "decreaseAllowance(address,uint256)": {
        "details": "Atomically decreases the allowance granted to `spender` by the caller. This is an alternative to {approve} that can be used as a mitigation for problems described in {IERC20-approve}. Emits an {Approval} event indicating the updated allowance. Requirements: - `spender` cannot be the zero address. - `spender` must have allowance for the caller of at least `subtractedValue`."
      },
      "getRoleAdmin(bytes32)": {
        "details": "Returns the admin role that controls `role`. See {grantRole} and {revokeRole}. To change a role's admin, use {_setRoleAdmin}."
      },
      "grantRole(bytes32,address)": {
        "details": "Grants `role` to `account`. If `account` had not been already granted `role`, emits a {RoleGranted} event. Requirements: - the caller must have ``role``'s admin role."
      },
      "hasRole(bytes32,address)": {
        "details": "Returns `true` if `account` has been granted `role`."
      },
      "increaseAllowance(address,uint256)": {
        "details": "Atomically increases the allowance granted to `spender` by the caller. This is an alternative to {approve} that can be used as a mitigation for problems described in {IERC20-approve}. Emits an {Approval} event indicating the updated allowance. Requirements: - `spender` cannot be the zero address."
      },
      "name()": {
        "details": "Returns the name of the token."
      },
      "owner()": {
        "details": "Returns the address of the current owner."
      },
      "paused()": {
        "details": "Returns true if the contract is paused, and false otherwise."
      },
      "renounceOwnership()": {
        "details": "Leaves the contract without owner. It will not be possible to call `onlyOwner` functions anymore. Can only be called by the current owner. NOTE: Renouncing ownership will leave the contract without an owner, thereby removing any functionality that is only available to the owner."
      },
      "renounceRole(bytes32,address)": {
        "details": "Revokes `role` from the calling account. Roles are often managed via {grantRole} and {revokeRole}: this function's purpose is to provide a mechanism for accounts to lose their privileges if they are compromised (such as when a trusted device is misplaced). If the calling account had been granted `role`, emits a {RoleRevoked} event. Requirements: - the caller must be `account`."
      },
      "revokeRole(bytes32,address)": {
        "details": "Revokes `role` from `account`. If `account` had been granted `role`, emits a {RoleRevoked} event. Requirements: - the caller must have ``role``'s admin role."
      },
      "supportsInterface(bytes4)": {
        "details": "See {IERC165-supportsInterface}."
      },
      "symbol()": {
        "details": "Returns the symbol of the token, usually a shorter version of the name."
      },
      "totalSupply()": {
        "details": "See {IERC20-totalSupply}."
      },
      "transferOwnership(address)": {
        "details": "Transfers ownership of the contract to a new account (`newOwner`). Can only be called by the current owner."
      }
    },
    "version": 1
  },
  "userdoc": {
    "kind": "user",
    "methods": {},
    "version": 1
  },
  "storageLayout": {
    "storage": [
      {
        "astId": 1670,
        "contract": "src/ZOO.sol:ZOO",
        "label": "_balances",
        "offset": 0,
        "slot": "0",
        "type": "t_mapping(t_address,t_uint256)"
      },
      {
        "astId": 1676,
        "contract": "src/ZOO.sol:ZOO",
        "label": "_allowances",
        "offset": 0,
        "slot": "1",
        "type": "t_mapping(t_address,t_mapping(t_address,t_uint256))"
      },
      {
        "astId": 1678,
        "contract": "src/ZOO.sol:ZOO",
        "label": "_totalSupply",
        "offset": 0,
        "slot": "2",
        "type": "t_uint256"
      },
      {
        "astId": 1680,
        "contract": "src/ZOO.sol:ZOO",
        "label": "_name",
        "offset": 0,
        "slot": "3",
        "type": "t_string_storage"
      },
      {
        "astId": 1682,
        "contract": "src/ZOO.sol:ZOO",
        "label": "_symbol",
        "offset": 0,
        "slot": "4",
        "type": "t_string_storage"
      },
      {
        "astId": 1540,
        "contract": "src/ZOO.sol:ZOO",
        "label": "_paused",
        "offset": 0,
        "slot": "5",
        "type": "t_bool"
      },
      {
        "astId": 1426,
        "contract": "src/ZOO.sol:ZOO",
        "label": "_owner",
        "offset": 1,
        "slot": "5",
        "type": "t_address"
      },
      {
        "astId": 1063,
        "contract": "src/ZOO.sol:ZOO",
        "label": "_roles",
        "offset": 0,
        "slot": "6",
        "type": "t_mapping(t_bytes32,t_struct(RoleData)1058_storage)"
      },
      {
        "astId": 13332,
        "contract": "src/ZOO.sol:ZOO",
        "label": "bridge",
        "offset": 0,
        "slot": "7",
        "type": "t_address"
      },
      {
        "astId": 13334,
        "contract": "src/ZOO.sol:ZOO",
        "label": "airdropEnd",
        "offset": 0,
        "slot": "8",
        "type": "t_uint256"
      }
    ],
    "types": {
      "t_address": {
        "encoding": "inplace",
        "label": "address",
        "numberOfBytes": "20"
      },
      "t_bool": {
        "encoding": "inplace",
        "label": "bool",
        "numberOfBytes": "1"
      },
      "t_bytes32": {
        "encoding": "inplace",
        "label": "bytes32",
        "numberOfBytes": "32"
      },
      "t_mapping(t_address,t_bool)": {
        "encoding": "mapping",
        "key": "t_address",
        "label": "mapping(address => bool)",
        "numberOfBytes": "32",
        "value": "t_bool"
      },
      "t_mapping(t_address,t_mapping(t_address,t_uint256))": {
        "encoding": "mapping",
        "key": "t_address",
        "label": "mapping(address => mapping(address => uint256))",
        "numberOfBytes": "32",
        "value": "t_mapping(t_address,t_uint256)"
      },
      "t_mapping(t_address,t_uint256)": {
        "encoding": "mapping",
        "key": "t_address",
        "label": "mapping(address => uint256)",
        "numberOfBytes": "32",
        "value": "t_uint256"
      },
      "t_mapping(t_bytes32,t_struct(RoleData)1058_storage)": {
        "encoding": "mapping",
        "key": "t_bytes32",
        "label": "mapping(bytes32 => struct AccessControl.RoleData)",
        "numberOfBytes": "32",
        "value": "t_struct(RoleData)1058_storage"
      },
      "t_string_storage": {
        "encoding": "bytes",
        "label": "string",
        "numberOfBytes": "32"
      },
      "t_struct(RoleData)1058_storage": {
        "encoding": "inplace",
        "label": "struct AccessControl.RoleData",
        "members": [
          {
            "astId": 1055,
            "contract": "src/ZOO.sol:ZOO",
            "label": "members",
            "offset": 0,
            "slot": "0",
            "type": "t_mapping(t_address,t_bool)"
          },
          {
            "astId": 1057,
            "contract": "src/ZOO.sol:ZOO",
            "label": "adminRole",
            "offset": 0,
            "slot": "1",
            "type": "t_bytes32"
          }
        ],
        "numberOfBytes": "64"
      },
      "t_uint256": {
        "encoding": "inplace",
        "label": "uint256",
        "numberOfBytes": "32"
      }
    }
  }
}