{
  "address": "0x1922Acf79f3fC716ED601eA08395E182276A3EFe",
  "abi": [
    {
      "inputs": [
        {
          "internalType": "string",
          "name": "name",
          "type": "string"
        },
        {
          "internalType": "string",
          "name": "symbol",
          "type": "string"
        }
      ],
      "stateMutability": "nonpayable",
      "type": "constructor"
    },
    {
      "anonymous": false,
      "inputs": [
        {
          "indexed": true,
          "internalType": "address",
          "name": "owner",
          "type": "address"
        },
        {
          "indexed": true,
          "internalType": "address",
          "name": "approved",
          "type": "address"
        },
        {
          "indexed": true,
          "internalType": "uint256",
          "name": "tokenId",
          "type": "uint256"
        }
      ],
      "name": "Approval",
      "type": "event"
    },
    {
      "anonymous": false,
      "inputs": [
        {
          "indexed": true,
          "internalType": "address",
          "name": "owner",
          "type": "address"
        },
        {
          "indexed": true,
          "internalType": "address",
          "name": "operator",
          "type": "address"
        },
        {
          "indexed": false,
          "internalType": "bool",
          "name": "approved",
          "type": "bool"
        }
      ],
      "name": "ApprovalForAll",
      "type": "event"
    },
    {
      "anonymous": false,
      "inputs": [
        {
          "indexed": true,
          "internalType": "address",
          "name": "previousOwner",
          "type": "address"
        },
        {
          "indexed": true,
          "internalType": "address",
          "name": "newOwner",
          "type": "address"
        }
      ],
      "name": "OwnershipTransferred",
      "type": "event"
    },
    {
      "anonymous": false,
      "inputs": [
        {
          "indexed": true,
          "internalType": "uint256",
          "name": "_tokenId",
          "type": "uint256"
        },
        {
          "indexed": false,
          "internalType": "address",
          "name": "owner",
          "type": "address"
        },
        {
          "indexed": false,
          "internalType": "string",
          "name": "_uri",
          "type": "string"
        }
      ],
      "name": "TokenMetadataURIUpdated",
      "type": "event"
    },
    {
      "anonymous": false,
      "inputs": [
        {
          "indexed": true,
          "internalType": "uint256",
          "name": "_tokenId",
          "type": "uint256"
        },
        {
          "indexed": false,
          "internalType": "address",
          "name": "owner",
          "type": "address"
        },
        {
          "indexed": false,
          "internalType": "string",
          "name": "_uri",
          "type": "string"
        }
      ],
      "name": "TokenURIUpdated",
      "type": "event"
    },
    {
      "anonymous": false,
      "inputs": [
        {
          "indexed": true,
          "internalType": "address",
          "name": "from",
          "type": "address"
        },
        {
          "indexed": true,
          "internalType": "address",
          "name": "to",
          "type": "address"
        },
        {
          "indexed": true,
          "internalType": "uint256",
          "name": "tokenId",
          "type": "uint256"
        }
      ],
      "name": "Transfer",
      "type": "event"
    },
    {
      "inputs": [],
      "name": "MINT_WITH_SIG_TYPEHASH",
      "outputs": [
        {
          "internalType": "bytes32",
          "name": "",
          "type": "bytes32"
        }
      ],
      "stateMutability": "view",
      "type": "function"
    },
    {
      "inputs": [],
      "name": "PERMIT_TYPEHASH",
      "outputs": [
        {
          "internalType": "bytes32",
          "name": "",
          "type": "bytes32"
        }
      ],
      "stateMutability": "view",
      "type": "function"
    },
    {
      "inputs": [
        {
          "internalType": "uint256",
          "name": "tokenId",
          "type": "uint256"
        },
        {
          "components": [
            {
              "internalType": "uint256",
              "name": "amount",
              "type": "uint256"
            },
            {
              "internalType": "address",
              "name": "currency",
              "type": "address"
            },
            {
              "internalType": "address",
              "name": "bidder",
              "type": "address"
            },
            {
              "internalType": "address",
              "name": "recipient",
              "type": "address"
            },
            {
              "components": [
                {
                  "internalType": "uint256",
                  "name": "value",
                  "type": "uint256"
                }
              ],
              "internalType": "struct Decimal.D256",
              "name": "sellOnShare",
              "type": "tuple"
            }
          ],
          "internalType": "struct IMarket.Bid",
          "name": "bid",
          "type": "tuple"
        }
      ],
      "name": "acceptBid",
      "outputs": [],
      "stateMutability": "nonpayable",
      "type": "function"
    },
    {
      "inputs": [
        {
          "internalType": "address",
          "name": "to",
          "type": "address"
        },
        {
          "internalType": "uint256",
          "name": "tokenID",
          "type": "uint256"
        }
      ],
      "name": "approve",
      "outputs": [],
      "stateMutability": "nonpayable",
      "type": "function"
    },
    {
      "inputs": [
        {
          "internalType": "uint256",
          "name": "tokenId",
          "type": "uint256"
        },
        {
          "internalType": "address",
          "name": "recipient",
          "type": "address"
        }
      ],
      "name": "auctionTransfer",
      "outputs": [],
      "stateMutability": "nonpayable",
      "type": "function"
    },
    {
      "inputs": [
        {
          "internalType": "address",
          "name": "owner",
          "type": "address"
        }
      ],
      "name": "balanceOf",
      "outputs": [
        {
          "internalType": "uint256",
          "name": "",
          "type": "uint256"
        }
      ],
      "stateMutability": "view",
      "type": "function"
    },
    {
      "inputs": [],
      "name": "baseURI",
      "outputs": [
        {
          "internalType": "string",
          "name": "",
          "type": "string"
        }
      ],
      "stateMutability": "view",
      "type": "function"
    },
    {
      "inputs": [
        {
          "internalType": "uint256",
          "name": "tokenId",
          "type": "uint256"
        }
      ],
      "name": "burn",
      "outputs": [],
      "stateMutability": "nonpayable",
      "type": "function"
    },
    {
      "inputs": [
        {
          "internalType": "address",
          "name": "owner",
          "type": "address"
        },
        {
          "internalType": "uint256",
          "name": "tokenID",
          "type": "uint256"
        }
      ],
      "name": "burnToken",
      "outputs": [],
      "stateMutability": "nonpayable",
      "type": "function"
    },
    {
      "inputs": [
        {
          "internalType": "address",
          "name": "marketContractAddr",
          "type": "address"
        }
      ],
      "name": "configure",
      "outputs": [],
      "stateMutability": "nonpayable",
      "type": "function"
    },
    {
      "inputs": [
        {
          "internalType": "uint256",
          "name": "tokenID",
          "type": "uint256"
        }
      ],
      "name": "getApproved",
      "outputs": [
        {
          "internalType": "address",
          "name": "",
          "type": "address"
        }
      ],
      "stateMutability": "view",
      "type": "function"
    },
    {
      "inputs": [
        {
          "internalType": "address",
          "name": "creator",
          "type": "address"
        }
      ],
      "name": "getRecentToken",
      "outputs": [
        {
          "internalType": "uint256",
          "name": "",
          "type": "uint256"
        }
      ],
      "stateMutability": "view",
      "type": "function"
    },
    {
      "inputs": [
        {
          "internalType": "address",
          "name": "owner",
          "type": "address"
        },
        {
          "internalType": "address",
          "name": "operator",
          "type": "address"
        }
      ],
      "name": "isApprovedForAll",
      "outputs": [
        {
          "internalType": "bool",
          "name": "",
          "type": "bool"
        }
      ],
      "stateMutability": "view",
      "type": "function"
    },
    {
      "inputs": [
        {
          "internalType": "address",
          "name": "spender",
          "type": "address"
        },
        {
          "internalType": "uint256",
          "name": "tokenID",
          "type": "uint256"
        }
      ],
      "name": "isApprovedOrOwner",
      "outputs": [
        {
          "internalType": "bool",
          "name": "",
          "type": "bool"
        }
      ],
      "stateMutability": "view",
      "type": "function"
    },
    {
      "inputs": [],
      "name": "marketContract",
      "outputs": [
        {
          "internalType": "address",
          "name": "",
          "type": "address"
        }
      ],
      "stateMutability": "view",
      "type": "function"
    },
    {
      "inputs": [
        {
          "components": [
            {
              "internalType": "string",
              "name": "tokenURI",
              "type": "string"
            },
            {
              "internalType": "string",
              "name": "metadataURI",
              "type": "string"
            },
            {
              "internalType": "bytes32",
              "name": "contentHash",
              "type": "bytes32"
            },
            {
              "internalType": "bytes32",
              "name": "metadataHash",
              "type": "bytes32"
            }
          ],
          "internalType": "struct IMedia.MediaData",
          "name": "data",
          "type": "tuple"
        },
        {
          "components": [
            {
              "components": [
                {
                  "internalType": "uint256",
                  "name": "value",
                  "type": "uint256"
                }
              ],
              "internalType": "struct Decimal.D256",
              "name": "prevOwner",
              "type": "tuple"
            },
            {
              "components": [
                {
                  "internalType": "uint256",
                  "name": "value",
                  "type": "uint256"
                }
              ],
              "internalType": "struct Decimal.D256",
              "name": "creator",
              "type": "tuple"
            },
            {
              "components": [
                {
                  "internalType": "uint256",
                  "name": "value",
                  "type": "uint256"
                }
              ],
              "internalType": "struct Decimal.D256",
              "name": "owner",
              "type": "tuple"
            }
          ],
          "internalType": "struct IMarket.BidShares",
          "name": "bidShares",
          "type": "tuple"
        }
      ],
      "name": "mint",
      "outputs": [],
      "stateMutability": "nonpayable",
      "type": "function"
    },
    {
      "inputs": [
        {
          "internalType": "address",
          "name": "owner",
          "type": "address"
        },
        {
          "components": [
            {
              "components": [
                {
                  "internalType": "string",
                  "name": "name",
                  "type": "string"
                },
                {
                  "internalType": "uint256",
                  "name": "probability",
                  "type": "uint256"
                },
                {
                  "internalType": "uint256",
                  "name": "yield",
                  "type": "uint256"
                },
                {
                  "internalType": "uint256",
                  "name": "boost",
                  "type": "uint256"
                }
              ],
              "internalType": "struct IZoo.Rarity",
              "name": "rarity",
              "type": "tuple"
            },
            {
              "internalType": "enum IZoo.Type",
              "name": "kind",
              "type": "uint8"
            },
            {
              "internalType": "string",
              "name": "name",
              "type": "string"
            },
            {
              "internalType": "uint256",
              "name": "id",
              "type": "uint256"
            },
            {
              "internalType": "uint256",
              "name": "timestamp",
              "type": "uint256"
            },
            {
              "internalType": "uint256",
              "name": "birthday",
              "type": "uint256"
            },
            {
              "internalType": "string",
              "name": "customName",
              "type": "string"
            },
            {
              "components": [
                {
                  "internalType": "string",
                  "name": "animalA",
                  "type": "string"
                },
                {
                  "internalType": "string",
                  "name": "animalB",
                  "type": "string"
                },
                {
                  "internalType": "uint256",
                  "name": "tokenA",
                  "type": "uint256"
                },
                {
                  "internalType": "uint256",
                  "name": "tokenB",
                  "type": "uint256"
                }
              ],
              "internalType": "struct IZoo.Parents",
              "name": "parents",
              "type": "tuple"
            },
            {
              "components": [
                {
                  "internalType": "uint256",
                  "name": "count",
                  "type": "uint256"
                },
                {
                  "internalType": "uint256",
                  "name": "timestamp",
                  "type": "uint256"
                }
              ],
              "internalType": "struct IZoo.Breed",
              "name": "breed",
              "type": "tuple"
            },
            {
              "components": [
                {
                  "internalType": "uint256",
                  "name": "eggID",
                  "type": "uint256"
                },
                {
                  "internalType": "uint256",
                  "name": "dropID",
                  "type": "uint256"
                },
                {
                  "internalType": "bool",
                  "name": "burned",
                  "type": "bool"
                },
                {
                  "internalType": "bool",
                  "name": "swapped",
                  "type": "bool"
                }
              ],
              "internalType": "struct IZoo.Meta",
              "name": "meta",
              "type": "tuple"
            },
            {
              "components": [
                {
                  "internalType": "string",
                  "name": "tokenURI",
                  "type": "string"
                },
                {
                  "internalType": "string",
                  "name": "metadataURI",
                  "type": "string"
                },
                {
                  "internalType": "bytes32",
                  "name": "contentHash",
                  "type": "bytes32"
                },
                {
                  "internalType": "bytes32",
                  "name": "metadataHash",
                  "type": "bytes32"
                }
              ],
              "internalType": "struct IMedia.MediaData",
              "name": "data",
              "type": "tuple"
            },
            {
              "components": [
                {
                  "components": [
                    {
                      "internalType": "uint256",
                      "name": "value",
                      "type": "uint256"
                    }
                  ],
                  "internalType": "struct Decimal.D256",
                  "name": "prevOwner",
                  "type": "tuple"
                },
                {
                  "components": [
                    {
                      "internalType": "uint256",
                      "name": "value",
                      "type": "uint256"
                    }
                  ],
                  "internalType": "struct Decimal.D256",
                  "name": "creator",
                  "type": "tuple"
                },
                {
                  "components": [
                    {
                      "internalType": "uint256",
                      "name": "value",
                      "type": "uint256"
                    }
                  ],
                  "internalType": "struct Decimal.D256",
                  "name": "owner",
                  "type": "tuple"
                }
              ],
              "internalType": "struct IMarket.BidShares",
              "name": "bidShares",
              "type": "tuple"
            }
          ],
          "internalType": "struct IZoo.Token",
          "name": "token",
          "type": "tuple"
        }
      ],
      "name": "mintToken",
      "outputs": [
        {
          "components": [
            {
              "components": [
                {
                  "internalType": "string",
                  "name": "name",
                  "type": "string"
                },
                {
                  "internalType": "uint256",
                  "name": "probability",
                  "type": "uint256"
                },
                {
                  "internalType": "uint256",
                  "name": "yield",
                  "type": "uint256"
                },
                {
                  "internalType": "uint256",
                  "name": "boost",
                  "type": "uint256"
                }
              ],
              "internalType": "struct IZoo.Rarity",
              "name": "rarity",
              "type": "tuple"
            },
            {
              "internalType": "enum IZoo.Type",
              "name": "kind",
              "type": "uint8"
            },
            {
              "internalType": "string",
              "name": "name",
              "type": "string"
            },
            {
              "internalType": "uint256",
              "name": "id",
              "type": "uint256"
            },
            {
              "internalType": "uint256",
              "name": "timestamp",
              "type": "uint256"
            },
            {
              "internalType": "uint256",
              "name": "birthday",
              "type": "uint256"
            },
            {
              "internalType": "string",
              "name": "customName",
              "type": "string"
            },
            {
              "components": [
                {
                  "internalType": "string",
                  "name": "animalA",
                  "type": "string"
                },
                {
                  "internalType": "string",
                  "name": "animalB",
                  "type": "string"
                },
                {
                  "internalType": "uint256",
                  "name": "tokenA",
                  "type": "uint256"
                },
                {
                  "internalType": "uint256",
                  "name": "tokenB",
                  "type": "uint256"
                }
              ],
              "internalType": "struct IZoo.Parents",
              "name": "parents",
              "type": "tuple"
            },
            {
              "components": [
                {
                  "internalType": "uint256",
                  "name": "count",
                  "type": "uint256"
                },
                {
                  "internalType": "uint256",
                  "name": "timestamp",
                  "type": "uint256"
                }
              ],
              "internalType": "struct IZoo.Breed",
              "name": "breed",
              "type": "tuple"
            },
            {
              "components": [
                {
                  "internalType": "uint256",
                  "name": "eggID",
                  "type": "uint256"
                },
                {
                  "internalType": "uint256",
                  "name": "dropID",
                  "type": "uint256"
                },
                {
                  "internalType": "bool",
                  "name": "burned",
                  "type": "bool"
                },
                {
                  "internalType": "bool",
                  "name": "swapped",
                  "type": "bool"
                }
              ],
              "internalType": "struct IZoo.Meta",
              "name": "meta",
              "type": "tuple"
            },
            {
              "components": [
                {
                  "internalType": "string",
                  "name": "tokenURI",
                  "type": "string"
                },
                {
                  "internalType": "string",
                  "name": "metadataURI",
                  "type": "string"
                },
                {
                  "internalType": "bytes32",
                  "name": "contentHash",
                  "type": "bytes32"
                },
                {
                  "internalType": "bytes32",
                  "name": "metadataHash",
                  "type": "bytes32"
                }
              ],
              "internalType": "struct IMedia.MediaData",
              "name": "data",
              "type": "tuple"
            },
            {
              "components": [
                {
                  "components": [
                    {
                      "internalType": "uint256",
                      "name": "value",
                      "type": "uint256"
                    }
                  ],
                  "internalType": "struct Decimal.D256",
                  "name": "prevOwner",
                  "type": "tuple"
                },
                {
                  "components": [
                    {
                      "internalType": "uint256",
                      "name": "value",
                      "type": "uint256"
                    }
                  ],
                  "internalType": "struct Decimal.D256",
                  "name": "creator",
                  "type": "tuple"
                },
                {
                  "components": [
                    {
                      "internalType": "uint256",
                      "name": "value",
                      "type": "uint256"
                    }
                  ],
                  "internalType": "struct Decimal.D256",
                  "name": "owner",
                  "type": "tuple"
                }
              ],
              "internalType": "struct IMarket.BidShares",
              "name": "bidShares",
              "type": "tuple"
            }
          ],
          "internalType": "struct IZoo.Token",
          "name": "",
          "type": "tuple"
        }
      ],
      "stateMutability": "nonpayable",
      "type": "function"
    },
    {
      "inputs": [
        {
          "internalType": "address",
          "name": "creator",
          "type": "address"
        },
        {
          "components": [
            {
              "internalType": "string",
              "name": "tokenURI",
              "type": "string"
            },
            {
              "internalType": "string",
              "name": "metadataURI",
              "type": "string"
            },
            {
              "internalType": "bytes32",
              "name": "contentHash",
              "type": "bytes32"
            },
            {
              "internalType": "bytes32",
              "name": "metadataHash",
              "type": "bytes32"
            }
          ],
          "internalType": "struct IMedia.MediaData",
          "name": "data",
          "type": "tuple"
        },
        {
          "components": [
            {
              "components": [
                {
                  "internalType": "uint256",
                  "name": "value",
                  "type": "uint256"
                }
              ],
              "internalType": "struct Decimal.D256",
              "name": "prevOwner",
              "type": "tuple"
            },
            {
              "components": [
                {
                  "internalType": "uint256",
                  "name": "value",
                  "type": "uint256"
                }
              ],
              "internalType": "struct Decimal.D256",
              "name": "creator",
              "type": "tuple"
            },
            {
              "components": [
                {
                  "internalType": "uint256",
                  "name": "value",
                  "type": "uint256"
                }
              ],
              "internalType": "struct Decimal.D256",
              "name": "owner",
              "type": "tuple"
            }
          ],
          "internalType": "struct IMarket.BidShares",
          "name": "bidShares",
          "type": "tuple"
        },
        {
          "components": [
            {
              "internalType": "uint256",
              "name": "deadline",
              "type": "uint256"
            },
            {
              "internalType": "uint8",
              "name": "v",
              "type": "uint8"
            },
            {
              "internalType": "bytes32",
              "name": "r",
              "type": "bytes32"
            },
            {
              "internalType": "bytes32",
              "name": "s",
              "type": "bytes32"
            }
          ],
          "internalType": "struct IMedia.EIP712Signature",
          "name": "sig",
          "type": "tuple"
        }
      ],
      "name": "mintWithSig",
      "outputs": [],
      "stateMutability": "nonpayable",
      "type": "function"
    },
    {
      "inputs": [
        {
          "internalType": "address",
          "name": "",
          "type": "address"
        }
      ],
      "name": "mintWithSigNonces",
      "outputs": [
        {
          "internalType": "uint256",
          "name": "",
          "type": "uint256"
        }
      ],
      "stateMutability": "view",
      "type": "function"
    },
    {
      "inputs": [],
      "name": "name",
      "outputs": [
        {
          "internalType": "string",
          "name": "",
          "type": "string"
        }
      ],
      "stateMutability": "view",
      "type": "function"
    },
    {
      "inputs": [],
      "name": "owner",
      "outputs": [
        {
          "internalType": "address",
          "name": "",
          "type": "address"
        }
      ],
      "stateMutability": "view",
      "type": "function"
    },
    {
      "inputs": [
        {
          "internalType": "uint256",
          "name": "tokenID",
          "type": "uint256"
        }
      ],
      "name": "ownerOf",
      "outputs": [
        {
          "internalType": "address",
          "name": "",
          "type": "address"
        }
      ],
      "stateMutability": "view",
      "type": "function"
    },
    {
      "inputs": [
        {
          "internalType": "address",
          "name": "spender",
          "type": "address"
        },
        {
          "internalType": "uint256",
          "name": "tokenId",
          "type": "uint256"
        },
        {
          "components": [
            {
              "internalType": "uint256",
              "name": "deadline",
              "type": "uint256"
            },
            {
              "internalType": "uint8",
              "name": "v",
              "type": "uint8"
            },
            {
              "internalType": "bytes32",
              "name": "r",
              "type": "bytes32"
            },
            {
              "internalType": "bytes32",
              "name": "s",
              "type": "bytes32"
            }
          ],
          "internalType": "struct IMedia.EIP712Signature",
          "name": "sig",
          "type": "tuple"
        }
      ],
      "name": "permit",
      "outputs": [],
      "stateMutability": "nonpayable",
      "type": "function"
    },
    {
      "inputs": [
        {
          "internalType": "address",
          "name": "",
          "type": "address"
        },
        {
          "internalType": "uint256",
          "name": "",
          "type": "uint256"
        }
      ],
      "name": "permitNonces",
      "outputs": [
        {
          "internalType": "uint256",
          "name": "",
          "type": "uint256"
        }
      ],
      "stateMutability": "view",
      "type": "function"
    },
    {
      "inputs": [
        {
          "internalType": "uint256",
          "name": "",
          "type": "uint256"
        }
      ],
      "name": "previousTokenOwners",
      "outputs": [
        {
          "internalType": "address",
          "name": "",
          "type": "address"
        }
      ],
      "stateMutability": "view",
      "type": "function"
    },
    {
      "inputs": [
        {
          "internalType": "uint256",
          "name": "tokenId",
          "type": "uint256"
        }
      ],
      "name": "removeAsk",
      "outputs": [],
      "stateMutability": "nonpayable",
      "type": "function"
    },
    {
      "inputs": [
        {
          "internalType": "uint256",
          "name": "tokenId",
          "type": "uint256"
        }
      ],
      "name": "removeBid",
      "outputs": [],
      "stateMutability": "nonpayable",
      "type": "function"
    },
    {
      "inputs": [],
      "name": "renounceOwnership",
      "outputs": [],
      "stateMutability": "nonpayable",
      "type": "function"
    },
    {
      "inputs": [
        {
          "internalType": "uint256",
          "name": "tokenId",
          "type": "uint256"
        }
      ],
      "name": "revokeApproval",
      "outputs": [],
      "stateMutability": "nonpayable",
      "type": "function"
    },
    {
      "inputs": [
        {
          "internalType": "address",
          "name": "from",
          "type": "address"
        },
        {
          "internalType": "address",
          "name": "to",
          "type": "address"
        },
        {
          "internalType": "uint256",
          "name": "tokenID",
          "type": "uint256"
        }
      ],
      "name": "safeTransferFrom",
      "outputs": [],
      "stateMutability": "nonpayable",
      "type": "function"
    },
    {
      "inputs": [
        {
          "internalType": "address",
          "name": "from",
          "type": "address"
        },
        {
          "internalType": "address",
          "name": "to",
          "type": "address"
        },
        {
          "internalType": "uint256",
          "name": "tokenID",
          "type": "uint256"
        },
        {
          "internalType": "bytes",
          "name": "_data",
          "type": "bytes"
        }
      ],
      "name": "safeTransferFrom",
      "outputs": [],
      "stateMutability": "nonpayable",
      "type": "function"
    },
    {
      "inputs": [
        {
          "internalType": "address",
          "name": "operator",
          "type": "address"
        },
        {
          "internalType": "bool",
          "name": "approved",
          "type": "bool"
        }
      ],
      "name": "setApprovalForAll",
      "outputs": [],
      "stateMutability": "nonpayable",
      "type": "function"
    },
    {
      "inputs": [
        {
          "internalType": "uint256",
          "name": "tokenId",
          "type": "uint256"
        },
        {
          "components": [
            {
              "internalType": "uint256",
              "name": "amount",
              "type": "uint256"
            },
            {
              "internalType": "address",
              "name": "currency",
              "type": "address"
            }
          ],
          "internalType": "struct IMarket.Ask",
          "name": "ask",
          "type": "tuple"
        }
      ],
      "name": "setAsk",
      "outputs": [],
      "stateMutability": "nonpayable",
      "type": "function"
    },
    {
      "inputs": [
        {
          "internalType": "uint256",
          "name": "tokenId",
          "type": "uint256"
        },
        {
          "components": [
            {
              "internalType": "uint256",
              "name": "amount",
              "type": "uint256"
            },
            {
              "internalType": "address",
              "name": "currency",
              "type": "address"
            },
            {
              "internalType": "address",
              "name": "bidder",
              "type": "address"
            },
            {
              "internalType": "address",
              "name": "recipient",
              "type": "address"
            },
            {
              "components": [
                {
                  "internalType": "uint256",
                  "name": "value",
                  "type": "uint256"
                }
              ],
              "internalType": "struct Decimal.D256",
              "name": "sellOnShare",
              "type": "tuple"
            }
          ],
          "internalType": "struct IMarket.Bid",
          "name": "bid",
          "type": "tuple"
        }
      ],
      "name": "setBid",
      "outputs": [],
      "stateMutability": "nonpayable",
      "type": "function"
    },
    {
      "inputs": [
        {
          "internalType": "bytes4",
          "name": "interfaceId",
          "type": "bytes4"
        }
      ],
      "name": "supportsInterface",
      "outputs": [
        {
          "internalType": "bool",
          "name": "",
          "type": "bool"
        }
      ],
      "stateMutability": "view",
      "type": "function"
    },
    {
      "inputs": [],
      "name": "symbol",
      "outputs": [
        {
          "internalType": "string",
          "name": "",
          "type": "string"
        }
      ],
      "stateMutability": "view",
      "type": "function"
    },
    {
      "inputs": [
        {
          "internalType": "uint256",
          "name": "index",
          "type": "uint256"
        }
      ],
      "name": "tokenByIndex",
      "outputs": [
        {
          "internalType": "uint256",
          "name": "",
          "type": "uint256"
        }
      ],
      "stateMutability": "view",
      "type": "function"
    },
    {
      "inputs": [
        {
          "internalType": "uint256",
          "name": "",
          "type": "uint256"
        }
      ],
      "name": "tokenContentHashes",
      "outputs": [
        {
          "internalType": "bytes32",
          "name": "",
          "type": "bytes32"
        }
      ],
      "stateMutability": "view",
      "type": "function"
    },
    {
      "inputs": [
        {
          "internalType": "uint256",
          "name": "",
          "type": "uint256"
        }
      ],
      "name": "tokenCreators",
      "outputs": [
        {
          "internalType": "address",
          "name": "",
          "type": "address"
        }
      ],
      "stateMutability": "view",
      "type": "function"
    },
    {
      "inputs": [
        {
          "internalType": "uint256",
          "name": "tokenID",
          "type": "uint256"
        }
      ],
      "name": "tokenExists",
      "outputs": [
        {
          "internalType": "bool",
          "name": "",
          "type": "bool"
        }
      ],
      "stateMutability": "view",
      "type": "function"
    },
    {
      "inputs": [
        {
          "internalType": "uint256",
          "name": "",
          "type": "uint256"
        }
      ],
      "name": "tokenMetadataHashes",
      "outputs": [
        {
          "internalType": "bytes32",
          "name": "",
          "type": "bytes32"
        }
      ],
      "stateMutability": "view",
      "type": "function"
    },
    {
      "inputs": [
        {
          "internalType": "uint256",
          "name": "tokenId",
          "type": "uint256"
        }
      ],
      "name": "tokenMetadataURI",
      "outputs": [
        {
          "internalType": "string",
          "name": "",
          "type": "string"
        }
      ],
      "stateMutability": "view",
      "type": "function"
    },
    {
      "inputs": [
        {
          "internalType": "address",
          "name": "owner",
          "type": "address"
        },
        {
          "internalType": "uint256",
          "name": "index",
          "type": "uint256"
        }
      ],
      "name": "tokenOfOwnerByIndex",
      "outputs": [
        {
          "internalType": "uint256",
          "name": "",
          "type": "uint256"
        }
      ],
      "stateMutability": "view",
      "type": "function"
    },
    {
      "inputs": [
        {
          "internalType": "uint256",
          "name": "tokenId",
          "type": "uint256"
        }
      ],
      "name": "tokenURI",
      "outputs": [
        {
          "internalType": "string",
          "name": "",
          "type": "string"
        }
      ],
      "stateMutability": "view",
      "type": "function"
    },
    {
      "inputs": [],
      "name": "totalSupply",
      "outputs": [
        {
          "internalType": "uint256",
          "name": "",
          "type": "uint256"
        }
      ],
      "stateMutability": "view",
      "type": "function"
    },
    {
      "inputs": [
        {
          "internalType": "address",
          "name": "from",
          "type": "address"
        },
        {
          "internalType": "address",
          "name": "to",
          "type": "address"
        },
        {
          "internalType": "uint256",
          "name": "tokenID",
          "type": "uint256"
        }
      ],
      "name": "transferFrom",
      "outputs": [],
      "stateMutability": "nonpayable",
      "type": "function"
    },
    {
      "inputs": [
        {
          "internalType": "address",
          "name": "newOwner",
          "type": "address"
        }
      ],
      "name": "transferOwnership",
      "outputs": [],
      "stateMutability": "nonpayable",
      "type": "function"
    },
    {
      "inputs": [
        {
          "internalType": "uint256",
          "name": "tokenId",
          "type": "uint256"
        },
        {
          "internalType": "string",
          "name": "metadataURI",
          "type": "string"
        }
      ],
      "name": "updateTokenMetadataURI",
      "outputs": [],
      "stateMutability": "nonpayable",
      "type": "function"
    },
    {
      "inputs": [
        {
          "internalType": "uint256",
          "name": "tokenId",
          "type": "uint256"
        },
        {
          "internalType": "string",
          "name": "_tokenURI",
          "type": "string"
        }
      ],
      "name": "updateTokenURI",
      "outputs": [],
      "stateMutability": "nonpayable",
      "type": "function"
    }
  ],
  "transactionHash": "0x4299ae0640405277a926566faca4429ba8bc7528ca1c3485de406034cf3ce7d7",
  "args": [
    "Animal",
    "ANML"
  ],
  "solcInputHash": "d34382ecf2146ad0057f767ad0206d21",
  "bytecode": "0x60806040523480156200001157600080fd5b506040516200484b3803806200484b8339810160408190526200003491620002e3565b8151829082906200004d9060079060208501906200018a565b508051620000639060089060208401906200018a565b50620000766380ac58cd60e01b620000b4565b6200008863780e9d6360e01b620000b4565b50506001600b556200009a3362000138565b620000ac632711173360e11b620000b4565b50506200039d565b6001600160e01b03198082161415620001135760405162461bcd60e51b815260206004820152601c60248201527f4552433136353a20696e76616c696420696e7465726661636520696400000000604482015260640160405180910390fd5b6001600160e01b0319166000908152602081905260409020805460ff19166001179055565b600c80546001600160a01b038381166001600160a01b0319831681179093556040519116919082907f8be0079c531659141344cd1fd0a4f28419497f9722a3daafe3b4186f6b6457e090600090a35050565b82805462000198906200034a565b90600052602060002090601f016020900481019282620001bc576000855562000207565b82601f10620001d757805160ff191683800117855562000207565b8280016001018555821562000207579182015b8281111562000207578251825591602001919060010190620001ea565b506200021592915062000219565b5090565b5b808211156200021557600081556001016200021a565b600082601f83011262000241578081fd5b81516001600160401b03808211156200025e576200025e62000387565b604051601f8301601f19908116603f0116810190828211818310171562000289576200028962000387565b81604052838152602092508683858801011115620002a5578485fd5b8491505b83821015620002c85785820183015181830184015290820190620002a9565b83821115620002d957848385830101525b9695505050505050565b60008060408385031215620002f6578182fd5b82516001600160401b03808211156200030d578384fd5b6200031b8683870162000230565b9350602085015191508082111562000331578283fd5b50620003408582860162000230565b9150509250929050565b600181811c908216806200035f57607f821691505b602082108114156200038157634e487b7160e01b600052602260045260246000fd5b50919050565b634e487b7160e01b600052604160045260246000fd5b61449e80620003ad6000396000f3fe608060405234801561001057600080fd5b506004361061024a5760003560e01c80636c0360eb116101425780636c0360eb1461046e57806370a0823114610476578063715018a61461048957806375682e791461049157806375cb2672146104a45780637a7a1202146104b75780638da5cb5b146104ca57806395d89b41146104d25780639d8e7260146104da578063a1794bcd14610503578063a22cb46514610516578063b1e130fc14610529578063b320f4591461053c578063b88d4fde1461054f578063ba33939914610562578063c87b56dd14610575578063d1df306c14610588578063de5236fb1461059b578063e0fd045f146105c2578063e985e9c5146105eb578063ee492ff8146105fe578063f2fde38b1461061e578063f6b630f014610631578063f8ccd5de14610644578063fad321971461066f57600080fd5b8062923f9e1461024f57806301ddc3b51461027757806301ffc9a7146102a557806306fdde03146102b8578063081812fc146102cd578063095ea7b3146102ed5780630bcd899b146103025780630e2a177814610322578063157c3df91461033557806318160ddd1461034857806318e97fd1146103505780632110f20d1461036357806323b872dd1461037657806328220f35146103895780632cca32371461039c5780632f745c59146103af57806330adf81f146103c257806342842e0e146103e957806342966c68146103fc578063430c20811461040f5780634f6ccce7146104225780635bf624221461043557806362f24b70146104485780636352211e1461045b575b600080fd5b61026261025d366004613a3d565b61068f565b60405190151581526020015b60405180910390f35b610297610285366004613a3d565b60126020526000908152604090205481565b60405190815260200161026e565b6102626102b33660046139c2565b6106a0565b6102c06106dc565b60405161026e9190613e3b565b6102e06102db366004613a3d565b61076e565b60405161026e9190613d8c565b6103006102fb36600461395d565b6107fb565b005b610297610310366004613652565b60166020526000908152604090205481565b610300610330366004613986565b610940565b6102c0610343366004613a3d565b610be3565b610297610cad565b61030061035e366004613a77565b610cbe565b610297610371366004613652565b610e68565b61030061038436600461369e565b610ec4565b610300610397366004613a3d565b610ef5565b6103006103aa3660046139fa565b610fa0565b6102976103bd36600461395d565b610fdc565b6102977f49ecf333e5b8c95c40fdafc95c1ad136e8914a8fb55e9dc8bb01eaa83a2df9ad81565b6103006103f736600461369e565b610ffe565b61030061040a366004613a3d565b611019565b61026261041d36600461395d565b611127565b610297610430366004613a3d565b611133565b610300610443366004613b41565b611149565b610300610456366004613aed565b61123a565b6102e0610469366004613a3d565b611308565b6102c0611330565b610297610484366004613652565b61133f565b6103006113cb565b61030061049f366004613a77565b611406565b6103006104b2366004613652565b611597565b6103006104c536600461377a565b611659565b6102e0611867565b6102c0611876565b6102e06104e8366004613a3d565b600e602052600090815260409020546001600160a01b031681565b600d546102e0906001600160a01b031681565b610300610524366004613751565b611885565b610300610537366004613a3d565b611946565b61030061054a366004613a3d565b6119f5565b61030061055d3660046136d9565b611ab2565b610300610570366004613b41565b611aea565b6102c0610583366004613a3d565b611b6c565b61030061059636600461395d565b611c36565b6102977f2952e482b8e2b192305f87374d7af45dc2eafafe4f50d26a0c02e90f2fdbe14b81565b6102e06105d0366004613a3d565b600f602052600090815260409020546001600160a01b031681565b6102626105f936600461366c565b611cb5565b61061161060c3660046137e9565b611ce3565b60405161026e919061411d565b61030061062c366004613652565b611d7f565b61030061063f366004613a55565b611e1f565b61029761065236600461395d565b601560209081526000928352604080842090915290825290205481565b61029761067d366004613a3d565b60116020526000908152604090205481565b600061069a82611ed3565b92915050565b60006301ffc9a760e01b6001600160e01b03198316148061069a5750506001600160e01b03191660009081526020819052604090205460ff1690565b6060600780546106eb9061435b565b80601f01602080910402602001604051908101604052809291908181526020018280546107179061435b565b80156107645780601f1061073957610100808354040283529160200191610764565b820191906000526020600020905b81548152906001019060200180831161074757829003601f168201915b5050505050905090565b600061077982611ed3565b6107df5760405162461bcd60e51b815260206004820152602c60248201527f4552433732313a20617070726f76656420717565727920666f72206e6f6e657860448201526b34b9ba32b73a103a37b5b2b760a11b60648201526084015b60405180910390fd5b506000908152600560205260409020546001600160a01b031690565b600061080682611308565b9050610833604051806040016040528060098152602001682a34329037bbb732b960b91b81525082611ee0565b806001600160a01b0316836001600160a01b0316141561089f5760405162461bcd60e51b815260206004820152602160248201527f4552433732313a20617070726f76616c20746f2063757272656e74206f776e656044820152603960f91b60648201526084016107d6565b6108a833611f25565b336001600160a01b03821614806108c457506108c48133611cb5565b6109315760405162461bcd60e51b815260206004820152603860248201527f4552433732313a20617070726f76652063616c6c6572206973206e6f74206f776044820152771b995c881b9bdc88185c1c1c9bdd995908199bdc88185b1b60421b60648201526084016107d6565b61093b8383611f68565b505050565b6002600b5414156109635760405162461bcd60e51b81526004016107d6906140a0565b6002600b558161097281611ed3565b61098e5760405162461bcd60e51b81526004016107d69061406e565b8151158061099d575081514211155b6109e15760405162461bcd60e51b81526020600482015260156024820152741359591a584e8814195c9b5a5d08195e1c1a5c9959605a1b60448201526064016107d6565b6001600160a01b038416610a365760405162461bcd60e51b815260206004820152601c60248201527b04d656469613a207370656e6465722063616e6e6f74206265203078360241b60448201526064016107d6565b6000610a40611fd6565b90506000817f49ecf333e5b8c95c40fdafc95c1ad136e8914a8fb55e9dc8bb01eaa83a2df9ad8787601585610a7483611308565b6001600160a01b03168152602080820192909252604090810160009081208c82529092528120805491610aa683614390565b9091555088516040805160208101969096526001600160a01b03909416938501939093526060840191909152608083015260a082015260c00160405160208183030381529060405280519060200120604051602001610b06929190613d71565b604051602081830303815290604052805190602001209050600060018286602001518760400151886060015160405160008152602001604052604051610b4f9493929190613e1d565b6020604051602081039080840390855afa158015610b71573d6000803e3d6000fd5b5050604051601f1901519150506001600160a01b03811615801590610baf5750806001600160a01b0316610ba487611308565b6001600160a01b0316145b610bcb5760405162461bcd60e51b81526004016107d69061403c565b610bd58787611f68565b50506001600b555050505050565b60608180610bf060175490565b11610c0d5760405162461bcd60e51b81526004016107d690613ee5565b60008381526013602052604090208054610c269061435b565b80601f0160208091040260200160405190810160405280929190818152602001828054610c529061435b565b8015610c9f5780601f10610c7457610100808354040283529160200191610c9f565b820191906000526020600020905b815481529060010190602001808311610c8257829003601f168201915b505050505091505b50919050565b6000610cb960026120a0565b905090565b6002600b541415610ce15760405162461bcd60e51b81526004016107d6906140a0565b6002600b553383610cf282826120ab565b610d0e5760405162461bcd60e51b81526004016107d690613f7f565b6000858152601160205260409020548590610d865760405162461bcd60e51b815260206004820152603260248201527f4d656469613a20746f6b656e20646f6573206e6f7420686176652068617368206044820152711bd98818dc99585d19590818dbdb9d195b9d60721b60648201526084016107d6565b84848080601f01602080910402602001604051908101604052809392919081815260200183838082843760009201919091525050825115159150610dde90505760405162461bcd60e51b81526004016107d6906140d7565b610e1e8787878080601f01602080910402602001604051908101604052809392919081815260200183838082843760009201919091525061217592505050565b867f702fe2dc2dc0f68023540aa4a1e11811c0f29112f6ebf01e61b90538e4f29810338888604051610e5293929190613ddd565b60405180910390a250506001600b555050505050565b6001600160a01b03811660009081526010602052604081208190600190610e8e906121fe565b610e989190614318565b6001600160a01b0384166000908152601060205260409020909150610ebd9082612208565b9392505050565b610ece33826120ab565b610eea5760405162461bcd60e51b81526004016107d690613feb565b61093b838383612214565b6002600b541415610f185760405162461bcd60e51b81526004016107d6906140a0565b6002600b553381610f2982826120ab565b610f455760405162461bcd60e51b81526004016107d690613f7f565b600d546040516328220f3560e01b8152600481018590526001600160a01b03909116906328220f35906024015b600060405180830381600087803b158015610f8c57600080fd5b505af1158015610bd5573d6000803e3d6000fd5b6002600b541415610fc35760405162461bcd60e51b81526004016107d6906140a0565b6002600b55610fd333838361227d565b50506001600b55565b6001600160a01b0382166000908152600160205260408120610ebd9083612208565b61093b83838360405180602001604052806000815250611ab2565b6002600b54141561103c5760405162461bcd60e51b81526004016107d6906140a0565b6002600b558061104b81611ed3565b6110675760405162461bcd60e51b81526004016107d69061406e565b338261107382826120ab565b61108f5760405162461bcd60e51b81526004016107d690613f7f565b600061109a85611308565b6000868152600f60205260409020549091506001600160a01b038083169116146111125760405162461bcd60e51b8152602060048201526024808201527f4d656469613a206f776e6572206973206e6f742063726561746f72206f66206d6044820152636564696160e01b60648201526084016107d6565b61111b856124b8565b50506001600b55505050565b6000610ebd83836120ab565b6000806111416002846125a1565b509392505050565b6002600b54141561116c5760405162461bcd60e51b81526004016107d6906140a0565b6002600b558161117b81611ed3565b6111975760405162461bcd60e51b81526004016107d69061406e565b81604001516001600160a01b0316336001600160a01b0316146112065760405162461bcd60e51b815260206004820152602160248201527f4d61726b65743a20426964646572206d757374206265206d73672073656e64656044820152603960f91b60648201526084016107d6565b600d546040516317b6b0d360e31b81526001600160a01b039091169063bdb5869890610f729086908690339060040161427e565b6002600b54141561125d5760405162461bcd60e51b81526004016107d6906140a0565b6002600b55338261126e82826120ab565b61128a5760405162461bcd60e51b81526004016107d690613f7f565b600d5460405163062f24b760e41b8152600481018690528451602482015260208501516001600160a01b039081166044830152909116906362f24b70906064015b600060405180830381600087803b1580156112e557600080fd5b505af11580156112f9573d6000803e3d6000fd5b50506001600b55505050505050565b600061069a8260405180606001604052806029815260200161442060299139600291906125bd565b6060600a80546106eb9061435b565b60006001600160a01b0382166113aa5760405162461bcd60e51b815260206004820152602a60248201527f4552433732313a2062616c616e636520717565727920666f7220746865207a65604482015269726f206164647265737360b01b60648201526084016107d6565b6001600160a01b038216600090815260016020526040902061069a906121fe565b336113d4611867565b6001600160a01b0316146113fa5760405162461bcd60e51b81526004016107d690613fb6565b61140460006125ca565b565b6002600b5414156114295760405162461bcd60e51b81526004016107d6906140a0565b6002600b55338361143a82826120ab565b6114565760405162461bcd60e51b81526004016107d690613f7f565b60008581526012602052604090205485906114cb5760405162461bcd60e51b815260206004820152602f60248201527f4d656469613a20746f6b656e20646f6573206e6f74206861766520686173682060448201526e6f6620697473206d6574616461746160881b60648201526084016107d6565b84848080601f0160208091040260200160405190810160405280939291908181526020018383808284376000920191909152505082511515915061152390505760405162461bcd60e51b81526004016107d6906140d7565b6115638787878080601f01602080910402602001604051908101604052809392919081815260200183838082843760009201919091525061261c92505050565b867fe3df41127db820c79e5b8d541a63e40e3e97b9af96f7a50bded13091b70df9ae338888604051610e5293929190613ddd565b336115a0611867565b6001600160a01b0316146115c65760405162461bcd60e51b81526004016107d690613fb6565b6001600160a01b0381166116375760405162461bcd60e51b815260206004820152603260248201527f4d61726b65743a2063616e6e6f7420736574206d61726b657420636f6e7472616044820152716374206173207a65726f206164647265737360701b60648201526084016107d6565b600d80546001600160a01b0319166001600160a01b0392909216919091179055565b6002600b54141561167c5760405162461bcd60e51b81526004016107d6906140a0565b6002600b5580511580611690575080514211155b6116d95760405162461bcd60e51b815260206004820152601a6024820152791359591a584e881b5a5b9d15da5d1a14da59c8195e1c1a5c995960321b60448201526064016107d6565b60006116e3611fd6565b6040808601516060870151602080880151516001600160a01b038b16600090815260169092529381208054959650909486947f2952e482b8e2b192305f87374d7af45dc2eafafe4f50d26a0c02e90f2fdbe14b9493929091908761174683614390565b9091555088516040805160208101979097528601949094526060850192909252608084015260a083015260c082015260e0016040516020818303038152906040528051906020012060405160200161179f929190613d71565b6040516020818303038152906040528051906020012090506000600182856020015186604001518760600151604051600081526020016040526040516117e89493929190613e1d565b6020604051602081039080840390855afa15801561180a573d6000803e3d6000fd5b5050604051601f1901519150506001600160a01b038116158015906118405750806001600160a01b0316876001600160a01b0316145b61185c5760405162461bcd60e51b81526004016107d69061403c565b610bd581878761227d565b600c546001600160a01b031690565b6060600880546106eb9061435b565b6001600160a01b0382163314156118da5760405162461bcd60e51b815260206004820152601960248201527822a9219b99189d1030b8383937bb32903a379031b0b63632b960391b60448201526064016107d6565b3360008181526006602090815260408083206001600160a01b03871680855290835292819020805460ff191686151590811790915590519081529192917f17307eab39ab6107e8899845ad3d59bd9653f200f220920489ca2b5937696c31910160405180910390a35050565b6002600b5414156119695760405162461bcd60e51b81526004016107d6906140a0565b6002600b556119778161076e565b6001600160a01b0316336001600160a01b0316146119e25760405162461bcd60e51b815260206004820152602260248201527f4d656469613a2063616c6c6572206e6f7420617070726f766564206164647265604482015261737360f01b60648201526084016107d6565b6119ed600082611f68565b506001600b55565b6002600b541415611a185760405162461bcd60e51b81526004016107d6906140a0565b6002600b558080611a2860175490565b11611a455760405162461bcd60e51b81526004016107d690613ee5565b600d5460405163776a083560e01b8152600481018490523360248201526001600160a01b039091169063776a083590604401600060405180830381600087803b158015611a9157600080fd5b505af1158015611aa5573d6000803e3d6000fd5b50506001600b5550505050565b611abc33836120ab565b611ad85760405162461bcd60e51b81526004016107d690613feb565b611ae484848484612661565b50505050565b6002600b541415611b0d5760405162461bcd60e51b81526004016107d6906140a0565b6002600b553382611b1e82826120ab565b611b3a5760405162461bcd60e51b81526004016107d690613f7f565b600d5460405163ba33939960e01b81526001600160a01b039091169063ba339399906112cb908790879060040161426a565b60608180611b7960175490565b11611b965760405162461bcd60e51b81526004016107d690613ee5565b60008381526009602052604081208054611baf9061435b565b80601f0160208091040260200160405190810160405280929190818152602001828054611bdb9061435b565b8015611c285780601f10611bfd57610100808354040283529160200191611c28565b820191906000526020600020905b815481529060010190602001808311611c0b57829003601f168201915b509398975050505050505050565b6002600b541415611c595760405162461bcd60e51b81526004016107d6906140a0565b6002600b5580611c6881611ed3565b611c845760405162461bcd60e51b81526004016107d69061406e565b8282611c9082826120ab565b611cac5760405162461bcd60e51b81526004016107d690613f7f565b61111b846124b8565b6001600160a01b03918216600090815260066020908152604080832093909416825291909152205460ff1690565b611ceb6130ec565b6002600b541415611d0e5760405162461bcd60e51b81526004016107d6906140a0565b6002600b55604080518082018252600981526836b4b73a2a37b5b2b760b91b602082015290830151611d4291908590612694565b611d4c83836126db565b9150611d638383610140015184610160015161227d565b6000611d6e84610e68565b606084015250506001600b55919050565b33611d88611867565b6001600160a01b031614611dae5760405162461bcd60e51b81526004016107d690613fb6565b6001600160a01b038116611e135760405162461bcd60e51b815260206004820152602660248201527f4f776e61626c653a206e6577206f776e657220697320746865207a65726f206160448201526564647265737360d01b60648201526084016107d6565b611e1c816125ca565b50565b600d546001600160a01b03163314611e775760405162461bcd60e51b815260206004820152601b60248201527a1359591a584e881bdb9b1e481b585c9ad95d0818dbdb9d1c9858dd602a1b60448201526064016107d6565b611e8082611308565b6000838152600e6020526040902080546001600160a01b0319166001600160a01b0392909216919091179055611ecf611eb883611308565b828460405180602001604052806000815250612661565b5050565b600061069a60028361279e565b611ecf8282604051602401611ef6929190613e4e565b60408051601f198184030181529190526020810180516001600160e01b031663319af33360e01b1790526127aa565b611e1c81604051602401611f399190613d8c565b60408051601f198184030181529190526020810180516001600160e01b031663161765e160e11b1790526127aa565b600081815260056020526040902080546001600160a01b0319166001600160a01b0384169081179091558190611f9d82611308565b6001600160a01b03167f8c5be1e5ebec7d5bd14f71427d1e84f3dd0314c0f7b2291e5b200ac8c7c3b92560405160405180910390a45050565b60408051808201825260038152625a4f4f60e81b6020918201528151808301835260018152603160f81b9082015281517f8b73c3c69bb8fe3d512ecc4cf759cc79239f7b179b0ffacaa9a75d522b39400f818301527ff60aa5d51208599eb8dddd34b5e5f7732da8b35de3e71da60731c16e9a9d3c87818401527fc89efdaa54c0f20c7adf612882df0950f5a951637e0307cdcb4c672f298b8bc660608201524660808201523060a0808301919091528351808303909101815260c0909101909252815191012090565b600061069a826127cb565b60006120b682611ed3565b6121175760405162461bcd60e51b815260206004820152602c60248201527f4552433732313a206f70657261746f7220717565727920666f72206e6f6e657860448201526b34b9ba32b73a103a37b5b2b760a11b60648201526084016107d6565b600061212283611308565b9050806001600160a01b0316846001600160a01b0316148061215d5750836001600160a01b03166121528461076e565b6001600160a01b0316145b8061216d575061216d8185611cb5565b949350505050565b61217e82611ed3565b6121df5760405162461bcd60e51b815260206004820152602c60248201527f4552433732314d657461646174613a2055524920736574206f66206e6f6e657860448201526b34b9ba32b73a103a37b5b2b760a11b60648201526084016107d6565b6000828152600960209081526040909120825161093b92840190613207565b600061069a825490565b6000610ebd83836127d6565b600d546040516328220f3560e01b8152600481018390526001600160a01b03909116906328220f3590602401600060405180830381600087803b15801561225a57600080fd5b505af115801561226e573d6000803e3d6000fd5b5050505061093b83838361280e565b8151805161229d5760405162461bcd60e51b81526004016107d6906140d7565b602083015180516122c05760405162461bcd60e51b81526004016107d6906140d7565b604084015161231d5760405162461bcd60e51b8152602060048201526024808201527f4d656469613a20636f6e74656e742068617368206d757374206265206e6f6e2d6044820152637a65726f60e01b60648201526084016107d6565b606084015161237c5760405162461bcd60e51b815260206004820152602560248201527f4d656469613a206d657461646174612068617368206d757374206265206e6f6e6044820152642d7a65726f60d81b60648201526084016107d6565b600061238760175490565b9050612393868261297d565b6123a1601780546001019055565b6123af818660400151612997565b6123bd8186606001516129d0565b6123cb81866020015161261c565b6123d9818660000151612175565b6001600160a01b03861660009081526010602052604090206123fb9082612a09565b50604080860151600090815260146020908152828220805460ff19166001179055838252600f815282822080546001600160a01b03808c166001600160a01b03199283168117909355600e90935292849020805490931617909155600d5491516375aab41d60e11b815291169063eb55683a9061247e9084908890600401614256565b600060405180830381600087803b15801561249857600080fd5b505af11580156124ac573d6000803e3d6000fd5b50505050505050505050565b600081815260096020526040812080546124d19061435b565b80601f01602080910402602001604051908101604052809291908181526020018280546124fd9061435b565b801561254a5780601f1061251f5761010080835404028352916020019161254a565b820191906000526020600020905b81548152906001019060200180831161252d57829003601f168201915b5050505050905061255a82612a15565b805115612582576000828152600960209081526040909120825161258092840190613207565b505b506000908152600e6020526040902080546001600160a01b0319169055565b60008080806125b08686612abd565b9097909650945050505050565b600061216d848484612ae8565b600c80546001600160a01b038381166001600160a01b0319831681179093556040519116919082907f8be0079c531659141344cd1fd0a4f28419497f9722a3daafe3b4186f6b6457e090600090a35050565b8161262681611ed3565b6126425760405162461bcd60e51b81526004016107d69061406e565b60008381526013602090815260409091208351611ae492850190613207565b61266c848484612214565b61267884848484612b34565b611ae45760405162461bcd60e51b81526004016107d690613f2d565b61093b8383836040516024016126ac93929190613e78565b60408051601f198184030181529190526020810180516001600160e01b031663e0e9ad4f60e01b1790526127aa565b6126e36130ec565b6127226040518060400160405280600a8152602001692fb430b9b42a37b5b2b760b11b8152508361014001516000015184610140015160200151612c05565b6101408201515160405161273d919043908690602001613d3d565b60408051601f19818403018152918152815160209283012061014085018051830191909152518201519051612776924391879101613d3d565b60408051808303601f1901815291905280516020909101206101408301516060015250919050565b6000610ebd8383612c4c565b80516a636f6e736f6c652e6c6f67602083016000808483855afa5050505050565b600061069a826121fe565b60008260000182815481106127fb57634e487b7160e01b600052603260045260246000fd5b9060005260206000200154905092915050565b826001600160a01b031661282182611308565b6001600160a01b0316146128895760405162461bcd60e51b815260206004820152602960248201527f4552433732313a207472616e73666572206f6620746f6b656e2074686174206960448201526839903737ba1037bbb760b91b60648201526084016107d6565b6001600160a01b0382166128eb5760405162461bcd60e51b8152602060048201526024808201527f4552433732313a207472616e7366657220746f20746865207a65726f206164646044820152637265737360e01b60648201526084016107d6565b6128f6600082611f68565b6001600160a01b03831660009081526001602052604090206129189082612c58565b506001600160a01b038216600090815260016020526040902061293b9082612a09565b5061294860028284612c64565b5080826001600160a01b0316846001600160a01b031660008051602061444983398151915260405160405180910390a4505050565b611ecf828260405180602001604052806000815250612c7a565b816129a181611ed3565b6129bd5760405162461bcd60e51b81526004016107d69061406e565b5060009182526011602052604090912055565b816129da81611ed3565b6129f65760405162461bcd60e51b81526004016107d69061406e565b5060009182526012602052604090912055565b6000610ebd8383612cad565b6000612a2082611308565b9050612a2d600083611f68565b60008281526009602052604090208054612a469061435b565b159050612a64576000828152600960205260408120612a649161328b565b6001600160a01b0381166000908152600160205260409020612a869083612c58565b50612a92600283612cfc565b5060405182906000906001600160a01b03841690600080516020614449833981519152908390a45050565b60008080612acb8585612208565b600081815260029690960160205260409095205494959350505050565b600082815260028401602052604081205480151580612b0c5750612b0c8585612c4c565b8390612b2b5760405162461bcd60e51b81526004016107d69190613e3b565b50949350505050565b60006001600160a01b0384163b612b4d5750600161216d565b6000612bce630a85bd0160e11b33888787604051602401612b719493929190613da0565b604051602081830303815290604052906001600160e01b0319166020820180516001600160e01b0383818316178352505050506040518060600160405280603281526020016143ee603291396001600160a01b0388169190612d08565b9050600081806020019051810190612be691906139de565b6001600160e01b031916630a85bd0160e11b1492505050949350505050565b61093b838383604051602401612c1d93929190613eac565b60408051601f198184030181529190526020810180516001600160e01b0316632ced7cef60e01b1790526127aa565b6000610ebd8383612d17565b6000610ebd8383612d2f565b600061216d84846001600160a01b038516612e4c565b612c848383612e69565b612c916000848484612b34565b61093b5760405162461bcd60e51b81526004016107d690613f2d565b6000818152600183016020526040812054612cf45750815460018181018455600084815260208082209093018490558454848252828601909352604090209190915561069a565b50600061069a565b6000610ebd8383612f6e565b606061216d8484600085612f8b565b60008181526001830160205260408120541515610ebd565b60008181526001830160205260408120548015612e42576000612d53600183614318565b8554909150600090612d6790600190614318565b9050818114612de8576000866000018281548110612d9557634e487b7160e01b600052603260045260246000fd5b9060005260206000200154905080876000018481548110612dc657634e487b7160e01b600052603260045260246000fd5b6000918252602080832090910192909255918252600188019052604090208390555b8554869080612e0757634e487b7160e01b600052603160045260246000fd5b60019003818190600052602060002001600090559055856001016000868152602001908152602001600020600090556001935050505061069a565b600091505061069a565b6000828152600284016020526040812082905561216d8484612a09565b6001600160a01b038216612ebf5760405162461bcd60e51b815260206004820181905260248201527f4552433732313a206d696e7420746f20746865207a65726f206164647265737360448201526064016107d6565b612ec881611ed3565b15612f145760405162461bcd60e51b815260206004820152601c60248201527b115490cdcc8c4e881d1bdad95b88185b1c9958591e481b5a5b9d195960221b60448201526064016107d6565b6001600160a01b0382166000908152600160205260409020612f369082612a09565b50612f4360028284612c64565b5060405181906001600160a01b03841690600090600080516020614449833981519152908290a45050565b60008181526002830160205260408120819055610ebd8383612c58565b606082471015612fec5760405162461bcd60e51b815260206004820152602660248201527f416464726573733a20696e73756666696369656e742062616c616e636520666f6044820152651c8818d85b1b60d21b60648201526084016107d6565b843b61303a5760405162461bcd60e51b815260206004820152601d60248201527f416464726573733a2063616c6c20746f206e6f6e2d636f6e747261637400000060448201526064016107d6565b600080866001600160a01b031685876040516130569190613d21565b60006040518083038185875af1925050503d8060008114613093576040519150601f19603f3d011682016040523d82523d6000602084013e613098565b606091505b50915091506130a88282866130b3565b979650505050505050565b606083156130c2575081610ebd565b8251156130d25782518084602001fd5b8160405162461bcd60e51b81526004016107d69190613e3b565b6040805161020081019091526060610180820190815260006101a083018190526101c083018190526101e0830152819081526020016000815260200160608152602001600081526020016000815260200160008152602001606081526020016131766040518060800160405280606081526020016060815260200160008152602001600081525090565b8152602001613198604051806040016040528060008152602001600081525090565b81526040805160808101825260008082526020828101829052928201819052606082015291019081526020016131f56040518060800160405280606081526020016060815260200160008019168152602001600080191681525090565b81526020016132026132c5565b905290565b8280546132139061435b565b90600052602060002090601f016020900481019282613235576000855561327b565b82601f1061324e57805160ff191683800117855561327b565b8280016001018555821561327b579182015b8281111561327b578251825591602001919060010190613260565b506132879291506132f2565b5090565b5080546132979061435b565b6000825580601f106132a7575050565b601f016020900490600052602060002090810190611e1c91906132f2565b60405180606001604052806132d8613307565b81526020016132e5613307565b8152602001613202613307565b5b8082111561328757600081556001016132f3565b6040518060200160405280600081525090565b60006001600160401b0380841115613334576133346143c1565b604051601f8501601f19908116603f0116810190828211818310171561335c5761335c6143c1565b8160405280935085815286868601111561337557600080fd5b858560208301376000602087830101525050509392505050565b80356001600160a01b03811681146133a657600080fd5b919050565b803580151581146133a657600080fd5b8035600481106133a657600080fd5b600082601f8301126133da578081fd5b610ebd8383356020850161331a565b6000606082840312156133fa578081fd5b604051606081018181106001600160401b038211171561341c5761341c6143c1565b60405290508061342c8484613488565b815261343b8460208501613488565b602082015261344d8460408501613488565b60408201525092915050565b60006040828403121561346a578081fd5b6134726142ab565b9050813581526020820135602082015292915050565b600060208284031215613499578081fd5b604051602081018181106001600160401b03821117156134bb576134bb6143c1565b6040529135825250919050565b6000608082840312156134d9578081fd5b6134e16142d3565b905081358152602082013560ff811681146134fb57600080fd5b80602083015250604082013560408201526060820135606082015292915050565b60006080828403121561352d578081fd5b6135356142d3565b905081356001600160401b038082111561354e57600080fd5b61355a858386016133ca565b8352602084013591508082111561357057600080fd5b5061357d848285016133ca565b602083015250604082013560408201526060820135606082015292915050565b6000608082840312156135ae578081fd5b6135b66142d3565b905081358152602082013560208201526135d2604083016133ab565b60408201526135e3606083016133ab565b606082015292915050565b6000608082840312156135ff578081fd5b6136076142d3565b905081356001600160401b0381111561361f57600080fd5b61362b848285016133ca565b82525060208201356020820152604082013560408201526060820135606082015292915050565b600060208284031215613663578081fd5b610ebd8261338f565b6000806040838503121561367e578081fd5b6136878361338f565b91506136956020840161338f565b90509250929050565b6000806000606084860312156136b2578081fd5b6136bb8461338f565b92506136c96020850161338f565b9150604084013590509250925092565b600080600080608085870312156136ee578182fd5b6136f78561338f565b93506137056020860161338f565b92506040850135915060608501356001600160401b03811115613726578182fd5b8501601f81018713613736578182fd5b6137458782356020840161331a565b91505092959194509250565b60008060408385031215613763578182fd5b61376c8361338f565b9150613695602084016133ab565b6000806000806101208587031215613790578182fd5b6137998561338f565b935060208501356001600160401b038111156137b3578283fd5b6137bf8782880161351c565b9350506137cf86604087016133e9565b91506137de8660a087016134c8565b905092959194509250565b600080604083850312156137fb578182fd5b6138048361338f565b915060208301356001600160401b038082111561381f578283fd5b908401906102408287031215613833578283fd5b61383b6142f5565b823582811115613849578485fd5b613855888286016135ee565b825250613864602084016133bb565b602082015260408301358281111561387a578485fd5b613886888286016133ca565b604083015250606083013560608201526080830135608082015260a083013560a082015260c0830135828111156138bb578485fd5b6138c7888286016133ca565b60c08301525060e0830135828111156138de578485fd5b6138ea8882860161351c565b60e0830152506101006138ff88828601613459565b908201526101406139128885830161359d565b6101208301526101c08401358381111561392a578586fd5b6139368982870161351c565b82840152505061394a876101e085016133e9565b6101608201528093505050509250929050565b6000806040838503121561396f578182fd5b6139788361338f565b946020939093013593505050565b600080600060c0848603121561399a578081fd5b6139a38461338f565b9250602084013591506139b985604086016134c8565b90509250925092565b6000602082840312156139d3578081fd5b8135610ebd816143d7565b6000602082840312156139ef578081fd5b8151610ebd816143d7565b60008060808385031215613a0c578182fd5b82356001600160401b03811115613a21578283fd5b613a2d8582860161351c565b92505061369584602085016133e9565b600060208284031215613a4e578081fd5b5035919050565b60008060408385031215613a67578182fd5b823591506136956020840161338f565b600080600060408486031215613a8b578081fd5b8335925060208401356001600160401b0380821115613aa8578283fd5b818601915086601f830112613abb578283fd5b813581811115613ac9578384fd5b876020828501011115613ada578384fd5b6020830194508093505050509250925092565b6000808284036060811215613b00578283fd5b833592506040601f1982011215613b15578182fd5b50613b1e6142ab565b60208401358152613b316040850161338f565b6020820152809150509250929050565b60008082840360c0811215613b54578283fd5b8335925060a0601f1982011215613b69578182fd5b5060405160a081018181106001600160401b0382111715613b8c57613b8c6143c1565b806040525060208401358152613ba46040850161338f565b6020820152613bb56060850161338f565b6040820152613bc66080850161338f565b6060820152613bd88560a08601613488565b6080820152809150509250929050565b60008151808452613c0081602086016020860161432f565b601f01601f19169290920160200192915050565b60048110613c3257634e487b7160e01b600052602160045260246000fd5b9052565b8051518252602080820151519083015260409081015151910152565b805182526020808201516001600160a01b03908116918401919091526040808301518216908401526060808301519091169083015260809081015151910152565b6000815160808452613ca86080850182613be8565b905060208301518482036020860152613cc18282613be8565b91505060408301516040850152606083015160608501528091505092915050565b6000815160808452613cf76080850182613be8565b90506020830151602085015260408301516040850152606083015160608501528091505092915050565b60008251613d3381846020870161432f565b9190910192915050565b60008451613d4f81846020890161432f565b919091019283525060601b6001600160601b0319166020820152603401919050565b61190160f01b81526002810192909252602282015260420190565b6001600160a01b0391909116815260200190565b6001600160a01b0385811682528416602082015260408101839052608060608201819052600090613dd390830184613be8565b9695505050505050565b6001600160a01b03841681526040602082018190528101829052818360608301376000818301606090810191909152601f909201601f1916010192915050565b93845260ff9290921660208401526040830152606082015260800190565b602081526000610ebd6020830184613be8565b604081526000613e616040830185613be8565b905060018060a01b03831660208301529392505050565b606081526000613e8b6060830186613be8565b6001600160a01b03851660208401528281036040840152613dd38185613be8565b606081526000613ebf6060830186613be8565b8281036020840152613ed18186613be8565b90508281036040840152613dd38185613be8565b60208082526028908201527f4d656469613a20746f6b656e2077697468207468617420696420646f6573206e6040820152671bdd08195e1a5cdd60c21b606082015260800190565b60208082526032908201527f4552433732313a207472616e7366657220746f206e6f6e20455243373231526560408201527131b2b4bb32b91034b6b83632b6b2b73a32b960711b606082015260800190565b6020808252601d908201527f4d656469613a204f6e6c7920617070726f766564206f72206f776e6572000000604082015260600190565b6020808252818101527f4f776e61626c653a2063616c6c6572206973206e6f7420746865206f776e6572604082015260600190565b60208082526031908201527f4552433732313a207472616e736665722063616c6c6572206973206e6f74206f6040820152701ddb995c881b9bdc88185c1c1c9bdd9959607a1b606082015260800190565b6020808252601890820152771359591a584e8814da59db985d1d5c99481a5b9d985b1a5960421b604082015260600190565b60208082526018908201527726b2b234b09d103737b732bc34b9ba32b73a103a37b5b2b760411b604082015260600190565b6020808252601f908201527f5265656e7472616e637947756172643a207265656e7472616e742063616c6c00604082015260600190565b60208082526026908201527f4d656469613a2073706563696669656420757269206d757374206265206e6f6e6040820152652d656d70747960d01b606082015260800190565b6020815260008251610240602084015261413b610260840182613ce2565b9050602084015161414f6040850182613c14565b506040840151601f198085840301606086015261416c8383613be8565b925060608601516080860152608086015160a086015260a086015160c086015260c08601519150808584030160e08601526141a78383613be8565b925060e086015191506101008186850301818701526141c68484613c93565b9350808701519250506101206141e88187018480518252602090810151910152565b86015191506101606142218682018480518252602081015160208301526040810151151560408301526060810151151560608301525050565b610140870151925081868503016101e087015261423e8484613c93565b93508087015192505050611141610200850182613c36565b82815260808101610ebd6020830184613c36565b82815260c08101610ebd6020830184613c52565b83815260e081016142926020830185613c52565b6001600160a01b039290921660c0919091015292915050565b604080519081016001600160401b03811182821017156142cd576142cd6143c1565b60405290565b604051608081016001600160401b03811182821017156142cd576142cd6143c1565b60405161018081016001600160401b03811182821017156142cd576142cd6143c1565b60008282101561432a5761432a6143ab565b500390565b60005b8381101561434a578181015183820152602001614332565b83811115611ae45750506000910152565b600181811c9082168061436f57607f821691505b60208210811415610ca757634e487b7160e01b600052602260045260246000fd5b60006000198214156143a4576143a46143ab565b5060010190565b634e487b7160e01b600052601160045260246000fd5b634e487b7160e01b600052604160045260246000fd5b6001600160e01b031981168114611e1c57600080fdfe4552433732313a207472616e7366657220746f206e6f6e20455243373231526563656976657220696d706c656d656e7465724552433732313a206f776e657220717565727920666f72206e6f6e6578697374656e7420746f6b656eddf252ad1be2c89b69c2b068fc378daa952ba7f163c4a11628f55a4df523b3efa26469706673582212201caf7ae9a44d3a89be33220f4ca29475fdf9d3587a1af65c7e0d6ab36cb70b1f64736f6c63430008040033",
  "libraries": {},
  "devdoc": {
    "kind": "dev",
    "methods": {
      "approve(address,uint256)": {
        "details": "See {IERC721-approve}."
      },
      "balanceOf(address)": {
        "details": "See {IERC721-balanceOf}."
      },
      "baseURI()": {
        "details": "Returns the base URI set via {_setBaseURI}. This will be automatically added as a prefix in {tokenURI} to each token's URI, or to the token ID if no specific URI is set for that token ID."
      },
      "burn(uint256)": {
        "details": "Only callable if the media owner is also the creator."
      },
      "getApproved(uint256)": {
        "details": "See {IERC721-getApproved}."
      },
      "isApprovedForAll(address,address)": {
        "details": "See {IERC721-isApprovedForAll}."
      },
      "isApprovedOrOwner(address,uint256)": {
        "details": "Public method which returns whether `spender` is allowed to manage `tokenID`. Requirements: - `tokenID` must exist."
      },
      "name()": {
        "details": "See {IERC721Metadata-name}."
      },
      "owner()": {
        "details": "Returns the address of the current owner."
      },
      "ownerOf(uint256)": {
        "details": "See {IERC721-ownerOf}."
      },
      "permit(address,uint256,(uint256,uint8,bytes32,bytes32))": {
        "details": "This method is loosely based on the permit for ERC-20 tokens in  EIP-2612, but modified for ERC-721."
      },
      "renounceOwnership()": {
        "details": "Leaves the contract without owner. It will not be possible to call `onlyOwner` functions anymore. Can only be called by the current owner. NOTE: Renouncing ownership will leave the contract without an owner, thereby removing any functionality that is only available to the owner."
      },
      "safeTransferFrom(address,address,uint256)": {
        "details": "See {IERC721-safeTransferFrom}."
      },
      "safeTransferFrom(address,address,uint256,bytes)": {
        "details": "See {IERC721-safeTransferFrom}."
      },
      "setApprovalForAll(address,bool)": {
        "details": "See {IERC721-setApprovalForAll}."
      },
      "supportsInterface(bytes4)": {
        "details": "See {IERC165-supportsInterface}."
      },
      "symbol()": {
        "details": "See {IERC721Metadata-symbol}."
      },
      "tokenByIndex(uint256)": {
        "details": "See {IERC721Enumerable-tokenByIndex}."
      },
      "tokenMetadataURI(uint256)": {
        "returns": {
          "_0": "the metadata URI for the token"
        }
      },
      "tokenOfOwnerByIndex(address,uint256)": {
        "details": "See {IERC721Enumerable-tokenOfOwnerByIndex}."
      },
      "tokenURI(uint256)": {
        "details": "This function is an override of the base OZ implementation because we will return the tokenURI even if the media has been burned. In addition, this protocol does not support a base URI, so relevant conditionals are removed.",
        "returns": {
          "_0": "the URI for a token"
        }
      },
      "totalSupply()": {
        "details": "See {IERC721Enumerable-totalSupply}."
      },
      "transferFrom(address,address,uint256)": {
        "details": "See {IERC721-transferFrom}."
      },
      "transferOwnership(address)": {
        "details": "Transfers ownership of the contract to a new account (`newOwner`). Can only be called by the current owner."
      },
      "updateTokenMetadataURI(uint256,string)": {
        "details": "only callable by approved or owner"
      },
      "updateTokenURI(uint256,string)": {
        "details": "only callable by approved or owner"
      }
    },
    "title": "A media value system, with perpetual equity to creators",
    "version": 1
  },
  "userdoc": {
    "kind": "user",
    "methods": {
      "acceptBid(uint256,(uint256,address,address,address,(uint256)))": {
        "notice": "see IMedia"
      },
      "auctionTransfer(uint256,address)": {
        "notice": "see IMedia"
      },
      "burn(uint256)": {
        "notice": "Burn a token."
      },
      "configure(address)": {
        "notice": "Sets the market contract address. This address is the only permitted address that can call the mutable functions."
      },
      "constructor": {
        "notice": "On deployment, set the market contract address and register the ERC721 metadata interface"
      },
      "getRecentToken(address)": {
        "notice": "see IMedia"
      },
      "mint((string,string,bytes32,bytes32),((uint256),(uint256),(uint256)))": {
        "notice": "see IMedia"
      },
      "mintWithSig(address,(string,string,bytes32,bytes32),((uint256),(uint256),(uint256)),(uint256,uint8,bytes32,bytes32))": {
        "notice": "see IMedia"
      },
      "permit(address,uint256,(uint256,uint8,bytes32,bytes32))": {
        "notice": "See IMedia"
      },
      "removeAsk(uint256)": {
        "notice": "see IMedia"
      },
      "removeBid(uint256)": {
        "notice": "see IMedia"
      },
      "revokeApproval(uint256)": {
        "notice": "Revoke the approvals for a token. The provided `approve` function is not sufficient for this protocol, as it does not allow an approved address to revoke it's own approval. In instances where a 3rd party is interacting on a user's behalf via `permit`, they should revoke their approval once their task is complete as a best practice."
      },
      "setAsk(uint256,(uint256,address))": {
        "notice": "see IMedia"
      },
      "setBid(uint256,(uint256,address,address,address,(uint256)))": {
        "notice": "see IMedia"
      },
      "tokenExists(uint256)": {
        "notice": "Helper to check that token has not been burned or minted"
      },
      "tokenMetadataURI(uint256)": {
        "notice": "Return the metadata URI for a piece of media given the token URI"
      },
      "tokenURI(uint256)": {
        "notice": "return the URI for a particular piece of media with the specified tokenId"
      },
      "updateTokenMetadataURI(uint256,string)": {
        "notice": "see IMedia"
      },
      "updateTokenURI(uint256,string)": {
        "notice": "see IMedia"
      }
    },
    "notice": "This contract provides an interface to mint media with a market owned by the creator.",
    "version": 1
  },
  "storageLayout": {
    "storage": [
      {
        "astId": 4228,
        "contract": "src/Media.sol:Media",
        "label": "_supportedInterfaces",
        "offset": 0,
        "slot": "0",
        "type": "t_mapping(t_bytes4,t_bool)"
      },
      {
        "astId": 9089,
        "contract": "src/Media.sol:Media",
        "label": "_holderTokens",
        "offset": 0,
        "slot": "1",
        "type": "t_mapping(t_address,t_struct(UintSet)5629_storage)"
      },
      {
        "astId": 9092,
        "contract": "src/Media.sol:Media",
        "label": "_tokenOwners",
        "offset": 0,
        "slot": "2",
        "type": "t_struct(UintToAddressMap)4926_storage"
      },
      {
        "astId": 9096,
        "contract": "src/Media.sol:Media",
        "label": "_tokenApprovals",
        "offset": 0,
        "slot": "5",
        "type": "t_mapping(t_uint256,t_address)"
      },
      {
        "astId": 9102,
        "contract": "src/Media.sol:Media",
        "label": "_operatorApprovals",
        "offset": 0,
        "slot": "6",
        "type": "t_mapping(t_address,t_mapping(t_address,t_bool))"
      },
      {
        "astId": 9104,
        "contract": "src/Media.sol:Media",
        "label": "_name",
        "offset": 0,
        "slot": "7",
        "type": "t_string_storage"
      },
      {
        "astId": 9106,
        "contract": "src/Media.sol:Media",
        "label": "_symbol",
        "offset": 0,
        "slot": "8",
        "type": "t_string_storage"
      },
      {
        "astId": 9110,
        "contract": "src/Media.sol:Media",
        "label": "_tokenURIs",
        "offset": 0,
        "slot": "9",
        "type": "t_mapping(t_uint256,t_string_storage)"
      },
      {
        "astId": 9112,
        "contract": "src/Media.sol:Media",
        "label": "_baseURI",
        "offset": 0,
        "slot": "10",
        "type": "t_string_storage"
      },
      {
        "astId": 1625,
        "contract": "src/Media.sol:Media",
        "label": "_status",
        "offset": 0,
        "slot": "11",
        "type": "t_uint256"
      },
      {
        "astId": 1426,
        "contract": "src/Media.sol:Media",
        "label": "_owner",
        "offset": 0,
        "slot": "12",
        "type": "t_address"
      },
      {
        "astId": 12094,
        "contract": "src/Media.sol:Media",
        "label": "marketContract",
        "offset": 0,
        "slot": "13",
        "type": "t_address"
      },
      {
        "astId": 12098,
        "contract": "src/Media.sol:Media",
        "label": "previousTokenOwners",
        "offset": 0,
        "slot": "14",
        "type": "t_mapping(t_uint256,t_address)"
      },
      {
        "astId": 12102,
        "contract": "src/Media.sol:Media",
        "label": "tokenCreators",
        "offset": 0,
        "slot": "15",
        "type": "t_mapping(t_uint256,t_address)"
      },
      {
        "astId": 12107,
        "contract": "src/Media.sol:Media",
        "label": "_creatorTokens",
        "offset": 0,
        "slot": "16",
        "type": "t_mapping(t_address,t_struct(UintSet)5629_storage)"
      },
      {
        "astId": 12111,
        "contract": "src/Media.sol:Media",
        "label": "tokenContentHashes",
        "offset": 0,
        "slot": "17",
        "type": "t_mapping(t_uint256,t_bytes32)"
      },
      {
        "astId": 12115,
        "contract": "src/Media.sol:Media",
        "label": "tokenMetadataHashes",
        "offset": 0,
        "slot": "18",
        "type": "t_mapping(t_uint256,t_bytes32)"
      },
      {
        "astId": 12119,
        "contract": "src/Media.sol:Media",
        "label": "_tokenMetadataURIs",
        "offset": 0,
        "slot": "19",
        "type": "t_mapping(t_uint256,t_string_storage)"
      },
      {
        "astId": 12123,
        "contract": "src/Media.sol:Media",
        "label": "_contentHashes",
        "offset": 0,
        "slot": "20",
        "type": "t_mapping(t_bytes32,t_bool)"
      },
      {
        "astId": 12135,
        "contract": "src/Media.sol:Media",
        "label": "permitNonces",
        "offset": 0,
        "slot": "21",
        "type": "t_mapping(t_address,t_mapping(t_uint256,t_uint256))"
      },
      {
        "astId": 12139,
        "contract": "src/Media.sol:Media",
        "label": "mintWithSigNonces",
        "offset": 0,
        "slot": "22",
        "type": "t_mapping(t_address,t_uint256)"
      },
      {
        "astId": 12145,
        "contract": "src/Media.sol:Media",
        "label": "_tokenIdTracker",
        "offset": 0,
        "slot": "23",
        "type": "t_struct(Counter)3922_storage"
      }
    ],
    "types": {
      "t_address": {
        "encoding": "inplace",
        "label": "address",
        "numberOfBytes": "20"
      },
      "t_array(t_bytes32)dyn_storage": {
        "base": "t_bytes32",
        "encoding": "dynamic_array",
        "label": "bytes32[]",
        "numberOfBytes": "32"
      },
      "t_bool": {
        "encoding": "inplace",
        "label": "bool",
        "numberOfBytes": "1"
      },
      "t_bytes32": {
        "encoding": "inplace",
        "label": "bytes32",
        "numberOfBytes": "32"
      },
      "t_bytes4": {
        "encoding": "inplace",
        "label": "bytes4",
        "numberOfBytes": "4"
      },
      "t_mapping(t_address,t_bool)": {
        "encoding": "mapping",
        "key": "t_address",
        "label": "mapping(address => bool)",
        "numberOfBytes": "32",
        "value": "t_bool"
      },
      "t_mapping(t_address,t_mapping(t_address,t_bool))": {
        "encoding": "mapping",
        "key": "t_address",
        "label": "mapping(address => mapping(address => bool))",
        "numberOfBytes": "32",
        "value": "t_mapping(t_address,t_bool)"
      },
      "t_mapping(t_address,t_mapping(t_uint256,t_uint256))": {
        "encoding": "mapping",
        "key": "t_address",
        "label": "mapping(address => mapping(uint256 => uint256))",
        "numberOfBytes": "32",
        "value": "t_mapping(t_uint256,t_uint256)"
      },
      "t_mapping(t_address,t_struct(UintSet)5629_storage)": {
        "encoding": "mapping",
        "key": "t_address",
        "label": "mapping(address => struct EnumerableSet.UintSet)",
        "numberOfBytes": "32",
        "value": "t_struct(UintSet)5629_storage"
      },
      "t_mapping(t_address,t_uint256)": {
        "encoding": "mapping",
        "key": "t_address",
        "label": "mapping(address => uint256)",
        "numberOfBytes": "32",
        "value": "t_uint256"
      },
      "t_mapping(t_bytes32,t_bool)": {
        "encoding": "mapping",
        "key": "t_bytes32",
        "label": "mapping(bytes32 => bool)",
        "numberOfBytes": "32",
        "value": "t_bool"
      },
      "t_mapping(t_bytes32,t_bytes32)": {
        "encoding": "mapping",
        "key": "t_bytes32",
        "label": "mapping(bytes32 => bytes32)",
        "numberOfBytes": "32",
        "value": "t_bytes32"
      },
      "t_mapping(t_bytes32,t_uint256)": {
        "encoding": "mapping",
        "key": "t_bytes32",
        "label": "mapping(bytes32 => uint256)",
        "numberOfBytes": "32",
        "value": "t_uint256"
      },
      "t_mapping(t_bytes4,t_bool)": {
        "encoding": "mapping",
        "key": "t_bytes4",
        "label": "mapping(bytes4 => bool)",
        "numberOfBytes": "32",
        "value": "t_bool"
      },
      "t_mapping(t_uint256,t_address)": {
        "encoding": "mapping",
        "key": "t_uint256",
        "label": "mapping(uint256 => address)",
        "numberOfBytes": "32",
        "value": "t_address"
      },
      "t_mapping(t_uint256,t_bytes32)": {
        "encoding": "mapping",
        "key": "t_uint256",
        "label": "mapping(uint256 => bytes32)",
        "numberOfBytes": "32",
        "value": "t_bytes32"
      },
      "t_mapping(t_uint256,t_string_storage)": {
        "encoding": "mapping",
        "key": "t_uint256",
        "label": "mapping(uint256 => string)",
        "numberOfBytes": "32",
        "value": "t_string_storage"
      },
      "t_mapping(t_uint256,t_uint256)": {
        "encoding": "mapping",
        "key": "t_uint256",
        "label": "mapping(uint256 => uint256)",
        "numberOfBytes": "32",
        "value": "t_uint256"
      },
      "t_string_storage": {
        "encoding": "bytes",
        "label": "string",
        "numberOfBytes": "32"
      },
      "t_struct(Bytes32Set)5365_storage": {
        "encoding": "inplace",
        "label": "struct EnumerableSet.Bytes32Set",
        "members": [
          {
            "astId": 5364,
            "contract": "src/Media.sol:Media",
            "label": "_inner",
            "offset": 0,
            "slot": "0",
            "type": "t_struct(Set)5171_storage"
          }
        ],
        "numberOfBytes": "64"
      },
      "t_struct(Counter)3922_storage": {
        "encoding": "inplace",
        "label": "struct Counters.Counter",
        "members": [
          {
            "astId": 3921,
            "contract": "src/Media.sol:Media",
            "label": "_value",
            "offset": 0,
            "slot": "0",
            "type": "t_uint256"
          }
        ],
        "numberOfBytes": "32"
      },
      "t_struct(Map)4696_storage": {
        "encoding": "inplace",
        "label": "struct EnumerableMap.Map",
        "members": [
          {
            "astId": 4691,
            "contract": "src/Media.sol:Media",
            "label": "_keys",
            "offset": 0,
            "slot": "0",
            "type": "t_struct(Bytes32Set)5365_storage"
          },
          {
            "astId": 4695,
            "contract": "src/Media.sol:Media",
            "label": "_values",
            "offset": 0,
            "slot": "2",
            "type": "t_mapping(t_bytes32,t_bytes32)"
          }
        ],
        "numberOfBytes": "96"
      },
      "t_struct(Set)5171_storage": {
        "encoding": "inplace",
        "label": "struct EnumerableSet.Set",
        "members": [
          {
            "astId": 5166,
            "contract": "src/Media.sol:Media",
            "label": "_values",
            "offset": 0,
            "slot": "0",
            "type": "t_array(t_bytes32)dyn_storage"
          },
          {
            "astId": 5170,
            "contract": "src/Media.sol:Media",
            "label": "_indexes",
            "offset": 0,
            "slot": "1",
            "type": "t_mapping(t_bytes32,t_uint256)"
          }
        ],
        "numberOfBytes": "64"
      },
      "t_struct(UintSet)5629_storage": {
        "encoding": "inplace",
        "label": "struct EnumerableSet.UintSet",
        "members": [
          {
            "astId": 5628,
            "contract": "src/Media.sol:Media",
            "label": "_inner",
            "offset": 0,
            "slot": "0",
            "type": "t_struct(Set)5171_storage"
          }
        ],
        "numberOfBytes": "64"
      },
      "t_struct(UintToAddressMap)4926_storage": {
        "encoding": "inplace",
        "label": "struct EnumerableMap.UintToAddressMap",
        "members": [
          {
            "astId": 4925,
            "contract": "src/Media.sol:Media",
            "label": "_inner",
            "offset": 0,
            "slot": "0",
            "type": "t_struct(Map)4696_storage"
          }
        ],
        "numberOfBytes": "96"
      },
      "t_uint256": {
        "encoding": "inplace",
        "label": "uint256",
        "numberOfBytes": "32"
      }
    }
  }
}